:020000040800F2
:10000000000002200D3500087D2F0008852F000814
:100010008D2F0008952F00089D2F0008000000007C
:10002000000000000000000000000000A52F0008F4
:10003000B32F000800000000C12F0008CF2F0008D8
:100040005D3500085D3500085D3500085D35000848
:100050005D3500085D350008DD2F0008B13000086F
:100060008531000859320008893200085D350008E2
:100070005D3500085D3500085D3500085D35000818
:10008000C13200085D3500085D3500085D350008A7
:100090005D3500085D3500085D350008D532000883
:1000A000393300085D3500085D3500085D3500080E
:1000B0006D3300085D3500085D3500085D350008CA
:1000C0005D3500085D3500085D3500085D350008C8
:1000D0005D3500085D350008953300085D35000882
:1000E000A93300085D3500085D3500085D3500085E
:1000F0005D3500085D3500085D3500085D35000898
:100100005D3500085D3500080D3400085D350008D8
:100110005D3500085D350008353400084D340008B1
:100120005D3500085D3500085D3500085D35000867
:100130005D3500085D3500085D3500085D35000857
:100140005D3500085D3500085D3500087134000834
:100150005D3500085D3500085D3500085D35000837
:100160005D3500085D3500085D3500085D35000827
:100170005D3500085D3500085D35000800000000B1
:080180005D3500085D35000843
:1001880010B5054C237833B9044B13B10448AFF3C9
:1001980000800123237010BDF8010020000000003A
:1001A800C8C9000808B5034B1BB103490348AFF39E
:1001B800008008BD00000000FC010020C8C900083C
:1001C80053B94AB9002908BF00281CBF4FF0FF31B6
:1001D8004FF0FF3000F06AB9ADF1080C6DE904CEBC
:1001E80000F006F8DDF804E0DDE9022304B070470A
:1001F8002DE9F047089D0C46002B4ED194468C45BE
:100208008646B2FA82F262D94AB1C2F1200391401D
:1002180020FA03F30CFA02FC194300FA02FE4FEA33
:100228001C471FFA8CF6B1FBF7F44FEA1E4307FB95
:10023800141143EA014304FB06F199420AD91CEB65
:10024800030304F1FF3080F01281994240F20F81DC
:10025800023C6344591A1FFA8EF3B1FBF7F007FB0F
:10026800101143EA014300FB06F69E420AD91CEB33
:10027800030300F1FF3180F0FC809E4240F2F980D8
:10028800634402389B1B40EA044000211DB1D3405F
:100298000022C5E90032BDE8F0878B4205D90DB1CF
:1002A800C5E9000100210846F5E7B3FA83F1002902
:1002B80046D1A34202D39042C0F0F080861A64EB84
:1002C80003030120002DE6D0C5E90063E3E7002A17
:1002D80040F09080A1EB0C044FEA1C481FFA8CF701
:1002E8000121B4FBF8F64FEA1E4308FB164443EA23
:1002F800044307FB06F0984208D91CEB030306F1F8
:10030800FF3402D2984200F2CD8026461C1A1FFA0A
:100318008EF3B4FBF8F008FB104443EA044300FBF7
:1003280007F79F4208D91CEB030300F1FF3402D200
:100338009F4200F2B0802046DB1B40EA0640A5E75A
:10034800C1F120068B4022FA06F71F4320FA06FC6B
:1003580004FA01F343EA0C03F44000FA01F8380CFC
:100368004FEA1349B4FBF0FE1FFA87FC00FB1E445A
:1003780049EA04440EFB0CF9A14502FA01F20AD934
:100388003C190EF1FF3A80F08480A14540F281804B
:10039800AEF1020E3C44A4EB09041FFA83F9B4FB46
:1003A800F0F300FB134449EA044403FB0CFCA445A6
:1003B80007D93C1903F1FF3067D2A44565D9023B40
:1003C8003C4443EA0E40A0FB0293A4EB0C049C427D
:1003D800CE469C4651D34ED055B1B8EB0E0364EBD4
:1003E8000C0404FA06F6CB401E43CC40C5E9006471
:1003F800002150E7C2F1200320FA03F10CFA02FCB5
:1004080024FA03F394400C434FEA1C4800FA02FE16
:100418001FFA8CF7B3FBF8F008FB1031230C43EA02
:10042800014300FB07F1994208D91CEB030300F1D3
:10043800FF362CD299422AD9023863445B1AA4B2F7
:10044800B3FBF8F108FB113344EA034401FB07F35B
:10045800A34208D91CEB040401F1FF3613D2A342CE
:1004680011D902396444E41A41EA004139E70446E3
:10047800F0E6084606E7C845AED2B9EB020E63EBD4
:10048800070C0138A8E73146EDE7034699E73046FF
:10049800D4E7D6467FE7634402384DE7064623464D
:1004A80008460FE7023E634430E700BF704700BFCD
:1004B80080B500AF41F6583003F0C0F800BF0821FE
:1004C800224803F08FFF0346002BF8D14FF48072C7
:1004D8001F49204807F07DF81F4805F013FF1F4803
:1004E80005F010FF1E4805F00DFF1E4805F00AFF35
:1004F8001D4805F007FF4CF25031322001F0BAF8E0
:100508004CF25031322001F0E3F842F210713220FF
:1005180001F00CF9154B1B6800225A620E4B1B6840
:1005280000225A62124B1B6800225A620C4B1B684D
:1005380000225A620F4B1B6800225A62074B1B6845
:1005480000225A6200F018F800BF80BD000802407F
:100558001803002064090020FC0700201C09002063
:100568006C070020440800208C080020D4080020D4
:1005780024070020B407002080B500AF3F4B1A685D
:10058800937843F0080393703C4B1A6893786FF3A1
:100598008203937004213A4803F024FF0346012B99
:1005A8000DD1384B04229A7142F210714FF4FA605F
:1005B80001F0BCF840F6C41001F0FCF90CE0314B36
:1005C80003229A7142F210714FF47A7001F0AEF87A
:1005D80044F6382001F0CCF900BF2A4B9B79052B53
:1005E800FBD100BF274B9B79002BFBD1012124486D
:1005F80003F0F8FE0346012B0DD1234B04229A7118
:100608004CF2503141F2883001F034F84FF4FA607E
:1006180001F048F90CE01C4B03229A714CF250315E
:100628004FF47A6001F026F84DF6C02001F018F971
:100638000221134803F0D6FE0346012B0DD1134BBC
:1006480004229A714CF250314FF47A6001F040F86C
:100658004FF4FA6001F048F90CE00C4B03229A7150
:100668004CF250314FF4FA6001F032F848F2D040C1
:1006780001F05CF901F06CFD00BF80BD04000020B2
:1006880000080240F4000020E4000020EC000020F4
:1006980080B400AF074B1B78DBB2002B04D0064BAD
:1006A8001B68044B00221A7000BFBD465DF8047B2E
:1006B800704700BF140A0020100A002080B500AF60
:1006C80000F09EF800F0C4F800BF80BD80B500AF10
:1006D80001F0EAFA01F05EFA01F070FB00BF80BD9C
:1006E80080B483B000AF0346FB80054B1B68FA88D3
:1006F8001A8000BF0C37BD465DF8047B704700BF09
:100708000800002080B483B000AF0346FB80054B8F
:100718001B68FA88DA8000BF0C37BD465DF8047B99
:10072800704700BF0800002080B483B000AF0346C4
:10073800FB80054B1B68FA889A8100BF0C37BD46C1
:100748005DF8047B704700BF0800002080B400AF4C
:10075800034B1B681B881846BD465DF8047B704731
:100768000C00002080B400AF034B1B68DB881846E0
:10077800BD465DF8047B70470C00002080B400AFD4
:10078800034B1B689B891846BD465DF8047B704780
:100798000C00002080B483B000AF0346FB80054BFB
:1007A8001B68FA889A8000BF0C37BD465DF8047B49
:1007B800704700BF0800002080B483B000AF034634
:1007C800FB80054B1B68FA885A8100BF0C37BD4671
:1007D8005DF8047B704700BF0800002080B483B038
:1007E80000AF0346FB80054B1B68FA881A8200BFDE
:1007F8000C37BD465DF8047B704700BF0800002039
:1008080080B582B000AF104B1B681B881A4692FA5D
:10081800A2F3B3FA83F3002A01D14FF0FF33013377
:10082800FB80FB88002B0AD0FB88013BFB80FB8800
:100838000F2B04D8FB88054A52F82330984700BF8D
:100848000837BD4680BD00BF00000020A40000207E
:1008580080B584B000AF244B1B681B68BB60234B7A
:100868001B68BA6853407B607B68002B37D0002335
:10087800FB732DE0FB7B7A6822FA03F303F0010394
:10088800002B22D0FB7BBA6822FA03F303F00103A2
:10089800002B0DD0FB7B164A52F83300FB7B144A21
:1008A800DB0013449B880022194603F0B3FD0CE0DB
:1008B800FB7B0F4A52F83300FB7B0D4ADB001344E5
:1008C8009B880122194603F0A5FDFB7B0133FB73CE
:1008D800FB7B112BCED9054ABB68136000E000BF33
:1008E8001037BD4680BD00BF100000201402002054
:1008F8001400002080B400AF00BFBD465DF8047B43
:100908007047000080B500AF464B9B79002B40F044
:100918008780454B9B79002B40F08280434B9B7925
:10092800002B7DD1424B1A68937843F008039370EB
:100938003F4B1A6893786FF38203937004213D4804
:1009480003F050FD0346012B0DD1384B04229A7158
:1009580042F210714FF4FA6000F0E8FE40F6C4105D
:1009680001F028F80CE0314B03229A7142F2107121
:100978004FF47A7000F0DAFE44F6382000F0F8FF01
:1009880000BF2A4B9B79052BFBD100BF274B9B79D6
:10099800002BFBD10121274803F024FD0346012B3E
:1009A8000DD1204B04229A714CF2503141F288301B
:1009B80000F060FE4FF4FA6000F074FF0CE0194B91
:1009C80003229A714CF250314FF47A6000F052FED3
:1009D8004DF6C02000F044FF0221164803F002FD46
:1009E8000346012B0DD1104B04229A714CF2503161
:1009F8004FF47A6000F06CFE4FF4FA6000F074FF78
:100A08000CE0094B03229A714CF250314FF4FA6012
:100A180000F05EFE48F2D04000F088FF01F098FB3D
:100A280000BF80BDE4000020EC000020F40000209E
:100A38000400002000080240B0B500AF114B1A684E
:100A480013786FF3410313700F4B9B79002B17D169
:100A58000E4B9B79002B13D10D4B9B79002B0FD19B
:100A6800FFF774FE03461C46FFF77CFE03461D464F
:100A7800FFF784FE03461A462946204600F0D8FFB1
:100A880000BFB0BD00000020E4000020EC00002002
:100A9800F400002080B400AF00BFBD465DF8047BC1
:100AA800704780B400AF00BFBD465DF8047B704757
:100AB80080B400AF00BFBD465DF8047B70470000FE
:100AC80080B500AF0A4B5B889BB2002B0DD0084B5A
:100AD8009B79002B0AD1064B02229A71044B5B8842
:100AE8009BB2184600F0BCFE00E000BF80BD00BF0E
:100AF800E400002080B500AF0C4B5B889BB24DF240
:100B0800D762934210D8094B9B79002B0DD1074B24
:100B180002229A71054B5B889AB2054B9B1A9BB2CD
:100B2800184600F0BFFE00E000BF80BDE4000020D2
:100B3800D8D6FFFF80B500AF0C4B5B889BB248F25C
:100B4800DB22934210D8094B9B79002B0DD1074B20
:100B580002229A71054B5B889AB2054B9B1A9BB28D
:100B6800184600F0C1FE00E000BF80BDEC00002088
:100B7800DC82FFFF80B500AF0A4B5B889BB2002B7D
:100B88000DD0084B9B79002B0AD1064B02229A7193
:100B9800044B5B889BB2184600F0C8FE00E000BF1B
:100BA80080BD00BFEC00002080B500AF0A4B5B8819
:100BB8009BB2002B0DD0084B9B79002B0AD1064B1A
:100BC80002229A71044B5B889BB2184600F0D0FE53
:100BD80000E000BF80BD00BFF400002080B500AF7A
:100BE8000D4B5B889BB244F24F62934211D80A4B7B
:100BF8009B79002B0ED1084B02229A71064B5B8819
:100C08009BB2C3F58C4350339BB2184600F0D2FE1A
:100C180000E000BF80BD00BFF400002080B485B0B4
:100C280000AF78600B467B804FF6FF73FB81002393
:100C3800BB8122E0BB897A6813441B781A46FB897A
:100C48005340FB810023FB7211E0FB8903F0010391
:100C5800002B06D0FB895B089AB20D4B5340FB81F1
:100C680002E0FB895B08FB81FB7A0133FB72FB7AAC
:100C7800072BEAD9BB890133BB81BA897B889A42A1
:100C8800D8D3FB8918461437BD465DF8047B7047F6
:100C980001A0FFFF80B500AF244B1B78012B43D187
:100CA800224B5B78013B0F2B3AD801A252F823F074
:100CB800F90C0008FF0C0008050D00080B0D0008D2
:100CC800110D0008170D0008290D0008290D00084E
:100CD800290D0008290D0008290D0008290D000814
:100CE800290D0008290D00081D0D0008230D000816
:100CF80000F06CF918E000F017FA15E000F07EF843
:100D080012E000F0EFF80FE000F084FB0CE000F0D8
:100D180037FB09E000F0F8FB06E000F0B5FA03E065
:100D2800012000F04BF800BF00BF80BD1803002071
:100D380080B584B000AF786039603B689BB21946D3
:100D48007868FFF76BFF0346FB813B687A681344BA
:100D5800FA89D2B21A70FB891B0A99B23B6801332F
:100D68007A681344CAB21A70124B1B78DBB2012B93
:100D78000AD13B689BB202339AB24FF47A7379680E
:100D88000D4806F09BFB10E00A4B1B78DBB2022BE8
:100D98000BD100BF3B689BB202339BB219467868FF
:100DA8000BF086F90346012BF4D000BF1037BD467F
:100DB80080BD00BF140A00206409002080B582B0FD
:100DC80000AF0346FB710B4B1A780B4B1A70094B9B
:100DD8005B7863F07F03DAB2074B5A70064AFB79F7
:100DE800937003210448FFF7A3FF00BF0837BD46EF
:100DF80080BD00BF180300201802002080B584B011
:100E080000AF354B9B781B021AB2334BDB781BB211
:100E180013431BB2FB81304B1B791B021AB22E4BBA
:100E28005B791BB213431BB27B807B88002B03D0FA
:100E38007B88B3F5967F04D30320FFF7BFFF002319
:100E480045E0FA897B8813449BB2013B3B803B8891
:100E5800B3F5967F04D30220FFF7B0FF002336E0F6
:100E68001E4B01221A701C4B5A781C4B5A707B88F7
:100E7800DBB25B00DAB2194B9A700323BB60002324
:100E88007B601BE0FB89164A32F813301B0A99B2C3
:100E9800BB685A1CBA60C9B2104AD154FB89104ABF
:100EA80032F81310BB685A1CBA60C9B20B4AD15445
:100EB800FB890133FB817B6801337B607B887A681F
:100EC8009A42DFDBB9680548FFF732FF012318466D
:100ED8001037BD4680BD00BF18030020180200204F
:100EE800CC04002080B584B000AF354B9B781B0242
:100EF8001AB2334BDB781BB213431BB2FB81304B66
:100F08001B791B021AB22E4B5B791BB213431BB21F
:100F18007B807B88002B03D07B88B3F5967F04D336
:100F28000320FFF74BFF002345E0FA897B88134431
:100F38009BB2013B3B803B88B3F5967F04D30220EC
:100F4800FFF73CFF002336E01E4B01221A701C4BB2
:100F58005A781C4B5A707B88DBB25B00DAB2194BAB
:100F68009A700323BB6000237B601BE0FB89164A51
:100F780032F813301B0A99B2BB685A1CBA60C9B25E
:100F8800104AD154FB89104A32F81310BB685A1C16
:100F9800BA60C9B20B4AD154FB890133FB817B6823
:100FA80001337B607B887A689A42DFDBB968054841
:100FB800FFF7BEFE012318461037BD4680BD00BFAF
:100FC80018030020180200201804002080B588B0FB
:100FD80000AF524B9B781B021AB2504BDB781BB206
:100FE80013431BB27B814D4B1B791B021AB24B4B2F
:100FF8005B791BB213431BB23B813B89002B03D0A7
:101008003B89B3F5FA6F04D90320FFF7D7FE002315
:1010180080E07A893B8913449BB2013BFB80FB88C3
:10102800C72B04D90220FFF7C9FE002372E04FF452
:10103800807200213A480BF097FC394B01221A7054
:10104800364B5A78364B5A703B89DB089BB2DBB279
:101058003A8902F0070292B2002A14BF0122002244
:10106800D2B21344DAB22E4B9A700323FB617B8908
:10107800DB089BB2BB617B8903F00703FB8200237B
:101088003B610023FB6033E0254AFB6913441B786E
:101098005AB22449BB690B441B781946FB8A41FAAA
:1010A80003F303F001013B6901FA03F35BB2134355
:1010B8005BB2D9B21A4AFB6913440A461A703B69F3
:1010C80001333B61FB8A0133FB823B69072B04DD5B
:1010D80000233B61FB690133FB61FB8A072B04D9C1
:1010E8000023FB82BB690133BB61FB680133FB60F2
:1010F8003B89FA689A42C7DB3B8903F007039BB236
:10110800002B02D0FB690133FB61F9690448FFF742
:101118000FFE012318462037BD4680BD1803002066
:1011280018020020B004002080B588B000AF534BEF
:101138009B781B021AB2514BDB781BB213431BB2CC
:101148007B814E4B1B791B021AB24C4B5B791BB24D
:1011580013431BB23B813B89002B03D03B89B3F57A
:10116800FA6F04D90320FFF729FE002381E07A896A
:101178003B8913449BB2013BFB80FB88B3F5C87FD6
:1011880004D90220FFF71AFE002372E04FF48072A0
:1011980000213B480BF0E8FB394B01221A70374B12
:1011A8005A78374B5A703B89DB089BB2DBB23A89D5
:1011B80002F0070292B2002A14BF01220022D2B222
:1011C8001344DAB22E4B9A700323FB617B89DB0848
:1011D8009BB2BB617B8903F00703FB8200233B6161
:1011E8000023FB6033E0264AFB6913441B785AB29C
:1011F8002449BB690B441B781946FB8A41FA03F35F
:1012080003F001013B6901FA03F35BB213435BB2DC
:10121800D9B21B4AFB6913440A461A703B69013369
:101228003B61FB8A0133FB823B69072B04DD00230A
:101238003B61FB690133FB61FB8A072B04D900235F
:10124800FB82BB690133BB61FB680133FB603B89EF
:10125800FA689A42C7DB3B8903F007039BB2002B6D
:1012680002D0FB690133FB61F9690548FFF760FDAE
:10127800012318462037BD4680BD00BF1803002053
:10128800180200207C04002080B584B000AF394BE0
:101298009B781B021AB2374BDB781BB213431BB285
:1012A800FB81344B1B791B021AB2324B5B791BB2A0
:1012B80013431BB27B807B88002B03D07B88B3F55C
:1012C800967F04D30320FFF779FD00234DE0FA89C8
:1012D8007B8813449BB2013B3B803B88B3F5967FE8
:1012E80004D30220FFF76AFD00233EE00723BB601A
:1012F80000237B6019E0BB685A1CBA601D4AD35CA6
:101308001B021AB2BB68591CB9601A49CB5C1BB2E4
:10131800134319B2FB895A1CFA811A4689B2164B33
:1013280023F812107B6801337B607B887A689A42C5
:10133800E1DB124B01221A700E4B5A780F4B5A7090
:101348000C4B9A780D4B9A700A4BDA780B4BDA7083
:10135800084B1A79094B1A71064B5A79074B5A717F
:1013680006210648FFF7E4FC012318461037BD465E
:1013780080BD00BF18030020CC0400201802002004
:1013880080B582B000AF204B9B781B021AB21E4B6F
:10139800DB781BB213431BB2FB80FB88B3F5967F47
:1013A80004D30220FFF70AFD002329E0164B1B791E
:1013B8001B021AB2144B5B791BB213431AB2FB8897
:1013C80091B2124A22F81310114B01221A700E4BD7
:1013D8005A780F4B5A700C4B9A780D4B9A700A4BEF
:1013E800DA780B4BDA70084B1A79094B1A71064BED
:1013F8005A79074B5A7106210548FFF799FC0123D2
:1014080018460837BD4680BD18030020CC040020CC
:101418001802002080B584B000AF384B9B781B02BF
:101428001AB2364BDB781BB213431BB2FB81FB8924
:10143800C72B04D90220FFF7C1FC00235AE0FB891F
:10144800DB089BB2BB60FB8903F00703FB802B4BD7
:101458001B79FF2B16D1294B5B79002B12D1284A17
:10146800BB6813441B785AB2FB88012101FA03F3C5
:101478005BB213435BB2D9B2214ABB6813440A4634
:101488001A701BE01D4B1B79002B17D11B4B5B7986
:10149800002B13D11A4ABB6813441B785AB2FB8835
:1014A800012101FA03F35BB2DB435BB213405BB289
:1014B800D9B2134ABB6813440A461A70114B012269
:1014C8001A700E4B5A780F4B5A700C4B9A780D4B7A
:1014D8009A700A4BDA780B4BDA70084B1A79094B79
:1014E8001A71064B5A79074B5A7106210548FFF7BE
:1014F8001FFC012318461037BD4680BD1803002085
:10150800B00400201802002080B588B000AF564B08
:101518009B781B021AB2544BDB781BB213431BB2E5
:101528007B81514B1B791B021AB24F4B5B791BB263
:1015380013431BB23B813B89002B03D03B89B3F596
:10154800F66F04D90320FFF739FC002388E07A8975
:101558003B8913449BB2013BFB80FB88C72B04D912
:101568000220FFF72BFC00237AE07B89DB089BB283
:10157800FB617B8903F007037B8300237B610723DF
:101588003B610023FB604BE0374A3B6913441B78FF
:101598001A467B6942FA03F303F00103002B12D0C9
:1015A800324AFB6913441B785AB27B8B012101FA3A
:1015B80003F35BB213435BB2D9B22C4AFB69134401
:1015C8000A461A7013E0294AFB6913441B785AB279
:1015D8007B8B012101FA03F35BB2DB435BB213405F
:1015E8005BB2D9B2214AFB6913440A461A707B8B55
:1015F80001337B837B6901337B617B69072B04DDC6
:1016080000237B613B6901333B617B8B072B04D94A
:1016180000237B83FB690133FB61FB680133FB60BB
:101628003B89FA689A42AFDB114B01221A700E4BC4
:101638005A780F4B5A700C4B9A780D4B9A700A4B8C
:10164800DA780B4BDA70084B1A79094B1A71064B8A
:101658005A79074B5A7106210548FFF769FB0123A0
:1016680018462037BD4680BD18030020B00400206E
:101678001802002080B483B000AF03460A46FB80FE
:101688001346BB80FA88BB889A4201D9BB88FB8085
:10169800FA880C4B1B680C49B1FBF2F2DA62FB8842
:1016A800094AB2FBF3F3074AD360FA88054B1B6873
:1016B8000649B1FBF2F25A6300BF0C37BD465DF82C
:1016C800047B7047D408002080841E0040420F002D
:1016D80080B483B000AF03460A46FB801346BB8044
:1016E800FA88BB889A4201D9BB88FB80FA880C4BE0
:1016F8001B680C49B1FBF2F2DA62FB88094AB2FBBB
:10170800F3F3074AD360FA88054B1B680649B1FB17
:10171800F2F25A6300BF0C37BD465DF8047B704790
:101728002407002080841E0040420F0080B483B04C
:1017380000AF03460A46FB801346BB80FA88BB8885
:101748009A4201D9BB88FB80FA880C4B1B680C496C
:10175800B1FBF2F2DA62FB88094AB2FBF3F3074AFB
:10176800D360FA88054B1B680649B1FBF2F2DA63CD
:1017780000BF0C37BD465DF8047B7047B4070020F6
:1017880040420F0020A1070080B500AF0122802150
:10179800044802F03FFE0021034804F073FE00BF36
:1017A80080BD00BF00080240D408002080B500AF0B
:1017B80000228021044802F02DFE0021034804F095
:1017C80061FE00BF80BD00BF00080240D4080020B1
:1017D80080B500AF00224FF40071044802F01AFEF1
:1017E8000021034804F04EFE00BF80BD0000024007
:1017F8002407002080B500AF01224FF4007104488F
:1018080002F008FE0021034804F03CFE00BF80BD42
:10181800000002402407002080B500AF01224FF4E9
:101828000071044802F0F6FD0821034804F02AFE7E
:1018380000BF80BD00080240B407002080B500AF9B
:1018480000224FF40071044802F0E4FD0821034827
:1018580004F018FE00BF80BD00080240B407002055
:1018680080B582B000AF0346FB800B4BFF221A7095
:101878000A4B1B6800225A62FB885A1E084B1B68D9
:10188800DA62FB88013B1A46054BDA60FFF77CFFFA
:1018980000BF0837BD4680BDE4000020D408002002
:1018A800FC07002080B582B000AF0346FB800B4BDD
:1018B80001221A700A4B1B6800225A62FB885A1EC2
:1018C800084B1B68DA62FB88013B1A46054BDA6055
:1018D800FFF76CFF00BF0837BD4680BDE40000205D
:1018E800D4080020FC07002080B582B000AF034672
:1018F800FB800B4B01221A700A4B1B6800225A62AC
:10190800FB885A1E084B1B68DA62FB88013B1A46A3
:10191800054BDA60FFF75CFF00BF0837BD4680BDA6
:10192800EC000020240700206C07002080B582B05E
:1019380000AF0346FB800B4BFF221A700A4B1B6853
:1019480000225A62FB885A1E084B1B68DA62FB8821
:10195800013B1A46054BDA60FFF74CFF00BF08371A
:10196800BD4680BDEC000020240700206C07002045
:1019780080B582B000AF0346FB800B4BFF221A7084
:101988000A4B1B6800225A62FB885A1E084B1B68C8
:10199800DA62FB88013B1A46054BDA60FFF73CFF29
:1019A80000BF0837BD4680BDF4000020B407002002
:1019B8001C09002080B582B000AF0346FB800B4BAA
:1019C80001221A700A4B1B6800225A62FB885A1EB1
:1019D800084B1B68DA62FB88013B1A46054BDA6044
:1019E800FFF72CFF00BF0837BD4680BDF40000207C
:1019F800B40700201C09002080B483B000AF034660
:101A08000A46FB801346BB80FA88BB889A4204D9F1
:101A1800FA88BB88D31A9BB203E0BA88FB88D31A2A
:101A28009BB218460C37BD465DF8047B7047000032
:101A380080B584B000AF0346FB800B46BB801346DD
:101A48007B80FB884DF2D862934200F29780BB8876
:101A580048F2DC22934200F291807B8844F2506283
:101A6800934200F28B80474B5B889BB2FA88114601
:101A78001846FFF7C1FF0346FB81FB89012B1DD9DF
:101A8800404B9B79002B19D13F4B1B685B884CF26C
:101A980050311846FFF7EEFD3A4B01229A71394B47
:101AA8005B889BB2FA889A4204D2FB891846FFF7F2
:101AB800D7FE03E0FB891846FFF7F4FE334B5B883B
:101AC8009BB2BA8811461846FFF796FF0346BB81BA
:101AD800BB89012B1DD92D4B9B79002B19D12A4B82
:101AE8001B681B894CF250311846FFF7F1FD274B54
:101AF80001229A71254B5B889BB2BA889A4204D21C
:101B0800BB891846FFF712FF03E0BB891846FFF7A9
:101B1800EBFE00BF1B4B9B79002BFBD11B4B9B792A
:101B2800002BF7D11A4B5B889BB27A88114618466E
:101B3800FFF762FF03467B817B89012B1FD9144B7A
:101B48009B79002B1BD1104B1B68DB8942F210716B
:101B58001846FFF7EBFD0E4B01229A710C4B5B8880
:101B68009BB27A889A4204D27B891846FFF700FF15
:101B780005E07B891846FFF71DFF00E000BF10371E
:101B8800BD4680BDE40000200C000020EC000020D1
:101B9800F400002080B500AF3F4B9B791846FEF754
:101BA800F9FD3D4B9B79052B73D801A252F823F020
:101BB800951C0008D11B0008031C00089B1C00088A
:101BC8009B1C00087F1C0008334B9B889AB2324B41
:101BD8001B785BB299B2314B1B685B6A9BB211FBF5
:101BE80003F39BB213449AB22B4B5A802A4B5B885F
:101BF8009BB21846FEF774FD4BE0274B9B889AB2C0
:101C0800254B1B785BB299B2244B1B685B6A9BB26D
:101C180011FB03F39BB213449AB21F4B5A801F4B1C
:101C28001B685B6A9BB232339BB24CF25031184648
:101C3800FFF720FD184B5B889BB21846FEF750FD56
:101C4800174B1B685B7803F00103DBB2002B1FD135
:101C5800134B1B685B7803F00203DBB2002B17D130
:101C6800104B1B685A6A0F4B1B685B6B9A420FD369
:101C780000F02EF90CE04CF250314FF47A70FFF777
:101C8800F9FC4DF2D860FFF7EBFD02E000BF00E081
:101C980000BF00BF80BD00BFE4000020FC0700209B
:101CA80000000020D408002080B500AF3F4B9B798E
:101CB8001846FEF781FD3D4B9B79052B73D801A291
:101CC80052F823F0A91D0008E51C0008171D00089C
:101CD800AF1D0008AF1D0008931D0008334B9B88FB
:101CE8009AB2324B1B785BB299B2314B1B685B6A74
:101CF8009BB211FB03F39BB213449AB22B4B5A804D
:101D08002A4B5B889BB21846FEF7FCFC4BE0274B3E
:101D18009B889AB2254B1B785BB299B2244B1B68FF
:101D28005B6A9BB211FB03F39BB213449AB21F4B3D
:101D38005A801E4B5B889BB21846FEF7E3FC1C4B8F
:101D48001B685B6A9BB232339BB24CF25031184627
:101D5800FFF7BEFC174B1B685B7803F00803DBB288
:101D6800002B1FD1134B1B685B7803F00403DBB215
:101D7800002B17D1104B1B685A6A0F4B1B685B6B03
:101D88009A420FD300F004F90CE04CF250314FF4B2
:101D98007A70FFF79DFC48F2DC20FFF7C7FD02E0F0
:101DA80000BF00E000BF00BF80BD00BFEC00002006
:101DB8006C070020000000202407002080B500AF39
:101DC8003F4B9B791846FEF709FD3D4B9B79052B48
:101DD80073D801A252F823F0BD1E0008F91D0008AF
:101DE8002B1E0008C31E0008C31E0008A71E0008FB
:101DF800334B9B889AB2324B1B785BB299B2314B0A
:101E08001B685B6A9BB211FB03F39BB213449AB243
:101E18002B4B5A802A4B5B889BB21846FEF784FCF2
:101E28004BE0274B9B889AB2254B1B785BB299B243
:101E3800244B1B685B6A9BB211FB03F39BB21344F0
:101E48009AB21F4B5A801E4B5B889BB21846FEF70E
:101E58006BFC1C4B1B685B6A9BB232339BB242F231
:101E680010711846FFF762FC174B1B685B7803F08C
:101E78001003DBB2002B1FD1134B1B685B7803F0F8
:101E88002003DBB2002B17D1104B1B685A6A0F4B8B
:101E98001B68DB6B9A420FD300F0DAF80CE042F2D1
:101EA80010714FF4FA70FFF741FC44F25060FFF7ED
:101EB8005FFD02E000BF00E000BF00BF80BD00BFC3
:101EC800F40000201C09002000000020B4070020B6
:101ED80080B500AF00212B4804F09CFB2A4B9B796E
:101EE800042B3CD0042B3EDC012B1ED0022B3AD114
:101EF800254B9B889AB2244B1B785BB299B2234B33
:101F08001B685B6A9BB211FB03F39BB213449AB242
:101F18001D4B5A801C4B5B889BB21846FEF7E0FBB2
:101F28001A4B1B6800225A621EE0174B9B889AB214
:101F3800154B1B785BB299B2144B1B68DB6A0133F3
:101F48009BB211FB03F39BB213449AB20E4B5A8017
:101F58000D4B5B889BB21846FEF7C2FB04E00A4BA8
:101F680005229A710DE000BF074B00229A71064BBB
:101F78009B791846FEF70EFC034B5B889AB2024B1E
:101F88009A8080BDD4080020E4000020FC070020CF
:101F980080B500AF00212B4804F03CFB2A4B9B790D
:101FA800042B3CD0042B3EDC012B1ED0022B3AD153
:101FB800254B9B889AB2244B1B785BB299B2234B72
:101FC8001B685B6A9BB211FB03F39BB213449AB282
:101FD8001D4B5A801C4B5B889BB21846FEF792FB40
:101FE8001A4B1B6800225A621EE0174B9B889AB254
:101FF800154B1B785BB299B2144B1B68DB6A013333
:102008009BB211FB03F39BB213449AB20E4B5A8056
:102018000D4B5B889BB21846FEF774FB04E00A4B35
:1020280005229A710DE000BF074B00229A71064BFA
:102038009B791846FEF7C0FB034B5B889AB2024BAC
:102048009A8080BD24070020EC0000206C07002047
:1020580080B500AF08212B4804F0DCFA2A4B9B79A5
:10206800042B3CD0042B3EDC012B1ED0022B3AD192
:10207800254B9B889AB2244B1B785BB299B2234BB1
:102088001B685B6A9BB211FB03F39BB213449AB2C1
:102098001D4B5A801C4B5B889BB21846FEF744FBCD
:1020A8001A4B1B6800225A621EE0174B9B889AB293
:1020B800154B1B785BB299B2144B1B68DB6A013372
:1020C8009BB211FB03F39BB213449AB20E4B5A8096
:1020D8000D4B5B889BB21846FEF726FB04E00A4BC3
:1020E80005229A710DE000BF074B00229A71064B3A
:1020F8009B791846FEF772FB034B5B889AB2024B3A
:102108009A8080BDB4070020F40000201C0900203C
:1021180080B400AF0B4B9B79002B09D10A4B9B79FC
:10212800002B05D1094B9B79002B01D1012300E03D
:10213800002303F00103DBB21846BD465DF8047BBB
:10214800704700BFE4000020EC000020F4000020ED
:1021580080B500AF00E000BFFFF7DAFF034683F069
:102168000103DBB2002BF6D1064B1A68937843F0D3
:1021780004039370034B1A6893786FF3C303937047
:1021880000BF80BD0400002080B500AF01F0E4F975
:1021980000F01EF800F072FB00F050FB00F024FB8A
:1021A80000F0A8F900F062FA00F07CF800F0FCF802
:1021B80000F048F900F0DCFA00F0ECF900F020FA41
:1021C80009F0A2FEFEF774F9FEF762FAFCE70000D8
:1021D80080B594B000AF07F12003302200211846E3
:1021E8000AF0C2FB07F10C0300221A605A609A60D9
:1021F800DA601A610023BB60284B1B6C274A43F046
:1022080080531364254B1B6C03F08053BB60BB6881
:1022180000237B60224B1B68214A43F480431360F0
:102228001F4B1B6803F480437B607B6801233B6280
:102238004FF480337B620223BB634FF48003FB635C
:1022480004233B64A8237B640223BB640723FB6449
:1022580007F12003184603F06DFB0346002B01D05D
:1022680000F046FC0F23FB6002233B6100237B61E7
:102278004FF4A053BB614FF48053FB6107F10C038B
:102288000521184603F0CEFD0346002B01D000F0CF
:102298002FFC00BF5037BD4680BD00BF003802404C
:1022A8000070004080B592B000AF07F140030022F3
:1022B8001A605A6007F1240300221A605A609A6073
:1022C800DA601A615A619A613B1D20220021184682
:1022D8000AF04AFB324B334A1A60314B53225A6098
:1022E8002F4B00229A602E4B6422DA602C4B00227E
:1022F8001A612B4B00225A61294B80229A61284887
:1023080004F070F80346002B01D000F0F1FB4023E5
:102318003B6400237B6407F140031946204804F01E
:102328009BFF0346002B01D000F0E2FB60237B6299
:102338003223BB620023FB6200233B6300237B63E1
:102348000023BB630023FB6307F124030022194623
:10235800134804F0BFFA0346002B01D000F0C8FB75
:1023680000237B600023BB600023FB6000233B61EC
:1023780000237B614FF40053BB6100233B623B1D8C
:102388001946074804F0E4FF0346002B01D000F08B
:10239800AFFB034800F0CCFC00BF4837BD4680BD0A
:1023A800240700200000014080B588B000AF07F185
:1023B8000C0300221A605A609A60DA601A613B1DA9
:1023C80000221A605A601E4B4FF080421A601C4B64
:1023D80000225A601A4B00229A60194B4FF0FF32C4
:1023E800DA60174B00221A61154B00229A611448D3
:1023F80003F038FF0346002B01D000F079FB0723D8
:10240800FB6000233B6107F10C0319460C4804F0FC
:1024180023FB0346002B01D000F06AFB00237B60FE
:102428000023BB603B1D1946054804F015FF034611
:10243800002B01D000F05CFB00BF2037BD4680BDFB
:102448006C07002080B58AB000AF07F12003002296
:102458001A605A603B1D00221A605A609A60DA605E
:102468001A615A619A61214B214A1A601F4B29222D
:102478005A601E4B00229A601C4B6422DA601B4B88
:1024880000221A61194B80229A61184803F0AAFFAA
:102498000346002B01D000F02BFB60233B62002396
:1024A8007B6207F120031946104804F0D5FE034665
:1024B800002B01D000F01CFB60237B603223BB6043
:1024C8000023FB6000237B613B1D08221946074857
:1024D80004F000FA0346002B01D000F009FB034882
:1024E80000F026FC00BF2837BD4680BDB407002099
:1024F8000004004080B588B000AF07F10C0300224B
:102508001A605A609A60DA601A613B1D00221A60EC
:102518005A601E4B1E4A1A601C4B00225A601B4B05
:1025280000229A60194B4FF0FF32DA60174B0022F5
:102538001A61164B00229A61144803F093FE034671
:10254800002B01D000F0D4FA0723FB6030233B6155
:1025580007F10C0319460D4804F07EFA0346002BD8
:1025680001D000F0C5FA00237B600023BB603B1D4F
:102578001946064804F070FE0346002B01D000F00F
:10258800B7FA00BF2037BD4680BD00BFFC0700205A
:10259800000C004080B582B000AF3B4600221A60B4
:1025A8005A60154B154A1A60134B53225A60124B46
:1025B80000229A60104B41F28832DA600E4B0022FA
:1025C8009A610D4803F04EFE0346002B01D000F03F
:1025D8008FFA00233B6000237B603B461946064880
:1025E80004F03AFE0346002B01D000F081FA00BF48
:1025F8000837BD4680BD00BF4408002000100040D9
:1026080080B582B000AF3B4600221A605A60154B75
:10261800154A1A60134B53225A60124B00229A60D3
:10262800104B4FF47A72DA600E4B00229A610D4813
:1026380003F018FE0346002B01D000F059FA0023DE
:102648003B6000237B603B461946064804F004FEC5
:102658000346002B01D000F04BFA00BF0837BD46F7
:1026680080BD00BF8C0800200014004080B592B0E7
:1026780000AF07F1400300221A605A6007F12403F3
:1026880000221A605A609A60DA601A615A619A6187
:102698003B1D2022002118460AF066F9324B334AC6
:1026A8001A60314B53225A602F4B00229A602E4BEE
:1026B8006422DA602C4B00221A612B4B00225A61EB
:1026C800294B80229A61284803F08CFE0346002B90
:1026D80001D000F00DFA40233B6400237B6407F12E
:1026E80040031946204804F0B7FD0346002B01D0EB
:1026F80000F0FEF960237B623223BB620023FB6299
:1027080000233B6300237B630023BB630023FB633D
:1027180007F1240300221946134804F0DBF80346A6
:10272800002B01D000F0E4F900237B600023BB609C
:102738000023FB6000233B6100237B614FF40053BF
:10274800BB6100233B623B1D1946074804F000FEAD
:102758000346002B01D000F0CBF9034800F0E8FA5B
:1027680000BF4837BD4680BDD408002000040140A2
:1027780080B586B000AF3B1D00221A605A609A608F
:10278800DA601A61164B174A1A60154B00225A6014
:10279800134B00229A60124B4FF6FF72DA60104B0F
:1027A80000221A610E4B00229A610D4803F05AFD6F
:1027B8000346002B01D000F09BF907237B60102310
:1027C800BB603B1D1946064804F046F90346002B3A
:1027D80001D000F08DF900BF1837BD4680BD00BF9D
:1027E8001C0900200040014080B500AF114B124A7F
:1027F8001A60104B4FF4E1325A600E4B00229A6077
:102808000C4B0022DA600B4B00221A61094B0C2298
:102818005A61084B00229A61064B0022DA6105488A
:1028280004F0FCFD0346002B01D000F061F900BF65
:1028380080BD00BF640900200044004080B582B01C
:1028480000AF00237B600C4B1B6B0B4A43F4001357
:102858001363094B1B6B03F400137B607B68002236
:102868000021102000F0E9FF102001F002F800BF5D
:102878000837BD4680BD00BF0038024080B58CB027
:1028880000AF07F11C0300221A605A609A60DA60F0
:102898001A610023BB61904B1B6B8F4A43F01003F6
:1028A80013638D4B1B6B03F01003BB61BB690023E3
:1028B8007B61894B1B6B884A43F004031363864B87
:1028C8001B6B03F004037B617B6900233B61824B34
:1028D8001B6B814A43F0800313637F4B1B6B03F030
:1028E80080033B613B690023FB607B4B1B6B7A4A8F
:1028F80043F001031363784B1B6B03F00103FB6088
:10290800FB680023BB60744B1B6B734A43F00803DE
:102918001363714B1B6B03F00803BB60BB68002398
:102928007B606D4B1B6B6C4A43F0020313636A4B6D
:102938001B6B03F002037B607B6801227F216748E1
:1029480001F068FD01224FF40051654801F062FD75
:1029580000224FF42071624801F05CFD00224FF420
:102968000071604801F056FD0122F8215E4801F02F
:1029780051FD01224FF44E715C4801F04BFD7F235D
:10298800FB6101233B6200237B620223BB6207F1E8
:102998001C031946514801F089FB4FF40A53FB61A7
:1029A80001233B6200237B620023BB6207F11C0307
:1029B80019464B4801F07AFB3723FB614FF4441367
:1029C8003B6200237B6207F11C031946444801F06F
:1029D8006DFB0823FB614FF488133B6200237B6285
:1029E80007F11C0319463E4801F060FB4FF4C2434F
:1029F800FB614FF444133B6200237B6207F11C0325
:102A08001946364801F052FB4FF40073FB6101236D
:102A18003B6200237B620023BB6207F11C0319465B
:102A2800304801F043FBF823FB6101233B6200239C
:102A38007B620223BB6207F11C0319462A4801F096
:102A480035FB4FF44E73FB6101233B6200237B622D
:102A58000223BB6207F11C031946244801F026FB38
:102A680000220A21062000F0E8FE062000F001FFFF
:102A780000220A21072000F0E0FE072000F0F9FEFE
:102A880000220A21082000F0D8FE082000F0F1FEFC
:102A980000220321092000F0D0FE092000F0E9FE01
:102AA800002201210A2000F0C8FE0A2000F0E1FE01
:102AB80000220221172000F0C0FE172000F0D9FEE6
:102AC80000220421282000F0B8FE282000F0D1FEC2
:102AD80000BF3037BD4680BD0038024000100240BC
:102AE8000008024000000240000C024000040240BE
:102AF80080B400AF72B600BF00BFFDE780B483B0FA
:102B080000AF00237B60104B5B6C0F4A43F480439B
:102B180053640D4B5B6C03F480437B607B6800233C
:102B28003B60094B1B6C084A43F080531364064B07
:102B38001B6C03F080533B603B6800BF0C37BD46FD
:102B48005DF8047B704700BF0038024080B586B04E
:102B580000AF78607B681B68224A934216D1002335
:102B68007B61214B5B6C204A43F0010353641E4B8D
:102B78005B6C03F001037B617B6900220C21182048
:102B880000F05BFE182000F074FE26E07B681B68EE
:102B9800164A93420ED100233B61134B1B6C124A19
:102BA80043F002031364104B1B6C03F002033B61F8
:102BB8003B6912E07B681B680D4A93420DD10023E4
:102BC800FB60094B5B6C084A43F002035364064BF5
:102BD8005B6C03F00203FB60FB6800BF1837BD465F
:102BE80080BD00BF000001400038024000040040E2
:102BF8000004014080B588B000AF78607B681B682E
:102C0800B3F1804F16D10023FB61444B1B6C434A40
:102C180043F001031364414B1B6C03F00103FB6198
:102C2800FB6900220C211C2000F007FE1C2000F08C
:102C380020FE6EE07B681B68394A934216D1002358
:102C4800BB61364B1B6C354A43F008031364334BA6
:102C58001B6C03F00803BB61BB6900220C21322006
:102C680000F0EBFD322000F004FE52E07B681B68A8
:102C78002C4A934216D100237B61284B1B6C274AB0
:102C880043F010031364254B1B6C03F010037B61A6
:102C98007B6900220F21362000F0CFFD362000F09E
:102CA800E8FD36E07B681B681F4A934216D1002373
:102CB8003B611A4B1B6C194A43F020031364174BF2
:102CC8001B6C03F020033B613B6900220221372083
:102CD80000F0B3FD372000F0CCFD1AE07B681B68DC
:102CE800124A934215D10023FB600C4B5B6C0B4AD4
:102CF80043F480335364094B5B6C03F48033FB600B
:102D0800FB6800220C21182000F097FD182000F025
:102D1800B0FD00BF2037BD4680BD00BF003802406F
:102D2800000C00400010004000140040004001402A
:102D380080B58AB000AF786007F1140300221A60EA
:102D48005A609A60DA601A617B681B68374A934256
:102D58001FD100233B61364B1B6B354A43F00103FF
:102D68001363334B1B6B03F001033B613B694FF467
:102D780080737B610223BB610223FB6103233B62F7
:102D880001237B6207F1140319462A4801F08EF9E2
:102D980047E07B681B68284A93421FD10023FB60E9
:102DA800234B1B6B224A43F004031363204B1B6B1A
:102DB80003F00403FB60FB684FF480737B6102231C
:102DC800BB610223FB6103233B6202237B6207F1A1
:102DD80014031946194801F069F922E07B681B6859
:102DE800174A93421DD10023BB60114B1B6B104A3D
:102DF80043F0040313630E4B1B6B03F00403BB6027
:102E0800BB6840237B610223BB610223FB61032370
:102E18003B6203237B6207F114031946074801F05C
:102E280045F900BF2837BD4680BD00BF00000140FE
:102E38000038024000000240000400400008024040
:102E48000004014080B58AB000AF786007F1140330
:102E580000221A605A609A60DA601A617B681B68FF
:102E6800344A934261D100233B61334B1B6C324A95
:102E780043F400331364304B1B6C03F400333B61A1
:102E88003B690023FB602C4B1B6B2B4A43F001036F
:102E98001363294B1B6B03F00103FB60FB680C23D6
:102EA8007B610223BB610023FB6103233B62072391
:102EB8007B6207F114031946204801F0F7F8204B0C
:102EC800204A1A601E4B4FF000625A601C4B0022C9
:102ED8009A601B4B0022DA60194B4FF480621A612A
:102EE800174B00225A61164B00229A61144B00229C
:102EF800DA61134B00221A62114B00225A62104801
:102F080000F0D2FC0346002B01D0FFF7F1FD7B68EF
:102F18000B4ADA630A4A7B68936300220E21262053
:102F280000F08BFC262000F0A4FC00BF2837BD462B
:102F380080BD00BF0044004000380240000002404D
:102F4800AC0900208860024080B400AFBFF34F8F07
:102F580000BF064BDB6803F4E0620449044B1343EB
:102F6800CB60BFF34F8F00BF00BFFDE700ED00E06F
:102F78000400FA0580B400AF00BFFDE780B400AFDD
:102F880000BFFDE780B400AF00BFFDE780B400AF2D
:102F980000BFFDE780B400AF00BFFDE780B400AF1D
:102FA80000BFBD465DF8047B704780B400AF00BF2A
:102FB800BD465DF8047B704780B400AF00BFBD46D6
:102FC8005DF8047B704780B500AF00F017FB00BFC9
:102FD80080BD000080B500AF01212E4801F002FA43
:102FE800034619462C4B1A680B4603F00103D9B265
:102FF800137861F3000313700121264801F0F2F9F8
:103008000346012B40D1254B9B79032B02D0052B7E
:1030180022D039E00021224803F0FCFA214B1B683A
:1030280000225A621D4B04229A714CF2503141F22F
:103038008830FEF71FFB4FF4FA60FEF733FC174B9E
:1030480000225A80154B5B889BB21846FDF748FB57
:10305800124B00229A8017E00021114803F0DAFA97
:10306800104B1B6800225A620C4B00225A800B4BF3
:103078005B889BB21846FDF733FB084B00229A7118
:10308800064B00229A8000BF012001F0DDF900BF45
:1030980080BD00BF0008024004000020E4000020BA
:1030A800D4080020FC07002080B500AF02212E487C
:1030B80001F098F9034619462C4B1A680B4603F0A1
:1030C8000103D9B2137861F3410313700221264832
:1030D80001F088F90346012B40D1254B9B79032B3E
:1030E80002D0052B22D039E00021224803F092FAC1
:1030F800214B1B6800225A621D4B04229A714CF224
:1031080050314FF47A60FEF7E3FA4FF4FA60FEF7B5
:10311800EBFB174B00225A80154B5B889BB2184675
:10312800FDF7F0FA124B00229A8017E000211148AF
:1031380003F070FA104B1B6800225A620C4B0022F5
:103148005A800B4B5B889BB21846FDF7DBFA084B9D
:1031580000229A71064B00229A8000BF022001F0DB
:1031680073F900BF80BD00BF0008024004000020C2
:10317800EC000020240700206C07002080B500AF79
:1031880004212E4801F02EF9034619462C4B1A68E3
:103198000B4603F00103D9B2137861F3820313706D
:1031A8000421264801F01EF90346012B40D1254B86
:1031B8009B79032B02D0052B22D039E00821224825
:1031C80003F028FA214B1B6800225A621D4B042287
:1031D8009A7142F210714FF4FA60FEF7A7FA40F6BE
:1031E800C410FEF7E7FB174B00225A80154B5B888B
:1031F8009BB21846FDF798FA124B00229A8017E006
:103208000821114803F006FA104B1B6800225A6285
:103218000C4B00225A800B4B5B889BB21846FDF77B
:1032280083FA084B00229A71064B00229A8000BF4D
:10323800042001F009F900BF80BD00BF000802406A
:1032480004000020F4000020B40700201C0900201E
:1032580080B500AF0821084801F0C4F803461946B4
:10326800064B1A680B4603F00103D9B2137861F3D1
:10327800C3031370FFF768FE000802400400002033
:1032880080B500AF10210A4801F0ACF80346194692
:10329800084B1A680B4603F00103D9B2137861F39F
:1032A80004131370102001F0CFF800BF80BD00BFD9
:1032B800000802400400002080B500AF024800F07A
:1032C8008BFC00BF80BD00BFAC09002080B500AFFB
:1032D8002021144801F086F803461946124B1A6853
:1032E8000B4603F00103D9B2137861F34513137049
:1032F8004FF480710D4801F075F8034619460A4BE2
:103308001A680B4603F00103D9B2137861F38613E8
:103318001370202001F098F84FF4807001F094F8B1
:1033280000BF80BD000802400400002000100240D9
:1033380080B500AF084803F0DDF9084803F0DAF972
:10334800074B9B79022B02D1054B01229A71FEF79C
:103358007FFE00BF80BD00BF240700201C0900209D
:10336800F400002080B500AF064803F0C3F9064B0F
:103378009B79022B02D1044B01229A71FEF708FEB9
:1033880000BF80BD6C070020EC00002080B500AFB6
:10339800024804F077F900BF80BD00BF640900202F
:1033A80080B500AF4FF40051144801F01BF80346F4
:1033B8001946134B1A680B4603F00103D9B2537828
:1033C80061F3041353704FF480410C4801F00AF87C
:1033D800034619460A4B1A680B4603F00103D9B293
:1033E800537861F3451353704FF4005001F02CF8F3
:1033F8004FF4804001F028F800BF80BD0010024063
:103408000400002080B500AF064B9B79022B02D147
:10341800044B01229A71FEF75BFD034803F06AF939
:1034280000BF80BDE4000020FC07002080B500AF8D
:10343800FDF744F9024803F05DF900BF80BD00BF05
:103448004408002080B500AF054B1B680133044ACF
:103458001360FDF73BF9034803F04CF900BF80BD4A
:103468000C0A00208C08002080B500AF024801F04B
:1034780052F900BF80BD00BFFC0D002080B582B0AE
:1034880000AF78600B467B807B681B680E4A9342CE
:1034980016D10E4B1B78DBB2002B02D10B4B01224D
:1034A8001A700B4B1B6803F59C530833094A1360C9
:1034B800FDF7F0FB4FF480720749084804F089F8DB
:1034C80000BF0837BD4680BD00440040140A0020F4
:1034D8000C0A0020100A00201803002064090020AC
:1034E80080B400AF064BD3F88830054A43F4700324
:1034F800C2F8883000BFBD465DF8047B704700BF46
:1035080000ED00E0DFF834D0FFF7EAFF0C480D4982
:103518000D4A002302E0D458C4500433C4188C4226
:10352800F9D30A4A0A4C002301E013600432A2428C
:10353800FBD309F021FAFEF727FE704700000220AE
:1035480000000020F801002058CA0008F8010020F7
:1035580000150020FEE7000080B500AF0E4B1B6889
:103568000D4A43F4007313600B4B1B680A4A43F47B
:1035780080631360084B1B68074A43F48073136029
:10358800032000F04FF90F2000F008F8FFF7B6FA13
:103598000023184680BD00BF003C024080B582B0C1
:1035A80000AF7860124B1A68124B1B7819464FF41B
:1035B8007A73B3FBF1F3B2FBF3F3184600F067F943
:1035C8000346002B01D001230EE07B680F2B0AD89D
:1035D800002279684FF0FF3000F02FF9064A7B6827
:1035E8001360002300E0012318460837BD4680BD5C
:1035F800FC000020040100200001002080B400AF7E
:10360800064B1B781A46064B1B681344044A136082
:1036180000BFBD465DF8047B704700BF0401002071
:10362800180A002080B400AF034B1B681846BD463B
:103638005DF8047B704700BF180A002080B584B08D
:1036480000AF7860FFF7EEFFB8607B68FB60FB684F
:10365800B3F1FF3F05D00A4B1B781A46FB681344A9
:10366800FB6000BFFFF7DEFF0246BB68D31AFA68AB
:103678009A42F7D800BF00BF1037BD4680BD00BFD3
:103688000401002080B485B000AF78607B6803F047
:103698000703FB600C4BDB68BB60BA684FF6FF039F
:1036A8001340BB60FB681A02BB68134343F0BF6357
:1036B80043F40033BB60044ABB68D36000BF1437CF
:1036C800BD465DF8047B704700ED00E080B400AFB4
:1036D800044BDB681B0A03F007031846BD465DF878
:1036E800047B704700ED00E080B483B000AF034670
:1036F800FB7197F90730002B0BDBFB7903F01F02F6
:10370800074997F907305B09012000FA02F241F8EE
:10371800232000BF0C37BD465DF8047B704700BF0F
:1037280000E100E080B483B000AF03463960FB716C
:1037380097F90730002B0ADB3B68DAB20C4997F996
:1037480007301201D2B20B4483F800230AE03B6829
:10375800DAB20849FB7903F00F03043B1201D2B235
:103768000B441A7600BF0C37BD465DF8047B7047E2
:1037780000E100E000ED00E080B489B000AFF8603F
:10378800B9607A60FB6803F00703FB61FB69C3F16A
:103798000703042B28BF0423BB61FB690433062BF2
:1037A80002D9FB69033B00E000237B614FF0FF3245
:1037B800BB6902FA03F3DA43BB681A407B699A4093
:1037C8004FF0FF317B6901FA03F3D9437B680B4063
:1037D800134318462437BD465DF8047B7047000044
:1037E80080B582B000AF78607B68013BB3F1807F21
:1037F80001D301230FE00A4A7B68013B53600F2184
:103808004FF0FF30FFF78EFF054B00229A60044B04
:1038180007221A60002318460837BD4680BD00BF3E
:1038280010E000E080B582B000AF78607868FFF7FC
:1038380029FF00BF0837BD4680BD80B586B000AF00
:103848000346B9607A60FB7300237B61FFF73EFF94
:1038580078617A68B9687869FFF78EFF024697F948
:103868000F3011461846FFF75DFF00BF1837BD46F9
:1038780080BD80B582B000AF0346FB7197F9073071
:103888001846FFF731FF00BF0837BD4680BD80B539
:1038980082B000AF78607868FFF7A2FF0346184649
:1038A8000837BD4680BD000080B586B000AF78609F
:1038B80000237B61FFF7B6FE38617B68002B01D1DE
:1038C800012399E07B68022283F835207B68002277
:1038D80083F834207B681B681A687B681B6822F0B1
:1038E80001021A600FE0FFF79DFE02463B69D31AFA
:1038F800052B08D97B6820225A657B68032283F848
:103908003520032378E07B681B681B6803F00103FC
:10391800002BE8D17B681B681B687B617A69384B90
:1039280013407B617B685A687B689B681A437B6895
:10393800DB681A437B681B691A437B685B691A4317
:103948007B689B691A437B68DB691A437B681B6A3F
:1039580013437A6913437B617B685B6A042B07D145
:103968007B68DA6A7B681B6B13437A6913437B6154
:103978007B681B687A691A607B681B685B697B6176
:103988007B6923F007037B617B685B6A7A69134371
:103998007B617B685B6A042B17D17B689B6A7A69B9
:1039A80013437B617B68DB6A002B0ED0786800F0DC
:1039B80001FB0346002B08D07B6840225A657B68D0
:1039C800012283F83520012316E07B681B687A6999
:1039D8005A61786800F0B8FA0346FB607B68DB6DD3
:1039E8003F229A40FB689A607B6800225A657B6890
:1039F800012283F83520002318461837BD4680BDBC
:103A08003F8010F080B586B000AFF860B9607A608A
:103A18003B600023FB75FB689B6D3B61FB6893F87B
:103A28003430012B01D1022340E0FB68012283F8E6
:103A38003420FB6893F83530DBB2012B2FD1FB68BB
:103A4800022283F83520FB6800225A653B687A68B1
:103A5800B968F86800F04AFAFB68DB6D3F229A40C3
:103A68003B699A60FB681B681A68FB681B6842F030
:103A780016021A60FB681B6C002B07D0FB681B68DA
:103A88001A68FB681B6842F008021A60FB681B682A
:103A98001A68FB681B6842F001021A6005E0FB68BF
:103AA800002283F834200223FB75FB7D1846183763
:103AB800BD4680BD80B584B000AF78607B689B6DE3
:103AC800FB60FFF7AFFDB8607B6893F83530DBB279
:103AD800022B08D07B6880225A657B68002283F815
:103AE8003420012352E07B681B681A687B681B68D6
:103AF80022F016021A607B681B685A697B681B688B
:103B080022F080025A617B681B6C002B03D17B6812
:103B18009B6C002B07D07B681B681A687B681B6846
:103B280022F008021A607B681B681A687B681B68A9
:103B380022F001021A6013E0FFF774FD0246BB6829
:103B4800D31A052B0CD97B6820225A657B6803227F
:103B580083F835207B68002283F83420032315E09E
:103B68007B681B681B6803F00103002BE4D17B68AA
:103B7800DB6D3F229A40FB689A607B68012283F8DC
:103B880035207B68002283F834200023184610373C
:103B9800BD4680BD80B483B000AF78607B6893F881
:103BA8003530DBB2022B04D07B6880225A650123B2
:103BB8000CE07B68052283F835207B681B681A684F
:103BC8007B681B6822F001021A60002318460C3734
:103BD800BD465DF8047B704780B586B000AF78605D
:103BE8000023BB608E4B1B688E4AA2FB03239B0AF3
:103BF8007B617B689B6D3B613B691B68FB607B68F5
:103C0800DB6D08229A40FB681340002B1AD07B68B2
:103C18001B681B6803F00403002B13D07B681B6828
:103C28001A687B681B6822F004021A607B68DB6DE7
:103C380008229A403B699A607B685B6D43F00102F9
:103C48007B685A657B68DB6D01229A40FB681340EC
:103C5800002B12D07B681B685B6903F08003002B84
:103C68000BD07B68DB6D01229A403B699A607B68C8
:103C78005B6D43F002027B685A657B68DB6D04224A
:103C88009A40FB681340002B12D07B681B681B68A6
:103C980003F00203002B0BD07B68DB6D04229A40F3
:103CA8003B699A607B685B6D43F004027B685A65E8
:103CB8007B68DB6D10229A40FB681340002B43D0D1
:103CC8007B681B681B6803F00803002B3CD07B68EB
:103CD800DB6D10229A403B699A607B681B681B6801
:103CE80003F48023002B18D07B681B681B6803F43F
:103CF8000023002B08D17B681B6C002B24D07B6829
:103D08001B6C786898471FE07B689B6C002B1BD066
:103D18007B689B6C7868984716E07B681B681B6813
:103D280003F48073002B07D17B681B681A687B68D3
:103D38001B6822F008021A607B681B6C002B03D0FA
:103D48007B681B6C786898477B68DB6D20229A40FB
:103D5800FB681340002B00F08F807B681B681B6892
:103D680003F01003002B00F087807B68DB6D2022B6
:103D78009A403B699A607B6893F83530DBB2052B33
:103D880036D17B681B681A687B681B6822F01602AC
:103D98001A607B681B685A697B681B6822F080027E
:103DA8005A617B681B6C002B03D17B689B6C002BD2
:103DB80007D07B681B681A687B681B6822F00802BA
:103DC8001A607B68DB6D3F229A403B699A607B688A
:103DD800012283F835207B68002283F834207B6831
:103DE8001B6D002B7ED07B681B6D7868984779E047
:103DF8007B681B681B6803F48023002B1DD07B683D
:103E08001B681B6803F40023002B0DD17B685B6CD7
:103E1800002B31D07B685B6C786898472CE000BF3A
:103E2800FC000020B5814E1B7B68DB6B002B23D088
:103E38007B68DB6B786898471EE07B681B681B68AB
:103E480003F48073002B0FD17B681B681A687B68AA
:103E58001B6822F010021A607B68012283F8352063
:103E68007B68002283F834207B68DB6B002B03D04F
:103E78007B68DB6B786898477B685B6D002B32D07A
:103E88007B685B6D03F00103002B22D07B68052261
:103E980083F835207B681B681A687B681B6822F0EA
:103EA80001021A60BB680133BB607A699A4207D382
:103EB8007B681B681B6803F00103002BF2D100E04C
:103EC80000BF7B68012283F835207B68002283F8D5
:103ED80034207B68DB6C002B05D07B68DB6C786852
:103EE800984700E000BF1837BD4680BD80B485B054
:103EF80000AFF860B9607A603B60FB681B681A68BD
:103F0800FB681B6822F480221A60FB681B683A6809
:103F18005A60FB689B68402B08D1FB681B687A686D
:103F28009A60FB681B68BA68DA6007E0FB681B6880
:103F3800BA689A60FB681B687A68DA6000BF143751
:103F4800BD465DF8047B704780B485B000AF7860EB
:103F58007B681B68DBB2103B144AA2FB03231B09D6
:103F6800FB60134AFB6813441B781A467B68DA65C2
:103F7800FB68032B09D97B681B6823F47F7323F044
:103F880003031A1D7B689A6507E07B681B6823F4A6
:103F98007F7323F003037A6893657B689B6D1846EB
:103FA8001437BD465DF8047B704700BFABAAAAAAC8
:103FB80040CA000880B485B000AF78600023FB7366
:103FC8007B689B6ABB607B689B69002B1FD1BB68C1
:103FD800032B56D801A252F823F000BFF53F000882
:103FE80007400008F53F00088B4000087B68DB6A43
:103FF80003F08073002B46D00123FB7343E07B68FA
:10400800DB6AB3F1C07F40D10123FB733DE07B68DD
:104018009B69B3F5005F21D1BB68032B37D801A298
:1040280052F823F03D400008434000083D40000896
:10403800554000080123FB7330E07B68DB6A03F01E
:104048008073002B25D00123FB7322E07B68DB6A99
:10405800B3F1C07F1FD10123FB731CE0BB68022BA7
:1040680003D9BB68032B03D018E00123FB7315E0C9
:104078007B68DB6A03F08073002B0ED00123FB738F
:104088000BE000BF0AE000BF08E000BF06E000BF89
:1040980004E000BF02E000BF00E000BFFB7B184661
:1040A8001437BD465DF8047B704700BF80B489B003
:1040B80000AF7860396000237B6100233B610023F7
:1040C800BB610023FB616BE10122FB6902FA03F388
:1040D8007B613B681B687A6913403B613A697B697D
:1040E8009A4240F05A813B685B6803F00303012B56
:1040F80005D03B685B6803F00303022B30D17B6873
:104108009B68BB61FB695B00032202FA03F3DB4394
:10411800BA691340BB613B68DA68FB695B0002FA65
:1041280003F3BA691343BB617B68BA699A607B6819
:104138005B68BB610122FB6902FA03F3DB43BA69DE
:104148001340BB613B685B681B0903F00102FB6914
:1041580002FA03F3BA691343BB617B68BA695A6010
:104168003B685B6803F00303032B17D07B68DB68AD
:10417800BB61FB695B00032202FA03F3DB43BA6904
:104188001340BB613B689A68FB695B0002FA03F362
:10419800BA691343BB617B68BA69DA603B685B68DC
:1041A80003F00303022B23D1FB69DA087B6808328A
:1041B80053F82230BB61FB6903F007039B000F2211
:1041C80002FA03F3DB43BA691340BB613B681A691F
:1041D800FB6903F007039B0002FA03F3BA69134370
:1041E800BB61FB69DA087B680832B96943F82210B9
:1041F8007B681B68BB61FB695B00032202FA03F35F
:10420800DB43BA691340BB613B685B6803F0030298
:10421800FB695B0002FA03F3BA691343BB617B686D
:10422800BA691A603B685B6803F44033002B00F0FE
:10423800B4800023FB60604B5B6C5F4A43F48043AF
:1042480053645D4B5B6C03F48043FB60FB685B4A23
:10425800FB699B08023352F82330BB61FB6903F00A
:1042680003039B000F2202FA03F3DB43BA691340EE
:10427800BB617B68524A93422BD07B68514A934278
:1042880025D07B68504A93421FD07B684F4A93429F
:1042980019D07B684E4A934213D07B684D4A9342AB
:1042A8000DD07B684C4A934207D07B684B4A9342B7
:1042B80001D107230EE008230CE006230AE00523BA
:1042C80008E0042306E0032304E0022302E00123BC
:1042D80000E00023FA6902F0030292009340BA69F1
:1042E8001343BB613549FB699B080233BA6941F83E
:1042F80023203B4B9B68BB613B69DB43BA69134096
:10430800BB613B685B6803F48013002B03D0BA6978
:104318003B691343BB61324ABB699360304BDB682E
:10432800BB613B69DB43BA691340BB613B685B68AF
:1043380003F40013002B03D0BA693B691343BB6134
:10434800274ABB69D360264B5B68BB613B69DB438B
:10435800BA691340BB613B685B6803F40033002B08
:1043680003D0BA693B691343BB611D4ABB695360FB
:104378001B4B1B68BB613B69DB43BA691340BB61DC
:104388003B685B6803F48033002B03D0BA693B6950
:104398001343BB61124ABB691360FB690133FB61BC
:1043A800FB690F2B7FF690AE00BF00BF2437BD46D8
:1043B8005DF8047B704700BF0038024000380140B8
:1043C800000002400004024000080240000C0240C5
:1043D800001002400014024000180240001C024075
:1043E800003C014080B485B000AF78600B467B800C
:1043F8007B681A697B881340002B02D00123FB736A
:1044080001E00023FB73FB7B18461437BD465DF8BB
:10441800047B704780B483B000AF78600B467B8024
:1044280013467B707B78002B03D07A887B689A616F
:1044380003E07B881A047B689A6100BF0C37BD468D
:104448005DF8047B7047000080B582B000AF03467A
:10445800FB80084B5A69FB881340002B06D0054A9D
:10446800FB885361FB88184600F006F800BF083740
:10447800BD4680BD003C014080B483B000AF034618
:10448800FB8000BF0C37BD465DF8047B704780B5E4
:1044980086B002AF78607B68002B01D1012301E16F
:1044A8007B681B68BB607B6893F89534DBB2002B94
:1044B80006D17B68002283F89424786807F040FFCF
:1044C8007B68032283F89524BB68B3F1A04F02D11F
:1044D8007B6800229A717B681B68184604F0EFFA23
:1044E8007B6818687B681A7C8DF8002004330ECB33
:1044F80004F0CEF90346002B05D07B68022283F82E
:1045080095240123CEE07B681B680021184604F03F
:10451800E7FA0346002B05D07B68022283F895242E
:104528000123BFE00023FB734AE0FA7B7968134656
:10453800DB0013449B000B44153301221A70FA7BED
:1045480079681346DB0013449B000B441433FA7B51
:104558001A70FA7BFB7B98B279681346DB00134428
:104568009B000B442E3302461A80FA7B7968134667
:10457800DB0013449B000B44183300221A70FA7BAB
:1045880079681346DB0013449B000B441C3300225C
:104598001A60FA7B79681346DB0013449B000B44CE
:1045A800203300221A60FA7B79681346DB00134433
:1045B8009B000B44243300221A60FB7B0133FB73FE
:1045C8007B681B79FA7B9A42AFD30023FB7344E0E4
:1045D800FA7B79681346DB0013449B000B4403F213
:1045E800552300221A70FA7B79681346DB001344BE
:1045F8009B000B4403F51573FA7B1A70FA7B7968F4
:104608001346DB0013449B000B4403F5167300228A
:104618001A70FA7B79681346DB0013449B000B443D
:1046280003F5177300221A60FA7B79681346DB00DA
:1046380013449B000B4403F5187300221A60FA7B9D
:1046480079681346DB0013449B000B4403F5197388
:1046580000221A60FB7B0133FB737B681B79FA7BB2
:104668009A42B5D37B6818687B681A7C8DF800205D
:1046780004330ECB04F080FA0346002B05D07B6888
:10468800022283F8952401230CE07B6800225A74E7
:104698007B68012283F895247B681B68184605F01F
:1046A800CAFA002318461037BD4680BD80B584B0CD
:1046B80000AF78607B681B68FB607B6893F8943474
:1046C800012B01D1022322E07B68012283F8942484
:1046D800FB68DB6803F04003002B09D07B685B7B39
:1046E800012B05D1FB689B6B43F48032FB689A630E
:1046F8007B681B68184604F0D1F97B681B6818466C
:1047080005F078FA7B68002283F894240023184681
:104718001037BD4680BD90B58DB000AF78607B681E
:104728001B683B623B6AFB617B681B68184605F0A7
:1047380036FB0346002B40F08C847B681B681846C8
:1047480005F09AFA0346002B00F08284FB6903F512
:1047580000639B681B0AC3F30D027B68C3F8D4246B
:104768007B681B68184605F087FA034603F00203C6
:10477800022B07D17B681B685A697B681B6802F0AB
:1047880002025A617B681B68184605F075FA0346F1
:1047980003F01003102B61D17B681B689A697B6852
:1047A8001B6822F010029A613B6A1B6ABB61BB69F5
:1047B80003F00F021346DB0013449B0003F5147348
:1047C8007A68134404337B61BB695B0C03F00F0305
:1047D800022B24D1BA6947F6F0731340002B35D069
:1047E8007B69D968BB691B099BB2C3F30A039BB2F7
:1047F8001A46386A05F0ACF87B69DA68BB691B09A8
:10480800C3F30A031A447B69DA607B695A69BB6996
:104818001B09C3F30A031A447B695A6116E0BB6992
:104828005B0C03F00F03062B10D17B6803F29C434B
:1048380008221946386A05F08BF87B695A69BB6902
:104848001B09C3F30A031A447B695A617B681B6816
:104858009A697B681B6842F010029A617B681B6842
:10486800184605F009FA034603F40023B3F5002FB0
:1048780040F0A78000237B627B681B68184605F020
:104888000EFAB86299E0BB6A03F00103002B00F04E
:104898008E807B681B687A6AD2B21146184605F08A
:1048A80032FA38613B6903F00103002B0CD07B6AB4
:1048B8005A01FB69134403F530631A4601239360D8
:1048C800796A786800F0A4FE3B6903F00803002BBE
:1048D8000CD07B6A5A01FB69134403F530631A460E
:1048E80008239360796A786800F07AFF3B6903F0DF
:1048F8001003002B08D07B6A5A01FB69134403F5A7
:1049080030631A46102393603B6903F00203002BBF
:1049180030D03B6A5B6903F08003802B09D1FB69C7
:1049280003F500635B68FA6902F5006243F480638B
:1049380053607A6A1346DB0013449B0003F5147333
:104948007A68134404337B617B69DB78012B08D1D7
:104958007B690022DA707B6ADBB21946786807F057
:10496800F5FD7B6A5A01FB69134403F530631A4667
:10497800022393603B6903F02003002B08D07B6A75
:104988005A01FB69134403F530631A4620239360E8
:104998003B6903F40053002B09D07B6A5A01FB6979
:1049A800134403F530631A464FF4005393607B6A4F
:1049B80001337B62BB6A5B08BB62BB6A002B7FF476
:1049C80062AF7B681B68184605F056F9034603F486
:1049D8008023B3F5802F40F0DB807B681B68184686
:1049E80005F077F9B86200237B62CDE0BB6A03F07B
:1049F8000103002B00F0C2807B681B687A6AD2B280
:104A08001146184605F09DF938613B6903F001032A
:104A1800002B57D07B6A03F00F03012202FA03F33D
:104A2800FB60FB6903F500635A6BFB68DB43F969BC
:104A380001F5006113404B637B6A5A01FB6913441B
:104A480003F510631A46012393607B689B79012B59
:104A580032D179687A6A1346DB0013449B000B4411
:104A68002033196878687A6A1346DB0013449B0080
:104A780003441C331B68194478687A6A1346DB00C0
:104A880013449B000344203319607B6A002B13D125
:104A980079687A6A1346DB0013449B000B4424337D
:104AA8001B68002B08D17B6818687B6803F29C435D
:104AB8001A46012105F0A4F97B6ADBB21946786829
:104AC80007F0BFFC3B6903F00803002B08D07B6AA2
:104AD8005A01FB69134403F510631A4608239360CF
:104AE8003B6903F01003002B08D07B6A5A01FB696D
:104AF800134403F510631A46102393603B6903F0CF
:104B08004003002B08D07B6A5A01FB69134403F564
:104B180010631A46402393603B6903F00203002B9D
:104B280023D0796A386A04F08BF97A6A1346DB0075
:104B380013449B0010337A68134404337B617B6908
:104B4800DB78012B08D17B690022DA707B6ADBB243
:104B58001946786807F00CFD7B6A5A01FB69134413
:104B680003F510631A46022393603B6903F0800340
:104B7800002B03D0796A786800F0BDFC7B6A0133AA
:104B88007B62BB6A5B08BB62BB6A002B7FF42EAFFB
:104B98007B681B68184605F06FF8034603F000436E
:104BA800B3F1004F22D1FB6903F500635B68FA6932
:104BB80002F5006223F0010353607B6893F8CC345C
:104BC800012B08D17B68002283F8CC240021786867
:104BD80000F0A4FE02E0786807F0AAFC7B681B6876
:104BE8005A697B681B6802F000425A617B681B683F
:104BF800184605F041F8034603F40063B3F5006F67
:104C080012D1FB6903F500639B6803F00103012BD4
:104C180002D1786807F066FC7B681B685A697B6874
:104C28001B6802F400625A617B681B68184605F02D
:104C380023F8034603F48053B3F5805F40F0B78050
:104C4800FB6903F500635B68FA6902F5006223F00B
:104C5800010353607B681B681021184604F0F0F8C4
:104C68000023FB6246E0FB6A5A01FB69134403F523
:104C780010631A464FF67F339360FB6A5A01FB694B
:104C8800134403F510631B68FA6A5101FA690A4470
:104C980002F5106223F400131360FB6A5A01FB69E2
:104CA800134403F530631A464FF67F339360FB6A6B
:104CB8005A01FB69134403F530631B68FA6A510112
:104CC800FA690A4402F5306223F400131360FB6AA0
:104CD8005A01FB69134403F530631B68FA6A5101F2
:104CE800FA690A4402F5306243F000631360FB6A14
:104CF8000133FB627B681B791A46FB6A9342B2D385
:104D0800FB6903F50063DB69FA6902F5006243F0A9
:104D18000113D3617B68DB7B002B16D0FB6903F59D
:104D28000063D3F88430FA6902F5006243F00B039C
:104D3800C2F88430FB6903F500635B6CFA6902F51D
:104D4800006243F00B03536415E0FB6903F500634D
:104D58005B69FA6902F5006243F4005343F02B03E0
:104D68005361FB6903F500631B69FA6902F5006288
:104D780043F00B031361FB6903F500631B68FA69D1
:104D880002F5006223F4FE6313607B6818687B6891
:104D980099797B6803F29C431A4605F031F87B68E1
:104DA8001B685A697B681B6802F480525A617B68E9
:104DB8001B68184604F060FF034603F40053B3F57C
:104DC800005F23D17B681B68184604F0F6FF7B68F8
:104DD8001B68184604F0ADF803461A467B68DA717A
:104DE8007B681C6801F00AFA01467B68DB791A4681
:104DF800204603F0B1FD786807F04BFB7B681B6821
:104E08005A697B681B6802F400525A617B681B6808
:104E1800184604F031FF034603F00803082B0AD1B3
:104E2800786807F028FB7B681B685A697B681B68F1
:104E380002F008025A617B681B68184604F01CFFE0
:104E4800034603F08003802B23D13B6A9B6923F040
:104E580080023B6A9A6101237B6214E079687A6A6E
:104E68001346DB0013449B000B4403F257231B78C3
:104E7800012B05D17B6ADBB21946786800F00AFB82
:104E88007B6A01337B627B681B791A467B6A934293
:104E9800E4D37B681B68184604F0EEFE034603F46F
:104EA8008013B3F5801F3CD101237B622BE07B6A22
:104EB8005A01FB69134403F510631B68BB617968E9
:104EC8007A6A1346DB0013449B000B4418331B78A3
:104ED800012B15D1BB69002B12DA79687A6A13465F
:104EE800DB0013449B000B44173301221A707B6AC2
:104EF800DBB263F07F03DBB21946786800F0CAFAC8
:104F08007B6A01337B627B681B791A467B6A934212
:104F1800CDD37B681B685A697B681B6802F48012D2
:104F28005A617B681B68184604F0A6FE034603F422
:104F38000013B3F5001F56D101237B6245E07B6A5D
:104F48005A01FB69134403F530631B68BB61796838
:104F58007A6A1346DB0013449B000B4403F516736F
:104F68001B78012B2ED1BB69002B2BDABB691A0CDD
:104F78007B68D3F8D434534003F00103002B21D1CC
:104F880079687A6A1346DB0013449B000B4403F2EA
:104F9800572301221A703B6A9B6943F080023B6ADF
:104FA8009A613B6A5B6903F08003002B0AD1FB69B5
:104FB80003F500635B68FA6902F5006243F4007365
:104FC800536008E07B6A01337B627B681B791A4671
:104FD8007B6A9342B3D37B681B685A697B681B68FA
:104FE80002F400125A617B681B68184604F044FEFC
:104FF800034603F08043B3F1804F0AD1786807F085
:10500800C9FA7B681B685A697B681B6802F0804292
:105018005A617B681B68184604F02EFE034603F0AD
:105028000403042B15D17B681B685B68BB61BB69F3
:1050380003F00403002B02D0786807F0B9FA7B6804
:105048001B6859687B681B68BA690A435A6000E0A4
:1050580000BF3437BD4690BD80B582B000AF7860E0
:105068000B46FB707B6893F89434012B01D1022323
:1050780012E07B68012283F894247B68FA785A74DA
:105088007B681B68FA781146184604F08DFD7B682A
:10509800002283F89424002318460837BD4680BDB3
:1050A80080B584B000AF7860084611461A460346BA
:1050B800FB700B463B801346BB700023FB7297F9CD
:1050C8000330002B0FDAFB7803F00F021346DB00E6
:1050D80013449B0010337A6813440433FB60FB6865
:1050E80001225A700FE0FB7803F00F021346DB0031
:1050F80013449B0003F514737A6813440433FB606C
:10510800FB6800225A70FB7803F00F03DAB2FB68E1
:105118001A703B88C3F30A02FB689A60FB68BA7886
:105128001A71FB685B78002B04D0FB681B781A4661
:10513800FB685A83BB78022B02D1FB6800225A71A4
:105148007B6893F89434012B01D102230EE07B682D
:10515800012283F894247B681B68F968184603F0D9
:105168000DFF7B68002283F89424FB7A18461037D9
:10517800BD4680BD80B584B000AF78600B46FB703B
:1051880097F90330002B0FDAFB7803F00F02134670
:10519800DB0013449B0010337A6813440433FB602C
:1051A800FB6801225A700FE0FB7803F00F021346E8
:1051B800DB0013449B0003F514737A68134404332B
:1051C800FB60FB6800225A70FB7803F00F03DAB229
:1051D800FB681A707B6893F89434012B01D1022381
:1051E8000EE07B68012283F894247B681B68F968C9
:1051F800184603F04BFF7B68002283F894240023B1
:1052080018461037BD4680BD80B586B000AFF8603F
:105218007A603B600B46FB72FB7A03F00F02134681
:10522800DB0013449B0003F51473FA68134404333A
:105238007B617B697A68DA607B693A681A617B69A5
:1052480000225A617B6900225A70FB7A03F00F032F
:10525800DAB27B691A70FB689B79012B02D17A68F4
:105268007B69DA61FB681868FB689B791A4679697B
:1052780003F0E8FF002318461837BD4680BD80B408
:1052880083B000AF78600B46FB70FB7803F00F0229
:1052980079681346DB0013449B000B4403F51A732B
:1052A8001B6818460C37BD465DF8047B704780B50F
:1052B80086B000AFF8607A603B600B46FB72FB7A01
:1052C80003F00F021346DB0013449B001033FA6807
:1052D800134404337B617B697A68DA607B693A68D6
:1052E8001A617B6900225A617B6901225A70FB7A34
:1052F80003F00F03DAB27B691A70FB689B79012B04
:1053080002D17A687B69DA61FB681868FB689B7967
:105318001A46796903F096FF002318461837BD46E8
:1053280080BD80B584B000AF78600B46FB70FB7819
:1053380003F00F037A681279934201D901234FE0F1
:1053480097F90330002B0FDAFB7803F00F021346AE
:10535800DB0013449B0010337A6813440433FB606A
:10536800FB6801225A700DE0FA781346DB001344FB
:105378009B0003F514737A6813440433FB60FB68DD
:1053880000225A70FB6801229A70FB7803F00F0321
:10539800DAB2FB681A707B6893F89434012B01D158
:1053A80002231DE07B68012283F894247B681B6834
:1053B800F968184604F024FBFB7803F00F03002B70
:1053C80009D17B6818687B6899797B6803F29C43EC
:1053D8001A4604F015FD7B68002283F89424002304
:1053E80018461037BD4680BD80B584B000AF7860E0
:1053F8000B46FB70FB7803F00F037A68127993422F
:1054080001D9012342E097F90330002B0FDAFB782A
:1054180003F00F021346DB0013449B0010337A6835
:1054280013440433FB60FB6801225A700FE0FB78D9
:1054380003F00F021346DB0013449B0003F51473BB
:105448007A6813440433FB60FB6800225A70FB68D7
:1054580000229A70FB7803F00F03DAB2FB681A7027
:105468007B6893F89434012B01D102230EE07B680A
:10547800012283F894247B681B68F968184604F0B5
:105488002DFB7B68002283F89424002318461037EC
:10549800BD4680BD80B584B000AF78600B46FB7018
:1054A80097F90330002B0CDAFB7803F00F02134650
:1054B800DB0013449B0010337A6813440433FB6009
:1054C8000CE0FB7803F00F021346DB0013449B004B
:1054D80003F514737A6813440433FB607B681B6814
:1054E800F968184604F04CF90346FB72FB7A184633
:1054F8001037BD4680BD80B58AB002AF786039608C
:105508007B681B687B617B693B613A681346DB00FB
:1055180013449B0010337A6813440433FB60FB6820
:105528005A69FB681B699A4201D901236BE0FB6841
:105538001A69FB685B69D31AFB61FB689B68FA69A7
:105548009A4202D9FB689B68FB61FB6903339B089D
:10555800BB612AE0FB681A69FB685B69D31AFB61C7
:10556800FB689B68FA699A4202D9FB689B68FB61F1
:10557800FB6903339B08BB61FB68D9683B68DAB2F7
:10558800FB6998B27B689B7900930346786904F0BD
:10559800A1F9FB68DA68FB691A44FB68DA60FB6802
:1055A8005A69FB691A44FB685A613B685A013B69AE
:1055B800134403F510639B699BB2BA699A4209D8F0
:1055C800FB685A69FB681B699A4203D2FB681B692E
:1055D800002BBFD1FB681A69FB685B699A4211D836
:1055E8003B6803F00F03012202FA03F3BB603B6937
:1055F80003F500635A6BBB68DB43396901F5006149
:1056080013404B63002318462037BD4680BD000079
:1056180080B588B000AF786039607B681B68FB6133
:10562800FB69BB61FB693C3304331B687B613B68E6
:105638005A01BB69134403F530639B683B617B687F
:105648009B79012B7BD13B6903F00803002B15D014
:105658007B69614A934240F2B9803B6903F4004395
:10566800002B00F0B3803B685A01BB69134403F573
:1056780030631A464FF400439360A7E03B6903F098
:105688002003002B09D03B685A01BB69134403F57A
:1056980030631A462023936098E03B6903F028039F
:1056A800002B40F093807B694B4A93420FD93B69AA
:1056B80003F40043002B0AD03B685A01BB6913442A
:1056C80003F530631A464FF4004393607EE03A686E
:1056D8001346DB0013449B0003F514737A681344E4
:1056E8000433FB60FB681A6A3B685901BB690B44C9
:1056F80003F530631B69C3F31203D21AFB685A61BE
:105708003B68002B14D1FB681B69002B09D17B680F
:1057180018687B6803F29C431A46012104F070FB69
:1057280006E0FB68DA68FB685B691A44FB68DA60C4
:105738003B68DBB21946786806F068FE46E07B698C
:10574800264A934224D13B6903F40043002B0AD034
:105758003B685A01BB69134403F530631A464FF49A
:105768000043936032E03B6903F02003002B08D02C
:105778003B685A01BB69134403F530631A4620237A
:1057880093603B68DBB21946786806F03FFE1DE07F
:105798003B68002B14D179683A681346DB00134440
:1057A8009B000B4403F519731B68002B08D17B6819
:1057B80018687B6803F29C431A46002104F020FB1A
:1057C8003B68DBB21946786806F020FE00231846CD
:1057D8002037BD4680BD00BF0A30544F0A31544FB0
:1057E80080B586B000AF786039607B681B687B61E4
:1057F8007B693B617B693C3304331B68FB603B6816
:105808005A013B69134403F530639B68BB60FB682E
:10581800154A93420ED9BB6803F40043002B09D004
:105828003B685A013B69134403F530631A464FF449
:1058380000439360786806F0D7FDFB680A4A9342F4
:105848000CD97B689B79012B08D17B6818687B6829
:1058580003F29C431A46012104F0D2FA00231846A9
:105868001837BD4680BD00BF0A30544F80B485B09C
:1058780000AF78600B46FB7013463B807B681B6863
:105888005B6ABB60FB78002B07D13B8819047B68F7
:105898001B68BA680A439A6228E07B681B689B6A9F
:1058A8001B0CBA681344BB600023FB730DE07B68D4
:1058B8001A68FB7B40339B0013445B681B0CBA6877
:1058C8001344BB60FB7B0133FB73FA7BFB78013B22
:1058D8009A42ECD33B8818047B681968FB78013B33
:1058E800BA68024340339B000B445A6000231846B1
:1058F8001437BD465DF8047B704780B483B000AFB1
:1059080078600B467B807B681B687A885A62002324
:1059180018460C37BD465DF8047B704780B483B0E9
:1059280000AF78600B46FB7000BF0C37BD465DF8D2
:10593800047B704780B586B000AF78607B68002B29
:1059480001D1012367E27B681B6803F00103002B88
:1059580075D0884B9B6803F00C03042B0CD0854B47
:105968009B6803F00C03082B12D1824B5B6803F48D
:105978008003B3F5800F0BD17E4B1B6803F4003313
:10598800002B5BD07B685B68002B57D1012342E278
:105998007B685B68B3F5803F06D1764B1B68754A18
:1059A80043F4803313601DE07B685B68B3F5A02F78
:1059B8000CD1704B1B686F4A43F4802313606D4B06
:1059C8001B686C4A43F4803313600BE0694B1B6817
:1059D800684A23F480331360664B1B68654A23F4D6
:1059E800802313607B685B68002B13D0FDF71AFED9
:1059F800386108E0FDF716FE02463B69D31A642BAE
:105A080001D9032307E25B4B1B6803F40033002B27
:105A1800F0D014E0FDF706FE386108E0FDF702FE5D
:105A280002463B69D31A642B01D90323F3E1514B96
:105A38001B6803F40033002BF0D100E000BF7B6843
:105A48001B6803F00203002B63D04A4B9B6803F0EA
:105A58000C03002B0BD0474B9B6803F00C03082B5F
:105A68001CD1444B5B6803F48003002B16D1414BD7
:105A78001B6803F00203002B05D07B68DB68012B51
:105A880001D00123C7E13B4B1B6823F0F8027B6878
:105A98001B69DB00374913430B603AE07B68DB681E
:105AA800002B20D0344B01221A60FDF7BBFD386172
:105AB80008E0FDF7B7FD02463B69D31A022B01D96E
:105AC8000323A8E12B4B1B6803F00203002BF0D043
