:020000040800F2
:1000000000000220B5350008C1300008C9300008E2
:10001000D1300008D9300008E130000800000000AD
:10002000000000000000000000000000E9300008AF
:10003000F730000800000000053100081331000807
:1000400005360008053600080536000805360008A4
:10005000053600080536000821310008053600087D
:10006000E5310008A9320008053600080536000809
:100070000536000805360008053600080536000874
:100080006D330008053600080536000805360008FF
:100090000536000805360008053600080536000854
:1000A00081330008053600080536000805360008CB
:1000B000B533000805360008053600080536000887
:1000C0000536000805360008053600080536000824
:1000D0000536000805360008E1330008053600083B
:1000E000F533000805360008053600080536000817
:1000F00005360008053600080536000805360008F4
:1001000005360008053600081534000805360008D5
:100110000536000805360008413400085934000847
:1001200005360008053600080536000805360008C3
:1001300005360008053600080536000805360008B3
:100140000536000805360008053600087D3400082D
:100150000536000805360008053600080536000893
:100160000536000805360008053600080536000883
:1001700005360008053600080536000800000000B6
:080180000536000805360008F1
:1001880010B5054C237833B9044B13B10448AFF3C9
:1001980000800123237010BD8801002000000000AA
:1001A80058CA000808B5034B1BB103490348AFF30D
:1001B800008008BD000000008C01002058CA00081B
:1001C80053B94AB9002908BF00281CBF4FF0FF31B6
:1001D8004FF0FF3000F06AB9ADF1080C6DE904CEBC
:1001E80000F006F8DDF804E0DDE9022304B070470A
:1001F8002DE9F047089D0C46002B4ED194468C45BE
:100208008646B2FA82F262D94AB1C2F1200391401D
:1002180020FA03F30CFA02FC194300FA02FE4FEA33
:100228001C471FFA8CF6B1FBF7F44FEA1E4307FB95
:10023800141143EA014304FB06F199420AD91CEB65
:10024800030304F1FF3080F01281994240F20F81DC
:10025800023C6344591A1FFA8EF3B1FBF7F007FB0F
:10026800101143EA014300FB06F69E420AD91CEB33
:10027800030300F1FF3180F0FC809E4240F2F980D8
:10028800634402389B1B40EA044000211DB1D3405F
:100298000022C5E90032BDE8F0878B4205D90DB1CF
:1002A800C5E9000100210846F5E7B3FA83F1002902
:1002B80046D1A34202D39042C0F0F080861A64EB84
:1002C80003030120002DE6D0C5E90063E3E7002A17
:1002D80040F09080A1EB0C044FEA1C481FFA8CF701
:1002E8000121B4FBF8F64FEA1E4308FB164443EA23
:1002F800044307FB06F0984208D91CEB030306F1F8
:10030800FF3402D2984200F2CD8026461C1A1FFA0A
:100318008EF3B4FBF8F008FB104443EA044300FBF7
:1003280007F79F4208D91CEB030300F1FF3402D200
:100338009F4200F2B0802046DB1B40EA0640A5E75A
:10034800C1F120068B4022FA06F71F4320FA06FC6B
:1003580004FA01F343EA0C03F44000FA01F8380CFC
:100368004FEA1349B4FBF0FE1FFA87FC00FB1E445A
:1003780049EA04440EFB0CF9A14502FA01F20AD934
:100388003C190EF1FF3A80F08480A14540F281804B
:10039800AEF1020E3C44A4EB09041FFA83F9B4FB46
:1003A800F0F300FB134449EA044403FB0CFCA445A6
:1003B80007D93C1903F1FF3067D2A44565D9023B40
:1003C8003C4443EA0E40A0FB0293A4EB0C049C427D
:1003D800CE469C4651D34ED055B1B8EB0E0364EBD4
:1003E8000C0404FA06F6CB401E43CC40C5E9006471
:1003F800002150E7C2F1200320FA03F10CFA02FCB5
:1004080024FA03F394400C434FEA1C4800FA02FE16
:100418001FFA8CF7B3FBF8F008FB1031230C43EA02
:10042800014300FB07F1994208D91CEB030300F1D3
:10043800FF362CD299422AD9023863445B1AA4B2F7
:10044800B3FBF8F108FB113344EA034401FB07F35B
:10045800A34208D91CEB040401F1FF3613D2A342CE
:1004680011D902396444E41A41EA004139E70446E3
:10047800F0E6084606E7C845AED2B9EB020E63EBD4
:10048800070C0138A8E73146EDE7034699E73046FF
:10049800D4E7D6467FE7634402384DE7064623464D
:1004A80008460FE7023E634430E700BF704700BFCD
:1004B80080B500AF41F6583003F014F94FF480725C
:1004C8001E491F4807F0CDF81E4805F063FF1E4877
:1004D80005F060FF1D4805F05DFF1D4805F05AFF57
:1004E8001C4805F057FF4CF25031322001F0ACF8AF
:1004F8004CF25031322001F0D5F842F2107132201E
:1005080001F0FEF8144B1B6800225A620D4B1B6861
:1005180000225A62114B1B6800225A620B4B1B685F
:1005280000225A620E4B1B6800225A62064B1B6857
:1005380000225A6200F016F800BF80BDA802002011
:10054800F40800208C070020AC080020FC060020DE
:10055800D40700201C08002064080020B4060020EE
:100568004407002080B500AF254B1A68137843F084
:1005780040031370224B1A6813786FF3C713137074
:100588000821204803F082FF0346012B03D11E4BAC
:1005980004229A7102E01C4B03229A7101F00CFDAF
:1005A80000BF194B9B79DBB2052BFAD100BF164B64
:1005B8009B79DBB2002BFAD10121124803F066FFC8
:1005C8000346012B03D1114B04229A7102E00F4B11
:1005D80003229A7101F060FB04210A4803F056FFD8
:1005E8000346012B03D10A4B04229A7102E0084BFF
:1005F80003229A7101F018FC01F062FE00BF80BD71
:100608000800002000080240840000207400002038
:100618007C00002080B400AF074B1B78DBB2002BB6
:1006280004D0064B1B68044B00221A7000BFBD465D
:100638005DF8047B704700BFA4090020A0090020D2
:1006480080B500AF00F016F900F03CF900BF80BD9E
:1006580080B500AF01F05CFB01F092FA01F020FCDC
:1006680000BF80BD80B483B000AF0346FB80054B5C
:100678001B68FA881A8000BF0C37BD465DF8047BFA
:10068800704700BF0C00002080B483B000AF034661
:10069800FB80054B1B68FA88DA8000BF0C37BD4623
:1006A8005DF8047B704700BF0C00002080B483B065
:1006B80000AF0346FB80054B1B68FA889A8100BF90
:1006C8000C37BD465DF8047B704700BF0C00002066
:1006D80080B400AF034B1B681B881846BD465DF805
:1006E800047B70471000002080B400AF034B1B68E8
:1006F800DB881846BD465DF8047B70471000002073
:1007080080B400AF034B1B689B891846BD465DF853
:10071800047B70471000002080B483B000AF03460C
:10072800FB80FB88002B04D1074B1B6801229A80B1
:1007380003E0054B1B6800229A8000BF0C37BD46BA
:100748005DF8047B704700BF0C00002080B483B0C4
:1007580000AF0346FB80FB88002B04D1074B1B68C6
:1007680001225A8103E0054B1B6800225A8100BF11
:100778000C37BD465DF8047B704700BF0C000020B5
:1007880080B483B000AF0346FB80FB88002B04D104
:10079800074B1B6801221A8203E0054B1B680022E5
:1007A8001A8200BF0C37BD465DF8047B704700BF56
:1007B8000C00002080B400AF0D4B1B689B8846F6E8
:1007C8006C32934206D90A4B1B689B884DF2D7625C
:1007D800934204D9064B1B684DF2D8629A80044BA9
:1007E8001B689B881846BD465DF8047B704700BFB0
:1007F8001000002080B400AF0D4B1B685B8944F2E9
:100808006E12934206D90A4B1B685B8948F2DB22B9
:10081800934204D9064B1B6848F2DC225A81044BE8
:100828001B685B891846BD465DF8047B704700BFAE
:100838001000002080B400AF0D4B1B681B8A42F2E9
:100848002832934206D90A4B1B681B8A44F24F622E
:10085800934204D9064B1B6844F250621A82044B37
:100868001B681B8A1846BD465DF8047B704700BFAD
:100878001000002080B582B000AF104B1B681B78B9
:100888001A4692FAA2F3B3FA83F3002A01D14FF081
:10089800FF330133FB80FB88002B0AD0FB88013B28
:1008A800FB80FB88072B04D8FB88054A52F82330C5
:1008B800984700BF0837BD4680BD00BF0000002034
:1008C8005400002080B584B000AF244B1B681B780F
:1008D800BB60234B1B68BA6853407B607B68002B66
:1008E80037D00023FB732DE0FB7B7A6822FA03F3F1
:1008F80003F00103002B22D0FB7BBA6822FA03F332
:1009080003F00103002B0DD0FB7B164A52F833008D
:10091800FB7B144ADB0013449B880022194603F032
:10092800CDFD0CE0FB7B0F4A52F83300FB7B0D4AF0
:10093800DB0013449B880122194603F0BFFDFB7BB3
:100948000133FB73FB7B112BCED9054ABB681360BF
:1009580000E000BF1037BD4680BD00BF0400002086
:10096800A40100201400002080B500AF254B1A68B0
:1009780013786FF3C7131370224B1A6813786FF349
:10098800861313700821204803F080FD0346012BCD
:1009980003D11E4B04229A7102E01C4B03229A7168
:1009A80001F00AFB00BF194B9B79DBB2052BFAD18A
:1009B80000BF164B9B79DBB2002BFAD101211248FC
:1009C80003F064FD0346012B03D1114B04229A71F5
:1009D80002E00F4B03229A7101F05EF904210A48E4
:1009E80003F054FD0346012B03D10A4B04229A71EC
:1009F80002E0084B03229A7101F016FA01F060FC3C
:100A080000BF80BD080000200008024084000020CC
:100A1800740000207C000020B0B500AF134B1A68AA
:100A280013786FF341031370114B9B79DBB2002BE2
:100A380019D1104B9B79DBB2002B14D10E4B9B794B
:100A4800DBB2002B0FD1FFF743FE03461C46FFF72E
:100A58004BFE03461D46FFF753FE03461A4629463A
:100A6800204600F0CFFF00BFB0BD00BF000000204F
:100A7800740000207C0000208400002080B500AFB6
:100A88000A4B5B889BB2002B0ED0084B9B79DBB2DC
:100A9800002B0AD1054B02229A71044B5B889BB24A
:100AA800184600F0C7FE00E000BF80BD74000020BB
:100AB80098B500AF0F4B5B889CB2FFF77BFE0346EF
:100AC8009C4214D20B4B9B79DBB2002B10D1094B03
:100AD80002229A71FFF76EFE03461A46054B5B88A1
:100AE8009BB2D31A9BB2184600F0C6FE00E000BFC6
:100AF80098BD00BF7400002098B500AF0F4B5B880D
:100B08009CB2FFF777FE03469C4214D20B4B9B79AD
:100B1800DBB2002B10D1094B02229A71FFF76AFE53
:100B280003461A46054B5B889BB2D31A9BB21846FC
:100B380000F0C4FE00E000BF98BD00BF7C000020AC
:100B480080B500AF0A4B5B889BB2002B0ED0084BD8
:100B58009B79DBB2002B0AD1054B02229A71044B18
:100B68005B889BB2184600F0CBFE00E000BF80BD5A
:100B78007C00002080B500AF0A4B5B889BB2002B3D
:100B88000ED0084B9B79DBB2002B0AD1054B022211
:100B98009A71044B5B889BB2184600F0D3FE00E0C4
:100BA80000BF80BD8400002098B500AF0F4B5B8864
:100BB8009CB2FFF73FFE03469C4214D20B4B9B7935
:100BC800DBB2002B10D1094B02229A71FFF732FEDB
:100BD80003461A46054B5B889BB2D31A9BB218464C
:100BE80000F0D2FE00E000BF98BD00BF84000020E6
:100BF80080B485B000AF78600B467B804FF6FF73FA
:100C0800FB810023BB8122E0BB897A6813441B78EF
:100C18001A46FB895340FB810023FB7211E0FB89D4
:100C280003F00103002B06D0FB895B089AB20D4B39
:100C38005340FB8102E0FB895B08FB81FB7A0133AF
:100C4800FB72FB7A072BEAD9BB890133BB81BA89CE
:100C58007B889A42D8D3FB8918461437BD465DF87D
:100C6800047B704701A0FFFF80B500AF244B1B78C1
:100C7800012B43D1224B5B78013B0F2B3AD801A2C1
:100C880052F823F0CD0C0008D30C0008D90C00084A
:100C9800DF0C0008E50C0008EB0C0008FD0C000850
:100CA800FD0C0008FD0C0008FD0C0008FD0C0008F8
:100CB800FD0C0008FD0C0008FD0C0008F10C0008F4
:100CC800F70C000800F06CF918E000F017FA15E0CE
:100CD80000F07EF812E000F0EFF80FE000F084FB7F
:100CE8000CE000F037FB09E000F0F8FB06E000F04C
:100CF800B5FA03E0012000F04BF800BF00BF80BD4B
:100D0800A802002080B584B000AF786039603B68E5
:100D18009BB219467868FFF76BFF0346FB813B6877
:100D28007A681344FA89D2B21A70FB891B0A99B2FD
:100D38003B6801337A681344CAB21A70124B1B78A5
:100D4800DBB2012B0AD13B689BB202339AB24FF453
:100D58007A7379680D4806F0F9FB10E00A4B1B78A6
:100D6800DBB2022B0BD100BF3B689BB202339BB2B4
:100D7800194678680BF0E4F90346012BF4D000BF5C
:100D88001037BD4680BD00BFA4090020F40800202C
:100D980080B582B000AF0346FB710B4B1A780B4B42
:100DA8001A70094B5B7863F07F03DAB2074B5A700D
:100DB800064AFB79937003210448FFF7A3FF00BF9D
:100DC8000837BD4680BD00BFA8020020A80100204A
:100DD80080B584B000AF354B9B781B021AB2334BF9
:100DE800DB781BB213431BB2FB81304B1B791B0210
:100DF8001AB22E4B5B791BB213431BB27B807B88E4
:100E0800002B03D07B88B3F5967F04D30320FFF72C
:100E1800BFFF002345E0FA897B8813449BB2013B5E
:100E28003B803B88B3F5967F04D30220FFF7B0FFE1
:100E3800002336E01E4B01221A701C4B5A781C4BBB
:100E48005A707B88DBB25B00DAB2194B9A700323C5
:100E5800BB6000237B601BE0FB89164A32F8133025
:100E68001B0A99B2BB685A1CBA60C9B2104AD1545D
:100E7800FB89104A32F81310BB685A1CBA60C9B211
:100E88000B4AD154FB890133FB817B6801337B60BA
:100E98007B887A689A42DFDBB9680548FFF732FF3A
:100EA800012318461037BD4680BD00BFA8020020A8
:100EB800A80100205C04002080B584B000AF354B49
:100EC8009B781B021AB2334BDB781BB213431BB25D
:100ED800FB81304B1B791B021AB22E4B5B791BB27C
:100EE80013431BB27B807B88002B03D07B88B3F530
:100EF800967F04D30320FFF74BFF002345E0FA89D0
:100F08007B8813449BB2013B3B803B88B3F5967FBB
:100F180004D30220FFF73CFF002336E01E4B0122DA
:100F28001A701C4B5A781C4B5A707B88DBB25B00DA
:100F3800DAB2194B9A700323BB6000237B601BE075
:100F4800FB89164A32F813301B0A99B2BB685A1C3F
:100F5800BA60C9B2104AD154FB89104A32F813104A
:100F6800BB685A1CBA60C9B20B4AD154FB89013319
:100F7800FB817B6801337B607B887A689A42DFDB80
:100F8800B9680548FFF7BEFE012318461037BD466D
:100F980080BD00BFA8020020A8010020A8030020EF
:100FA80080B588B000AF524B9B781B021AB2504BE9
:100FB800DB781BB213431BB27B814D4B1B791B02A1
:100FC8001AB24B4B5B791BB213431BB23B813B8973
:100FD800002B03D03B89B3F5FA6F04D90320FFF740
:100FE800D7FE002380E07A893B8913449BB2013BFA
:100FF800FB80FB88C72B04D90220FFF7C9FE00231A
:1010080072E04FF4807200213A480BF0F5FC394B3E
:1010180001221A70364B5A78364B5A703B89DB08D6
:101028009BB2DBB23A8902F0070292B2002A14BFDF
:1010380001220022D2B21344DAB22E4B9A70032353
:10104800FB617B89DB089BB2BB617B8903F00703EB
:10105800FB8200233B610023FB6033E0254AFB69E8
:1010680013441B785AB22449BB690B441B781946B0
:10107800FB8A41FA03F303F001013B6901FA03F328
:101088005BB213435BB2D9B21A4AFB6913440A46EE
:101098001A703B6901333B61FB8A0133FB823B6970
:1010A800072B04DD00233B61FB690133FB61FB8AED
:1010B800072B04D90023FB82BB690133BB61FB68A2
:1010C8000133FB603B89FA689A42C7DB3B8903F02E
:1010D80007039BB2002B02D0FB690133FB61F9695E
:1010E8000448FFF70FFE012318462037BD4680BD90
:1010F800A8020020A80100204004002080B588B084
:1011080000AF534B9B781B021AB2514BDB781BB2D2
:1011180013431BB27B814E4B1B791B021AB24C4BFB
:101128005B791BB213431BB23B813B89002B03D075
:101138003B89B3F5FA6F04D90320FFF729FE002392
:1011480081E07A893B8913449BB2013BFB80FB8891
:10115800B3F5C87F04D90220FFF71AFE002372E016
:101168004FF4807200213B480BF046FC394B0122BA
:101178001A70374B5A78374B5A703B89DB089BB249
:10118800DBB23A8902F0070292B2002A14BF0122A8
:101198000022D2B21344DAB22E4B9A700323FB61B9
:1011A8007B89DB089BB2BB617B8903F00703FB8269
:1011B80000233B610023FB6033E0264AFB691344AC
:1011C8001B785AB22449BB690B441B781946FB8A21
:1011D80041FA03F303F001013B6901FA03F35BB23F
:1011E80013435BB2D9B21B4AFB6913440A461A700F
:1011F8003B6901333B61FB8A0133FB823B69072B67
:1012080004DD00233B61FB690133FB61FB8A072B8B
:1012180004D90023FB82BB690133BB61FB6801333E
:10122800FB603B89FA689A42C7DB3B8903F00703F6
:101238009BB2002B02D0FB690133FB61F9690548B9
:10124800FFF760FD012318462037BD4680BD00BF6B
:10125800A8020020A80100200C04002080B584B05A
:1012680000AF394B9B781B021AB2374BDB781BB2A5
:1012780013431BB2FB81344B1B791B021AB2324B4E
:101288005B791BB213431BB27B807B88002B03D096
:101298007B88B3F5967F04D30320FFF779FD0023FD
:1012A8004DE0FA897B8813449BB2013B3B803B8825
:1012B800B3F5967F04D30220FFF76AFD00233EE0D2
:1012C8000723BB6000237B6019E0BB685A1CBA6027
:1012D8001D4AD35C1B021AB2BB68591CB9601A4973
:1012E800CB5C1BB2134319B2FB895A1CFA811A460C
:1012F80089B2164B23F812107B6801337B607B8818
:101308007A689A42E1DB124B01221A700E4B5A7826
:101318000F4B5A700C4B9A780D4B9A700A4BDA782F
:101328000B4BDA70084B1A79094B1A71064B5A792C
:10133800074B5A7106210648FFF7E4FC01231846BB
:101348001037BD4680BD00BFA80200205C04002005
:10135800A801002080B582B000AF204B9B781B020B
:101368001AB21E4BDB781BB213431BB2FB80FB88FF
:10137800B3F5967F04D30220FFF70AFD002329E086
:10138800164B1B791B021AB2144B5B791BB2134321
:101398001AB2FB8891B2124A22F81310114B01229B
:1013A8001A700E4B5A780F4B5A700C4B9A780D4B9B
:1013B8009A700A4BDA780B4BDA70084B1A79094B9A
:1013C8001A71064B5A79074B5A7106210548FFF7DF
:1013D80099FC012318460837BD4680BDA8020020A5
:1013E8005C040020A801002080B584B000AF384B11
:1013F8009B781B021AB2364BDB781BB213431BB225
:10140800FB81FB89C72B04D90220FFF7C1FC00230D
:101418005AE0FB89DB089BB2BB60FB8903F007033A
:10142800FB802B4B1B79FF2B16D1294B5B79002BAB
:1014380012D1284ABB6813441B785AB2FB88012191
:1014480001FA03F35BB213435BB2D9B2214ABB681A
:1014580013440A461A701BE01D4B1B79002B17D149
:101468001B4B5B79002B13D11A4ABB6813441B78BA
:101478005AB2FB88012101FA03F35BB2DB435BB28A
:1014880013405BB2D9B2134ABB6813440A461A70B8
:10149800114B01221A700E4B5A780F4B5A700C4B95
:1014A8009A780D4B9A700A4BDA780B4BDA70084B26
:1014B8001A79094B1A71064B5A79074B5A7106214A
:1014C8000548FFF71FFC012318461037BD4680BDAD
:1014D800A802002040040020A801002080B588B0A0
:1014E80000AF564B9B781B021AB2544BDB781BB2E9
:1014F80013431BB27B81514B1B791B021AB24F4B12
:101508005B791BB213431BB23B813B89002B03D091
:101518003B89B3F5F66F04D90320FFF739FC0023A4
:1015280088E07A893B8913449BB2013BFB80FB88A6
:10153800C72B04D90220FFF72BFC00237AE07B8914
:10154800DB089BB2FB617B8903F007037B830023E5
:101558007B6107233B610023FB604BE0374A3B6913
:1015680013441B781A467B6942FA03F303F001031C
:10157800002B12D0324AFB6913441B785AB27B8B7A
:10158800012101FA03F35BB213435BB2D9B22C4ACF
:10159800FB6913440A461A7013E0294AFB6913448D
:1015A8001B785AB27B8B012101FA03F35BB2DB4350
:1015B8005BB213405BB2D9B2214AFB6913440A46B5
:1015C8001A707B8B01337B837B6901337B617B6979
:1015D800072B04DD00237B613B6901333B617B8B77
:1015E800072B04D900237B83FB690133FB61FB686C
:1015F8000133FB603B89FA689A42AFDB114B012249
:101608001A700E4B5A780F4B5A700C4B9A780D4B38
:101618009A700A4BDA780B4BDA70084B1A79094B37
:101628001A71064B5A79074B5A7106210548FFF77C
:1016380069FB012318462037BD4680BDA80200205B
:1016480040040020A801002080B483B000AF034606
:101658000A46FB801346BB80FA88BB889A4201D9A8
:10166800BB88FB80FA880C4B1B680C49B1FBF2F273
:10167800DA62FB88094AB2FBF3F3074AD360FA88B7
:10168800054B1B680649B1FBF2F25A6300BF0C37E1
:10169800BD465DF8047B70476408002080841E0006
:1016A80040420F0080B483B000AF03460A46FB8077
:1016B8001346BB80FA88BB889A4201D9BB88FB8055
:1016C800FA880C4B1B680C49B1FBF2F2DA62FB8812
:1016D800094AB2FBF3F3074AD360FA88054B1B6843
:1016E8000649B1FBF2F25A6300BF0C37BD465DF8FC
:1016F800047B7047B406002080841E0040420F001F
:1017080080B483B000AF03460A46FB801346BB8013
:10171800FA88BB889A4201D9BB88FB80FA880C4BAF
:101728001B680C49B1FBF2F2DA62FB88094AB2FB8A
:10173800F3F3074AD360FA88054B1B680649B1FBE7
:10174800F2F2DA6300BF0C37BD465DF8047B7047E0
:101758004407002040420F0020A1070080B500AFD9
:1017680001224FF48041044802F0A8FE00210348FA
:1017780004F0D0FE00BF80BD000C024064080020C9
:1017880080B500AF00224FF48041044802F096FE75
:101798000021034804F0BEFE00BF80BD000C0240DB
:1017A8006408002080B500AF00224FF400610448AF
:1017B80002F084FE0021034804F0ACFE00BF80BDA7
:1017C800000C0240B406002080B500AF01224FF49F
:1017D8000061044802F072FE0021034804F09AFEFA
:1017E80000BF80BD000C0240B406002080B500AFE9
:1017F80001224FF40041044802F060FE082103482A
:1018080004F088FE00BF80BD0004024044070020A9
:1018180080B500AF00224FF40041044802F04EFEAC
:101828000821034804F076FE00BF80BD0004024092
:101838004407002080B582B000AF0346FB800B4B05
:10184800FF221A700A4B1B6800225A62FB885A1E34
:10185800084B1B68DA62FB88013B1A46054BDA60C5
:10186800FFF77CFF00BF0837BD4680BD740000202D
:10187800640800208C07002080B582B000AF0346C2
:10188800FB800B4B01221A700A4B1B6800225A621C
:10189800FB885A1E084B1B68DA62FB88013B1A4614
:1018A800054BDA60FFF76CFF00BF0837BD4680BD07
:1018B80074000020640800208C07002080B582B0E6
:1018C80000AF0346FB800B4B01221A700A4B1B68C2
:1018D80000225A62FB885A1E084B1B68DA62FB8892
:1018E800013B1A46054BDA60FFF75CFF00BF08377B
:1018F800BD4680BD7C000020B4060020FC06002008
:1019080080B582B000AF0346FB800B4BFF221A70F4
:101918000A4B1B6800225A62FB885A1E084B1B6838
:10192800DA62FB88013B1A46054BDA60FFF74CFF89
:1019380000BF0837BD4680BD7C000020B4060020EB
:10194800FC06002080B582B000AF0346FB800B4B3D
:10195800FF221A700A4B1B6800225A62FB885A1E23
:10196800084B1B68DA62FB88013B1A46054BDA60B4
:10197800FFF73CFF00BF0837BD4680BD840000204C
:1019880044070020AC08002080B582B000AF0346B1
:10199800FB800B4B01221A700A4B1B6800225A620B
:1019A800FB885A1E084B1B68DA62FB88013B1A4603
:1019B800054BDA60FFF72CFF00BF0837BD4680BD36
:1019C8008400002044070020AC08002080B483B0C5
:1019D80000AF03460A46FB801346BB80FA88BB88E3
:1019E8009A4204D9FA88BB88D31A9BB203E0BA8812
:1019F800FB88D31A9BB218460C37BD465DF8047BAA
:101A08007047000080B584B000AF0346FB800B46EA
:101A1800BB8013467B80FEF7CDFE03461A46FB8843
:101A2800934200F2A080FEF7E5FE03461A46BB8803
:101A3800934200F29880FEF7FDFE03461A467B8823
:101A4800934200F290804A4B5B889BB2FA88114619
:101A58001846FFF7BBFF0346FB81FB89012B1ED904
:101A6800434B9B79DBB2002B19D1424B1B685B8837
:101A78004CF250311846FFF7E7FD3D4B01229A71B1
:101A88003B4B5B889BB2FA889A4204D2FB89184682
:101A9800FFF7D0FE03E0FB891846FFF7EDFE364B53
:101AA8005B889BB2BA8811461846FFF78FFF03463A
:101AB800BB81BB89012B1ED92F4B9B79DBB2002B35
:101AC80019D12C4B1B681B894CF250311846FFF773
:101AD800E9FD294B01229A71274B5B889BB2BA8892
:101AE8009A4204D2BB891846FFF70AFF03E0BB8974
:101AF8001846FFF7E3FE00BF1D4B9B79DBB2002BB6
:101B0800FAD11D4B9B79DBB2002BF5D11B4B5B88BF
:101B18009BB27A8811461846FFF758FF03467B8127
:101B28007B89012B20D9154B9B79DBB2002B1BD16C
:101B3800104B1B68DB8942F210711846FFF7E0FD75
:101B48000E4B01229A710D4B5B889BB27A889A42A0
:101B580004D27B891846FFF7F5FE05E07B89184615
:101B6800FFF712FF00E000BF1037BD4680BD00BF81
:101B780074000020100000207C0000208400002059
:101B880080B500AF404B9B79DBB21846FEF7C4FD29
:101B98003D4B9B79DBB2052B73D801A252F823F099
:101BA800851C0008C11B0008F31B00088B1C0008DB
:101BB8008B1C00086F1C0008334B9B889AB2324B71
:101BC8001B785BB299B2314B1B685B6A9BB211FB05
:101BD80003F39BB213449AB22B4B5A802A4B5B886F
:101BE8009BB21846FEF73EFD4BE0274B9B889AB206
:101BF800254B1B785BB299B2244B1B685B6A9BB27E
:101C080011FB03F39BB213449AB21F4B5A801F4B2C
:101C18001B685B6A9BB232339BB24CF25031184658
:101C2800FFF712FD184B5B889BB21846FEF71AFDAA
:101C3800174B1B681B7803F00403DBB2002B1FD182
:101C4800134B1B681B7803F00803DBB2002B17D17A
:101C5800104B1B685A6A0F4B1B685B6B9A420FD379
:101C680000F0E6F90CE04CF250314FF47A70FFF7CF
:101C7800EBFC4DF2D860FFF7DDFD02E000BF00E0AD
:101C880000BF00BF80BD00BF740000208C0700208B
:101C9800000000206408002080B500AF1B4B9B7932
:101CA800DBB2052B30D801A252F823F00F1D000833
:101CB800111D0008111D0008CD1C0008E31C0008B8
:101CC800F91C00084CF250314FF47A60FFF7BCFC65
:101CD8004DF6C020FFF7AEFD16E04CF2503141F250
:101CE8008830FFF7B1FC4FF4FA60FFF7C5FD0BE051
:101CF8004CF250314FF47A70FFF7A6FC4DF2D860E1
:101D0800FFF798FD00E000BF00BF80BD7400002011
:101D180080B500AF404B9B79DBB21846FEF716FD45
:101D28003D4B9B79DBB2052B73D801A252F823F007
:101D3800151E0008511D0008831D00081B1E000801
:101D48001B1E0008FF1D0008334B9B889AB2324BBC
:101D58001B785BB299B2314B1B685B6A9BB211FB73
:101D680003F39BB213449AB22B4B5A802A4B5B88DD
:101D78009BB21846FEF788FC4BE0274B9B889AB22B
:101D8800254B1B785BB299B2244B1B685B6A9BB2EC
:101D980011FB03F39BB213449AB21F4B5A801E4B9C
:101DA8005B889BB21846FEF76FFC1C4B1B685B6A8E
:101DB8009BB232339BB24CF250311846FFF772FC9B
:101DC800174B1B681B7803F02003DBB2002B1FD1D5
:101DD800134B1B681B7803F01003DBB2002B17D1E1
:101DE800104B1B685A6A0F4B1B685B6B9A420FD3E8
:101DF80000F080F90CE04CF250314FF47A70FFF7A4
:101E080051FC48F2DC20FFF77BFD02E000BF00E058
:101E180000BF00BF80BD00BF7C000020FC06002082
:101E280000000020B406002080B500AF1B4B9B7952
:101E3800DBB2052B30D801A252F823F09F1E000810
:101E4800A11E0008A11E00085D1E0008731E0008E0
:101E5800891E00084CF250314FF4FA60FFF722FC5B
:101E680048F2D040FFF74CFD16E04CF250314FF4E9
:101E78007A60FFF717FC4FF4FA60FFF71FFD0BE0DD
:101E88004CF250314FF47A70FFF70CFC48F2DC202A
:101E9800FFF736FD00E000BF00BF80BD7C000020DA
:101EA80080B500AF404B9B79DBB21846FEF768FC63
:101EB8003D4B9B79DBB2052B73D801A252F823F076
:101EC800A51F0008E11E0008131F0008AB1F00082B
:101ED800AB1F00088F1F0008334B9B889AB2324B08
:101EE8001B785BB299B2314B1B685B6A9BB211FBE2
:101EF80003F39BB213449AB22B4B5A802A4B5B884C
:101F08009BB21846FEF7D2FB4BE0274B9B889AB250
:101F1800254B1B785BB299B2244B1B685B6A9BB25A
:101F280011FB03F39BB213449AB21F4B5A801E4B0A
:101F38005B889BB21846FEF7B9FB1C4B1B685B6AB3
:101F48009BB232339BB242F210711846FFF7D8FBAE
:101F5800174B1B681B7803F04003DBB2002B1FD123
:101F6800134B1B681B7823F07F03DBB2002B17D1C0
:101F7800104B1B685A6A0F4B1B68DB6B9A420FD3D6
:101F880000F01AF90CE042F210714FF4FA70FFF702
:101F9800B7FB44F25060FFF7D5FC02E000BF00E059
:101FA80000BF00BF80BD00BF84000020AC08002037
:101FB800000000204407002080B500AF1B4B9B7930
:101FC800DBB2052B30D801A252F823F02F200008ED
:101FD8003120000831200008ED1F00080320000808
:101FE8001920000842F210714FF47A70FFF788FB4D
:101FF80044F63820FFF7A6FC16E042F210714FF4C1
:10200800FA60FFF77DFB40F6C410FFF7BDFC0BE05C
:1020180042F210714FF4FA70FFF772FB44F250600D
:10202800FFF790FC00E000BF00BF80BD84000020E7
:1020380080B500AF00212C4804F034FB2B4B9B7972
:10204800DBB2042B3CD0042B3EDC012B1ED0022B30
:102058003AD1264B9B889AB2244B1B785BB299B233
:10206800234B1B685B6A9BB211FB03F39BB21344BF
:102078009AB21E4B5A801D4B5B889BB21846FEF7DE
:10208800F1FA1B4B1B6800225A621EE0174B9B8813
:102098009AB2164B1B785BB299B2154B1B68DB6A78
:1020A80001339BB211FB03F39BB213449AB20F4B5B
:1020B8005A800E4B5B889BB21846FEF7D3FA04E0B1
:1020C8000A4B05229A710EE000BF084B00229A7154
:1020D800064B9B79DBB21846FEF71EFB034B5B8869
:1020E8009AB2024B9A8080BD6408002074000020D8
:1020F8008C07002080B500AF00212C4804F0D2FAEC
:102108002B4B9B79DBB2042B3CD0042B3EDC012B00
:102118001ED0022B3AD1264B9B889AB2244B1B78AF
:102128005BB299B2234B1B685B6A9BB211FB03F34A
:102138009BB213449AB21E4B5A801D4B5B889BB2CC
:102148001846FEF7A1FA1B4B1B6800225A621EE0D4
:10215800174B9B889AB2164B1B785BB299B2154BFA
:102168001B68DB6A01339BB211FB03F39BB2134478
:102178009AB20F4B5A800E4B5B889BB21846FEF7FB
:1021880083FA04E00A4B05229A710EE000BF084B5F
:1021980000229A71064B9B79DBB21846FEF7D6FAF5
:1021A800034B5B889AB2024B9A8080BDB40600202C
:1021B8007C000020FC06002080B500AF08212C48D8
:1021C80004F070FA2B4B9B79DBB2042B3CD0042B28
:1021D8003EDC012B1ED0022B3AD1264B9B889AB2AB
:1021E800244B1B785BB299B2234B1B685B6A9BB28A
:1021F80011FB03F39BB213449AB21E4B5A801D4B3A
:102208005B889BB21846FEF751FA1B4B1B680022ED
:102218005A621EE0174B9B889AB2164B1B785BB22A
:1022280099B2154B1B68DB6A01339BB211FB03F3B0
:102238009BB213449AB20F4B5A800E4B5B889BB2E9
:102248001846FEF733FA04E00A4B05229A710EE0AD
:1022580000BF084B00229A71064B9B79DBB21846E7
:10226800FEF78EFA034B5B889AB2024B9A8080BDC8
:102278004407002084000020AC08002080B400AF90
:102288000C4B9B79DBB2002B0BD10B4B9B79DBB250
:10229800002B06D1094B9B79DBB2002B01D101231E
:1022A80000E0002303F00103DBB21846BD465DF8E9
:1022B800047B7047740000207C000020840000200C
:1022C80080B500AF00E000BFFFF7D8FF034683F0FA
:1022D8000103DBB2002BF6D1064B1A68137843F0E2
:1022E80040031370034B1A68137843F0800313708C
:1022F80000BF80BD0800002080B500AF01F080F964
:1023080000F01EF800F072FB00F050FB00F024FB18
:1023180000F0A8F900F062FA00F07CF800F0FCF890
:1023280000F048F900F0DCFA00F0ECF900F020FACF
:1023380009F032FEFEF7BCF8FEF76CF9FCE7000086
:1023480080B594B000AF07F1200330220021184671
:102358000AF052FB07F10C0300221A605A609A60D7
:10236800DA601A610023BB60284B1B6C274A43F0D4
:1023780080531364254B1B6C03F08053BB60BB6810
:1023880000237B60224B1B68214A43F4804313607F
:102398001F4B1B6803F480437B607B6801233B620F
:1023A8004FF480337B620223BB634FF48003FB63EB
:1023B80004233B64A8237B640223BB640723FB64D8
:1023C80007F12003184603F0FDFA0346002B01D05D
:1023D80000F046FC0F23FB6002233B6100237B6176
:1023E8004FF4A053BB614FF48053FB6107F10C031A
:1023F8000521184603F05EFD0346002B01D000F0CE
:102408002FFC00BF5037BD4680BD00BF00380240DA
:102418000070004080B592B000AF07F14003002281
:102428001A605A6007F1240300221A605A609A6001
:10243800DA601A615A619A613B1D20220021184610
:102448000AF0DAFA324B334A1A60314B53225A6097
:102458002F4B00229A602E4B6422DA602C4B00220C
:102468001A612B4B00225A61294B80229A61284815
:1024780004F000F80346002B01D000F0F1FB4023E4
:102488003B6400237B6407F140031946204804F0AD
:102498002BFF0346002B01D000F0E2FB60237B6298
:1024A8003223BB620023FB6200233B6300237B6370
:1024B8000023BB630023FB6307F1240300221946B2
:1024C800134804F04FFA0346002B01D000F0C8FB74
:1024D80000237B600023BB600023FB6000233B617B
:1024E80000237B614FF40053BB6100233B623B1D1B
:1024F8001946074804F074FF0346002B01D000F08A
:10250800AFFB034800F0CCFC00BF4837BD4680BD98
:10251800B40600200000014080B588B000AF07F184
:102528000C0300221A605A609A60DA601A613B1D37
:1025380000221A605A601E4B4FF080421A601C4BF2
:1025480000225A601A4B00229A60194B4FF0FF3252
:10255800DA60174B00221A61154B00229A61144861
:1025680003F0C8FE0346002B01D000F079FB0723D7
:10257800FB6000233B6107F10C0319460C4804F08B
:10258800B3FA0346002B01D000F06AFB00237B60FE
:102598000023BB603B1D1946054804F0A5FE034611
:1025A800002B01D000F05CFB00BF2037BD4680BD8A
:1025B800FC06002080B58AB000AF07F12003002296
:1025C8001A605A603B1D00221A605A609A60DA60ED
:1025D8001A615A619A61214B214A1A601F4B2922BC
:1025E8005A601E4B00229A601C4B6422DA601B4B17
:1025F80000221A61194B80229A61184803F03AFFA9
:102608000346002B01D000F02BFB60233B62002324
:102618007B6207F120031946104804F065FE034663
:10262800002B01D000F01CFB60237B603223BB60D1
:102638000023FB6000237B613B1D082219460748E5
:1026480004F090F90346002B01D000F009FB034881
:1026580000F026FC00BF2837BD4680BD4407002097
:102668000004004080B588B000AF07F10C030022D9
:102678001A605A609A60DA601A613B1D00221A607B
:102688005A601E4B1E4A1A601C4B00225A601B4B94
:1026980000229A60194B4FF0FF32DA60174B002284
:1026A8001A61164B00229A61144803F023FE034670
:1026B800002B01D000F0D4FA0723FB6030233B61E4
:1026C80007F10C0319460D4804F00EFA0346002BD7
:1026D80001D000F0C5FA00237B600023BB603B1DDE
:1026E8001946064804F000FE0346002B01D000F00E
:1026F800B7FA00BF2037BD4680BD00BF8C07002059
:10270800000C004080B582B000AF3B4600221A6042
:102718005A60154B154A1A60134B53225A60124BD4
:1027280000229A60104B41F28832DA600E4B002288
:102738009A610D4803F0DEFD0346002B01D000F03E
:102748008FFA00233B6000237B603B46194606480E
:1027580004F0CAFD0346002B01D000F081FA00BF47
:102768000837BD4680BD00BFD407002000100040D8
:1027780080B582B000AF3B4600221A605A60154B04
:10278800154A1A60134B53225A60124B00229A6062
:10279800104B4FF47A72DA600E4B00229A610D48A2
:1027A80003F0A8FD0346002B01D000F059FA0023DE
:1027B8003B6000237B603B461946064804F094FDC5
:1027C8000346002B01D000F04BFA00BF0837BD4686
:1027D80080BD00BF1C0800200014004080B592B0E6
:1027E80000AF07F1400300221A605A6007F1240382
:1027F80000221A605A609A60DA601A615A619A6116
:102808003B1D2022002118460AF0F6F8324B334AC5
:102818001A60314B53225A602F4B00229A602E4B7C
:102828006422DA602C4B00221A612B4B00225A6179
:10283800294B80229A61284803F01CFE0346002B8E
:1028480001D000F00DFA40233B6400237B6407F1BC
:1028580040031946204804F047FD0346002B01D0E9
:1028680000F0FEF960237B623223BB620023FB6227
:1028780000233B6300237B630023BB630023FB63CC
:1028880007F1240300221946134804F06BF80346A5
:10289800002B01D000F0E4F900237B600023BB602B
:1028A8000023FB6000233B6100237B614FF400534E
:1028B800BB6100233B623B1D1946074804F090FDAD
:1028C8000346002B01D000F0CBF9034800F0E8FAEA
:1028D80000BF4837BD4680BD6408002000040140A1
:1028E80080B586B000AF3B1D00221A605A609A601E
:1028F800DA601A61164B174A1A60154B00225A60A3
:10290800134B00229A60124B4FF6FF72DA60104B9D
:1029180000221A610E4B00229A610D4803F0EAFC6E
:102928000346002B01D000F09BF907237B6010239E
:10293800BB603B1D1946064804F0D6F80346002B39
:1029480001D000F08DF900BF1837BD4680BD00BF2B
:10295800AC0800200040014080B500AF114B124A7E
:102968001A60104B4FF4E1325A600E4B00229A6005
:102978000C4B0022DA600B4B00221A61094B0C2227
:102988005A61084B00229A61064B0022DA61054819
:1029980004F08CFD0346002B01D000F061F900BF64
:1029A80080BD00BFF40800200044004080B582B01C
:1029B80000AF00237B600C4B1B6B0B4A43F40013E6
:1029C8001363094B1B6B03F400137B607B680022C5
:1029D8000021102000F085FF102000F09EFF00BFAE
:1029E8000837BD4680BD00BF0038024080B58CB0B6
:1029F80000AF07F11C0300221A605A609A60DA607F
:102A08001A610023BB61904B1B6B8F4A43F0100384
:102A180013638D4B1B6B03F01003BB61BB69002371
:102A28007B61894B1B6B884A43F004031363864B15
:102A38001B6B03F004037B617B6900233B61824BC2
:102A48001B6B814A43F0800313637F4B1B6B03F0BE
:102A580080033B613B690023FB607B4B1B6B7A4A1D
:102A680043F002031363784B1B6B03F00203FB6014
:102A7800FB680023BB60744B1B6B734A43F008036D
:102A88001363714B1B6B03F00803BB60BB68002327
:102A98007B606D4B1B6B6C4A43F0010313636A4BFD
:102AA8001B6B03F001037B607B6801227F21674871
:102AB80001F004FD01224FF40051654801F0FEFCCD
:102AC80000224FF40041634801F0F8FC002244F66C
:102AD8000401614801F0F2FC01224FF400715F48E3
:102AE80001F0ECFC012280215B4801F0E7FC0122A7
:102AF8004FF47671574801F0E1FC7F23FB61012315
:102B08003B6200237B620223BB6207F11C03194668
:102B18004E4801F01FFB4FF40053FB6101233B6259
:102B280000237B620023BB6207F11C031946484857
:102B380001F010FB0D23FB614FF488133B62002367
:102B48007B6207F11C031946414801F003FB4FF46F
:102B58006053FB614FF444133B6200237B6207F12F
:102B68001C031946394801F0F5FA4FF40043FB619C
:102B780001233B6200237B620323BB6207F11C0332
:102B88001946344801F0E6FA4FF49043FB610123FB
:102B98003B6200237B620323BB6207F11C031946D7
:102BA8002D4801F0D7FA4FF40073FB6101233B6213
:102BB80000237B620223BB6207F11C0319462748E6
:102BC80001F0C8FA8423FB6101233B6200237B6286
:102BD8000223BB6207F11C0319461F4801F0BAFA29
:102BE8004FF47673FB6101233B6200237B6202236F
:102BF800BB6207F11C031946164801F0ABFA002224
:102C08000521062000F06DFE062000F086FE002259
:102C18000521082000F065FE082000F07EFE002255
:102C28000521092000F05DFE092000F076FE002253
:102C38000221282000F055FE282000F06EFE00BF7B
:102C48003037BD4680BD00BF00380240001002404A
:102C58000008024000040240000C0240000002404C
:102C680080B400AF72B600BF00BFFDE780B483B088
:102C780000AF00237B60104B5B6C0F4A43F480432A
:102C880053640D4B5B6C03F480437B607B680023CB
:102C98003B60094B1B6C084A43F080531364064B96
:102CA8001B6C03F080533B603B6800BF0C37BD468C
:102CB8005DF8047B704700BF0038024080B586B0DD
:102CC80000AF78607B681B68224A934216D10023C4
:102CD8007B61214B5B6C204A43F0010353641E4B1C
:102CE8005B6C03F001037B617B69002206211820DD
:102CF80000F0F7FD182000F010FE26E07B681B6846
:102D0800164A93420ED100233B61134B1B6C124AA7
:102D180043F002031364104B1B6C03F002033B6186
:102D28003B6912E07B681B680D4A93420DD1002372
:102D3800FB60094B5B6C084A43F002035364064B83
:102D48005B6C03F00203FB60FB6800BF1837BD46ED
:102D580080BD00BF00000140003802400004004070
:102D68000004014080B588B000AF78607B681B68BC
:102D7800B3F1804F16D10023FB61444B1B6C434ACF
:102D880043F001031364414B1B6C03F00103FB6127
:102D9800FB69002206211C2000F0A3FD1C2000F086
:102DA800BCFD6EE07B681B68394A934216D100234C
:102DB800BB61364B1B6C354A43F008031364334B35
:102DC8001B6C03F00803BB61BB690022062132209B
:102DD80000F087FD322000F0A0FD52E07B681B6800
:102DE8002C4A934216D100237B61284B1B6C274A3F
:102DF80043F010031364254B1B6C03F010037B6135
:102E08007B6900220721362000F06BFD362000F098
:102E180084FD36E07B681B681F4A934216D1002365
:102E28003B611A4B1B6C194A43F020031364174B80
:102E38001B6C03F020033B613B690022082137200B
:102E480000F04FFD372000F068FD1AE07B681B6832
:102E5800124A934215D10023FB600C4B5B6C0B4A62
:102E680043F480335364094B5B6C03F48033FB6099
:102E7800FB6800220621182000F033FD182000F01E
:102E88004CFD00BF2037BD4680BD00BF0038024062
:102E9800000C0040001000400014004000400140B9
:102EA80080B58AB000AF786007F1140300221A6079
:102EB8005A609A60DA601A617B681B68374A9342E5
:102EC8001FD100233B61364B1B6B354A43F001038E
:102ED8001363334B1B6B03F001033B613B694FF4F6
:102EE80080737B610223BB610223FB6103233B6286
:102EF80001237B6207F1140319462A4801F02AF9D5
:102F080047E07B681B68284A93421FD10023FB6077
:102F1800234B1B6B224A43F004031363204B1B6BA8
:102F280003F00403FB60FB684FF480737B610223AA
:102F3800BB610223FB6103233B6202237B6207F12F
:102F480014031946194801F005F922E07B681B684B
:102F5800174A93421DD10023BB60114B1B6B104ACB
:102F680043F0040313630E4B1B6B03F00403BB60B5
:102F7800BB6840237B610223BB610223FB610323FF
:102F88003B6203237B6207F114031946074801F0EB
:102F9800E1F800BF2837BD4680BD00BF00000140F2
:102FA80000380240000002400004004000080240CF
:102FB8000004014080B58AB000AF786007F11403BF
:102FC80000221A605A609A60DA601A617B681B688E
:102FD800344A934261D100233B61334B1B6C324A24
:102FE80043F400331364304B1B6C03F400333B6130
:102FF8003B690023FB602C4B1B6B2B4A43F00803F7
:103008001363294B1B6B03F00803FB60FB68602309
:103018007B610223BB610023FB6103233B6207231F
:103028007B6207F114031946204801F093F8204BFE
:10303800204A1A601E4B4FF000625A601C4B002257
:103048009A601B4B0022DA60194B4FF480621A61B8
:10305800174B00225A61164B00229A61144B00222A
:10306800DA61134B00221A62114B00225A6210488F
:1030780000F06EFC0346002B01D0FFF7F1FD7B68E2
:103088000B4ADA630A4A7B689363002209212620E7
:1030980000F027FC262000F040FC00BF2837BD4682
:1030A80080BD00BF0044004000380240000C0240D0
:1030B8003C0900208860024080B400AF00BFFDE7F3
:1030C80080B400AF00BFFDE780B400AF00BFFDE7EC
:1030D80080B400AF00BFFDE780B400AF00BFFDE7DC
:1030E80080B400AF00BFBD465DF8047B704780B474
:1030F80000AF00BFBD465DF8047B704780B400AFE9
:1031080000BFBD465DF8047B704780B500AF00F096
:10311800C9FA00BF80BD000080B500AF01212A4870
:1031280001F0B4F903461946284B1A680B4603F018
:103138000103D9B2137861F3000313700121224807
:1031480001F0A4F90346012B39D1214B9B79DBB25D
:10315800032B02D0052B1AD031E000211D4803F0C3
:10316800A1FA1D4B1B6800225A62194B04229A715E
:10317800FEF792FD164B00225A80154B5B889BB2D6
:103188001846FDF76FFA124B00229A8017E00021CB
:10319800104803F087FA104B1B6800225A620C4B48
:1031A80000225A800A4B5B889BB21846FDF75AFAF0
:1031B800074B00229A71064B00229A8000BF01201B
:1031C80001F096F900BF80BD000802400800002009
:1031D80074000020640800208C07002080B500AF30
:1031E80004212A4801F052F903461946284B1A6867
:1031F8000B4603F00103D9B2137861F3410313704E
:103208000421224801F042F90346012B39D1214B10
:103218009B79DBB2032B02D0052B1AD031E00021B9
:103228001D4803F03FFA1D4B1B6800225A62194BD8
:1032380004229A71FEF7F8FD164B00225A80154BAE
:103248005B889BB21846FDF71FFA124B00229A8042
:1032580017E00021104803F025FA104B1B680022E4
:103268005A620C4B00225A800A4B5B889BB2184664
:10327800FDF70AFA074B00229A71064B00229A8042
:1032880000BF042001F034F900BF80BD00080240EF
:10329800080000207C000020B4060020FC06002066
:1032A80080B500AF08212A4801F0F0F80346194616
:1032B800284B1A680B4603F00103D9B2137861F35F
:1032C800820313700821224801F0E0F80346012B1D
:1032D80039D1214B9B79DBB2032B02D0052B1AD0B5
:1032E80031E008211D4803F0DDF91D4B1B68002261
:1032F8005A62194B04229A71FEF75EFE164B0022A1
:103308005A80154B5B889BB21846FDF7CFF9124BD4
:1033180000229A8017E00821104803F0C3F9104BE7
:103328001B6800225A620C4B00225A800A4B5B88A9
:103338009BB21846FDF7BAF9074B00229A71064B63
:1033480000229A8000BF082001F0D2F800BF80BD9B
:1033580000080240080000208400002044070020E4
:10336800AC08002080B500AF024800F089FC00BF1F
:1033780080BD00BF3C09002080B500AF084803F0BD
:1033880001FA084803F0FEF9074B9B79DBB2022BE0
:1033980002D1054B01229A71FEF70EFF00BF80BDD6
:1033A800B4060020AC0800208400002080B500AFDF
:1033B800074803F0E7F9074B9B79DBB2022B02D1F0
:1033C800044B01229A71FEF795FE00BF80BD00BF35
:1033D800FC0600207C00002080B500AF024804F005
:1033E80099F900BF80BD00BFF408002080B500AF88
:1033F8004FF4006001F07CF84FF4805001F078F849
:103408004FF4005001F074F800BF80BD80B500AFE4
:10341800074B9B79DBB2022B02D1054B01229A7133
:10342800FEF706FE034803F0ADF900BF80BD00BFFC
:10343800740000208C07002080B500AFFDF700F96C
:10344800024803F09FF900BF80BD00BFD4070020E9
:1034580080B500AF054B1B680133044A1360FDF7C4
:10346800F7F8034803F08EF900BF80BD9C090020DF
:103478001C08002080B500AF024801F095F900BF94
:1034880080BD00BF8C0D002080B582B000AF786091
:103498000B467B807B681B680E4A934216D10E4B05
:1034A8001B78DBB2002B02D10B4B01221A700B4B9D
:1034B8001B6803F59C530833094A1360FDF7D4FBD6
:1034C8004FF480720749084804F0CBF800BF08376A
:1034D800BD4680BD00440040A40900209C0900208E
:1034E800A0090020A8020020F408002080B582B0BE
:1034F80000AF0346FB80FB88B3F5006F11D14FF492
:1035080000611F4800F0C2FF034619461D4B1A68A8
:103518000B4603F00103D9B2137861F3C3031370A8
:103528002AE0FB88B3F5805F11D14FF4805114482D
:1035380000F0ACFF03461946124B1A680B4603F01D
:103548000103D9B2137861F30413137014E0FB88F4
:10355800B3F5005F10D14FF40051094800F096FF11
:1035680003461946074B1A680B4603F00103D9B204
:10357800137861F34513137000BF0837BD4680BD4B
:10358800001002400800002080B400AF064BD3F8BA
:103598008830054A43F47003C2F8883000BFBD463E
:1035A8005DF8047B704700BF00ED00E0DFF834D021
:1035B800FFF7EAFF0C480D490D4A002302E0D458F2
:1035C800C4500433C4188C42F9D30A4A0A4C002365
:1035D80001E013600432A242FBD309F015FAFEF7AA
:1035E8008BFE7047000002200000002088010020A8
:1035F800E8CA00088801002090140020FEE70000B7
:1036080080B500AF0E4B1B680D4A43F4007313607E
:103618000B4B1B680A4A43F480631360084B1B6812
:10362800074A43F480731360032000F04FF90F201A
:1036380000F008F8FFF71AFB0023184680BD00BF0A
:10364800003C024080B582B000AF7860124B1A6827
:10365800124B1B7819464FF47A73B3FBF1F3B2FBA4
:10366800F3F3184600F067F90346002B01D0012355
:103678000EE07B680F2B0AD8002279684FF0FF30E4
:1036880000F02FF9064A7B681360002300E001234D
:1036980018460837BD4680BD8C00002094000020E5
:1036A8009000002080B400AF064B1B781A46064BEA
:1036B8001B681344044A136000BFBD465DF8047BD1
:1036C800704700BF94000020A809002080B400AF14
:1036D800034B1B681846BD465DF8047B704700BF66
:1036E800A809002080B584B000AF7860FFF7EEFF2E
:1036F800B8607B68FB60FB68B3F1FF3F05D00A4BFD
:103708001B781A46FB681344FB6000BFFFF7DEFF17
:103718000246BB68D31AFA689A42F7D800BF00BFBE
:103728001037BD4680BD00BF9400002080B485B02E
:1037380000AF78607B6803F00703FB600C4BDB6825
:10374800BB60BA684FF6FF031340BB60FB681A0200
:10375800BB68134343F0BF6343F40033BB60044AC0
:10376800BB68D36000BF1437BD465DF8047B704763
:1037780000ED00E080B400AF044BDB681B0A03F0E7
:1037880007031846BD465DF8047B704700ED00E06E
:1037980080B483B000AF0346FB7197F90730002B64
:1037A8000BDBFB7903F01F02074997F907305B0928
:1037B800012000FA02F241F8232000BF0C37BD4671
:1037C8005DF8047B704700BF00E100E080B483B07F
:1037D80000AF03463960FB7197F90730002B0ADB0D
:1037E8003B68DAB20C4997F907301201D2B20B44A0
:1037F80083F800230AE03B68DAB20849FB7903F052
:103808000F03043B1201D2B20B441A7600BF0C37E7
:10381800BD465DF8047B704700E100E000ED00E084
:1038280080B489B000AFF860B9607A60FB6803F0D3
:103838000703FB61FB69C3F10703042B28BF0423BB
:10384800BB61FB690433062B02D9FB69033B00E02B
:1038580000237B614FF0FF32BB6902FA03F3DA43BE
:10386800BB681A407B699A404FF0FF317B6901FAC7
:1038780003F3D9437B680B40134318462437BD46EE
:103888005DF8047B7047000080B582B000AF7860B7
:103898007B68013BB3F1807F01D301230FE00A4A23
:1038A8007B68013B53600F214FF0FF30FFF78EFF1D
:1038B800054B00229A60044B07221A600023184621
:1038C8000837BD4680BD00BF10E000E080B582B07B
:1038D80000AF78607868FFF729FF00BF0837BD465A
:1038E80080BD80B586B000AF0346B9607A60FB73CF
:1038F80000237B61FFF73EFF78617A68B9687869D1
:10390800FFF78EFF024697F90F3011461846FFF76A
:103918005DFF00BF1837BD4680BD80B582B000AFDF
:103928000346FB7197F907301846FFF731FF00BFD0
:103938000837BD4680BD80B582B000AF7860786832
:10394800FFF7A2FF034618460837BD4680BD0000B2
:1039580080B586B000AF786000237B61FFF7B6FEC4
:1039680038617B68002B01D1012399E07B68022232
:1039780083F835207B68002283F834207B681B6835
:103988001A687B681B6822F001021A600FE0FFF7D3
:103998009DFE02463B69D31A052B08D97B68202275
:1039A8005A657B68032283F83520032378E07B6817
:1039B8001B681B6803F00103002BE8D17B681B68B8
:1039C8001B687B617A69384B13407B617B685A6856
:1039D8007B689B681A437B68DB681A437B681B69B2
:1039E8001A437B685B691A437B689B691A437B6847
:1039F800DB691A437B681B6A13437A6913437B614B
:103A08007B685B6A042B07D17B68DA6A7B681B6B6F
:103A180013437A6913437B617B681B687A691A6070
:103A28007B681B685B697B617B6923F007037B61AB
:103A38007B685B6A7A6913437B617B685B6A042BEA
:103A480017D17B689B6A7A6913437B617B68DB6A61
:103A5800002B0ED0786800F001FB0346002B08D03D
:103A68007B6840225A657B68012283F83520012350
:103A780016E07B681B687A695A61786800F0B8FAC2
:103A88000346FB607B68DB6D3F229A40FB689A60C7
:103A98007B6800225A657B68012283F83520002361
:103AA80018461837BD4680BD3F8010F080B586B0F7
:103AB80000AFF860B9607A603B600023FB75FB6873
:103AC8009B6D3B61FB6893F83430012B01D10223D5
:103AD80040E0FB68012283F83420FB6893F8353016
:103AE800DBB2012B2FD1FB68022283F83520FB685B
:103AF80000225A653B687A68B968F86800F04AFAA3
:103B0800FB68DB6D3F229A403B699A60FB681B6843
:103B18001A68FB681B6842F016021A60FB681B6C87
:103B2800002B07D0FB681B681A68FB681B6842F00B
:103B380008021A60FB681B681A68FB681B6842F079
:103B480001021A6005E0FB68002283F83420022392
:103B5800FB75FB7D18461837BD4680BD80B584B01F
:103B680000AF78607B689B6DFB60FFF7AFFDB860C6
:103B78007B6893F83530DBB2022B08D07B68802253
:103B88005A657B68002283F83420012352E07B6861
:103B98001B681A687B681B6822F016021A607B682B
:103BA8001B685A697B681B6822F080025A617B682F
:103BB8001B6C002B03D17B689B6C002B07D07B68A8
:103BC8001B681A687B681B6822F008021A607B6809
:103BD8001B681A687B681B6822F001021A6013E0F0
:103BE800FFF774FD0246BB68D31A052B0CD97B6816
:103BF80020225A657B68032283F835207B680022DF
:103C080083F83420032315E07B681B681B6803F0E6
:103C18000103002BE4D17B68DB6D3F229A40FB68EF
:103C28009A607B68012283F835207B68002283F83C
:103C38003420002318461037BD4680BD80B483B0B9
:103C480000AF78607B6893F83530DBB2022B04D084
:103C58007B6880225A6501230CE07B68052283F883
:103C680035207B681B681A687B681B6822F0010294
:103C78001A60002318460C37BD465DF8047B704770
:103C880080B586B000AF78600023BB608E4B1B68A0
:103C98008E4AA2FB03239B0A7B617B689B6D3B6179
:103CA8003B691B68FB607B68DB6D08229A40FB68F8
:103CB8001340002B1AD07B681B681B6803F00403B1
:103CC800002B13D07B681B681A687B681B6822F07E
:103CD80004021A607B68DB6D08229A403B699A608F
:103CE8007B685B6D43F001027B685A657B68DB6D1E
:103CF80001229A40FB681340002B12D07B681B6896
:103D08005B6903F08003002B0BD07B68DB6D01221D
:103D18009A403B699A607B685B6D43F002027B685E
:103D28005A657B68DB6D04229A40FB681340002BC0
:103D380012D07B681B681B6803F00203002B0BD0B2
:103D48007B68DB6D04229A403B699A607B685B6DF7
:103D580043F004027B685A657B68DB6D10229A4049
:103D6800FB681340002B43D07B681B681B6803F07B
:103D78000803002B3CD07B68DB6D10229A403B691E
:103D88009A607B681B681B6803F48023002B18D09B
:103D98007B681B681B6803F40023002B08D17B6831
:103DA8001B6C002B24D07B681B6C786898471FE03D
:103DB8007B689B6C002B1BD07B689B6C7868984752
:103DC80016E07B681B681B6803F48073002B07D11F
:103DD8007B681B681A687B681B6822F008021A60F7
:103DE8007B681B6C002B03D07B681B6C786898473A
:103DF8007B68DB6D20229A40FB681340002B00F0A3
:103E08008F807B681B681B6803F01003002B00F091
:103E180087807B68DB6D20229A403B699A607B68CB
:103E280093F83530DBB2052B36D17B681B681A68EE
:103E38007B681B6822F016021A607B681B685A6947
:103E48007B681B6822F080025A617B681B6C002B20
:103E580003D17B689B6C002B07D07B681B681A68B2
:103E68007B681B6822F008021A607B68DB6D3F22C2
:103E78009A403B699A607B68012283F835207B6809
:103E8800002283F834207B681B6D002B7ED07B6872
:103E98001B6D7868984779E07B681B681B6803F49A
:103EA8008023002B1DD07B681B681B6803F400234C
:103EB800002B0DD17B685B6C002B31D07B685B6C71
:103EC800786898472CE000BF8C000020B5814E1B15
:103ED8007B68DB6B002B23D07B68DB6B78689847AB
:103EE8001EE07B681B681B6803F48073002B0FD1EE
:103EF8007B681B681A687B681B6822F010021A60CE
:103F08007B68012283F835207B68002283F83420FF
:103F18007B68DB6B002B03D07B68DB6B786898478A
:103F28007B685B6D002B32D07B685B6D03F001030F
:103F3800002B22D07B68052283F835207B681B681C
:103F48001A687B681B6822F001021A60BB6801339B
:103F5800BB607A699A4207D37B681B681B6803F0C9
:103F68000103002BF2D100E000BF7B68012283F837
:103F780035207B68002283F834207B68DB6C002BBB
:103F880005D07B68DB6C7868984700E000BF18377D
:103F9800BD4680BD80B485B000AFF860B9607A6076
:103FA8003B60FB681B681A68FB681B6822F4802268
:103FB8001A60FB681B683A685A60FB689B68402B6C
:103FC80008D1FB681B687A689A60FB681B68BA6846
:103FD800DA6007E0FB681B68BA689A60FB681B68D0
:103FE8007A68DA6000BF1437BD465DF8047B704715
:103FF80080B485B000AF78607B681B68DBB2103B8B
:10400800144AA2FB03231B09FB60134AFB681344F1
:104018001B781A467B68DA65FB68032B09D97B682D
:104028001B6823F47F7323F003031A1D7B689A65CA
:1040380007E07B681B6823F47F7323F003037A6827
:1040480093657B689B6D18461437BD465DF8047B05
:10405800704700BFABAAAAAAD0CA000880B485B02E
:1040680000AF78600023FB737B689B6ABB607B684A
:104078009B69002B1FD1BB68032B56D801A252F8AD
:1040880023F000BF9D400008AF4000089D40000895
:10409800334100087B68DB6A03F08073002B46D04D
:1040A8000123FB7343E07B68DB6AB3F1C07F40D137
:1040B8000123FB733DE07B689B69B3F5005F21D169
:1040C800BB68032B37D801A252F823F0E54000085B
:1040D800EB400008E5400008FD4000080123FB73A1
:1040E80030E07B68DB6A03F08073002B25D0012366
:1040F800FB7322E07B68DB6AB3F1C07F1FD1012329
:10410800FB731CE0BB68022B03D9BB68032B03D0ED
:1041180018E00123FB7315E07B68DB6A03F080730A
:10412800002B0ED00123FB730BE000BF0AE000BF99
:1041380008E000BF06E000BF04E000BF02E000BFE7
:1041480000E000BFFB7B18461437BD465DF8047BD2
:10415800704700BF80B489B000AF78603960002331
:104168007B6100233B610023BB610023FB616BE1A2
:104178000122FB6902FA03F37B613B681B687A69D9
:1041880013403B613A697B699A4240F05A813B6827
:104198005B6803F00303012B05D03B685B6803F001
:1041A8000303022B30D17B689B68BB61FB695B0012
:1041B800032202FA03F3DB43BA691340BB613B688D
:1041C800DA68FB695B0002FA03F3BA691343BB615F
:1041D8007B68BA699A607B685B68BB610122FB698E
:1041E80002FA03F3DB43BA691340BB613B685B68BF
:1041F8001B0903F00102FB6902FA03F3BA691343CE
:10420800BB617B68BA695A603B685B6803F003036B
:10421800032B17D07B68DB68BB61FB695B0003225B
:1042280002FA03F3DB43BA691340BB613B689A683F
:10423800FB695B0002FA03F3BA691343BB617B684D
:10424800BA69DA603B685B6803F00303022B23D189
:10425800FB69DA087B68083253F82230BB61FB69D6
:1042680003F007039B000F2202FA03F3DB43BA694A
:104278001340BB613B681A69FB6903F007039B00A5
:1042880002FA03F3BA691343BB61FB69DA087B6876
:104298000832B96943F822107B681B68BB61FB6967
:1042A8005B00032202FA03F3DB43BA691340BB61E4
:1042B8003B685B6803F00302FB695B0002FA03F3E7
:1042C800BA691343BB617B68BA691A603B685B686B
:1042D80003F44033002B00F0B4800023FB60604BF4
:1042E8005B6C5F4A43F4804353645D4B5B6C03F43F
:1042F8008043FB60FB685B4AFB699B08023352F80A
:104308002330BB61FB6903F003039B000F2202FA11
:1043180003F3DB43BA691340BB617B68524A93429B
:104328002BD07B68514A934225D07B68504A9342F0
:104338001FD07B684F4A934219D07B684E4A9342FC
:1043480013D07B684D4A93420DD07B684C4A934208
:1043580007D07B684B4A934201D107230EE008231C
:104368000CE006230AE0052308E0042306E0032303
:1043780004E0022302E0012300E00023FA6902F0CE
:10438800030292009340BA691343BB613549FB6944
:104398009B080233BA6941F823203B4B9B68BB61F9
:1043A8003B69DB43BA691340BB613B685B6803F454
:1043B8008013002B03D0BA693B691343BB61324AAF
:1043C800BB699360304BDB68BB613B69DB43BA690F
:1043D8001340BB613B685B6803F40013002B03D0F8
:1043E800BA693B691343BB61274ABB69D360264B53
:1043F8005B68BB613B69DB43BA691340BB613B68DF
:104408005B6803F40033002B03D0BA693B6913439C
:10441800BB611D4ABB6953601B4B1B68BB613B6991
:10442800DB43BA691340BB613B685B6803F48033C4
:10443800002B03D0BA693B691343BB61124ABB69BD
:104448001360FB690133FB61FB690F2B7FF690AEAC
:1044580000BF00BF2437BD465DF8047B704700BF2E
:1044680000380240003801400000024000040240C9
:1044780000080240000C02400010024000140240F4
:1044880000180240001C0240003C014080B485B086
:1044980000AF78600B467B807B681A697B88134085
:1044A800002B02D00123FB7301E00023FB73FB7B8D
:1044B80018461437BD465DF8047B704780B483B056
:1044C80000AF78600B467B8013467B707B78002BAF
:1044D80003D07A887B689A6103E07B881A047B683A
:1044E8009A6100BF0C37BD465DF8047B7047000039
:1044F80080B582B000AF0346FB80084B5A69FB8841
:104508001340002B06D0054AFB885361FB881846E8
:10451800FEF7ECFF00BF0837BD4680BD003C0140F8
:1045280080B586B002AF78607B68002B01D101238B
:1045380001E17B681B68BB607B6893F89534DBB24C
:10454800002B06D17B68002283F89424786807F052
:104558003FFF7B68032283F89524BB68B3F1A04F23
:1045680002D17B6800229A717B681B68184604F0A8
:10457800EEFA7B6818687B681A7C8DF80020043393
:104588000ECB04F0CDF90346002B05D07B68022240
:1045980083F895240123CEE07B681B680021184628
:1045A80004F0E6FA0346002B05D07B68022283F864
:1045B80095240123BFE00023FB734AE0FA7B796866
:1045C8001346DB0013449B000B44153301221A7079
:1045D800FA7B79681346DB0013449B000B441433C1
:1045E800FA7B1A70FA7BFB7B98B279681346DB007A
:1045F80013449B000B442E3302461A80FA7B7968D9
:104608001346DB0013449B000B44183300221A7036
:10461800FA7B79681346DB0013449B000B441C3378
:1046280000221A60FA7B79681346DB0013449B006A
:104638000B44203300221A60FA7B79681346DB00AA
:1046480013449B000B44243300221A60FB7B013384
:10465800FB737B681B79FA7B9A42AFD30023FB7309
:1046680044E0FA7B79681346DB0013449B000B4453
:1046780003F2552300221A70FA7B79681346DB008F
:1046880013449B000B4403F51573FA7B1A70FA7BED
:1046980079681346DB0013449B000B4403F516733B
:1046A80000221A70FA7B79681346DB0013449B00DA
:1046B8000B4403F5177300221A60FA7B79681346D6
:1046C800DB0013449B000B4403F5187300221A60A7
:1046D800FA7B79681346DB0013449B000B4403F50F
:1046E800197300221A60FB7B0133FB737B681B790B
:1046F800FA7B9A42B5D37B6818687B681A7C8DF878
:10470800002004330ECB04F07FFA0346002B05D0BB
:104718007B68022283F8952401230CE07B68002241
:104728005A747B68012283F895247B681B681846B5
:1047380005F0C9FA002318461037BD4680BD80B57C
:1047480084B000AF78607B681B68FB607B6893F877
:104758009434012B01D1022322E07B68012283F8E3
:104768009424FB68DB6803F04003002B09D07B68C6
:104778005B7B012B05D1FB689B6B43F48032FB68A4
:104788009A637B681B68184604F0D0F97B681B683D
:10479800184605F077FA7B68002283F894240023F2
:1047A80018461037BD4680BD90B58DB000AF786013
:1047B8007B681B683B623B6AFB617B681B68184629
:1047C80005F035FB0346002B40F08C847B681B68A2
:1047D800184605F099FA0346002B00F08284FB691D
:1047E80003F500639B681B0AC3F30D027B68C3F8DB
:1047F800D4247B681B68184605F086FA034603F044
:104808000203022B07D17B681B685A697B681B6807
:1048180002F002025A617B681B68184605F074FAB8
:10482800034603F01003102B61D17B681B689A695B
:104838007B681B6822F010029A613B6A1B6ABB61A5
:10484800BB6903F00F021346DB0013449B0003F51A
:1048580014737A68134404337B61BB695B0C03F0FF
:104868000F03022B24D1BA6947F6F0731340002BCB
:1048780035D07B69D968BB691B099BB2C3F30A03AE
:104888009BB21A46386A05F0ABF87B69DA68BB69EF
:104898001B09C3F30A031A447B69DA607B695A6906
:1048A800BB691B09C3F30A031A447B695A6116E002
:1048B800BB695B0C03F00F03062B10D17B6803F276
:1048C8009C4308221946386A05F08AF87B695A69B8
:1048D800BB691B09C3F30A031A447B695A617B68E5
:1048E8001B689A697B681B6842F010029A617B68B2
:1048F8001B68184605F008FA034603F40023B3F5CD
:10490800002F40F0A78000237B627B681B68184655
:1049180005F00DFAB86299E0BB6A03F00103002BB9
:1049280000F08E807B681B687A6AD2B211461846FE
:1049380005F031FA38613B6903F00103002B0CD014
:104948007B6A5A01FB69134403F530631A46012355
:104958009360796A786800F0A3FE3B6903F0080366
:10496800002B0CD07B6A5A01FB69134403F53063B2
:104978001A4608239360796A786800F079FF3B69E2
:1049880003F01003002B08D07B6A5A01FB6913441B
:1049980003F530631A46102393603B6903F0020362
:1049A800002B30D03B6A5B6903F08003802B09D170
:1049B800FB6903F500635B68FA6902F5006243F47A
:1049C800806353607A6A1346DB0013449B0003F547
:1049D80014737A68134404337B617B69DB78012B99
:1049E80008D17B690022DA707B6ADBB219467868E5
:1049F80007F0F4FD7B6A5A01FB69134403F5306341
:104A08001A46022393603B6903F02003002B08D069
:104A18007B6A5A01FB69134403F530631A46202365
:104A280093603B6903F40053002B09D07B6A5A0159
:104A3800FB69134403F530631A464FF4005393603F
:104A48007B6A01337B62BB6A5B08BB62BB6A002B73
:104A58007FF462AF7B681B68184605F055F903467A
:104A680003F48023B3F5802F40F0DB807B681B685C
:104A7800184605F076F9B86200237B62CDE0BB6A80
:104A880003F00103002B00F0C2807B681B687A6A80
:104A9800D2B21146184605F09CF938613B6903F01B
:104AA8000103002B57D07B6A03F00F03012202FA9F
:104AB80003F3FB60FB6903F500635A6BFB68DB4398
:104AC800F96901F5006113404B637B6A5A01FB6980
:104AD800134403F510631A46012393607B689B799E
:104AE800012B32D179687A6A1346DB0013449B00A4
:104AF8000B442033196878687A6A1346DB0013443C
:104B08009B0003441C331B68194478687A6A13466F
:104B1800DB0013449B000344203319607B6A002B9D
:104B280013D179687A6A1346DB0013449B000B445F
:104B380024331B68002B08D17B6818687B6803F254
:104B48009C431A46012105F0A3F97B6ADBB219469A
:104B5800786807F0BEFC3B6903F00803002B08D017
:104B68007B6A5A01FB69134403F510631A4608234C
:104B780093603B6903F01003002B08D07B6A5A014D
:104B8800FB69134403F510631A46102393603B69CD
:104B980003F04003002B08D07B6A5A01FB691344D9
:104BA80003F510631A46402393603B6903F0020340
:104BB800002B23D0796A386A04F08AF97A6A134696
:104BC800DB0013449B0010337A68134404337B6181
:104BD8007B69DB78012B08D17B690022DA707B6A5C
:104BE800DBB21946786807F00BFD7B6A5A01FB694E
:104BF800134403F510631A46022393603B6903F0DC
:104C08008003002B03D0796A786800F0BDFC7B6ACA
:104C180001337B62BB6A5B08BB62BB6A002B7FF413
:104C28002EAF7B681B68184605F06EF8034603F044
:104C38000043B3F1004F22D1FB6903F500635B68C1
:104C4800FA6902F5006223F0010353607B6893F868
:104C5800CC34012B08D17B68002283F8CC240021B6
:104C6800786800F0A3FE02E0786807F0A9FC7B688A
:104C78001B685A697B681B6802F000425A617B68AE
:104C88001B68184605F040F8034603F40063B3F5C3
:104C9800006F12D1FB6903F500639B6803F0010301
:104CA800012B02D1786807F065FC7B681B685A699C
:104CB8007B681B6802F400625A617B681B681846AF
:104CC80005F022F8034603F48053B3F5805F40F003
:104CD800B780FB6903F500635B68FA6902F5006257
:104CE80023F0010353607B681B681021184604F009
:104CF800EFF80023FB6246E0FB6A5A01FB691344A4
:104D080003F510631A464FF67F339360FB6A5A0126
:104D1800FB69134403F510631B68FA6A5101FA69C9
:104D28000A4402F5106223F400131360FB6A5A0167
:104D3800FB69134403F530631A464FF67F339360DB
:104D4800FB6A5A01FB69134403F530631B68FA6A6E
:104D58005101FA690A4402F5306223F40013136022
:104D6800FB6A5A01FB69134403F530631B68FA6A4E
:104D78005101FA690A4402F5306243F00063136096
:104D8800FB6A0133FB627B681B791A46FB6A934214
:104D9800B2D3FB6903F50063DB69FA6902F50062C7
:104DA80043F00113D3617B68DB7B002B16D0FB69D2
:104DB80003F50063D3F88430FA6902F5006243F022
:104DC8000B03C2F88430FB6903F500635B6CFA6976
:104DD80002F5006243F00B03536415E0FB6903F529
:104DE80000635B69FA6902F5006243F4005343F01B
:104DF8002B035361FB6903F500631B69FA6902F52C
:104E0800006243F00B031361FB6903F500631B6841
:104E1800FA6902F5006223F4FE6313607B68186880
:104E28007B6899797B6803F29C431A4605F030F851
:104E38007B681B685A697B681B6802F480525A6158
:104E48007B681B68184604F05FFF034603F40053B1
:104E5800B3F5005F23D17B681B68184604F0F5FFA3
:104E68007B681B68184604F0ACF803461A467B6852
:104E7800DA717B681C6801F009FA01467B68DB7906
:104E88001A46204603F0B0FD786807F04AFB7B68B5
:104E98001B685A697B681B6802F400525A617B6878
:104EA8001B68184604F030FF034603F00803082B7C
:104EB8000AD1786807F027FB7B681B685A697B680A
:104EC8001B6802F008025A617B681B68184604F0E8
:104ED8001BFF034603F08003802B23D13B6A9B69A9
:104EE80023F080023B6A9A6101237B6214E07968AF
:104EF8007A6A1346DB0013449B000B4403F25723E2
:104F08001B78012B05D17B6ADBB21946786800F063
:104F18000AFB7B6A01337B627B681B791A467B6AD2
:104F28009342E4D37B681B68184604F0EDFE034601
:104F380003F48013B3F5801F3CD101237B622BE07F
:104F48007B6A5A01FB69134403F510631B68BB6154
:104F580079687A6A1346DB0013449B000B441833C4
:104F68001B78012B15D1BB69002B12DA79687A6A94
:104F78001346DB0013449B000B44173301221A70BD
:104F88007B6ADBB263F07F03DBB21946786800F016
:104F9800CAFA7B6A01337B627B681B791A467B6A93
:104FA8009342CDD37B681B685A697B681B6802F4FF
:104FB80080125A617B681B68184604F0A5FE0346F8
:104FC80003F40013B3F5001F56D101237B6245E0BB
:104FD8007B6A5A01FB69134403F530631B68BB61A4
:104FE80079687A6A1346DB0013449B000B4403F587
:104FF80016731B78012B2ED1BB69002B2BDABB69EA
:105008001A0C7B68D3F8D434534003F00103002B07
:1050180021D179687A6A1346DB0013449B000B445C
:1050280003F2572301221A703B6A9B6943F08002FE
:105038003B6A9A613B6A5B6903F08003002B0AD1E3
:10504800FB6903F500635B68FA6902F5006243F4E3
:105058000073536008E07B6A01337B627B681B79CD
:105068001A467B6A9342B3D37B681B685A697B688C
:105078001B6802F400125A617B681B68184604F02A
:1050880043FE034603F08043B3F1804F0AD17868AA
:1050980007F0C8FA7B681B685A697B681B6802F0CE
:1050A80080425A617B681B68184604F02DFE03464F
:1050B80003F00403042B15D17B681B685B68BB6194
:1050C800BB6903F00403002B02D0786807F0B8FA34
:1050D8007B681B6859687B681B68BA690A435A6011
:1050E80000E000BF3437BD4690BD80B582B000AF48
:1050F80078600B46FB707B6893F89434012B01D1E0
:10510800022312E07B68012283F894247B68FA78F2
:105118005A747B681B68FA781146184604F08CFDAF
:105128007B68002283F89424002318460837BD467C
:1051380080BD80B584B000AF7860084611461A4635
:105148000346FB700B463B801346BB700023FB7283
:1051580097F90330002B0FDAFB7803F00F021346A0
:10516800DB0013449B0010337A6813440433FB605C
:10517800FB6801225A700FE0FB7803F00F02134618
:10518800DB0013449B0003F514737A68134404335B
:10519800FB60FB6800225A70FB7803F00F03DAB259
:1051A800FB681A703B88C3F30A02FB689A60FB68C5
:1051B800BA781A71FB685B78002B04D0FB681B78FF
:1051C8001A46FB685A83BB78022B02D1FB6800227F
:1051D8005A717B6893F89434012B01D102230EE0B5
:1051E8007B68012283F894247B681B68F968184659
:1051F80003F00CFF7B68002283F89424FB7A18469E
:105208001037BD4680BD80B584B000AF78600B46CE
:10521800FB7097F90330002B0FDAFB7803F00F02CD
:105228001346DB0013449B0010337A68134404339D
:10523800FB60FB6801225A700FE0FB7803F00F0255
:105248001346DB0013449B0003F514737A68134478
:105258000433FB60FB6800225A70FB7803F00F03ED
:10526800DAB2FB681A707B6893F89434012B01D189
:1052780002230EE07B68012283F894247B681B6874
:10528800F968184603F04AFF7B68002283F89424E3
:10529800002318461037BD4680BD80B586B000AFE4
:1052A800F8607A603B600B46FB72FB7A03F00F02F2
:1052B8001346DB0013449B0003F51473FA68134488
:1052C80004337B617B697A68DA607B693A681A61C2
:1052D8007B6900225A617B6900225A70FB7A03F0CD
:1052E8000F03DAB27B691A70FB689B79012B02D134
:1052F8007A687B69DA61FB681868FB689B791A46EB
:10530800796903F0E7FF002318461837BD4680BDCA
:1053180080B483B000AF78600B46FB70FB7803F075
:105328000F0279681346DB0013449B000B4403F516
:105338001A731B6818460C37BD465DF8047B704726
:1053480080B586B000AFF8607A603B600B46FB72B0
:10535800FB7A03F00F021346DB0013449B00103363
:10536800FA68134404337B617B697A68DA607B6985
:105378003A681A617B6900225A617B6901225A7076
:10538800FB7A03F00F03DAB27B691A70FB689B792A
:10539800012B02D17A687B69DA61FB681868FB68BF
:1053A8009B791A46796903F095FF00231846183748
:1053B800BD4680BD80B584B000AF78600B46FB70F9
:1053C800FB7803F00F037A681279934201D901231D
:1053D8004FE097F90330002B0FDAFB7803F00F0248
:1053E8001346DB0013449B0010337A6813440433DC
:1053F800FB60FB6801225A700DE0FA781346DB0067
:1054080013449B0003F514737A6813440433FB6058
:10541800FB6800225A70FB6801229A70FB7803F03F
:105428000F03DAB2FB681A707B6893F89434012B87
:1054380001D102231DE07B68012283F894247B6854
:105448001B68F968184604F023FBFB7803F00F0388
:10545800002B09D17B6818687B6899797B6803F20F
:105468009C431A4604F014FD7B68002283F89424B8
:10547800002318461037BD4680BD80B584B000AF04
:1054880078600B46FB70FB7803F00F037A6812799B
:10549800934201D9012342E097F90330002B0FDA38
:1054A800FB7803F00F021346DB0013449B00103314
:1054B8007A6813440433FB60FB6801225A700FE0DA
:1054C800FB7803F00F021346DB0013449B0003F53F
:1054D80014737A6813440433FB60FB6800225A7023
:1054E800FB6800229A70FB7803F00F03DAB2FB68BE
:1054F8001A707B6893F89434012B01D102230EE0D3
:105508007B68012283F894247B681B68F968184635
:1055180004F02CFB7B68002283F8942400231846AF
:105528001037BD4680BD80B584B000AF78600B46AB
:10553800FB7097F90330002B0CDAFB7803F00F02AD
:105548001346DB0013449B0010337A68134404337A
:10555800FB600CE0FB7803F00F021346DB001344FA
:105568009B0003F514737A6813440433FB607B686B
:105578001B68F968184604F04BF90346FB72FB7A7E
:1055880018461037BD4680BD80B58AB002AF786036
:1055980039607B681B687B617B693B613A681346AD
:1055A800DB0013449B0010337A6813440433FB6018
:1055B800FB685A69FB681B699A4201D901236BE0B1
:1055C800FB681A69FB685B69D31AFB61FB689B6817
:1055D800FA699A4202D9FB689B68FB61FB6903334D
:1055E8009B08BB612AE0FB681A69FB685B69D31AF0
:1055F800FB61FB689B68FA699A4202D9FB689B6861
:10560800FB61FB6903339B08BB61FB68D9683B6896
:10561800DAB2FB6998B27B689B7900930346786994
:1056280004F0A0F9FB68DA68FB691A44FB68DA60E1
:10563800FB685A69FB691A44FB685A613B685A015E
:105648003B69134403F510639B699BB2BA699A429C
:1056580009D8FB685A69FB681B699A4203D2FB6840
:105668001B69002BBFD1FB681A69FB685B699A420A
:1056780011D83B6803F00F03012202FA03F3BB6061
:105688003B6903F500635A6BBB68DB43396901F575
:10569800006113404B63002318462037BD4680BD88
:1056A80080B588B000AF786039607B681B68FB61A3
:1056B800FB69BB61FB693C3304331B687B613B6856
:1056C8005A01BB69134403F530639B683B617B68EF
:1056D8009B79012B7BD13B6903F00803002B15D084
:1056E8007B69614A934240F2B9803B6903F4004305
:1056F800002B00F0B3803B685A01BB69134403F5E3
:1057080030631A464FF400439360A7E03B6903F007
:105718002003002B09D03B685A01BB69134403F5E9
:1057280030631A462023936098E03B6903F028030E
:10573800002B40F093807B694B4A93420FD93B6919
:1057480003F40043002B0AD03B685A01BB69134499
:1057580003F530631A464FF4004393607EE03A68DD
:105768001346DB0013449B0003F514737A68134453
:105778000433FB60FB681A6A3B685901BB690B4438
:1057880003F530631B69C3F31203D21AFB685A612D
:105798003B68002B14D1FB681B69002B09D17B687F
:1057A80018687B6803F29C431A46012104F070FBD9
:1057B80006E0FB68DA68FB685B691A44FB68DA6034
:1057C8003B68DBB21946786806F068FE46E07B69FC
:1057D800264A934224D13B6903F40043002B0AD0A4
:1057E8003B685A01BB69134403F530631A464FF40A
:1057F8000043936032E03B6903F02003002B08D09C
:105808003B685A01BB69134403F530631A462023E9
:1058180093603B68DBB21946786806F03FFE1DE0EE
:105828003B68002B14D179683A681346DB001344AF
:105838009B000B4403F519731B68002B08D17B6888
:1058480018687B6803F29C431A46002104F020FB89
:105858003B68DBB21946786806F020FE002318463C
:105868002037BD4680BD00BF0A30544F0A31544F1F
:1058780080B586B000AF786039607B681B687B6153
:105888007B693B617B693C3304331B68FB603B6885
:105898005A013B69134403F530639B68BB60FB689E
:1058A800154A93420ED9BB6803F40043002B09D074
:1058B8003B685A013B69134403F530631A464FF4B9
:1058C80000439360786806F0D7FDFB680A4A934264
:1058D8000CD97B689B79012B08D17B6818687B6899
:1058E80003F29C431A46012104F0D2FA0023184619
:1058F8001837BD4680BD00BF0A30544F80B485B00C
:1059080000AF78600B46FB7013463B807B681B68D2
:105918005B6ABB60FB78002B07D13B8819047B6866
:105928001B68BA680A439A6228E07B681B689B6A0E
:105938001B0CBA681344BB600023FB730DE07B6843
:105948001A68FB7B40339B0013445B681B0CBA68E6
:105958001344BB60FB7B0133FB73FA7BFB78013B91
:105968009A42ECD33B8818047B681968FB78013BA2
:10597800BA68024340339B000B445A600023184620
:105988001437BD465DF8047B704780B483B000AF20
:1059980078600B467B807B681B687A885A62002394
:1059A80018460C37BD465DF8047B704780B483B059
:1059B80000AF78600B46FB7000BF0C37BD465DF842
:1059C800047B704780B586B000AF78607B68002B99
:1059D80001D1012367E27B681B6803F00103002BF8
:1059E80075D0884B9B6803F00C03042B0CD0854BB7
:1059F8009B6803F00C03082B12D1824B5B6803F4FD
:105A08008003B3F5800F0BD17E4B1B6803F4003382
:105A1800002B5BD07B685B68002B57D1012342E2E7
:105A28007B685B68B3F5803F06D1764B1B68754A87
:105A380043F4803313601DE07B685B68B3F5A02FE7
:105A48000CD1704B1B686F4A43F4802313606D4B75
:105A58001B686C4A43F4803313600BE0694B1B6886
:105A6800684A23F480331360664B1B68654A23F445
:105A7800802313607B685B68002B13D0FDF726FE3C
:105A8800386108E0FDF722FE02463B69D31A642B11
:105A980001D9032307E25B4B1B6803F40033002B97
:105AA800F0D014E0FDF712FE386108E0FDF70EFEB5
:105AB80002463B69D31A642B01D90323F3E1514B06
:105AC8001B6803F40033002BF0D100E000BF7B68B3
