:020000040800F2
:10000000000002203935000839300008413000086E
:100010004930000851300008593000080000000045
:100020000000000000000000000000006130000837
:100030006F300008000000007D3000088B300008A1
:100040008935000889350008893500088935000898
:10005000893500088935000899300008893500087D
:1000600069310008393200088935000889350008EF
:100070008935000889350008893500088935000868
:1000800009330008893500088935000889350008DA
:100090008935000889350008893500088935000848
:1000A0001D330008893500088935000889350008A6
:1000B0005133000889350008893500088935000862
:1000C0008935000889350008893500088935000818
:1000D00089350008893500087D3300088935000816
:1000E00091330008893500088935000889350008F2
:1000F00089350008893500088935000889350008E8
:100100008935000889350008B133000889350008B1
:10011000893500088935000889350008DD33000875
:1001200089350008893500088935000889350008B7
:1001300089350008893500088935000889350008A7
:100140008935000889350008893500080134000820
:100150008935000889350008893500088935000887
:100160008935000889350008893500088935000877
:10017000893500088935000889350008000000002D
:080180008935000889350008EB
:1001880010B5054C237833B9044B13B10448AFF3C9
:1001980000800123237010BD8801002000000000AA
:1001A800DCC9000808B5034B1BB103490348AFF38A
:1001B800008008BD000000008C010020DCC9000898
:1001C80053B94AB9002908BF00281CBF4FF0FF31B6
:1001D8004FF0FF3000F06AB9ADF1080C6DE904CEBC
:1001E80000F006F8DDF804E0DDE9022304B070470A
:1001F8002DE9F047089D0C46002B4ED194468C45BE
:100208008646B2FA82F262D94AB1C2F1200391401D
:1002180020FA03F30CFA02FC194300FA02FE4FEA33
:100228001C471FFA8CF6B1FBF7F44FEA1E4307FB95
:10023800141143EA014304FB06F199420AD91CEB65
:10024800030304F1FF3080F01281994240F20F81DC
:10025800023C6344591A1FFA8EF3B1FBF7F007FB0F
:10026800101143EA014300FB06F69E420AD91CEB33
:10027800030300F1FF3180F0FC809E4240F2F980D8
:10028800634402389B1B40EA044000211DB1D3405F
:100298000022C5E90032BDE8F0878B4205D90DB1CF
:1002A800C5E9000100210846F5E7B3FA83F1002902
:1002B80046D1A34202D39042C0F0F080861A64EB84
:1002C80003030120002DE6D0C5E90063E3E7002A17
:1002D80040F09080A1EB0C044FEA1C481FFA8CF701
:1002E8000121B4FBF8F64FEA1E4308FB164443EA23
:1002F800044307FB06F0984208D91CEB030306F1F8
:10030800FF3402D2984200F2CD8026461C1A1FFA0A
:100318008EF3B4FBF8F008FB104443EA044300FBF7
:1003280007F79F4208D91CEB030300F1FF3402D200
:100338009F4200F2B0802046DB1B40EA0640A5E75A
:10034800C1F120068B4022FA06F71F4320FA06FC6B
:1003580004FA01F343EA0C03F44000FA01F8380CFC
:100368004FEA1349B4FBF0FE1FFA87FC00FB1E445A
:1003780049EA04440EFB0CF9A14502FA01F20AD934
:100388003C190EF1FF3A80F08480A14540F281804B
:10039800AEF1020E3C44A4EB09041FFA83F9B4FB46
:1003A800F0F300FB134449EA044403FB0CFCA445A6
:1003B80007D93C1903F1FF3067D2A44565D9023B40
:1003C8003C4443EA0E40A0FB0293A4EB0C049C427D
:1003D800CE469C4651D34ED055B1B8EB0E0364EBD4
:1003E8000C0404FA06F6CB401E43CC40C5E9006471
:1003F800002150E7C2F1200320FA03F10CFA02FCB5
:1004080024FA03F394400C434FEA1C4800FA02FE16
:100418001FFA8CF7B3FBF8F008FB1031230C43EA02
:10042800014300FB07F1994208D91CEB030300F1D3
:10043800FF362CD299422AD9023863445B1AA4B2F7
:10044800B3FBF8F108FB113344EA034401FB07F35B
:10045800A34208D91CEB040401F1FF3613D2A342CE
:1004680011D902396444E41A41EA004139E70446E3
:10047800F0E6084606E7C845AED2B9EB020E63EBD4
:10048800070C0138A8E73146EDE7034699E73046FF
:10049800D4E7D6467FE7634402384DE7064623464D
:1004A80008460FE7023E634430E700BF704700BFCD
:1004B80080B500AF41F6583003F0D6F84FF480729B
:1004C8001D491E4807F08FF81D4805F025FF1D48F7
:1004D80005F022FF1C4805F01FFF1C4805F01CFF13
:1004E8004CF25031322001F0A3F84CF25031322056
:1004F80001F0D0F842F21071322001F0FDF8144BEF
:100508001B6800225A620E4B1B6800225A62114B6C
:100518001B6800225A620C4B1B6800225A620E4B61
:100528001B6800225A62074B1B6800225A6200F0BF
:1005380015F800BF80BD00BFA8020020AC0800204D
:100548008C07002064080020FC060020D407002047
:100558001C080020B40600204407002080B500AF26
:1005680000F0E6F900BF80BD80B500AF244B1B78D2
:10057800DBB2002B04D0234B1B68214B00221A70DE
:1005880000F05CF900F082F91F4B9B79DBB2002B7D
:1005980010D11E4B9B79DBB2002B0BD11C4B9B79E6
:1005A800DBB2002B06D11B4B1A68137843F080038B
:1005B800137005E0174B1A6813786FF3C71313709D
:1005C800114B5B889BB2002B10D1104B5B889BB200
:1005D800002B0BD10E4B5B889BB2002B06D10D4B29
:1005E8001A68137843F04003137006E0094B1A6841
:1005F80013786FF38613137000BF00BF80BD00BF70
:100608005C09002058090020740000207C000020AC
:10061800840000200800002080B500AF01F08AFBAC
:1006280001F0C0FA01F04EFC00BF80BD80B483B079
:1006380000AF0346FB80054B1B68FA881A8000BF91
:100648000C37BD465DF8047B704700BF0C000020E6
:1006580080B483B000AF0346FB80054B1B68FA8863
:10066800DA8000BF0C37BD465DF8047B704700BFD9
:100678000C00002080B483B000AF0346FB80054B1C
:100688001B68FA889A8100BF0C37BD465DF8047B69
:10069800704700BF0C00002080B400AF034B1B68FC
:1006A8001B881846BD465DF8047B70471000002083
:1006B80080B400AF034B1B68DB881846BD465DF865
:1006C800047B70471000002080B400AF034B1B6808
:1006D8009B891846BD465DF8047B704710000020D2
:1006E80080B483B000AF0346FB80FB88002B04D1A5
:1006F800074B1B6801229A8003E0054B1B68002208
:100708009A8000BF0C37BD465DF8047B704700BF78
:100718000C00002080B483B000AF0346FB80FB8848
:10072800002B04D1074B1B6801225A8103E0054BBB
:100738001B6800225A8100BF0C37BD465DF8047B58
:10074800704700BF0C00002080B483B000AF0346A0
:10075800FB80FB88002B04D1074B1B6801221A82FF
:1007680003E0054B1B6800221A8200BF0C37BD4608
:100778005DF8047B704700BF0C00002080B400AF18
:100788000D4B1B689B8846F66C32934206D90A4B80
:100798001B689B884DF2D762934204D9064B1B68AD
:1007A8004DF2D8629A80044B1B689B881846BD4658
:1007B8005DF8047B704700BF1000002080B400AFD4
:1007C8000D4B1B685B8944F26E12934206D90A4BA3
:1007D8001B685B8948F2DB22934204D9064B1B68ED
:1007E80048F2DC225A81044B1B685B891846BD46D7
:1007F8005DF8047B704700BF1000002080B400AF94
:100808000D4B1B681B8A42F22832934206D90A4BC9
:100818001B681B8A44F24F62934204D9064B1B683B
:1008280044F250621A82044B1B681B8A1846BD4664
:100838005DF8047B704700BF1000002080B582B0CF
:1008480000AF104B1B681B781A4692FAA2F3B3FA52
:1008580083F3002A01D14FF0FF330133FB80FB887B
:10086800002B0AD0FB88013BFB80FB88072B04D8B0
:10087800FB88054A52F82330984700BF0837BD4621
:1008880080BD00BF000000205400002080B584B067
:1008980000AF244B1B681B78BB60234B1B68BA68EE
:1008A80053407B607B68002B37D00023FB732DE01F
:1008B800FB7B7A6822FA03F303F00103002B22D0B2
:1008C800FB7BBA6822FA03F303F00103002B0DD077
:1008D800FB7B164A52F83300FB7B144ADB001344B7
:1008E8009B880022194603F0ABFD0CE0FB7B0F4A06
:1008F80052F83300FB7B0D4ADB0013449B8801222E
:10090800194603F09DFDFB7B0133FB73FB7B072B33
:10091800CED9054ABB68136000E000BF1037BD465A
:1009280080BD00BF04000020A401002014000020A6
:1009380080B500AF2D4B9B79DBB2002B53D12C4BEC
:100948009B79DBB2002B4ED12A4B9B79DBB2002B73
:1009580049D1294B1A6813786FF3C7131370264BC4
:100968001A6813786FF3861313700821234803F06D
:100978004FFD0346012B03D11E4B04229A7102E05E
:100988001C4B03229A7101F029FB00BF194B9B797C
:10099800DBB2052BFAD100BF164B9B79DBB2002BDB
:1009A800FAD10121154803F033FD0346012B03D189
:1009B8000E4B04229A7102E00C4B03229A7101F04B
:1009C8007DF904210D4803F023FD0346012B03D1D3
:1009D800074B04229A7102E0054B03229A7101F039
:1009E80035FA01F07FFC00BF80BD00BF7400002015
:1009F8007C0000208400002008000020000802403D
:100A0800B0B500AF134B1A6813786FF34103137036
:100A1800114B9B79DBB2002B19D1104B9B79DBB2C0
:100A2800002B14D10E4B9B79DBB2002B0FD1FFF7B3
:100A380033FE03461C46FFF73BFE03461D46FFF701
:100A480043FE03461A462946204600F0DBFF00BF56
:100A5800B0BD00BF00000020740000207C00002012
:100A68008400002080B500AF0A4B5B889BB2002B46
:100A78000ED0084B9B79DBB2002B0AD1054B022222
:100A88009A71044B5B889BB2184600F0D3FE00E0D5
:100A980000BF80BD7400002098B500AF0F4B5B8885
:100AA8009CB2FFF76BFE03469C4214D20B4B9B791A
:100AB800DBB2002B10D1094B02229A71FFF75EFEC0
:100AC80003461A46054B5B889BB2D31A9BB218465D
:100AD80000F0D2FE00E000BF98BD00BF7400002007
:100AE80098B500AF0F4B5B889CB2FFF767FE0346D3
:100AF8009C4214D20B4B9B79DBB2002B10D1094BD3
:100B080002229A71FFF75AFE03461A46054B5B8884
:100B18009BB2D31A9BB2184600F0D0FE00E000BF8B
:100B280098BD00BF7C00002080B500AF0A4B5B88F1
:100B38009BB2002B0ED0084B9B79DBB2002B0AD15D
:100B4800054B02229A71044B5B889BB2184600F051
:100B5800D7FE00E000BF80BD7C00002080B500AF5C
:100B68000A4B5B889BB2002B0ED0084B9B79DBB2FB
:100B7800002B0AD1054B02229A71044B5B889BB269
:100B8800184600F0DFFE00E000BF80BD84000020B2
:100B980098B500AF0F4B5B889CB2FFF72FFE03465A
:100BA8009C4214D20B4B9B79DBB2002B10D1094B22
:100BB80002229A71FFF722FE03461A46054B5B880C
:100BC8009BB2D31A9BB2184600F0DEFE00E000BFCD
:100BD80098BD00BF8400002080B485B000AF786065
:100BE8000B467B804FF6FF73FB810023BB8122E01D
:100BF800BB897A6813441B781A46FB895340FB81EA
:100C08000023FB7211E0FB8903F00103002B06D0DF
:100C1800FB895B089AB20D4B5340FB8102E0FB89CC
:100C28005B08FB81FB7A0133FB72FB7A072BEAD95D
:100C3800BB890133BB81BA897B889A42D8D3FB89A7
:100C480018461437BD465DF8047B704701A0FFFFC6
:100C580080B500AF244B1B78012B43D1224B5B7826
:100C6800013B0F2B3AD801A252F823F0B50C00082B
:100C7800BB0C0008C10C0008C70C0008CD0C00080C
:100C8800D30C0008E50C0008E50C0008E50C00088A
:100C9800E50C0008E50C0008E50C0008E50C000868
:100CA800E50C0008D90C0008DF0C000800F06CF90E
:100CB80018E000F017FA15E000F07EF812E000F0F6
:100CC800EFF80FE000F084FB0CE000F037FB09E0E0
:100CD80000F0F8FB06E000F0B5FA03E0012000F0B0
:100CE8004BF800BF00BF80BDA802002080B584B0CB
:100CF80000AF786039603B689BB219467868FFF7A7
:100D08006BFF0346FB813B687A681344FA89D2B2C9
:100D18001A70FB891B0A99B23B6801337A6813443D
:100D2800CAB21A70124B1B78DBB2012B0AD13B688E
:100D38009BB202339AB24FF47A7379680D4806F081
:100D4800C7FB10E00A4B1B78DBB2022B0BD100BFAC
:100D58003B689BB202339BB2194678680BF0B2F934
:100D68000346012BF4D000BF1037BD4680BD00BF3D
:100D78005C090020AC08002080B582B000AF0346B3
:100D8800FB710B4B1A780B4B1A70094B5B7863F0AD
:100D98007F03DAB2074B5A70064AFB799370032136
:100DA8000448FFF7A3FF00BF0837BD4680BD00BF5A
:100DB800A8020020A801002080B584B000AF354B00
:100DC8009B781B021AB2334BDB781BB213431BB25E
:100DD800FB81304B1B791B021AB22E4B5B791BB27D
:100DE80013431BB27B807B88002B03D07B88B3F531
:100DF800967F04D30320FFF7BFFF002345E0FA895D
:100E08007B8813449BB2013B3B803B88B3F5967FBC
:100E180004D30220FFF7B0FF002336E01E4B012267
:100E28001A701C4B5A781C4B5A707B88DBB25B00DB
:100E3800DAB2194B9A700323BB6000237B601BE076
:100E4800FB89164A32F813301B0A99B2BB685A1C40
:100E5800BA60C9B2104AD154FB89104A32F813104B
:100E6800BB685A1CBA60C9B20B4AD154FB8901331A
:100E7800FB817B6801337B607B887A689A42DFDB81
:100E8800B9680548FFF732FF012318461037BD46F9
:100E980080BD00BFA8020020A80100205C0400203B
:100EA80080B584B000AF354B9B781B021AB2334B28
:100EB800DB781BB213431BB2FB81304B1B791B023F
:100EC8001AB22E4B5B791BB213431BB27B807B8813
:100ED800002B03D07B88B3F5967F04D30320FFF75C
:100EE8004BFF002345E0FA897B8813449BB2013B02
:100EF8003B803B88B3F5967F04D30220FFF73CFF85
:100F0800002336E01E4B01221A701C4B5A781C4BEA
:100F18005A707B88DBB25B00DAB2194B9A700323F4
:100F2800BB6000237B601BE0FB89164A32F8133054
:100F38001B0A99B2BB685A1CBA60C9B2104AD1548C
:100F4800FB89104A32F81310BB685A1CBA60C9B240
:100F58000B4AD154FB890133FB817B6801337B60E9
:100F68007B887A689A42DFDBB9680548FFF7BEFEDE
:100F7800012318461037BD4680BD00BFA8020020D7
:100F8800A8010020A803002080B588B000AF524B0C
:100F98009B781B021AB2504BDB781BB213431BB26F
:100FA8007B814D4B1B791B021AB24B4B5B791BB2F1
:100FB80013431BB23B813B89002B03D03B89B3F51C
:100FC800FA6F04D90320FFF7D7FE002380E07A895F
:100FD8003B8913449BB2013BFB80FB88C72B04D998
:100FE8000220FFF7C9FE002372E04FF4807200214F
:100FF8003A480BF0C3FC394B01221A70364B5A7829
:10100800364B5A703B89DB089BB2DBB23A8902F057
:10101800070292B2002A14BF01220022D2B213445E
:10102800DAB22E4B9A700323FB617B89DB089BB2F3
:10103800BB617B8903F00703FB8200233B6100232C
:10104800FB6033E0254AFB6913441B785AB22449F4
:10105800BB690B441B781946FB8A41FA03F303F07A
:1010680001013B6901FA03F35BB213435BB2D9B2E6
:101078001A4AFB6913440A461A703B6901333B61FB
:10108800FB8A0133FB823B69072B04DD00233B61AC
:10109800FB690133FB61FB8A072B04D90023FB8220
:1010A800BB690133BB61FB680133FB603B89FA68AC
:1010B8009A42C7DB3B8903F007039BB2002B02D09F
:1010C800FB690133FB61F9690448FFF70FFE01234F
:1010D80018462037BD4680BDA8020020A801002080
:1010E8004004002080B588B000AF534B9B781B02AA
:1010F8001AB2514BDB781BB213431BB27B814E4BA8
:101108001B791B021AB24C4B5B791BB213431BB2FF
:101118003B813B89002B03D03B89B3F5FA6F04D997
:101128000320FFF729FE002381E07A893B891344D5
:101138009BB2013BFB80FB88B3F5C87F04D9022032
:10114800FFF71AFE002372E04FF4807200213B483B
:101158000BF014FC394B01221A70374B5A78374B75
:101168005A703B89DB089BB2DBB23A8902F007026E
:1011780092B2002A14BF01220022D2B21344DAB27A
:101188002E4B9A700323FB617B89DB089BB2BB6102
:101198007B8903F00703FB8200233B610023FB608C
:1011A80033E0264AFB6913441B785AB22449BB69C9
:1011B8000B441B781946FB8A41FA03F303F001013B
:1011C8003B6901FA03F35BB213435BB2D9B21B4A22
:1011D800FB6913440A461A703B6901333B61FB8A79
:1011E8000133FB823B69072B04DD00233B61FB696C
:1011F8000133FB61FB8A072B04D90023FB82BB69FF
:101208000133BB61FB680133FB603B89FA689A4292
:10121800C7DB3B8903F007039BB2002B02D0FB69B5
:101228000133FB61F9690548FFF760FD01231846A2
:101238002037BD4680BD00BFA8020020A8010020BD
:101248000C04002080B584B000AF394B9B781B029A
:101258001AB2374BDB781BB213431BB2FB81344BFA
:101268001B791B021AB2324B5B791BB213431BB2B8
:101278007B807B88002B03D07B88B3F5967F04D3D3
:101288000320FFF779FD00234DE0FA897B8813449A
:101298009BB2013B3B803B88B3F5967F04D3022089
:1012A800FFF76AFD00233EE00723BB6000237B6055
:1012B80019E0BB685A1CBA601D4AD35C1B021AB2FB
:1012C800BB68591CB9601A49CB5C1BB2134319B2ED
:1012D800FB895A1CFA811A4689B2164B23F8121058
:1012E8007B6801337B607B887A689A42E1DB124B2A
:1012F80001221A700E4B5A780F4B5A700C4B9A7881
:101308000D4B9A700A4BDA780B4BDA70084B1A7946
:10131800094B1A71064B5A79074B5A710621064830
:10132800FFF7E4FC012318461037BD4680BD00BF17
:10133800A80200205C040020A801002080B582B02B
:1013480000AF204B9B781B021AB21E4BDB781BB2F6
:1013580013431BB2FB80FB88B3F5967F04D30220AE
:10136800FFF70AFD002329E0164B1B791B021AB26E
:10137800144B5B791BB213431AB2FB8891B2124A21
:1013880022F81310114B01221A700E4B5A780F4B8A
:101398005A700C4B9A780D4B9A700A4BDA780B4BB3
:1013A800DA70084B1A79094B1A71064B5A79074BB0
:1013B8005A7106210548FFF799FC0123184608379A
:1013C800BD4680BDA80200205C040020A8010020C2
:1013D80080B584B000AF384B9B781B021AB2364BED
:1013E800DB781BB213431BB2FB81FB89C72B04D9E3
:1013F8000220FFF7C1FC00235AE0FB89DB089BB2FF
:10140800BB60FB8903F00703FB802B4B1B79FF2B89
:1014180016D1294B5B79002B12D1284ABB6813449B
:101428001B785AB2FB88012101FA03F35BB213431C
:101438005BB2D9B2214ABB6813440A461A701BE052
:101448001D4B1B79002B17D11B4B5B79002B13D13C
:101458001A4ABB6813441B785AB2FB88012101FA67
:1014680003F35BB2DB435BB213405BB2D9B2134AFE
:10147800BB6813440A461A70114B01221A700E4BAE
:101488005A780F4B5A700C4B9A780D4B9A700A4B3E
:10149800DA780B4BDA70084B1A79094B1A71064B3C
:1014A8005A79074B5A7106210548FFF71FFC01239B
:1014B80018461037BD4680BDA80200204004002011
:1014C800A801002080B588B000AF564B9B781B025E
:1014D8001AB2544BDB781BB213431BB27B81514BBE
:1014E8001B791B021AB24F4B5B791BB213431BB219
:1014F8003B813B89002B03D03B89B3F5F66F04D9B8
:101508000320FFF739FC002388E07A893B891344DC
:101518009BB2013BFB80FB88C72B04D90220FFF755
:101528002BFC00237AE07B89DB089BB2FB617B897B
:1015380003F007037B8300237B6107233B610023C0
:10154800FB604BE0374A3B6913441B781A467B69BA
:1015580042FA03F303F00103002B12D0324AFB696D
:1015680013441B785AB27B8B012101FA03F35BB257
:1015780013435BB2D9B22C4AFB6913440A461A706A
:1015880013E0294AFB6913441B785AB27B8B01216B
:1015980001FA03F35BB2DB435BB213405BB2D9B22F
:1015A800214AFB6913440A461A707B8B01337B83FB
:1015B8007B6901337B617B69072B04DD00237B6139
:1015C8003B6901333B617B8B072B04D900237B8369
:1015D800FB690133FB61FB680133FB603B89FA68F7
:1015E8009A42AFDB114B01221A700E4B5A780F4BFF
:1015F8005A700C4B9A780D4B9A700A4BDA780B4B51
:10160800DA70084B1A79094B1A71064B5A79074B4D
:101618005A7106210548FFF769FB01231846203750
:10162800BD4680BDA802002040040020A80100207B
:1016380080B483B000AF03460A46FB801346BB80E4
:10164800FB88002B03D0FA88BB889A4201D9BB8853
:10165800FB80FA880C4B1B680C49B1FBF2F2DA628A
:10166800FB880A4AB2FBF3F3074AD360FA88064BB1
:101678001B680749B1FBF2F25A6300BF0C37BD463D
:101688005DF8047B704700BF1C08002080841E00A2
:1016980040420F0080B483B000AF03460A46FB8087
:1016A8001346BB80FB88002B03D0FA88BB889A427C
:1016B80001D9BB88FB80FA880C4B1B680C49B1FB2D
:1016C800F2F2DA62FB880A4AB2FBF3F3074AD36004
:1016D800FA88064B1B680749B1FBF2F25A6300BF50
:1016E8000C37BD465DF8047B704700BFB406002088
:1016F80080841E0040420F0080B483B000AF0346D0
:101708000A46FB801346BB80FB88002B03D0FA886F
:10171800BB889A4201D9BB88FB80FA880C4B1B68AE
:101728000C49B1FBF2F2DA62FB880A4AB2FBF3F326
:10173800074AD360FA88064B1B680749B1FBF2F2E7
:10174800DA6300BF0C37BD465DF8047B704700BF05
:101758004407002040420F0020A1070080B500AFD9
:1017680001224FF48041044802F06AFE0021034838
:1017780004F092FE00BF80BD000C02401C0800204F
:1017880080B500AF00224FF48041044802F058FEB3
:101798000021034804F080FE00BF80BD000C024019
:1017A8001C08002080B500AF00224FF400610448F7
:1017B80002F046FE0021034804F06EFE00BF80BD23
:1017C800000C0240B406002080B500AF01224FF49F
:1017D8000061044802F034FE0021034804F05CFE76
:1017E80000BF80BD000C0240B406002080B500AFE9
:1017F80001224FF40041044802F022FE0821034868
:1018080004F04AFE00BF80BD0004024044070020E7
:1018180080B500AF00224FF40041044802F010FEEA
:101828000821034804F038FE00BF80BD00040240D0
:101838004407002080B582B000AF0346FB800B4B05
:10184800FF221A700A4B1B6800225A62FB885A1E34
:10185800084B1B68DA62FB88013B1A46054BDA60C5
:10186800FFF77CFF00BF0837BD4680BD740000202D
:101878001C0800208C07002080B582B000AF03460A
:10188800FB800B4B01221A700A4B1B6800225A621C
:10189800FB885A1E084B1B68DA62FB88013B1A4614
:1018A800054BDA60FFF76CFF00BF0837BD4680BD07
:1018B800740000201C0800208C07002080B582B02E
:1018C80000AF0346FB800B4B01221A700A4B1B68C2
:1018D80000225A62FB885A1E084B1B68DA62FB8892
:1018E800013B1A46054BDA60FFF75CFF00BF08377B
:1018F800BD4680BD7C000020B4060020FC06002008
:1019080080B582B000AF0346FB800B4BFF221A70F4
:101918000A4B1B6800225A62FB885A1E084B1B6838
:10192800DA62FB88013B1A46054BDA60FFF74CFF89
:1019380000BF0837BD4680BD7C000020B4060020EB
:10194800FC06002080B582B000AF0346FB800B4B3D
:10195800FF221A700A4B1B6800225A62FB885A1E23
:10196800084B1B68DA62FB88013B1A46054BDA60B4
:10197800FFF73CFF00BF0837BD4680BD840000204C
:10198800440700206408002080B582B000AF0346F9
:10199800FB800B4B01221A700A4B1B6800225A620B
:1019A800FB885A1E084B1B68DA62FB88013B1A4603
:1019B800054BDA60FFF72CFF00BF0837BD4680BD36
:1019C80084000020440700206408002080B483B00D
:1019D80000AF03460A46FB801346BB80FA88BB88E3
:1019E8009A4204D9FA88BB88D31A9BB203E0BA8812
:1019F800FB88D31A9BB218460C37BD465DF8047BAA
:101A08007047000080B584B000AF0346FB800B46EA
:101A1800BB8013467B80FEF7B1FE03461A46FB885F
:101A2800934200F2B280FEF7C9FE03461A46BB880D
:101A3800934200F2AA80FEF7E1FE03461A467B882D
:101A4800934200F2A280534B5B889BB2FA881146FE
:101A58001846FFF7BBFF0346FB81FB89012B24D9FE
:101A68004C4B9B79DBB2002B1FD14B4B1B685B881F
:101A78004CF250311846FFF7DBFD464B01229A71B4
:101A8800444B9B79DBB21846FEF72AFE414B5B8834
:101A98009BB2FA889A4204D2FB891846FFF7CAFE1D
:101AA80003E0FB891846FFF7E7FE3C4B5B889BB2D7
:101AB800BA8811461846FFF789FF0346BB81BB89E0
:101AC800012B24D9354B9B79DBB2002B1FD1324B2C
:101AD8001B681B894CF250311846FFF7DBFD2F4B72
:101AE80001229A712D4B9B79DBB21846FEF712FE44
:101AF8002A4B5B889BB2BA889A4204D2BB891846A3
:101B0800FFF7FEFE03E0BB891846FFF7D7FE00BFCC
:101B1800204B9B79DBB2002BFAD1204B9B79DBB2AF
:101B2800002BF5D11E4B5B889BB27A88114618466C
:101B3800FFF74CFF03467B817B89012B26D9184B85
:101B48009B79DBB2002B21D1134B1B68DB8942F256
:101B580010711846FFF7D0FD114B01229A71104BF6
:101B68009B79DBB21846FEF7EFFD0D4B5B889BB205
:101B78007A889A4204D27B891846FFF7E3FE05E08B
:101B88007B891846FFF700FF00E000BF1037BD460D
:101B980080BD00BF74000020100000207C000020E1
:101BA8008400002080B500AF404B9B79DBB218461B
:101BB800FEF796FD3D4B9B79DBB2052B73D801A24E
:101BC80052F823F0A91C0008E51B0008171C0008A0
:101BD800AF1C0008AF1C0008931C0008334B9B88FF
:101BE8009AB2324B1B785BB299B2314B1B685B6A75
:101BF8009BB211FB03F39BB213449AB22B4B5A804E
:101C08002A4B5B889BB21846FEF710FD4BE0274B2A
:101C18009B889AB2254B1B785BB299B2244B1B6800
:101C28005B6A9BB211FB03F39BB213449AB21F4B3E
:101C38005A801F4B1B685B6A9BB232339BB24CF2D3
:101C480050311846FFF7F4FC184B5B889BB21846D6
:101C5800FEF7ECFC174B1B681B7803F00403DBB2A0
:101C6800002B1FD1134B1B681B7803F00803DBB252
:101C7800002B17D1104B1B685A6A0F4B1B685B6B04
:101C88009A420FD300F0E6F90CE04CF250314FF4D1
:101C98007A70FFF7CDFC4DF2D860FFF7CBFD02E07C
:101CA80000BF00E000BF00BF80BD00BF740000207F
:101CB8008C070020000000201C08002080B500AF21
:101CC8001B4B9B79DBB2052B30D801A252F823F0CD
:101CD800331D0008351D0008351D0008F11C0008DB
:101CE800071D00081D1D00084CF250314FF47A60A2
:101CF800FFF79EFC4DF6C020FFF79CFD16E04CF266
:101D0800503141F28830FFF793FC4FF4FA60FFF747
:101D1800B3FD0BE04CF250314FF47A70FFF788FCBA
:101D28004DF2D860FFF786FD00E000BF00BF80BD20
:101D38007400002080B500AF404B9B79DBB2184699
:101D4800FEF7E8FC3D4B9B79DBB2052B73D801A26B
:101D580052F823F0391E0008751D0008A71D000859
:101D68003F1E00083F1E0008231E0008334B9B88B7
:101D78009AB2324B1B785BB299B2314B1B685B6AE3
:101D88009BB211FB03F39BB213449AB22B4B5A80BC
:101D98002A4B5B889BB21846FEF75AFC4BE0274B50
:101DA8009B889AB2254B1B785BB299B2244B1B686F
:101DB8005B6A9BB211FB03F39BB213449AB21F4BAD
:101DC8005A801E4B5B889BB21846FEF741FC1C4BA1
:101DD8001B685B6A9BB232339BB24CF25031184697
:101DE800FFF758FC174B1B681B7803F02003DBB286
:101DF800002B1FD1134B1B681B7803F01003DBB2B9
:101E0800002B17D1104B1B685A6A0F4B1B685B6B72
:101E18009A420FD300F080F90CE04CF250314FF4A5
:101E28007A70FFF737FC48F2DC20FFF769FD02E023
:101E380000BF00E000BF00BF80BD00BF7C000020E5
:101E4800FC06002000000020B406002080B500AF8A
:101E58001B4B9B79DBB2052B30D801A252F823F03B
:101E6800C31E0008C51E0008C51E0008811E000804
:101E7800971E0008AD1E00084CF250314FF4FA606E
:101E8800FFF708FC48F2D040FFF73AFD16E04CF2A5
:101E980050314FF47A60FFF7FDFB4FF4FA60FFF71B
:101EA8000DFD0BE04CF250314FF47A70FFF7F2FB66
:101EB80048F2DC20FFF724FD00E000BF00BF80BD32
:101EC8007C00002080B500AF404B9B79DBB2184600
:101ED800FEF73AFC3D4B9B79DBB2052B73D801A288
:101EE80052F823F0C91F0008051F0008371F000813
:101EF800CF1F0008CF1F0008B31F0008334B9B8873
:101F08009AB2324B1B785BB299B2314B1B685B6A51
:101F18009BB211FB03F39BB213449AB22B4B5A802A
:101F28002A4B5B889BB21846FEF7A4FB4BE0274B75
:101F38009B889AB2254B1B785BB299B2244B1B68DD
:101F48005B6A9BB211FB03F39BB213449AB21F4B1B
:101F58005A801E4B5B889BB21846FEF78BFB1C4BC6
:101F68001B685B6A9BB232339BB242F2107118460F
:101F7800FFF7C2FB174B1B681B7803F04003DBB26B
:101F8800002B1FD1134B1B681B7823F07F03DBB298
:101F9800002B17D1104B1B685A6A0F4B1B68DB6B61
:101FA8009A420FD300F01AF90CE042F210714FF484
:101FB800FA70FFF7A1FB44F25060FFF7C3FC02E0A0
:101FC80000BF00E000BF00BF80BD00BF840000204C
:101FD80064080020000000204407002080B500AFFE
:101FE8001B4B9B79DBB2052B30D801A252F823F0AA
:101FF800532000085520000855200008112000082B
:10200800272000083D20000842F210714FF47A7032
:10201800FFF772FB44F63820FFF794FC16E042F213
:1020280010714FF4FA60FFF767FB40F6C410FFF732
:10203800ABFC0BE042F210714FF4FA70FFF75CFB57
:1020480044F25060FFF77EFC00E000BF00BF80BD97
:102058008400002080B500AF00212C4804F0E4FA89
:102068002B4B9B79DBB2042B3CD0042B3EDC012BA1
:102078001ED0022B3AD1264B9B889AB2244B1B7850
:102088005BB299B2234B1B685B6A9BB211FB03F3EB
:102098009BB213449AB21E4B5A801D4B5B889BB26D
:1020A8001846FEF7C3FA1B4B1B6800225A621EE053
:1020B800174B9B889AB2164B1B785BB299B2154B9B
:1020C8001B68DB6A01339BB211FB03F39BB2134419
:1020D8009AB20F4B5A800E4B5B889BB21846FEF79C
:1020E800A5FA04E00A4B05229A710EE000BF084BDE
:1020F80000229A71064B9B79DBB21846FEF7F0FA7C
:10210800034B5B889AB2024B9A8080BD1C08002062
:10211800740000208C07002080B500AF00212C48F7
:1021280004F082FA2B4B9B79DBB2042B3CD0042BB6
:102138003EDC012B1ED0022B3AD1264B9B889AB24B
:10214800244B1B785BB299B2234B1B685B6A9BB22A
:1021580011FB03F39BB213449AB21E4B5A801D4BDA
:102168005B889BB21846FEF773FA1B4B1B6800226C
:102178005A621EE0174B9B889AB2164B1B785BB2CB
:1021880099B2154B1B68DB6A01339BB211FB03F351
:102198009BB213449AB20F4B5A800E4B5B889BB28A
:1021A8001846FEF755FA04E00A4B05229A710EE02C
:1021B80000BF084B00229A71064B9B79DBB2184688
:1021C800FEF7A8FA034B5B889AB2024B9A8080BD4F
:1021D800B40600207C000020FC06002080B500AF7B
:1021E80008212C4804F020FA2B4B9B79DBB2042BF6
:1021F8003CD0042B3EDC012B1ED0022B3AD1264BBF
:102208009B889AB2244B1B785BB299B2234B1B680C
:102218005B6A9BB211FB03F39BB213449AB21E4B49
:102228005A801D4B5B889BB21846FEF723FA1B4B5E
:102238001B6800225A621EE0174B9B889AB2164B05
:102248001B785BB299B2154B1B68DB6A01339BB2F2
:1022580011FB03F39BB213449AB20F4B5A800E4BF7
:102268005B889BB21846FEF705FA04E00A4B052284
:102278009A710EE000BF084B00229A71064B9B79B9
:10228800DBB21846FEF760FA034B5B889AB2024B42
:102298009A8080BD44070020840000206408002044
:1022A80080B400AF0C4B9B79DBB2002B0BD10B4BEE
:1022B8009B79DBB2002B06D1094B9B79DBB2002B53
:1022C80001D1012300E0002303F00103DBB218462B
:1022D800BD465DF8047B7047740000207C00002038
:1022E8008400002080B500AF00E000BFFFF7D8FFF2
:1022F800034683F00103DBB2002BF6D1064B1A68C4
:10230800137843F040031370034B1A68137843F0B3
:102318008003137000BF80BD0800002080B500AFA7
:1023280001F030F900F01CF800F03AFB00F018FB5F
:1023380000F0ECFA00F0A6F900F02AFA00F07AF8BA
:1023480000F0FAF800F046F900F0A4FA00F0EAF913
:1023580009F0E4FDFEF7ACF8FEF706F9FCE700002B
:1023680080B594B000AF07F1200330220021184651
:102378000AF004FB07F10C0300221A605A609A6005
:10238800DA601A610023BB60284B1B6C274A43F0B4
:1023980080531364254B1B6C03F08053BB60BB68F0
:1023A80000237B60224B1B68214A43F4804313605F
:1023B8001F4B1B6803F480437B607B6801233B62EF
:1023C8004FF480337B620223BB634FF48003FB63CB
:1023D80004233B64A8237B640223BB640723FB64B8
:1023E80007F12003184603F0AFFA0346002B01D08B
:1023F80000F010FC0F23FB6002233B6100237B618C
:102408004FF4A053BB614FF48053FB6107F10C03F9
:102418000521184603F010FD0346002B01D000F0FB
:10242800F9FB00BF5037BD4680BD00BF00380240F1
:102438000070004080B592B000AF07F14003002261
:102448001A605A6007F1240300221A605A609A60E1
:10245800DA601A615A619A613B1D202200211846F0
:102468000AF08CFA324B334A1A60314B53225A60C5
:102478002F4B00229A602E4B6422DA602C4B0022EC
:102488001A612B4B00225A61294B80229A612848F5
:1024980003F0B2FF0346002B01D000F0BBFB402342
:1024A8003B6400237B6407F140031946204804F08D
:1024B800DDFE0346002B01D000F0ACFB60237B62FD
:1024C8003223BB620023FB6200233B6300237B6350
:1024D8000023BB630023FB6307F124030022194692
:1024E800134804F001FA0346002B01D000F092FBD8
:1024F80000237B600023BB600023FB6000233B615B
:1025080000237B614FF40053BB6100233B623B1DFA
:102518001946074804F026FF0346002B01D000F0B7
:1025280079FB034800F078FC00BF4837BD4680BD02
:10253800B40600200000014080B588B000AF07F164
:102548000C0300221A605A609A60DA601A613B1D17
:1025580000221A605A601E4B4FF080421A601C4BD2
:1025680000225A601A4B00229A60194B4FF0FF3232
:10257800DA60174B00221A61154B00229A61144841
:1025880003F07AFE0346002B01D000F043FB07233B
:10259800FB6000233B6107F10C0319460C4804F06B
:1025A80065FA0346002B01D000F034FB00237B6062
:1025B8000023BB603B1D1946054804F057FE03463F
:1025C800002B01D000F026FB00BF2037BD4680BDA0
:1025D800FC06002080B58AB000AF07F12003002276
:1025E8001A605A603B1D00221A605A609A60DA60CD
:1025F8001A615A619A61214B214A1A601F4B29229C
:102608005A601E4B00229A601C4B6422DA601B4BF6
:1026180000221A61194B80229A61184803F0ECFED7
:102628000346002B01D000F0F5FA60233B6200233B
:102638007B6207F120031946104804F017FE034691
:10264800002B01D000F0E6FA60237B603223BB60E8
:102658000023FB6000237B613B1D082219460748C5
:1026680004F042F90346002B01D000F0D3FA0348E6
:1026780000F0D2FB00BF2837BD4680BD44070020CC
:102688000004004080B588B000AF07F10C030022B9
:102698001A605A609A60DA601A613B1D00221A605B
:1026A8005A601E4B1E4A1A601C4B00225A601B4B74
:1026B80000229A60194B4FF0FF32DA60174B002264
:1026C8001A61164B00229A61144803F0D5FD03469F
:1026D800002B01D000F09EFA0723FB6030233B61FA
:1026E80007F10C0319460D4804F0C0F90346002B06
:1026F80001D000F08FFA00237B600023BB603B1DF4
:102708001946064804F0B2FD0346002B01D000F03C
:1027180081FA00BF2037BD4680BD00BF8C0700206E
:10272800000C004080B582B000AF3B4600221A6022
:102738005A60154B154A1A60134B53225A60124BB4
:1027480000229A60104B4FF47A72DA600E4B002226
:102758009A610D4803F090FD0346002B01D000F06C
:1027680059FA00233B6000237B603B461946064824
:1027780004F07CFD0346002B01D000F04BFA00BFAB
:102788000837BD4680BD00BFD407002000140040B4
:1027980080B592B000AF07F1400300221A605A607A
:1027A80007F1240300221A605A609A60DA601A61FD
:1027B8005A619A613B1D2022002118460AF0DEF872
:1027C800324B334A1A60314B53225A602F4B002246
:1027D8009A602E4B6422DA602C4B00221A612B4B34
:1027E80000225A61294B80229A61284803F004FE8E
:1027F8000346002B01D000F00DFA40233B64002370
:102808007B6407F140031946204804F02FFD034676
:10281800002B01D000F0FEF960237B623223BB62FB
:102828000023FB6200233B6300237B630023BB631D
:102838000023FB6307F1240300221946134804F020
:1028480053F80346002B01D000F0E4F900237B6025
:102858000023BB600023FB6000233B6100237B61F6
:102868004FF40053BB6100233B623B1D19460748E8
:1028780004F078FD0346002B01D000F0CBF90348A3
:1028880000F0CAFA00BF4837BD4680BD1C080020CA
:102898000004014080B586B000AF3B1D00221A60DD
:1028A8005A609A60DA601A61164B174A1A60154B1B
:1028B80000225A60134B00229A60124B4FF6FF72A7
:1028C800DA60104B00221A610E4B00229A610D4803
:1028D80003F0D2FC0346002B01D000F09BF907233C
:1028E8007B601023BB603B1D1946064804F0BEF808
:1028F8000346002B01D000F08DF900BF1837BD4604
:1029080080BD00BF640800200040014080B500AFD2
:10291800114B124A1A60104B4FF4E1325A600E4BB9
:1029280000229A600C4B0022DA600B4B00221A61DD
:10293800094B0C225A61084B00229A61064B00226F
:10294800DA61054804F074FD0346002B01D000F05D
:1029580061F900BF80BD00BFAC0800200044004002
:1029680080B582B000AF00237B600C4B1B6B0B4A19
:1029780043F400131363094B1B6B03F400137B60D0
:102988007B6800220021102000F06DFF102000F06D
:1029980086FF00BF0837BD4680BD00BF0038024033
:1029A80080B58CB000AF07F11C0300221A605A6092
:1029B8009A60DA601A610023BB61904B1B6B8F4AE7
:1029C80043F0100313638D4B1B6B03F01003BB61C3
:1029D800BB6900237B61894B1B6B884A43F0040366
:1029E8001363864B1B6B03F004037B617B69002335
:1029F8003B61824B1B6B814A43F0800313637F4B1F
:102A08001B6B03F080033B613B690023FB607B4B3E
:102A18001B6B7A4A43F002031363784B1B6B03F07A
:102A28000203FB60FB680023BB60744B1B6B734A9B
:102A380043F008031363714B1B6B03F00803BB607F
:102A4800BB6800237B606D4B1B6B6C4A43F0010332
:102A580013636A4B1B6B03F001037B607B680122E5
:102A68007F21674801F0ECFC01224FF400516548D2
:102A780001F0E6FC00224FF40041634801F0E0FC5D
:102A8800002244F60401614801F0DAFC01224FF407
:102A980000715F4801F0D4FC012280215B4801F0FD
:102AA800CFFC01224FF47671574801F0C9FC7F230F
:102AB800FB6101233B6200237B620223BB6207F1B7
:102AC8001C0319464E4801F007FB4FF40053FB6105
:102AD80001233B6200237B620023BB6207F11C03D6
:102AE8001946484801F0F8FA0D23FB614FF44413E6
:102AF8003B6200237B6207F11C031946414801F041
:102B0800EBFA4FF46053FB614FF444133B6200232C
:102B18007B6207F11C031946394801F0DDFA4FF4CE
:102B28000043FB6101233B6200237B620323BB62FA
:102B380007F11C031946344801F0CEFA4FF49043CC
:102B4800FB6101233B6200237B620323BB6207F125
:102B58001C0319462D4801F0BFFA4FF40073FB61BE
:102B680001233B6200237B620223BB6207F11C0343
:102B78001946274801F0B0FA8423FB6101233B6220
:102B880000237B620223BB6207F11C0319461F481E
:102B980001F0A2FA4FF47673FB6101233B62002334
:102BA8007B620223BB6207F11C031946164801F039
:102BB80093FA00220521062000F055FE062000F0B9
:102BC8006EFE00220521082000F04DFE082000F0CE
:102BD80066FE00220521092000F045FE092000F0CC
:102BE8005EFE00220221282000F03DFE282000F091
:102BF80056FE00BF3037BD4680BD00BF00380240DA
:102C0800001002400008024000040240000C02408C
:102C18000000024080B400AF72B600BF00BFFDE7FD
:102C280080B483B000AF00237B60104B5B6C0F4A0D
:102C380043F4804353640D4B5B6C03F480437B6027
:102C48007B6800233B60094B1B6C084A43F08053A8
:102C58001364064B1B6C03F080533B603B6800BF5A
:102C68000C37BD465DF8047B704700BF0038024052
:102C780080B586B000AF78607B681B68224A9342B3
:102C880016D100237B61214B5B6C204A43F0010382
:102C980053641E4B5B6C03F001037B617B6900226C
:102CA8000621182000F0DFFD182000F0F8FD26E0CE
:102CB8007B681B68164A93420ED100233B61134B75
:102CC8001B6C124A43F002031364104B1B6C03F095
:102CD80002033B613B6912E07B681B680D4A934223
:102CE8000DD10023FB60094B5B6C084A43F00203DB
:102CF8005364064B5B6C03F00203FB60FB6800BF88
:102D08001837BD4680BD00BF0000014000380240B2
:102D1800000400400004014080B586B000AF786030
:102D28007B681B68B3F1804F16D100237B61364B5B
:102D38001B6C354A43F001031364334B1B6C03F0DF
:102D480001037B617B69002206211C2000F08BFDBA
:102D58001C2000F0A4FD52E07B681B682B4A9342BC
:102D680016D100233B61284B1B6C274A43F008030C
:102D78001364254B1B6C03F008033B613B6900227D
:102D88000621322000F06FFD322000F088FD36E089
:102D98007B681B681E4A934216D10023FB601A4BBE
:102DA8001B6C194A43F020031364174B1B6C03F088
:102DB8002003FB60FB6800220821372000F053FD48
:102DC800372000F06CFD1AE07B681B68114A9342BB
:102DD80015D10023BB600C4B5B6C0B4A43F480336A
:102DE8005364094B5B6C03F48033BB60BB680022FF
:102DF8000621182000F037FD182000F050FD00BF14
:102E08001837BD4680BD00BF00380240000C0040A6
:102E1800001400400040014080B58AB000AF7860DF
:102E280007F1140300221A605A609A60DA601A6186
:102E38007B681B68374A93421FD100233B61364B9E
:102E48001B6B354A43F001031363334B1B6B03F0D1
:102E580001033B613B694FF480737B610223BB61D3
:102E68000223FB6103233B6201237B6207F1140306
:102E780019462A4801F030F947E07B681B68284A60
:102E880093421FD10023FB60234B1B6B224A43F064
:102E980004031363204B1B6B03F00403FB60FB6804
:102EA8004FF480737B610223BB610223FB61032320
:102EB8003B6202237B6207F114031946194801F0AB
:102EC8000BF922E07B681B68174A93421DD1002347
:102ED800BB60114B1B6B104A43F0040313630E4B8A
:102EE8001B6B03F00403BB60BB6840237B610223B8
:102EF800BB610223FB6103233B6203237B6207F16F
:102F080014031946074801F0E7F800BF2837BD4603
:102F180080BD00BF000001400038024000000240B0
:102F280000040040000802400004014080B58AB057
:102F380000AF786007F1140300221A605A609A60A3
:102F4800DA601A617B681B68344A934261D10023B6
:102F58003B61334B1B6C324A43F400331364304BF0
:102F68001B6C03F400333B613B690023FB602C4B73
:102F78001B6B2B4A43F008031363294B1B6B03F0AD
:102F88000803FB60FB6860237B610223BB610023AD
:102F9800FB6103233B6207237B6207F11403194695
:102FA800204801F099F8204B204A1A601E4B4FF038
:102FB80000625A601C4B00229A601B4B0022DA60A8
:102FC800194B4FF480621A61174B00225A61164B55
:102FD80000229A61144B0022DA61134B00221A6214
:102FE800114B00225A62104800F074FC0346002B73
:102FF80001D0FFF70FFE7B680B4ADA630A4A7B6849
:10300800936300220921262000F02DFC262000F0E1
:1030180046FC00BF2837BD4680BD00BF00440040C5
:1030280000380240000C0240F4080020886002408A
:1030380080B400AF00BFFDE780B400AF00BFFDE77C
:1030480080B400AF00BFFDE780B400AF00BFFDE76C
:1030580080B400AF00BFFDE780B400AF00BFBD463D
:103068005DF8047B704780B400AF00BFBD465DF8D3
:10307800047B704780B400AF00BFBD465DF8047B99
:10308800704780B500AF00F0CFFA00BF80BD0000E8
:1030980080B500AF01212D4801F0BAF90346194661
:1030A8002B4B1A680B4603F00103D9B2137861F36E
:1030B800000313700121254801F0AAF90346012BEA
:1030C8003FD1244B9B79DBB2032B02D0052B1AD0BE
:1030D80031E00021204803F0A7FA204B1B680022AA
:1030E8005A621C4B04229A71FEF7E8FD194B002224
:1030F8005A80184B5B889BB21846FDF797FA154B18
:1031080000229A8017E00021134803F08DFA134B30
:103118001B6800225A620F4B00225A800D4B5B88B5
:103128009BB21846FDF782FA0A4B00229A71094BA6
:1031380000229A8000BF074B9B79DBB21846FDF747
:10314800CFFA012001F096F900BF80BD00080240C7
:1031580008000020740000201C0800208C070020B4
:1031680080B500AF04212D4801F052F903461946F5
:103178002B4B1A680B4603F00103D9B2137861F39D
:10318800410313700421254801F042F90346012B3D
:103198003FD1244B9B79DBB2032B02D0052B1AD0ED
:1031A80031E00021204803F03FFA204B1B68002241
:1031B8005A621C4B04229A71FEF748FE194B0022F2
:1031C8005A80184B5B889BB21846FDF741FA154B9D
:1031D80000229A8017E00021134803F025FA134BC8
:1031E8001B6800225A620F4B00225A800D4B5B88E5
:1031F8009BB21846FDF72CFA0A4B00229A71094B2C
:1032080000229A8000BF074B9B79DBB21846FDF776
:1032180081FA042001F02EF900BF80BD00080240A9
:10322800080000207C000020B4060020FC060020D6
:1032380080B500AF08212D4801F0EAF80346194689
:103248002B4B1A680B4603F00103D9B2137861F3CC
:10325800820313700821254801F0DAF80346012B90
:103268003FD1244B9B79DBB2032B02D0052B1AD01C
:1032780031E00821204803F0D7F9204B1B680022D1
:103288005A621C4B04229A71FEF7A8FE194B0022C1
:103298005A80184B5B889BB21846FDF7EBF9154B23
:1032A80000229A8017E00821134803F0BDF9134B58
:1032B8001B6800225A620F4B00225A800D4B5B8814
:1032C8009BB21846FDF7D6F90A4B00229A71094BB2
:1032D80000229A8000BF074B9B79DBB21846FDF7A6
:1032E80033FA082001F0C6F800BF80BD000802408C
:1032F8000800002084000020440700206408002003
:1033080080B500AF024800F07DFC00BF80BD00BF63
:10331800F408002080B500AF084803F0F5F9084824
:1033280003F0F2F9074B9B79DBB2022B02D1054B74
:1033380001229A71FEF752FF00BF80BDB40600203B
:10334800640800208400002080B500AF074803F01F
:10335800DBF9074B9B79DBB2022B02D1044B01222C
:103368009A71FEF7D9FE00BF80BD00BFFC060020A1
:103378007C00002080B500AF024804F08DF900BF42
:1033880080BD00BFAC08002080B500AF4FF40060DE
:1033980001F070F84FF4805001F06CF84FF40050D1
:1033A80001F068F800BF80BD80B500AF074B9B797E
:1033B800DBB2022B02D1054B01229A71FEF74AFEBD
:1033C800034803F0A1F900BF80BD00BF74000020CE
:1033D8008C07002080B500AF054B1B680133044AF9
:1033E8001360FDF719F9034803F08EF900BF80BD9B
:1033F80054090020D407002080B500AF024801F02E
:1034080095F900BF80BD00BF440D002080B582B093
:1034180000AF78600B467B807B681B680E4A93423E
:1034280016D10E4B1B78DBB2002B02D10B4B0122BD
:103438001A700B4B1B6803F59C530833094A136039
:10344800FDF706FC4FF480720749084804F0CBF8F2
:1034580000BF0837BD4680BD004400405C0900201D
:103468005409002058090020A8020020AC080020B8
:1034780080B582B000AF0346FB80FB88B3F5006FD0
:1034880011D14FF400611F4800F0C2FF03461946EE
:103498001D4B1A680B4603F00103D9B2137861F388
:1034A800C30313702AE0FB88B3F5805F11D14FF492
:1034B8008051144800F0ACFF03461946124B1A68B5
:1034C8000B4603F00103D9B2137861F304131370A8
:1034D80014E0FB88B3F5005F10D14FF400510948A0
:1034E80000F096FF03461946074B1A680B4603F08F
:1034F8000103D9B2137861F34513137000BF08377D
:10350800BD4680BD001002400800002080B400AF16
:10351800064BD3F88830054A43F47003C2F8883064
:1035280000BFBD465DF8047B704700BF00ED00E0BA
:10353800DFF834D0FFF7EAFF0C480D490D4A0023A5
:1035480002E0D458C4500433C4188C42F9D30A4A50
:103558000A4C002301E013600432A242FBD309F0B5
:1035680015FAFEF7DBFE704700000220000000207D
:10357800880100206CCA0008880100204814002037
:10358800FEE7000080B500AF0E4B1B680D4A43F400
:10359800007313600B4B1B680A4A43F48063136083
:1035A800084B1B68074A43F480731360032000F03C
:1035B8004FF90F2000F008F8FFF732FB00231846F8
:1035C80080BD00BF003C024080B582B000AF78608B
:1035D800124B1A68124B1B7819464FF47A73B3FBD7
:1035E800F1F3B2FBF3F3184600F067F90346002B3A
:1035F80001D001230EE07B680F2B0AD800227968DE
:103608004FF0FF3000F02FF9064A7B681360002363
:1036180000E0012318460837BD4680BD8C00002015
:10362800940000209000002080B400AF064B1B7867
:103638001A46064B1B681344044A136000BFBD4674
:103648005DF8047B704700BF9400002060090020EB
:1036580080B400AF034B1B681846BD465DF8047B79
:10366800704700BF6009002080B584B000AF786063
:10367800FFF7EEFFB8607B68FB60FB68B3F1FF3FC4
:1036880005D00A4B1B781A46FB681344FB6000BF41
:10369800FFF7DEFF0246BB68D31AFA689A42F7D8EA
:1036A80000BF00BF1037BD4680BD00BF940000209A
:1036B80080B485B000AF78607B6803F00703FB60D7
:1036C8000C4BDB68BB60BA684FF6FF031340BB6066
:1036D800FB681A02BB68134343F0BF6343F400332B
:1036E800BB60044ABB68D36000BF1437BD465DF8B1
:1036F800047B704700ED00E080B400AF044BDB684A
:103708001B0A03F007031846BD465DF8047B7047A3
:1037180000ED00E080B483B000AF0346FB7197F979
:103728000730002B0BDBFB7903F01F02074997F9E1
:1037380007305B09012000FA02F241F8232000BF9C
:103748000C37BD465DF8047B704700BF00E100E020
:1037580080B483B000AF03463960FB7197F9073036
:10376800002B0ADB3B68DAB20C4997F907301201E3
:10377800D2B20B4483F800230AE03B68DAB2084966
:10378800FB7903F00F03043B1201D2B20B441A7603
:1037980000BF0C37BD465DF8047B704700E100E0D0
:1037A80000ED00E080B489B000AFF860B9607A60DD
:1037B800FB6803F00703FB61FB69C3F10703042BF4
:1037C80028BF0423BB61FB690433062B02D9FB69BC
:1037D800033B00E000237B614FF0FF32BB6902FA34
:1037E80003F3DA43BB681A407B699A404FF0FF3114
:1037F8007B6901FA03F3D9437B680B4013431846EE
:103808002437BD465DF8047B7047000080B582B060
:1038180000AF78607B68013BB3F1807F01D301235F
:103828000FE00A4A7B68013B53600F214FF0FF30DD
:10383800FFF78EFF054B00229A60044B07221A609F
:10384800002318460837BD4680BD00BF10E000E0E1
:1038580080B582B000AF78607868FFF729FF00BFB5
:103868000837BD4680BD80B586B000AF0346B96055
:103878007A60FB7300237B61FFF73EFF78617A680B
:10388800B9687869FFF78EFF024697F90F3011463D
:103898001846FFF75DFF00BF1837BD4680BD80B5ED
:1038A80082B000AF0346FB7197F907301846FFF75F
:1038B80031FF00BF0837BD4680BD80B582B000AF7C
:1038C80078607868FFF7A2FF034618460837BD46B8
:1038D80080BD000080B586B000AF786000237B61B2
:1038E800FFF7B6FE38617B68002B01D1012399E010
:1038F8007B68022283F835207B68002283F8342015
:103908007B681B681A687B681B6822F001021A60D2
:103918000FE0FFF79DFE02463B69D31A052B08D935
:103928007B6820225A657B68032283F835200323AD
:1039380078E07B681B681B6803F00103002BE8D163
:103948007B681B681B687B617A69384B13407B6115
:103958007B685A687B689B681A437B68DB681A43F4
:103968007B681B691A437B685B691A437B689B69A0
:103978001A437B68DB691A437B681B6A13437A69BD
:1039880013437B617B685B6A042B07D17B68DA6A27
:103998007B681B6B13437A6913437B617B681B68E5
:1039A8007A691A607B681B685B697B617B6923F0B5
:1039B80007037B617B685B6A7A6913437B617B6879
:1039C8005B6A042B17D17B689B6A7A6913437B6116
:1039D8007B68DB6A002B0ED0786800F001FB034699
:1039E800002B08D07B6840225A657B68012283F847
:1039F8003520012316E07B681B687A695A6178686C
:103A080000F0B8FA0346FB607B68DB6D3F229A4002
:103A1800FB689A607B6800225A657B68012283F8FC
:103A28003520002318461837BD4680BD3F8010F06A
:103A380080B586B000AFF860B9607A603B6000235B
:103A4800FB75FB689B6D3B61FB6893F83430012B79
:103A580001D1022340E0FB68012283F83420FB688F
:103A680093F83530DBB2012B2FD1FB68022283F8A3
:103A78003520FB6800225A653B687A68B968F8689F
:103A880000F04AFAFB68DB6D3F229A403B699A6076
:103A9800FB681B681A68FB681B6842F016021A600C
:103AA800FB681B6C002B07D0FB681B681A68FB6857
:103AB8001B6842F008021A60FB681B681A68FB68FA
:103AC8001B6842F001021A6005E0FB68002283F8D7
:103AD80034200223FB75FB7D18461837BD4680BD90
:103AE80080B584B000AF78607B689B6DFB60FFF7A2
:103AF800AFFDB8607B6893F83530DBB2022B08D095
:103B08007B6880225A657B68002283F83420012371
:103B180052E07B681B681A687B681B6822F01602F3
:103B28001A607B681B685A697B681B6822F08002F0
:103B38005A617B681B6C002B03D17B689B6C002B44
:103B480007D07B681B681A687B681B6822F008022C
:103B58001A607B681B681A687B681B6822F0010280
:103B68001A6013E0FFF774FD0246BB68D31A052BF1
:103B78000CD97B6820225A657B68032283F835209C
:103B88007B68002283F83420032315E07B681B68D8
:103B98001B6803F00103002BE4D17B68DB6D3F2237
:103BA8009A40FB689A607B68012283F835207B681D
:103BB800002283F83420002318461037BD4680BD04
:103BC80080B483B000AF78607B6893F83530DBB29F
:103BD800022B04D07B6880225A6501230CE07B68A5
:103BE800052283F835207B681B681A687B681B6888
:103BF80022F001021A60002318460C37BD465DF812
:103C0800047B704780B586B000AF78600023BB6046
:103C18008E4B1B688E4AA2FB03239B0A7B617B6841
:103C28009B6D3B613B691B68FB607B68DB6D082211
:103C38009A40FB681340002B1AD07B681B681B68EE
:103C480003F00403002B13D07B681B681A687B6899
:103C58001B6822F004021A607B68DB6D08229A4018
:103C68003B699A607B685B6D43F001027B685A652B
:103C78007B68DB6D01229A40FB681340002B12D051
:103C88007B681B685B6903F08003002B0BD07B68A3
:103C9800DB6D01229A403B699A607B685B6D43F05B
:103CA80002027B685A657B68DB6D04229A40FB68D8
:103CB8001340002B12D07B681B681B6803F00203BB
:103CC800002B0BD07B68DB6D04229A403B699A601D
:103CD8007B685B6D43F004027B685A657B68DB6D2B
:103CE80010229A40FB681340002B43D07B681B6866
:103CF8001B6803F00803002B3CD07B68DB6D1022A7
:103D08009A403B699A607B681B681B6803F48023B0
:103D1800002B18D07B681B681B6803F40023002B5A
:103D280008D17B681B6C002B24D07B681B6C7868DF
:103D380098471FE07B689B6C002B1BD07B689B6CB3
:103D48007868984716E07B681B681B6803F48073E3
:103D5800002B07D17B681B681A687B681B6822F0F8
:103D680008021A607B681B6C002B03D07B681B6CF5
:103D7800786898477B68DB6D20229A40FB6813407F
:103D8800002B00F08F807B681B681B6803F0100312
:103D9800002B00F087807B68DB6D20229A403B690E
:103DA8009A607B6893F83530DBB2052B36D17B6897
:103DB8001B681A687B681B6822F016021A607B6809
:103DC8001B685A697B681B6822F080025A617B680D
:103DD8001B6C002B03D17B689B6C002B07D07B6886
:103DE8001B681A687B681B6822F008021A607B68E7
:103DF800DB6D3F229A403B699A607B68012283F819
:103E080035207B68002283F834207B681B6D002BEB
:103E18007ED07B681B6D7868984779E07B681B6863
:103E28001B6803F48023002B1DD07B681B681B686C
:103E380003F40023002B0DD17B685B6C002B31D081
:103E48007B685B6C786898472CE000BF8C0000208A
:103E5800B5814E1B7B68DB6B002B23D07B68DB6B4B
:103E6800786898471EE07B681B681B6803F48073BA
:103E7800002B0FD17B681B681A687B681B6822F0CF
:103E880010021A607B68012283F835207B680022C3
:103E980083F834207B68DB6B002B03D07B68DB6BFB
:103EA800786898477B685B6D002B32D07B685B6DC8
:103EB80003F00103002B22D07B68052283F835200C
:103EC8007B681B681A687B681B6822F001021A600D
:103ED800BB680133BB607A699A4207D37B681B6869
:103EE8001B6803F00103002BF2D100E000BF7B68E0
:103EF800012283F835207B68002283F834207B6810
:103F0800DB6C002B05D07B68DB6C7868984700E099
:103F180000BF1837BD4680BD80B485B000AFF860DB
:103F2800B9607A603B60FB681B681A68FB681B68AD
:103F380022F480221A60FB681B683A685A60FB68A2
:103F48009B68402B08D1FB681B687A689A60FB68FD
:103F58001B68BA68DA6007E0FB681B68BA689A6091
:103F6800FB681B687A68DA6000BF1437BD465DF8E5
:103F7800047B704780B485B000AF78607B681B68AD
:103F8800DBB2103B144AA2FB03231B09FB60134A54
:103F9800FB6813441B781A467B68DA65FB68032BB9
:103FA80009D97B681B6823F47F7323F003031A1D68
:103FB8007B689A6507E07B681B6823F47F7323F0AE
:103FC80003037A6893657B689B6D18461437BD4672
:103FD8005DF8047B704700BFABAAAAAA54CA0008C0
:103FE80080B485B000AF78600023FB737B689B6A60
:103FF800BB607B689B69002B1FD1BB68032B56D81D
:1040080001A252F823F000BF214000083340000805
:1040180021400008B74000087B68DB6A03F0807322
:10402800002B46D00123FB7343E07B68DB6AB3F1C6
:10403800C07F40D10123FB733DE07B689B69B3F5EA
:10404800005F21D1BB68032B37D801A252F823F0B7
:10405800694000086F400008694000088140000876
:104068000123FB7330E07B68DB6A03F08073002B6D
:1040780025D00123FB7322E07B68DB6AB3F1C07FA4
:104088001FD10123FB731CE0BB68022B03D9BB685B
:10409800032B03D018E00123FB7315E07B68DB6A70
:1040A80003F08073002B0ED00123FB730BE000BFDD
:1040B8000AE000BF08E000BF06E000BF04E000BF60
:1040C80002E000BF00E000BFFB7B18461437BD4686
:1040D8005DF8047B704700BF80B489B000AF78609A
:1040E800396000237B6100233B610023BB6100230F
:1040F800FB616BE10122FB6902FA03F37B613B6818
:104108001B687A6913403B613A697B699A4240F0BF
:104118005A813B685B6803F00303012B05D03B68B9
:104128005B6803F00303022B30D17B689B68BB619B
:10413800FB695B00032202FA03F3DB43BA6913400D
:10414800BB613B68DA68FB695B0002FA03F3BA6992
:104158001343BB617B68BA699A607B685B68BB6123
:104168000122FB6902FA03F3DB43BA691340BB611E
:104178003B685B681B0903F00102FB6902FA03F361
:10418800BA691343BB617B68BA695A603B685B686C
:1041980003F00303032B17D07B68DB68BB61FB6963
:1041A8005B00032202FA03F3DB43BA691340BB61E5
:1041B8003B689A68FB695B0002FA03F3BA69134328
:1041C800BB617B68BA69DA603B685B6803F003032C
:1041D800022B23D1FB69DA087B68083253F82230B6
:1041E800BB61FB6903F007039B000F2202FA03F38C
:1041F800DB43BA691340BB613B681A69FB6903F08A
:1042080007039B0002FA03F3BA691343BB61FB6916
:10421800DA087B680832B96943F822107B681B68A2
:10422800BB61FB695B00032202FA03F3DB43BA6953
:104238001340BB613B685B6803F00302FB695B00EA
:1042480002FA03F3BA691343BB617B68BA691A605F
:104258003B685B6803F44033002B00F0B480002314
:10426800FB60604B5B6C5F4A43F4804353645D4B77
:104278005B6C03F48043FB60FB685B4AFB699B084B
:10428800023352F82330BB61FB6903F003039B0040
:104298000F2202FA03F3DB43BA691340BB617B6860
:1042A800524A93422BD07B68514A934225D07B686F
:1042B800504A93421FD07B684F4A934219D07B687B
:1042C8004E4A934213D07B684D4A93420DD07B6887
:1042D8004C4A934207D07B684B4A934201D107234B
:1042E8000EE008230CE006230AE0052308E0042377
:1042F80006E0032304E0022302E0012300E0002398
:10430800FA6902F0030292009340BA691343BB6151
:104318003549FB699B080233BA6941F823203B4BB6
:104328009B68BB613B69DB43BA691340BB613B686F
:104338005B6803F48013002B03D0BA693B6913430D
:10434800BB61324ABB699360304BDB68BB613B6938
:10435800DB43BA691340BB613B685B6803F4001335
:10436800002B03D0BA693B691343BB61274ABB6979
:10437800D360264B5B68BB613B69DB43BA6913407A
:10438800BB613B685B6803F40033002B03D0BA6958
:104398003B691343BB611D4ABB6953601B4B1B68D8
:1043A800BB613B69DB43BA691340BB613B685B682F
:1043B80003F48033002B03D0BA693B691343BB6114
:1043C800124ABB691360FB690133FB61FB690F2B60
:1043D8007FF690AE00BF00BF2437BD465DF8047B72
:1043E800704700BF0038024000380140000002401A
:1043F8000004024000080240000C02400010024085
:104408000014024000180240001C0240003C014019
:1044180080B485B000AF78600B467B807B681A69F2
:104428007B881340002B02D00123FB7301E000239B
:10443800FB73FB7B18461437BD465DF8047B704759
:1044480080B483B000AF78600B467B8013467B70E6
:104458007B78002B03D07A887B689A6103E07B889D
:104468001A047B689A6100BF0C37BD465DF8047B6F
:104478007047000080B582B000AF0346FB80084B50
:104488005A69FB881340002B06D0054AFB88536104
:10449800FB881846FEF7ECFF00BF0837BD4680BD15
:1044A800003C014080B586B002AF78607B68002B85
:1044B80001D1012301E17B681B68BB607B6893F82D
:1044C8009534DBB2002B06D17B68002283F8942454
:1044D800786807F03FFF7B68032283F89524BB6860
:1044E800B3F1A04F02D17B6800229A717B681B68E8
:1044F800184604F0EEFA7B6818687B681A7C8DF819
:10450800002004330ECB04F0CDF90346002B05D070
:104518007B68022283F895240123CEE07B681B6820
:104528000021184604F0E6FA0346002B05D07B6804
:10453800022283F895240123BFE00023FB734AE09D
:10454800FA7B79681346DB0013449B000B44153350
:1045580001221A70FA7B79681346DB0013449B002A
:104568000B441433FA7B1A70FA7BFB7B98B2796898
:104578001346DB0013449B000B442E3302461A807B
:10458800FA7B79681346DB0013449B000B4418330D
:1045980000221A70FA7B79681346DB0013449B00EB
:1045A8000B441C3300221A60FA7B79681346DB003F
:1045B80013449B000B44203300221A60FA7B79686D
:1045C8001346DB0013449B000B44243300221A607B
:1045D800FB7B0133FB737B681B79FA7B9A42AFD371
:1045E8000023FB7344E0FA7B79681346DB0013442D
:1045F8009B000B4403F2552300221A70FA7B79685A
:104608001346DB0013449B000B4403F51573FA7B38
:104618001A70FA7B79681346DB0013449B000B443D
:1046280003F5167300221A70FA7B79681346DB00CB
:1046380013449B000B4403F5177300221A60FA7B9E
:1046480079681346DB0013449B000B4403F5187389
:1046580000221A60FA7B79681346DB0013449B003A
:104668000B4403F5197300221A60FB7B0133FB73BB
:104678007B681B79FA7B9A42B5D37B6818687B689C
:104688001A7C8DF8002004330ECB04F07FFA034621
:10469800002B05D07B68022283F8952401230CE0C7
:1046A8007B6800225A747B68012283F895247B6812
:1046B8001B68184605F0C9FA002318461037BD468E
:1046C80080BD80B584B000AF78607B681B68FB60F4
:1046D8007B6893F89434012B01D1022322E07B6894
:1046E800012283F89424FB68DB6803F04003002B65
:1046F80009D07B685B7B012B05D1FB689B6B43F47E
:104708008032FB689A637B681B68184604F0D0F90E
:104718007B681B68184605F077FA7B68002283F8E7
:104728009424002318461037BD4680BD90B58DB03F
:1047380000AF78607B681B683B623B6AFB617B6803
:104748001B68184605F035FB0346002B40F08C84A7
:104758007B681B68184605F099FA0346002B00F0A1
:104768008284FB6903F500639B681B0AC3F30D028F
:104778007B68C3F8D4247B681B68184605F086FA62
:10478800034603F00203022B07D17B681B685A69B2
:104798007B681B6802F002025A617B681B68184636
:1047A80005F074FA034603F01003102B61D17B68FF
:1047B8001B689A697B681B6822F010029A613B6A41
:1047C8001B6ABB61BB6903F00F021346DB0013448D
:1047D8009B0003F514737A68134404337B61BB6947
:1047E8005B0C03F00F03022B24D1BA6947F6F07370
:1047F8001340002B35D07B69D968BB691B099BB274
:10480800C3F30A039BB21A46386A05F0ABF87B6912
:10481800DA68BB691B09C3F30A031A447B69DA60C7
:104828007B695A69BB691B09C3F30A031A447B698C
:104838005A6116E0BB695B0C03F00F03062B10D11D
:104848007B6803F29C4308221946386A05F08AF807
:104858007B695A69BB691B09C3F30A031A447B695C
:104868005A617B681B689A697B681B6842F0100272
:104878009A617B681B68184605F008FA034603F43A
:104888000023B3F5002F40F0A78000237B627B68EC
:104898001B68184605F00DFAB86299E0BB6A03F088
:1048A8000103002B00F08E807B681B687A6AD2B205
:1048B8001146184605F031FA38613B6903F00103E7
:1048C800002B0CD07B6A5A01FB69134403F5306353
:1048D8001A4601239360796A786800F0A3FE3B6961
:1048E80003F00803002B0CD07B6A5A01FB691344C0
:1048F80003F530631A4608239360796A786800F0F4
:1049080079FF3B6903F01003002B08D07B6A5A013A
:10491800FB69134403F530631A46102393603B691F
:1049280003F00203002B30D03B6A5B6903F080037D
:10493800802B09D1FB6903F500635B68FA6902F50E
:10494800006243F4806353607A6A1346DB001344C1
:104958009B0003F514737A68134404337B617B6905
:10496800DB78012B08D17B690022DA707B6ADBB225
:104978001946786807F0F4FD7B6A5A01FB6913440D
:1049880003F530631A46022393603B6903F0200362
:10499800002B08D07B6A5A01FB69134403F5306386
:1049A8001A46202393603B6903F40053002B09D077
:1049B8007B6A5A01FB69134403F530631A464FF4C6
:1049C800005393607B6A01337B62BB6A5B08BB62FE
:1049D800BB6A002B7FF462AF7B681B68184605F042
:1049E80055F9034603F48023B3F5802F40F0DB80AC
:1049F8007B681B68184605F076F9B86200237B626D
:104A0800CDE0BB6A03F00103002B00F0C2807B6895
:104A18001B687A6AD2B21146184605F09CF93861CB
:104A28003B6903F00103002B57D07B6A03F00F03A7
:104A3800012202FA03F3FB60FB6903F500635A6B7A
:104A4800FB68DB43F96901F5006113404B637B6A3E
:104A58005A01FB69134403F510631A460123936056
:104A68007B689B79012B32D179687A6A1346DB001F
:104A780013449B000B442033196878687A6A1346FC
:104A8800DB0013449B0003441C331B6819447868FB
:104A98007A6A1346DB0013449B00034420331960F1
:104AA8007B6A002B13D179687A6A1346DB001344BA
:104AB8009B000B4424331B68002B08D17B681868C3
:104AC8007B6803F29C431A46012105F0A3F97B6A2F
:104AD800DBB21946786807F0BEFC3B6903F00803AF
:104AE800002B08D07B6A5A01FB69134403F5106355
:104AF8001A46082393603B6903F01003002B08D083
:104B08007B6A5A01FB69134403F510631A461023A4
:104B180093603B6903F04003002B08D07B6A5A017D
:104B2800FB69134403F510631A46402393603B69FD
:104B380003F00203002B23D0796A386A04F08AF95B
:104B48007A6A1346DB0013449B0010337A681344D7
:104B580004337B617B69DB78012B08D17B690022F8
:104B6800DA707B6ADBB21946786807F00BFD7B6A5E
:104B78005A01FB69134403F510631A460223936034
:104B88003B6903F08003002B03D0796A786800F052
:104B9800BDFC7B6A01337B62BB6A5B08BB62BB6A94
:104BA800002B7FF42EAF7B681B68184605F06EF863
:104BB800034603F00043B3F1004F22D1FB6903F52C
:104BC80000635B68FA6902F5006223F00103536031
:104BD8007B6893F8CC34012B08D17B68002283F8DA
:104BE800CC240021786800F0A3FE02E0786807F082
:104BF800A9FC7B681B685A697B681B6802F0004245
:104C08005A617B681B68184605F040F8034603F4B0
:104C18000063B3F5006F12D1FB6903F500639B686D
:104C280003F00103012B02D1786807F065FC7B686B
:104C38001B685A697B681B6802F400625A617B68CA
:104C48001B68184605F022F8034603F48053B3F5B1
:104C5800805F40F0B780FB6903F500635B68FA6921
:104C680002F5006223F0010353607B681B68102182
:104C7800184604F0EFF80023FB6246E0FB6A5A018D
:104C8800FB69134403F510631A464FF67F339360AC
:104C9800FB6A5A01FB69134403F510631B68FA6A3F
:104CA8005101FA690A4402F5106223F400131360F3
:104CB800FB6A5A01FB69134403F530631A464FF641
:104CC8007F339360FB6A5A01FB69134403F5306331
:104CD8001B68FA6A5101FA690A4402F5306223F442
:104CE80000131360FB6A5A01FB69134403F5306330
:104CF8001B68FA6A5101FA690A4402F5306243F006
:104D080000631360FB6A0133FB627B681B791A46F8
:104D1800FB6A9342B2D3FB6903F50063DB69FA6966
:104D280002F5006243F00113D3617B68DB7B002B43
:104D380016D0FB6903F50063D3F88430FA6902F5ED
:104D4800006243F00B03C2F88430FB6903F500638B
:104D58005B6CFA6902F5006243F00B03536415E0DB
:104D6800FB6903F500635B69FA6902F5006243F4C5
:104D7800005343F02B035361FB6903F500631B6980
:104D8800FA6902F5006243F00B031361FB6903F54E
:104D980000631B68FA6902F5006223F4FE6313607E
:104DA8007B6818687B6899797B6803F29C431A468C
:104DB80005F030F87B681B685A697B681B6802F449
:104DC80080525A617B681B68184604F05FFF0346EF
:104DD80003F40053B3F5005F23D17B681B681846C2
:104DE80004F0F5FF7B681B68184604F0ACF803462E
:104DF8001A467B68DA717B681C6801F009FA01467B
:104E08007B68DB791A46204603F0B0FD786807F026
:104E18004AFB7B681B685A697B681B6802F400526E
:104E28005A617B681B68184604F030FF034603F09C
:104E38000803082B0AD1786807F027FB7B681B68F2
:104E48005A697B681B6802F008025A617B681B6814
:104E5800184604F01BFF034603F08003802B23D180
:104E68003B6A9B6923F080023B6A9A6101237B625B
:104E780014E079687A6A1346DB0013449B000B44FC
:104E880003F257231B78012B05D17B6ADBB2194645
:104E9800786800F00AFB7B6A01337B627B681B79C8
:104EA8001A467B6A9342E4D37B681B68184604F071
:104EB800EDFE034603F48013B3F5801F3CD10123B4
:104EC8007B622BE07B6A5A01FB69134403F510638C
:104ED8001B68BB6179687A6A1346DB0013449B0040
:104EE8000B4418331B78012B15D1BB69002B12DA40
:104EF80079687A6A1346DB0013449B000B44173326
:104F080001221A707B6ADBB263F07F03DBB21946B9
:104F1800786800F0CAFA7B6A01337B627B681B7988
:104F28001A467B6A9342CDD37B681B685A697B68B3
:104F38001B6802F480125A617B681B68184604F0EB
:104F4800A5FE034603F40013B3F5001F56D1012351
:104F58007B6245E07B6A5A01FB69134403F53063C1
:104F68001B68BB6179687A6A1346DB0013449B00AF
:104F78000B4403F516731B78012B2ED1BB69002B4C
:104F88002BDABB691A0C7B68D3F8D434534003F08E
:104F98000103002B21D179687A6A1346DB00134498
:104FA8009B000B4403F2572301221A703B6A9B694A
:104FB80043F080023B6A9A613B6A5B6903F08003B5
:104FC800002B0AD1FB6903F500635B68FA6902F5F7
:104FD800006243F40073536008E07B6A01337B622C
:104FE8007B681B791A467B6A9342B3D37B681B683C
:104FF8005A697B681B6802F400125A617B681B6857
:10500800184604F043FE034603F08043B3F1804F93
:105018000AD1786807F0C8FA7B681B685A697B6808
:105028001B6802F080425A617B681B68184604F0CE
:105038002DFE034603F00403042B15D17B681B687F
:105048005B68BB61BB6903F00403002B02D078687E
:1050580007F0B8FA7B681B6859687B681B68BA69EF
:105068000A435A6000E000BF3437BD4690BD80B5A2
:1050780082B000AF78600B46FB707B6893F894347D
:10508800012B01D1022312E07B68012283F89424CA
:105098007B68FA785A747B681B68FA781146184658
:1050A80004F08CFD7B68002283F8942400231846C2
:1050B8000837BD4680BD80B584B000AF786008462B
:1050C80011461A460346FB700B463B801346BB70DD
:1050D8000023FB7297F90330002B0FDAFB7803F0FB
:1050E8000F021346DB0013449B0010337A68134405
:1050F8000433FB60FB6801225A700FE0FB7803F071
:105108000F021346DB0013449B0003F514737A68FF
:1051180013440433FB60FB6800225A70FB7803F0E9
:105128000F03DAB2FB681A703B88C3F30A02FB6804
:105138009A60FB68BA781A71FB685B78002B04D018
:10514800FB681B781A46FB685A83BB78022B02D18E
:10515800FB6800225A717B6893F89434012B01D1C3
:1051680002230EE07B68012283F894247B681B6885
:10517800F968184603F00CFF7B68002283F8942432
:10518800FB7A18461037BD4680BD80B584B000AFA5
:1051980078600B46FB7097F90330002B0FDAFB7829
:1051A80003F00F021346DB0013449B0010337A68A8
:1051B80013440433FB60FB6801225A700FE0FB784C
:1051C80003F00F021346DB0013449B0003F514732E
:1051D8007A6813440433FB60FB6800225A70FB783A
:1051E80003F00F03DAB2FB681A707B6893F8943403
:1051F800012B01D102230EE07B68012283F894245D
:105208007B681B68F968184603F04AFF7B68002230
:1052180083F89424002318461037BD4680BD80B516
:1052280086B000AFF8607A603B600B46FB72FB7A91
:1052380003F00F021346DB0013449B0003F51473BD
:10524800FA68134404337B617B697A68DA607B69A6
:105258003A681A617B6900225A617B6900225A7098
:10526800FB7A03F00F03DAB27B691A70FB689B794B
:10527800012B02D17A687B69DA61FB681868FB68E0
:105288009B791A46796903F0E7FF00231846183717
:10529800BD4680BD80B483B000AF78600B46FB701C
:1052A800FB7803F00F0279681346DB0013449B0078
:1052B8000B4403F51A731B6818460C37BD465DF896
:1052C800047B704780B586B000AFF8607A603B60B9
:1052D8000B46FB72FB7A03F00F021346DB00134404
:1052E8009B001033FA68134404337B617B697A6846
:1052F800DA607B693A681A617B6900225A617B69C6
:1053080001225A70FB7A03F00F03DAB27B691A7034
:10531800FB689B79012B02D17A687B69DA61FB68AB
:105328001868FB689B791A46796903F095FF002392
:1053380018461837BD4680BD80B584B000AF786088
:105348000B46FB70FB7803F00F037A6812799342DF
:1053580001D901234FE097F90330002B0FDAFB78CE
:1053680003F00F021346DB0013449B0010337A68E6
:1053780013440433FB60FB6801225A700DE0FA788D
:105388001346DB0013449B0003F514737A68134437
:105398000433FB60FB6800225A70FB6801229A7094
:1053A800FB7803F00F03DAB2FB681A707B6893F896
:1053B8009434012B01D102231DE07B68012283F87C
:1053C80094247B681B68F968184604F023FBFB7873
:1053D80003F00F03002B09D17B6818687B68997963
:1053E8007B6803F29C431A4604F014FD7B68002294
:1053F80083F89424002318461037BD4680BD80B535
:1054080084B000AF78600B46FB70FB7803F00F03A5
:105418007A681279934201D9012342E097F903305F
:10542800002B0FDAFB7803F00F021346DB0013445E
:105438009B0010337A6813440433FB60FB68012235
:105448005A700FE0FB7803F00F021346DB00134499
:105458009B0003F514737A6813440433FB60FB68FC
:1054680000225A70FB6800229A70FB7803F00F0341
:10547800DAB2FB681A707B6893F89434012B01D177
:1054880002230EE07B68012283F894247B681B6862
:10549800F968184604F02CFB7B68002283F89424F2
:1054A800002318461037BD4680BD80B584B000AFD4
:1054B80078600B46FB7097F90330002B0CDAFB7809
:1054C80003F00F021346DB0013449B0010337A6885
:1054D80013440433FB600CE0FB7803F00F0213461F
:1054E800DB0013449B0003F514737A6813440433F8
:1054F800FB607B681B68F968184604F04BF90346A3
:10550800FB72FB7A18461037BD4680BD80B58AB05D
:1055180002AF786039607B681B687B617B693B619F
:105528003A681346DB0013449B0010337A6813442F
:105538000433FB60FB685A69FB681B699A4201D90E
:1055480001236BE0FB681A69FB685B69D31AFB618E
:10555800FB689B68FA699A4202D9FB689B68FB6101
:10556800FB6903339B08BB612AE0FB681A69FB6887
:105578005B69D31AFB61FB689B68FA699A4202D996
:10558800FB689B68FB61FB6903339B08BB61FB6895
:10559800D9683B68DAB2FB6998B27B689B7900935B
:1055A8000346786904F0A0F9FB68DA68FB691A44D5
:1055B800FB68DA60FB685A69FB691A44FB685A6140
:1055C8003B685A013B69134403F510639B699BB21E
:1055D800BA699A4209D8FB685A69FB681B699A42FA
:1055E80003D2FB681B69002BBFD1FB681A69FB68F3
:1055F8005B699A4211D83B6803F00F03012202FA53
:1056080003F3BB603B6903F500635A6BBB68DB437C
:10561800396901F5006113404B63002318462037B0
:10562800BD4680BD80B588B000AF786039607B68C2
:105638001B68FB61FB69BB61FB693C3304331B6876
:105648007B613B685A01BB69134403F530639B686F
:105658003B617B689B79012B7BD13B6903F0080395
:10566800002B15D07B69614A934240F2B9803B69AF
:1056780003F40043002B00F0B3803B685A01BB6978
:10568800134403F530631A464FF400439360A7E0D0
:105698003B6903F02003002B09D03B685A01BB6922
:1056A800134403F530631A462023936098E03B695E
:1056B80003F02803002B40F093807B694B4A934208
:1056C8000FD93B6903F40043002B0AD03B685A0109
:1056D800BB69134403F530631A464FF400439360E3
:1056E8007EE03A681346DB0013449B0003F514730D
:1056F8007A6813440433FB60FB681A6A3B685901F3
:10570800BB690B4403F530631B69C3F31203D21A58
:10571800FB685A613B68002B14D1FB681B69002B9E
:1057280009D17B6818687B6803F29C431A460121FB
:1057380004F070FB06E0FB68DA68FB685B691A44F2
:10574800FB68DA603B68DBB21946786806F068FEE9
:1057580046E07B69264A934224D13B6903F400431F
:10576800002B0AD03B685A01BB69134403F5306328
:105778001A464FF40043936032E03B6903F020037C
:10578800002B08D03B685A01BB69134403F530630A
:105798001A46202393603B68DBB21946786806F006
:1057A8003FFE1DE03B68002B14D179683A68134628
:1057B800DB0013449B000B4403F519731B68002B93
:1057C80008D17B6818687B6803F29C431A4600215D
:1057D80004F020FB3B68DBB21946786806F020FE2F
:1057E800002318462037BD4680BD00BF0A30544FFD
:1057F8000A31544F80B586B000AF786039607B6855
:105808001B687B617B693B617B693C3304331B68A4
:10581800FB603B685A013B69134403F530639B689E
:10582800BB60FB68154A93420ED9BB6803F400437A
:10583800002B09D03B685A013B69134403F53063D8
:105848001A464FF400439360786806F0D7FDFB686A
:105858000A4A93420CD97B689B79012B08D17B6853
:1058680018687B6803F29C431A46012104F0D2FAB7
:10587800002318461837BD4680BD00BF0A30544F74
:1058880080B485B000AF78600B46FB7013463B8050
:105898007B681B685B6ABB60FB78002B07D13B8881
:1058A80019047B681B68BA680A439A6228E07B6817
:1058B8001B689B6A1B0CBA681344BB600023FB730C
:1058C8000DE07B681A68FB7B40339B0013445B68E0
:1058D8001B0CBA681344BB60FB7B0133FB73FA7B78
:1058E800FB78013B9A42ECD33B8818047B68196823
:1058F800FB78013BBA68024340339B000B445A6073
:10590800002318461437BD465DF8047B704780B401
:1059180083B000AF78600B467B807B681B687A8811
:105928005A62002318460C37BD465DF8047B704761
:1059380080B483B000AF78600B46FB7000BF0C37B3
:10594800BD465DF8047B704780B586B000AF7860CF
:105958007B68002B01D1012367E27B681B6803F099
:105968000103002B75D0884B9B6803F00C03042BB4
:105978000CD0854B9B6803F00C03082B12D1824B8B
:105988005B6803F48003B3F5800F0BD17E4B1B6873
:1059980003F40033002B5BD07B685B68002B57D186
:1059A800012342E27B685B68B3F5803F06D1764B02
:1059B8001B68754A43F4803313601DE07B685B689D
:1059C800B3F5A02F0CD1704B1B686F4A43F48023AA
:1059D80013606D4B1B686C4A43F4803313600BE013
:1059E800694B1B68684A23F480331360664B1B6855
:1059F800654A23F4802313607B685B68002B13D00F
:105A0800FDF726FE386108E0FDF722FE02463B69F5
:105A1800D31A642B01D9032307E25B4B1B6803F4F9
:105A28000033002BF0D014E0FDF712FE386108E0D7
:105A3800FDF70EFE02463B69D31A642B01D90323F6
:105A4800F3E1514B1B6803F40033002BF0D100E065
:105A580000BF7B681B6803F00203002B63D04A4B2E
:105A68009B6803F00C03002B0BD0474B9B6803F09B
:105A78000C03082B1CD1444B5B6803F48003002BF8
:105A880016D1414B1B6803F00203002B05D07B683D
:105A9800DB68012B01D00123C7E13B4B1B6823F0D6
:105AA800F8027B681B69DB00374913430B603AE057
:105AB8007B68DB68002B20D0344B01221A60FDF78D
:105AC800C7FD386108E0FDF7C3FD02463B69D31AFC
