:020000040800F2
:100000000000022011640008F55F0008FD5F000891
:10001000056000080D600008156000080000000081
:100020000000000000000000000000001D6000084B
:100030002B600008000000003960000847600008DD
:10004000616400086164000861640008616400087C
:10005000616400086164000855600008DD60000804
:1000600079610008156200082362000861640008D5
:10007000616400086164000861640008616400084C
:10008000316200086164000861640008616400086E
:10009000616400086164000861640008456200084A
:1000A0006962000861640008616400086164000816
:1000B0009D620008616400086164000861640008D2
:1000C00061640008616400086164000861640008FC
:1000D0006164000861640008C5620008616400088A
:1000E000D962000861640008616400086164000866
:1000F00061640008616400086164000861640008CC
:10010000616400086164000811630008616400080C
:1001100061640008616400083963000851630008E5
:10012000616400086164000861640008616400089B
:10013000616400086164000861640008616400088B
:10014000616400086164000861640008616400087B
:10015000616400086164000861640008616400086B
:10016000616400086164000861640008616400085B
:100170006164000861640008616400080000000018
:080180006164000861640008DD
:1001880010B5054C237833B9044B13B10448AFF3C9
:1001980000800123237010BDE00A00200000000049
:1001A80090A9000808B5034B1BB103490348AFF3F6
:1001B800008008BD00000000E40A002090A90008A3
:1001C80081F0004102E000BF83F0004330B54FEA00
:1001D80041044FEA430594EA050F08BF90EA020F6D
:1001E8001FBF54EA000C55EA020C7FEA645C7FEA00
:1001F800655C00F0E2804FEA5454D4EB5555B8BF23
:100208006D420CDD2C4480EA020281EA030382EA93
:10021800000083EA010180EA020281EA0303362D25
:1002280088BF30BD11F0004F4FEA01314FF4801CF8
:100238004CEA113102D0404261EB410113F0004F0A
:100248004FEA03334CEA133302D0524263EB4303C1
:1002580094EA050F00F0A780A4F10104D5F1200E5F
:100268000DDB02FA0EFC22FA05F2801841F10001BA
:1002780003FA0EF2801843FA05F359410EE0A5F18E
:1002880020050EF1200E012A03FA0EFC28BF4CF0BF
:10029800020C43FA05F3C01851EBE37101F0004575
:1002A80007D54FF0000EDCF1000C7EEB00006EEB82
:1002B8000101B1F5801F1BD3B1F5001F0CD349080C
:1002C8005FEA30004FEA3C0C04F101044FEA445263
:1002D80012F5800F80F09A80BCF1004F08BF5FEAEA
:1002E800500C50F1000041EB045141EA050130BDCA
:1002F8005FEA4C0C404141EB0101013C28BFB1F5DC
:10030800801FE9D291F0000F04BF01460020B1FA26
:1003180081F308BF2033A3F10B03B3F120020CDAF9
:100328000C3208DD02F1140CC2F10C0201FA0CF0D7
:1003380021FA02F10CE002F11402D8BFC2F1200C3C
:1003480001FA02F120FA0CFCDCBF41EA0C019040F2
:10035800E41AA2BF01EB0451294330BD6FEA04043B
:100368001F3C1CDA0C340EDC04F11404C4F1200226
:1003780020FA04F001FA02F340EA030021FA04F338
:1003880045EA030130BDC4F10C04C4F1200220FA8F
:1003980002F001FA04F340EA0300294630BD21FACD
:1003A80004F0294630BD94F0000F83F4801306BF93
:1003B80081F480110134013D4EE77FEA645C18BF87
:1003C8007FEA655C29D094EA050F08BF90EA020F1E
:1003D80005D054EA000C04BF1946104630BD91EA16
:1003E800030F1EBF0021002030BD5FEA545C05D119
:1003F8004000494128BF41F0004130BD14F5800458
:100408003CBF01F5801130BD01F0004545F0FE41CB
:1004180041F470014FF0000030BD7FEA645C1ABF00
:10042800194610467FEA655C1CBF0B46024650EA37
:10043800013406BF52EA033591EA030F41F4002163
:1004480030BD00BF90F0000F04BF0021704730B5E9
:100458004FF4806404F132044FF000054FF00001BE
:1004680050E700BF90F0000F04BF0021704730B57F
:100478004FF4806404F1320410F0004548BF404254
:100488004FF000013EE700BF42004FEAE2014FEAA9
:1004980031014FEA02701FBF12F07F4393F07F4F84
:1004A80081F06051704732F07F4208BF704793F087
:1004B8007F4F04BF41F40021704730B54FF460749A
:1004C80001F0004521F000411CE700BF50EA01029D
:1004D80008BF704730B54FF000050AE050EA010246
:1004E80008BF704730B511F0004502D5404261EBB6
:1004F80041014FF4806404F132045FEA915C3FF4F7
:10050800D8AE4FF003025FEADC0C18BF03325FEA93
:10051800DC0C18BF033202EBDC02C2F1200300FA44
:1005280003FC20FA02F001FA03FE40EA0E0021FA69
:1005380002F11444BDE600BF70B54FF0FF0C4CF457
:10054800E06C1CEA11541DBF1CEA135594EA0C0F09
:1005580095EA0C0F00F0DEF82C4481EA030621EA44
:100568004C5123EA4C5350EA013518BF52EA03357F
:1005780041F4801143F4801338D0A0FB02CE4FF031
:100588000005E1FB02E506F00042E0FB03E54FF061
:100598000006E1FB03569CF0000F18BF4EF0010E59
:1005A800A4F1FF04B6F5007F64F5407404D25FEA55
:1005B8004E0E6D4146EB060642EAC62141EA555108
:1005C8004FEAC52040EA5E504FEACE2EB4F1FD0C4A
:1005D80088BFBCF5E06F1ED8BEF1004F08BF5FEAC8
:1005E800500E50F1000041EB045170BD06F000467A
:1005F80046EA010140EA020081EA0301B4EB5C0427
:10060800C2BFD4EB0C0541EA045170BD41F480111E
:100618004FF0000E013C00F3AB8014F1360FDEBF43
:10062800002001F0004170BDC4F10004203C35DA1F
:100638000C341BDC04F11404C4F1200500FA05F3A2
:1006480020FA04F001FA05F240EA020001F0004243
:1006580021F0004110EBD37021FA04F642EB0601B9
:100668005EEA430E08BF20EAD37070BDC4F10C04E3
:10067800C4F1200500FA04F320FA05F001FA04F2A7
:1006880040EA020001F0004110EBD37041F1000193
:100698005EEA430E08BF20EAD37070BDC4F120059E
:1006A80000FA05F24EEA020E20FA04F301FA05F206
:1006B80043EA020321FA04F001F0004121FA04F2AE
:1006C80020EA020000EBD3705EEA430E08BF20EA7E
:1006D800D37070BD94F0000F0FD101F000464000B8
:1006E80041EB010111F4801F08BF013CF7D041EA3A
:1006F800060195F0000F18BF704703F0004652003E
:1007080043EB030313F4801F08BF013DF7D043EA0E
:100718000603704794EA0C0F0CEA135518BF95EAC4
:100728000C0F0CD050EA410618BF52EA4306D1D14B
:1007380081EA030101F000414FF0000070BD50EA6A
:10074800410606BF1046194652EA430619D094EAF4
:100758000C0F02D150EA013613D195EA0C0F05D1DE
:1007680052EA03361CBF104619460AD181EA030132
:1007780001F0004141F0FE4141F470014FF00000EA
:1007880070BD41F0FE4141F4780170BD70B54FF085
:10079800FF0C4CF4E06C1CEA11541DBF1CEA135505
:1007A80094EA0C0F95EA0C0F00F0A7F8A4EB0504E7
:1007B80081EA030E52EA03354FEA013100F08880DE
:1007C8004FEA03334FF0805545EA131343EA1263A7
:1007D8004FEA022245EA111545EA10654FEA00265C
:1007E8000EF000419D4208BF964244F1FD0404F515
:1007F800407402D25B084FEA3202B61A65EB030571
:100808005B084FEA32024FF480104FF4002CB6EB2D
:10081800020E75EB030E22BFB61A754640EA0C00AD
:100828005B084FEA3202B6EB020E75EB030E22BFED
:10083800B61A754640EA5C005B084FEA3202B6EB2E
:10084800020E75EB030E22BFB61A754640EA9C00ED
:100858005B084FEA3202B6EB020E75EB030E22BFBD
:10086800B61A754640EADC0055EA060E18D04FEA7B
:10087800051545EA16754FEA06164FEAC30343EA1B
:1008880052734FEAC2025FEA1C1CC0D111F4801FE8
:100898000BD141EA00014FF000004FF0004CB6E7E1
:1008A80011F4801F04BF01430020B4F1FD0C88BF80
:1008B800BCF5E06F3FF6AFAEB5EB030C04BFB6EB8B
:1008C800020C5FEA500C50F1000041EB045170BD7E
:1008D8000EF0004E4EEA113114EB5C04C2BFD4EBAB
:1008E8000C0541EA045170BD41F480114FF0000E2F
:1008F800013C90E645EA060E8DE60CEA135594EAAB
:100908000C0F08BF95EA0C0F3FF43BAF94EA0C0FAD
:100918000AD150EA01347FF434AF95EA0C0F7FF422
:1009280025AF104619462CE795EA0C0F06D152EA76
:1009380003353FF4FDAE1046194622E750EA41065A
:1009480018BF52EA43067FF4C5AE50EA41047FF46B
:100958000DAF52EA43057FF4EBAE12E74A0011D21D
:1009680012F5001211D20DD56FF47873B3EB625201
:100978000ED44FEAC12343F0004343EA505323FA0D
:1009880002F070474FF00000704750EA013002D182
:100998004FF0FF3070474FF00000704753B94AB925
:1009A800002908BF00281CBF4FF0FF314FF0FF306F
:1009B80000F06AB9ADF1080C6DE904CE00F006F854
:1009C800DDF804E0DDE9022304B070472DE9F047C3
:1009D800089D0C46002B4ED194468C458646B2FAAB
:1009E80082F262D94AB1C2F12003914020FA03F39E
:1009F8000CFA02FC194300FA02FE4FEA1C471FFAE0
:100A08008CF6B1FBF7F44FEA1E4307FB141143EAD7
:100A1800014304FB06F199420AD91CEB030304F1D4
:100A2800FF3080F01281994240F20F81023C63440A
:100A3800591A1FFA8EF3B1FBF7F007FB101143EABE
:100A4800014300FB06F69E420AD91CEB030300F1A2
:100A5800FF3180F0FC809E4240F2F9806344023806
:100A68009B1B40EA044000211DB1D3400022C5E988
:100A78000032BDE8F0878B4205D90DB1C5E9000108
:100A880000210846F5E7B3FA83F1002946D1A342CD
:100A980002D39042C0F0F080861A64EB0303012071
:100AA800002DE6D0C5E90063E3E7002A40F0908016
:100AB800A1EB0C044FEA1C481FFA8CF70121B4FB88
:100AC800F8F64FEA1E4308FB164443EA044307FBC3
:100AD80006F0984208D91CEB030306F1FF3402D252
:100AE800984200F2CD8026461C1A1FFA8EF3B4FBFA
:100AF800F8F008FB104443EA044300FB07F79F4261
:100B080008D91CEB030300F1FF3402D29F4200F224
:100B1800B0802046DB1B40EA0640A5E7C1F120066D
:100B28008B4022FA06F71F4320FA06FC04FA01F369
:100B380043EA0C03F44000FA01F8380C4FEA134971
:100B4800B4FBF0FE1FFA87FC00FB1E4449EA04448C
:100B58000EFB0CF9A14502FA01F20AD93C190EF173
:100B6800FF3A80F08480A14540F28180AEF1020E08
:100B78003C44A4EB09041FFA83F9B4FBF0F300FB2F
:100B8800134449EA044403FB0CFCA44507D93C1967
:100B980003F1FF3067D2A44565D9023B3C4443EAE0
:100BA8000E40A0FB0293A4EB0C049C42CE469C464C
:100BB80051D34ED055B1B8EB0E0364EB0C0404FAD4
:100BC80006F6CB401E43CC40C5E90064002150E73F
:100BD800C2F1200320FA03F10CFA02FC24FA03F311
:100BE80094400C434FEA1C4800FA02FE1FFA8CF7A7
:100BF800B3FBF8F008FB1031230C43EA014300FB78
:100C080007F1994208D91CEB030300F1FF362CD2F7
:100C180099422AD9023863445B1AA4B2B3FBF8F1AB
:100C280008FB113344EA034401FB07F3A34208D944
:100C38001CEB040401F1FF3613D2A34211D9023987
:100C48006444E41A41EA004139E70446F0E60846FC
:100C580006E7C845AED2B9EB020E63EB070C0138C4
:100C6800A8E73146EDE7034699E73046D4E7D6468C
:100C78007FE7634402384DE70646234608460FE7F8
:100C8800023E634430E700BF704700BF80B483B0C2
:100C980000AF0346FB71FB79002B0AD0084AFB79A9
:100CA8001370074B01225A70054B5A88044BDA809F
:100CB80000E000BF0C37BD465DF8047B704700BFFD
:100CC8000000002080B500AF254B5B78002B45D095
:100CD800234BDB88002B06D0214BDB88013B9AB2E3
:100CE8001F4BDA803BE01E4B5B78032B2ED0032B87
:100CF80030DC012B02D0022B0DD02BE00022022188
:100D0800184806F01BFE164B02225A70144B5A88DC
:100D1800134BDA8023E001220221124806F00EFE6E
:100D28000F4B1B78013BDAB20D4B1A700C4B1B783A
:100D3800002B07D00A4B01225A70094B9A88084B9E
:100D4800DA800CE0064B03225A7008E0044B0022BC
:100D58005A7004E0024B00225A7000E000BF80BDC8
:100D6800000000200010024080B483B000AF0346AA
:100D7800FB71FB79012B31D8FA791B4913465B00CB
:100D880013445B000B440233FA791A70FA79164956
:100D980013465B0013445B000B44033300221A70B4
:100DA800FA79114913465B0013445B000B44043382
:100DB80000221A80FA790C4913465B0013445B0041
:100DC8000B44013302221A70FA79074913465B0073
:100DD80013445B000B4401221A7000E000BF0C377B
:100DE800BD465DF8047B7047FC0A002080B483B0E0
:100DF80000AF0346FB71FB79012B31D8FA791B4907
:100E080013465B0013445B000B440233FA791A70F3
:100E1800FA79164913465B0013445B000B4403330D
:100E280000221A70FA79114913465B0013445B00DB
:100E38000B44043300221A80FA790C4913465B00EC
:100E480013445B000B44013302221A70FA790749F4
:100E580013465B0013445B000B4401221A7000E048
:100E680000BF0C37BD465DF8047B7047080B0020B7
:100E780080B584B000AF0346FB71FB79012B00F20B
:100E88008E81FA79B14913465B0013445B000B4429
:100E98001B78092B00F2638101A252F823F000BFEE
:100EA800D10E0008E70E0008E30F00082B0F00081A
:100EB8006711000867110008870F00083F10000835
:100EC800F910000821110008FA79A04913465B00BF
:100ED80013445B000B44033300221A703FE1FB7993
:100EE800002B05D100220821994806F027FD04E0CF
:100EF80000221021964806F021FDFA7993491346FD
:100F08005B0013445B000B44043364221A80FA79B3
:100F18008E4913465B0013445B000B4403221A708E
:100F28001DE1FA79894913465B0013445B000B44C1
:100F380004331B88002B40F00381FB79002B05D17B
:100F480000228021824806F0F9FC04E000220821F2
:100F5800804806F0F3FCFA797C4913465B00134499
:100F68005B000B44043332221A80FA79774913461E
:100F78005B0013445B000B4406221A70E0E0FA7928
:100F8800724913465B0013445B000B4404331B880F
:100F9800002B40F0D780FB79002B05D101222021BE
:100FA8006B4806F0CBFC04E001224021684806F0BB
:100FB800C5FCFA79654913465B0013445B000B4492
:100FC800043364221A80FA79604913465B0013449B
:100FD8005B000B4402221A70B4E0FA795B491346AD
:100FE8005B0013445B000B4404331B88002B40F068
:100FF800AB80FB79002B05D101220821544806F06B
:101008009DFC04E001221021514806F097FCFA7972
:101018004E4913465B0013445B000B4404336422BF
:101028001A80FA79494913465B0013445B000B4464
:1010380007221A7088E0FA79444913465B00134482
:101048005B000B4404331B88002B40F08780FB793E
:10105800002B07D14FF480613F4806F057FC034648
:10106800FB7306E04FF400613B4806F04FFC034673
:10107800FB73FB7B002B09D1FA79344913465B00DB
:1010880013445B000B4408221A7067E0FA792F4971
:1010980013465B0013445B000B4403331B78013396
:1010A800D8B22A4913465B0013445B000B44033350
:1010B80001461970254913465B0013445B000B4435
:1010C80003331B78012B09D8FA79204913465B00B2
:1010D80013445B000B4401221A703FE0FA791B4964
:1010E80013465B0013445B000B4409221A7035E079
:1010F800FA79164913465B0013445B000B4401332D
:1011080000221A70FA79114913465B0013445B00F8
:101118000B4400221A7022E0FA790C4913465B004E
:1011280013445B000B44013301221A70FA79074912
:1011380013465B0013445B000B4400221A700EE058
:1011480000BF0CE000BF0AE000BF08E0FC0A002076
:10115800000C0240000402400010024000BFFA796F
:10116800114913465B0013445B000B4404331B888E
:10117800002B15D0FA790C4913465B0013445B0029
:101188000B4404331B88013B98B2074913465B00A4
:1011980013445B000B44043302461A8000E000BF8E
:1011A8001037BD4680BD00BFFC0A002080B584B062
:1011B80000AF0346FB71FB79012B00F28E81FA79AF
:1011C800B14913465B0013445B000B441B78092BA1
:1011D80000F2638101A252F823F000BF0D1200084B
:1011E800231200081F130008A3140008C3120008E4
:1011F80067120008A31400087B13000835140008C0
:101208005D140008FA79A04913465B0013445B009B
:101218000B44033300221A703FE1FB79002B05D100
:1012280000220821994806F089FB04E000221021D9
:10123800964806F083FBFA79934913465B001344FA
:101248005B000B44043364221A80FA798E491346F2
:101258005B0013445B000B4405221A701DE1FA7908
:10126800894913465B0013445B000B4404331B8815
:10127800002B40F00381FB79002B05D100222021AF
:10128800824806F05BFB04E0002240217F4806F01C
:1012980055FBFA797C4913465B0013445B000B4409
:1012A800043332221A80FA79774913465B001344D3
:1012B8005B000B4404221A70E0E0FA797249134685
:1012C8005B0013445B000B4404331B88002B40F085
:1012D800D780FB79002B05D1012280216B4806F0CD
:1012E8002DFB04E001220821694806F027FBFA7962
:1012F800654913465B0013445B000B4404336422C6
:101308001A80FA79604913465B0013445B000B446A
:1013180002221A70B4E0FA795B4913465B00134461
:101328005B000B4404331B88002B40F0AB80FB7937
:10133800002B05D101220821544806F0FFFA04E0E9
:1013480001221021514806F0F9FAFA794E4913465C
:101358005B0013445B000B44043364221A80FA795F
:10136800494913465B0013445B000B4407221A707B
:1013780088E0FA79444913465B0013445B000B4448
:1013880004331B88002B40F08780FB79002B07D1A2
:101398004FF480613F4806F0B9FA0346FB7306E054
:1013A8004FF400613B4806F0B1FA0346FB73FB7B40
:1013B800002B09D1FA79344913465B0013445B00CA
:1013C8000B4408221A7067E0FA792F4913465B002C
:1013D80013445B000B4403331B780133D8B22A490A
:1013E80013465B0013445B000B440333014619703A
:1013F800254913465B0013445B000B4403331B78F9
:10140800012B09D8FA79204913465B0013445B0085
:101418000B4401221A703FE0FA791B4913465B001E
:1014280013445B000B4409221A7035E0FA79164917
:1014380013465B0013445B000B44013300221A700F
:10144800FA79114913465B0013445B000B440022F0
:101458001A7022E0FA790C4913465B0013445B00CA
:101468000B44013301221A70FA79074913465B00CD
:1014780013445B000B4400221A700EE000BF0CE01E
:1014880000BF0AE000BF08E0080B0020000C024083
:10149800000402400010024000BFFA7911491346C7
:1014A8005B0013445B000B4404331B88002B15D0EE
:1014B800FA790C4913465B0013445B000B44043370
:1014C8001B88013B98B2074913465B0013445B0035
:1014D8000B44043302461A8000E000BF1037BD46B3
:1014E80080BD00BF080B002080B584B000AF034664
:1014F800FB710023FB6059E0FB79012B29D1002205
:1015080008212E4806F01AFA642004F041FF002250
:1015180080212A4806F012FA322004F039FF01220D
:101528002021264806F00AFA642004F031FF01223F
:101538000821224806F002FA642004F029FF4FF43B
:1015480080611F4806F0E2F90346002B2BD00123E7
:1015580030E000221021194806F0F0F9642004F068
:1015680017FF00220821174806F0E8F9322004F096
:101578000FFF01224021114806F0E0F9642004F031
:1015880007FF012210210D4806F0D8F9642004F065
:10159800FFFE4FF400610A4806F0B8F90346002B35
:1015A80001D0012306E0FB680133FB60FB68012BD7
:1015B800A2DD002318461037BD4680BD000C02404E
:1015C800001002400004024080B584B000AF03461A
:1015D800FB710023FB6059E0FB79012B29D1002224
:1015E80008212E4806F0AAF9642004F0D1FE002252
:1015F80020212A4806F0A2F9322004F0C9FE01226F
:101608008021264806F09AF9642004F0C1FE0122E0
:101618000821224806F092F9642004F0B9FE4FF43C
:1016280080611F4806F072F90346002B2BD1012375
:1016380030E000221021194806F080F9642004F0F7
:10164800A7FE00224021154806F078F9322004F060
:101658009FFE01220821134806F070F9642004F067
:1016680097FE012210210D4806F068F9642004F065
:101678008FFE4FF400610A4806F048F90346002B34
:1016880001D1012306E0FB680133FB60FB68012BF5
:10169800A2DD002318461037BD4680BD000C02406D
:1016A800001002400004024080B500AF544B1B6894
:1016B8000A225449184601F09DFA524B1B68524AB7
:1016C8001360504B5B68504A53604E4B9B684E4AC0
:1016D80093604E4B1B684C4A12881A804B4B1B6810
:1016E8000233494A52881A80484B1B680433464AD9
:1016F80092881A80454B1B680633434AD2881A8061
:10170800424B1B680833404A12891A803F4B1B68BA
:101718000A333D4A52891A803A4BDB683C4A1360C7
:10172800384B1B693A4A5360364B5B69384A9360B9
:10173800364B1B680C33364A12881A80334B1B68A9
:101748000E33334A52881A80304B1B681033304AA4
:1017580092881A802D4B1B6812332D4AD2881A8022
:101768002A4B1B6814332A4A12891A80274B1B6894
:101778001633274A52891A80224B9B69254A1360DF
:10178800204BDB69234A53601E4B1B6A214A936036
:101798001E4B1B6818331F4A12881A801B4B1B6884
:1017A8001A331C4A52881A80184B1B681C33194A72
:1017B80092881A80154B1B681E33164AD2881A80E5
:1017C800124B1B682033134A12891A800F4B1B686F
:1017D8002233104A52891A8014230A220A490E48D1
:1017E80000F020F80423062209490C4800F036F9D5
:1017F8000423062207490A4800F030F900BF80BDDB
:10180800A8A900083C14002018140020740A00201D
:10181800241400203014002008000020140B00209D
:10182800C80B0020B0B58EB000AFF860B9601146A3
:101838001A460B46FB711346BB71FB79012B40F22C
:101848000881BB79012B40F20481BB6808331B88EF
:101858001A46BB681B88D31A1846FEF703FE0446CF
:101868000D46FB79013B1846FEF7FCFD02460B4688
:1018780020462946FEF78AFF02460B46C7E90A2397
:10188800BB6808335B881A46BB685B88D31A18465E
:10189800FEF7E8FD04460D46FB79013B1846FEF7C6
:1018A800E1FD02460B4620462946FEF76FFF024639
:1018B8000B46C7E90823BB6804331B881A46BB6874
:1018C8001B88D31A1846FEF7CDFD04460D46BB7992
:1018D800013B1846FEF7C6FD02460B462046294640
:1018E800FEF754FF02460B46C7E90623BB680433DC
:1018F8005B881A46BB685B88D31A1846FEF7B2FDA8
:1019080004460D46BB79013B1846FEF7ABFD02467F
:101918000B4620462946FEF739FF02460B46C7E923
:1019280004230023FB86002387F835308AE0002350
:1019380087F834307BE0BB685B881846FEF792FD79
:1019480004460D4697F835301846FEF78BFDD7E963
:101958000823FEF7F1FD02460B4620462946FEF70E
:1019680035FC02460B4614461D4697F83430184697
:10197800FEF778FDD7E90423FEF7DEFD02460B46A5
:1019880020462946FEF722FC02460B461046194619
:10199800FA8E13465B0013445B001A46FB689C18DA
:1019A800FEF7DCFF03469BB26380BB681B881846C2
:1019B800FEF758FD04460D4697F835301846FEF7F1
:1019C80051FDD7E90A23FEF7B7FD02460B4620462C
:1019D8002946FEF7FBFB02460B4614461D4697F8C0
:1019E80034301846FEF73EFDD7E90623FEF7A4FD7E
:1019F80002460B4620462946FEF7E8FB02460B4600
:101A080010461946FA8E13465B0013445B001A46CB
:101A1800FB689C18FEF7A2FF03469BB22380FB8E4F
:101A28000133FB8697F83430013387F8343097F860
:101A38003420BB799A42FFF47EAF97F835300133F2
:101A480087F8353097F83520FB799A42FFF46FAF65
:101A580000E000BF3837BD46B0BD0000B0B58EB05D
:101A680000AFF860B96011461A460B46FB71134681
:101A7800BB71FB79012B40F28D81BB79012B40F2C0
:101A88008981BB6808331B881A46BB681B88D31A30
:101A98001846FEF7E7FC04460D46FB79013B18465D
:101AA800FEF7E0FC02460B4620462946FEF76EFE8E
:101AB80002460B46C7E90A23BB6808335B881A4607
:101AC800BB685B88D31A1846FEF7CCFC04460D4663
:101AD800FB79013B1846FEF7C5FC02460B4620463B
:101AE8002946FEF753FE02460B46C7E90823BB68A2
:101AF80004331B881A46BB681B88D31A1846FEF79E
:101B0800B1FC04460D46BB79013B1846FEF7AAFC1A
:101B180002460B4620462946FEF738FE02460B468B
:101B2800C7E90623BB6804335B881A46BB685B8831
:101B3800D31A1846FEF796FC04460D46BB79013BBE
:101B48001846FEF78FFC02460B4620462946FEF74C
:101B58001DFE02460B46C7E904230023FB8600232B
:101B680087F835300FE1002387F8343000E197F823
:101B7800353003F00103DBB2002B74D1BB685B88FE
:101B88001846FEF76FFC04460D4697F835301846A0
:101B9800FEF768FCD7E90823FEF7CEFC02460B46A1
:101BA80020462946FEF712FB02460B4614461D4600
:101BB80097F834301846FEF755FCD7E90423FEF7AA
:101BC800BBFC02460B4620462946FEF7FFFA0246B2
:101BD8000B4610461946FA8E13465B0013445B0009
:101BE8001A46FB689C18FEF7B9FE03469BB2638051
:101BF800BB681B881846FEF735FC04460D4697F867
:101C080035301846FEF72EFCD7E90A23FEF794FC78
:101C180002460B4620462946FEF7D8FA02460B46EE
:101C280014461D4697F834301846FEF71BFCD7E9D2
:101C38000623FEF781FC02460B4620462946FEF79E
:101C4800C5FA02460B4610461946FA8E13465B0043
:101C580013445B001A46FB689C18FEF77FFE034698
:101C68009BB223807CE0BB685B881846FEF7FAFBD2
:101C780004460D4697F835301846FEF7F3FBD7E9CA
:101C88000823FEF759FC02460B4620462946FEF774
:101C98009DFA02460B4614461D4697F834301846FE
:101CA800FEF7E0FBD7E90423FEF746FC02460B46A5
:101CB80020462946FEF78AFA02460B461046194680
:101CC8004FF00002354BFEF77FFA02460B461046EE
:101CD8001946FA8E13465B0013445B001A46FB68EC
:101CE8009C18FEF73BFE03469BB26380BB681B88CB
:101CF8001846FEF7B7FB04460D4697F835301846E8
:101D0800FEF7B0FBD7E90A23FEF716FC02460B469E
:101D180020462946FEF75AFA02460B4614461D4647
:101D280097F834301846FEF79DFBD7E90623FEF7EF
:101D380003FC02460B4620462946FEF747FA0246B0
:101D48000B4610461946FA8E13465B0013445B0097
:101D58001A46FB689C18FEF701FE03469BB22380D7
:101D6800FB8E0133FB8697F83430013387F8343023
:101D780097F83420BB799A42FFF4F9AE97F83530DA
:101D8800013387F8353097F83520FB799A42FFF40C
:101D9800EAAE00E000BF3837BD46B0BD00408F4016
:101DA80080B594B000AFB24B1A6813786FF3410353
:101DB8001370B04B1A68137843F002031370AE4BDC
:101DC8001B781A46AD4BDA80AB4B5B781A46AB4BA7
:101DD8001A81AB4B1B88002B09D118220021A94876
:101DE80000F078FE18220021A74800F073FEA74BE8
:101DF8001B88002B40F04B83C8220021A44800F028
:101E080035FE44E39A4B1A6813786FF34103137055
:101E1800A04B1B780F2B00F22B8301A252F823F062
:101E2800691E0008871E0008C31F0008D71F000886
:101E38006F200008B92000085B210008FD21000878
:101E4800892200086922000877220008F722000882
:101E5800052300081723000871230008D72300086A
:101E6800844B1A68137843F002031370012200218F
:101E7800894800F02FFE874B01221A7007E30122E0
:101E88000121864805F05AFD00224FF4007184486C
:101E980005F054FD774B1A68137843F0020313706A
:101EA800774B1B88172B03D8784B1B88632B03D9D8
:101EB800784B0E221A70EAE2744B1B88794AA2FB0F
:101EC80003231B099BB2FB60704B1A88754BA3FB5D
:101ED800021319090B469B000B449B00D31A9BB2B3
:101EE800BB60FB6803F00103002B03D0BB68C3F1A0
:101EF800130300E0BB687B60FB685B003B6002F09B
:101F080061FF694B19683A6813469B0013449B00AC
:101F18001A467B6813441A4613465B0013445B0059
:101F28000B441888604B19683A6813469B001344A1
:101F38009B001A467B6813441A4613465B001344F9
:101F48005B000B445B8841F28832194602F0D0FAF4
:101F58004FF47A7004F01CFA02F034FF524B1968FF
:101F68003A6813469B0013449B001A467B68134447
:101F78001A4613465B0013445B000B4418884A4B0F
:101F880019683A6813469B0013449B001A467B68FD
:101F980013441A4613465B0013445B000B445B88EA
:101FA80043F2C822194602F049FB4FF47A7004F054
:101FB800EFF9384B02221A7069E20020FEF7D4FECE
:101FC8000120FEF7D1FE334B03221A705FE2374B34
:101FD8005B78002B36D12D4B1B88324AA2FB03239A
:101FE8001B099BB2FB61294B1A882E4BA3FB0213DA
:101FF80019090B469B000B449B00D31A9BB2BB618B
:10200800FB6903F00103002B03D0BB69C3F1130381
:1020180000E0BB697B61FB695B003B613B699BB28C
:102028001A46920013449B009AB27B699BB21344F0
:102038009BB201221946164800F04CFD154B0422AC
:102048001A7017E2194B5B78012B40F013820122BA
:102058000021114800F00AFD0320FEF717FE0D4B82
:1020680006221A7006E20B4B05221A700FE200BF17
:102078007809002080090020840C0020FC09002039
:10208800800C00208C1100208F1100207E0C002075
:10209800731100207C0C00209211002000100240D7
:1020A80000040240CDCCCCCC68090020FC0A0020FA
:1020B8009F4BDB79002B38D19E4B1B889E4AA2FB95
:1020C80003231B099BB2FB629A4B1A889A4BA3FB0A
:1020D800021319090B469B000B449B00D31A9BB2B1
:1020E800BB62FB6A03F00103002B03D0BB6AC3F198
:1020F800130300E0BB6A7B62FB6A5B003B623B6ADE
:102108009BB21A46920013449B009AB27B6A9BB218
:1021180013449BB214339BB201221946874800F03E
:10212800D9FC874B07221A70A6E1814BDB79012B7A
:1021380040F0A2810020FEF759FE012200218148CB
:1021480000F094FC0320FEF7A1FD7D4B06221A70D7
:1021580092E14FF4FA71012004F032F90346002BA2
:102168000ED0794B93F82230002B09D001224FF47E
:102178000071764805F0E2FB0121754805F0F7FB90
:10218800744B1B681B7803F00103DBB2002B13D0E0
:10219800704B1A6813786FF3000313700122002143
:1021A800684800F097FC634B1B8801339AB2614B77
:1021B8001A80634B0E221A70664B1B681B7803F05B
:1021C8000203DBB2002B00F05981624B1A681378C6
:1021D8006FF341031370012200215A4800F07AFC82
:1021E800544B1B8801339AB2524B1A80544B01222C
:1021F8001A7043E1584B1B88584AA2FB0323DB089B
:102208009BB287F83F30544B1A88544BA3FB0213F8
:10221800D9080B465B000B449B00D31A9BB287F886
:102228003E3097F83E3003F00303BB6397F83E3027
:102238009B08DBB25B007B6397F83F30484A52F853
:1022480023303B637B6B9A00BB6B1A4497F83F3093
:102258001946386B00F070F9394B09221A7016E1EB
:102268000020FEF7C3FD364B0A221A700FE13D4BE2
:102278005B78002B40F00481314B08221A70FFE094
:10228800354B1B88354AA2FB0323DB089BB287F832
:102298004F30314B1A88314BA3FB0213D9080B4638
:1022A8005B000B449B00D31A9BB287F84E3097F81B
:1022B8004E3003F00303BB6497F84E309B08DBB243
:1022C8005B007B6497F84F30254A52F823303B6413
:1022D8007B6C01339A00BB6C1A4497F84F3019464F
:1022E800386C00F029F9164B0B221A70CFE0012048
:1022F800FEF77CFD124B0C221A70C8E0194BDB79F3
:10230800002B40F0BF800E4B0D221A70BAE0094B2B
:102318001B8801339AB2074B1A800F4B1B88013375
:102328009AB20D4B1A80064B01221A70AFE000BF1B
:10233800FC0A00207E0C0020CDCCCCCC73110020F0
:102348007C0C002092110020701100200004024033
:10235800001002407C090020800C0020ABAAAAAA29
:102368006C090020080B002002F02CFD002200213F
:10237800002002F0BDF802F025FD654B1A681378BD
:102388006FF3410313704FF4FA71012004F018F849
:102398000346002B09D001224FF400715D4805F077
:1023A800CDFA01215C4805F0E2FA5C4B1B681B780A
:1023B80003F00203DBB2002B66D0584B1A6813787F
:1023C8006FF341031370564B01221A705CE002F060
:1023D800F9FC4F4B1A6813786FF3410313704FF4ED
:1023E800FA71012003F0ECFF0346002B0DD0012207
:1023F8004FF40071474805F0A1FA0121464805F05D
:10240800B6FA0221444805F0B2FA4FF48051424826
:1024180005F07CFA0346002B38D0012202213E4801
:1024280005F08CFA3F4B1B78062B03D13C4B062258
:102438001A702BE0394B1B681B7803F00203DBB2E0
:10244800002B23D000224FF40071324805F076FAB1
:1024580001220121304805F071FA2D4B1A681378D2
:1024680043F0020313702F4B1A782D4B1A700DE0AE
:1024780000BF0CE000BF0AE000BF08E000BF06E0B4
:1024880000BF04E000BF02E000BF00E000BF264B31
:102498001B88172B08D8254B1B88632B04D8244B83
:1024A8001B78002B3FF4AEAC214B00221A7005209C
:1024B800FEF7ECFB00224FF40071164805F03EFAD7
:1024C80002F080FC00220021002002F011F802F046
:1024D80079FC0F4B1A6813786FF341031370134B91
:1024E8001B88632B02D9114B00221A800E4B1B88C4
:1024F800172B08D90C4B00221A800E4B00221A7099
:102508000C4B00225A7000BF5037BD4680BD00BF3B
:1025180080090020000402400010024078090020D1
:102528007C0C00207D0C0020800C00207E0C0020FC
:10253800860C0020840C002080B584B000AFF860C1
:102548000B467A60FB7202F03DFC7A6813465B002A
:1025580013445B001A46FB68134418887A681346CC
:102568005B0013445B001A46FB6813445B8840F623
:10257800AC52194601F0BCFF4FF4FA7003F008FFA3
:1025880002F020FCFB7A214AD25C0132D1B21F4A08
:10259800D154FB7A002B0CD17B689BB201221946DF
:1025A8001B4800F063FA194B1B781A46194BDA805E
:1025B8000BE07B689BB201221946174800F056FAD7
:1025C800124B5B781A46134B1A817A6813465B00E4
:1025D80013445B001A46FB68134418887A6813464C
:1025E8005B0013445B001A46FB6813445B8842F6A1
:1025F800EC42194602F022F802F0E4FB4FF47A703C
:1026080003F0C6FE00BF1037BD4680BD840C002015
:102618008C110020FC0900208F11002080B400AF2D
:10262800BFF34F8F00BF064BDB6803F4E062044939
:10263800044B1343CB60BFF34F8F00BF00BFFDE7D0
:1026480000ED00E00400FA0580B500AF41F27070BB
:1026580003F076FFC8220021234800F007FA4FF460
:1026680080722249224807F004F8224B1A6813782E
:1026780043F001031370FFF717F81F4805F092FEA7
:102688001E4805F08FFE1E4805F08CFE1D4805F01B
:1026980089FE49F64041322001F040FD49F64041AB
:1026A800322001F06DFD41F28831322001F09AFDAF
:1026B800154B1B6800225A620F4B1B6800225A6296
:1026C800124B1B6800225A620D4B1B6800225A628B
:1026D8000F4B1B6800225A62084B1B6800225A6283
:1026E80000F018F800BF80BD73110020700F0020A3
:1026F800C80E002074090020600D0020800E002004
:10270800D00C0020F00D0020380E0020880C00208E
:10271800180D002080B500AF01220221264800F0E4
:10272800A5F9282004F059F801220821234805F0CA
:1027380005F901221021214805F000F9042120485B
:1027480005F0E4F80346012B03D11E4B04229A71CD
:1027580002E01C4B03229A7100BF1A4B9B79042B91
:10276800FBD10121164805F0D1F80346012B03D10E
:10277800154B04229A7102E0134B03229A7102212D
:102788000F4805F0C3F80346012B03D10F4B042271
:102798009A7102E00D4B03229A7102F013FB282074
:1027A80004F00DF80A4805F0FDFD01220221024857
:1027B80000F090F900BF80BD92110020000C02408B
:1027C80000080240AC0A00209C0A0020A40A00204D
:1027D800A80D002080B582B000AF104B1B681B7895
:1027E8001A4692FAA2F3B3FA83F3002A01D14FF002
:1027F800FF330133FB71FB79002B0AD0FB79013BD6
:10280800FB71FB79012B04D8FB79054A52F8233078
:10281800984700BF0837BD4680BD00BF7C0900202F
:102828009009002080B582B000AF104B1B681B7860
:102838001A4692FAA2F3B3FA83F3002A01D14FF0B1
:10284800FF330133FB71FB79002B0AD0FB79013B85
:10285800FB71FB79022B04D8FB79054A52F8233027
:10286800984700BF0837BD4680BD00BF78090020E3
:102878008409002080B582B000AF144B1B681B8808
:102888001A04134B1B681B781B021343114A126866
:102898001278134393FAA3F2B2FA82F2002B01D111
:1028A8004FF0FF32531CFB71FB79002B0AD0FB79E8
:1028B800013BFB71FB79182B04D8FB79064A52F8C7
:1028C8002330984700BF0837BD4680BD680A0020FE
:1028D800640A0020600A00209809002080B400AF34
:1028E800054B1A68137843F00103137000BFBD4607
:1028F8005DF8047B704700BF8009002080B500AFF9
:10290800044B1A68137843F002031370FFF748FA70
:1029180000BF80BD8009002080B400AF054B1A6855
:10292800137843F00403137000BFBD465DF8047BC1
:10293800704700BF8009002080B400AF00BFBD46CB
:102948005DF8047B704780B400AF00BFBD465DF8FA
:10295800047B704780B500AF0C4B1B681B7803F0F5
:102968000103DBB2002B02D0FFF75CFF09E0074B45
:102978001B681B7803F00203DBB2002B01D0FFF7C2
:1029880079FFFFF727FF00BF80BD00BF7409002053
:1029980080B500AF01F09EFF01F0FAFE02F03CF8AE
:1029A800FEF790F90020FEF763FA0120FEF760FABF
:1029B8000020FEF7FBFB0120FEF7F8FB00BF80BDFF
:1029C80080B400AF00BFBD465DF8047B70470000CF
:1029D80080B582B000AF0346FB80FB88B3F5804F1B
:1029E8001CD14FF480411C4804F090FF0346002B93
:1029F8002DD01A4B1A68137843F002031370184B42
:102A08001B681B7803F00203DBB2002B1FD0134BAB
:102A18001A6813786FF34103137018E0FB88082BCA
:102A280008D108210F4804F071FF0346002B0ED08F
:102A3800FFF7F4FDFB88102B09D11021094804F099
:102A480065FF0346002B02D0074B01221A7000BF16
:102A58000837BD4680BD00BF00100240780900203D
:102A68007409002000080240860C002080B487B05A
:102A780000AF78600B467B8013467B707A887B7842
:102A880013443B617B887B6119E07B69DB08FB6051
:102A98007B69DBB203F00703FB727A68FB681344B7
:102AA8001978FB7A012202FA03F3DAB27868FB6834
:102AB80003440A43D2B21A707B6901337B617A6995
:102AC8003B699A42E1D300BF00BF1C37BD465DF8A1
:102AD800047B704780B485B000AF78600B467B807C
:102AE80013467B707B789AB27B881344BB817B88C2
:102AF800FB811BE0FB89DB087B81FB89DBB203F0F0
:102B080007037B727B897A68134419787B7A0122E0
:102B180002FA03F3DBB2DB43DAB27B897868034459
:102B28000A40D2B21A70FB890133FB81FA89BB894A
:102B38009A42DFD300BF00BF1437BD465DF8047B5F
:102B48007047000080B485B000AF78600023FB6058
:102B58007B68204A934202D20023FB6032E07B6804
:102B68001D4A934202D20123FB602BE07B681B4A7B
:102B7800934202D20223FB6024E07B68184A934206
:102B880002D80323FB601DE07B68164A934202D8F3
:102B98000423FB6016E07B68134A934202D805239E
:102BA800FB600FE07B68114A934202D80623FB6062
:102BB80008E07B680E4A934202D80723FB6001E0D5
:102BC8000723FB60FB6818461437BD465DF8047B95
:102BD800704700BF004000080080000800C00008DF
:102BE800FFFF0008FFFF0108FFFF0308FFFF0508BC
:102BF800FFFF070880B485B000AFF860B9601346DE
:102C0800FB80FB681A68BB681A60FB680433FB60CA
:102C1800BB680433BB60FB885A1EFA80002B00D0C7
:102C2800EFE700BF00BF1437BD465DF8047B70476F
:102C3800B0B58EB000AFF860B9601346FB800023D2
:102C48007B61FB687B6372B600BF04F035FAF868F5
:102C5800FFF778FFF8620023BB610223BB62FB6ABF
:102C68003B6201237B6207F1140207F11803114646
:102C7800184604F08FFB0346002B07D004F03EFAF9
:102C880062B600BF04F04AFA03465AE000237B8686
:102C98001EE07B8E9B00BA6813441B6800221C460A
:102CA800154622462B46796B022004F0B3F90346F9
:102CB800002B07D004F022FA62B600BF04F02EFA07
:102CC80003463EE07B6B04337B637B8E01337B865C
:102CD8007A8EFB889A42DCD304F010FA1B4B1B68EF
:102CE8001A4A23F480631360184B1B68174A23F4AD
:102CF80000731360154B1B68144A43F48053136028
:102D0800124B1B68114A23F4805313600F4B1B6846
:102D18000E4A43F4006313600C4B1B680B4A23F400
:102D280000631360094B1B68084A43F4007313607F
:102D3800064B1B68054A43F48063136062B600BF04
:102D4800002318463837BD46B0BD00BF003C0240DE
:102D580080B500AF03F082FB00F01CF800F070FBB8
:102D680000F04EFB00F022FB00F0A6F900F060FA3C
:102D780000F07AF800F0FAF800F046F900F0DAFA14
:102D880000F0EAF900F01EFAFFF75EFCFFF718FE04
:102D9800FCE7000080B594B000AF07F120033022B3
:102DA8000021184607F0C4FD07F10C0300221A6041
:102DB8005A609A60DA601A610023BB60284B1B6C6A
:102DC800274A43F080531364254B1B6C03F0805350
:102DD800BB60BB6800237B60224B1B68214A43F41D
:102DE800804313601F4B1B6803F480437B607B6840
:102DF80002233B620123FB6210233B630223BB6374
:102E08000023FB6308233B64A8237B640223BB6481
:102E18000423FB6407F12003184604F0DBFD034696
:102E2800002B01D000F04CFC0F23FB6002233B6118
:102E380000237B614FF4A053BB614FF48053FB61C7
:102E480007F10C030521184605F03CF80346002B52
:102E580001D000F035FC00BF5037BD4680BD00BF33
:102E6800003802400070004080B592B000AF07F112
:102E7800400300221A605A6007F1240300221A60F6
:102E88005A609A60DA601A615A619A613B1D202281
:102E98000021184607F04CFD324B334A1A60314B7B
:102EA80053225A602F4B00229A602E4B6422DA601C
:102EB8002C4B00221A612B4B00225A61294B00220D
:102EC8009A61284805F0DEFA0346002B01D000F08D
:102ED800F7FB40233B6400237B6407F1400319465A
:102EE800204806F009FA0346002B01D000F0E8FB61
:102EF80060237B623223BB620223FB6200233B63B5
:102F080000237B630023BB630023FB6307F12403D7
:102F180000221946134805F02DFD0346002B01D069
:102F280000F0CEFB00237B600023BB600023FB6026
:102F380000233B6100237B614FF40053BB610023F6
:102F48003B623B1D1946074806F052FA0346002B20
:102F580001D000F0B5FB034802F03CFF00BF483742
:102F6800BD4680BD880C00200000014080B588B0B7
:102F780000AF07F10C0300221A605A609A60DA6009
:102F88001A613B1D00221A605A601E4B4FF08042A6
:102F98001A601C4B00225A601A4B00229A60194B87
:102FA8004FF0FF32DA60174B00221A61154B0022EE
:102FB8009A61144805F0A6F90346002B01D000F0E9
:102FC8007FFB0723FB6000233B6107F10C031946D5
:102FD8000C4805F091FD0346002B01D000F070FB72
:102FE80000237B600023BB603B1D1946054806F0A3
:102FF80083F90346002B01D000F062FB00BF2037A5
:10300800BD4680BDD00C002080B58AB000AF07F166
:10301800200300221A605A603B1D00221A605A6081
:103028009A60DA601A615A619A61214B214A1A60E2
:103038001F4B29225A601E4B00229A601C4B6422A7
:10304800DA601B4B00221A61194B00229A6118485A
:1030580005F018FA0346002B01D000F031FB60237D
:103068003B6200237B6207F120031946104806F0F3
:1030780043F90346002B01D000F022FB60237B605C
:103088003223BB600223FB6000237B613B1D0822C7
:103098001946074805F06EFC0346002B01D000F0E6
:1030A8000FFB034802F096FE00BF2837BD4680BDDF
:1030B800180D00200004004080B588B000AF07F16B
:1030C8000C0300221A605A609A60DA601A613B1D8C
:1030D80000221A605A601E4B1E4A1A601C4B0022BE
:1030E8005A601B4B00229A60194B4FF0FF32DA608E
:1030F800174B00221A61164B00229A61144805F0FA
:1031080001F90346002B01D000F0DAFA0723FB602F
:1031180030233B6107F10C0319460D4805F0ECFC20
:103128000346002B01D000F0CBFA00237B6000237C
:10313800BB603B1D1946064806F0DEF80346002B27
:1031480001D000F0BDFA00BF2037BD4680BD00BFEA
:10315800600D0020000C004080B582B000AF3B46F7
:1031680000221A605A60154B154A1A60134B5322F5
:103178005A60124B00229A60104B42F21072DA60C9
:103188000E4B00229A610D4805F0BCF80346002B4F
:1031980001D000F095FA00233B6000237B603B469A
:1031A8001946064806F0A8F80346002B01D000F09F
:1031B80087FA00BF0837BD4680BD00BFA80D0020B4
:1031C8000010004080B582B000AF3B4600221A6074
:1031D8005A60154B154A1A60134B53225A60124B0A
:1031E80000229A60104B4FF47A72DA600E4B00227C
:1031F8009A610D4805F086F80346002B01D000F0CF
:103208005FFA00233B6000237B603B461946064873
:1032180006F072F80346002B01D000F051FA00BF07
:103228000837BD4680BD00BFF00D002000140040E7
:1032380080B592B000AF07F1400300221A605A60CF
:1032480007F1240300221A605A609A60DA601A6152
:103258005A619A613B1D20220021184607F068FB3D
:10326800324B334A1A60314B53225A602F4B00229B
:103278009A602E4B6422DA602C4B00221A612B4B89
:1032880000225A61294B00229A61284805F0FAF871
:103298000346002B01D000F013FA40233B640023BF
:1032A8007B6407F140031946204806F025F80346D9
:1032B800002B01D000F004FA60237B623223BB624A
:1032C8000223FB6200233B6300237B630023BB6371
:1032D8000023FB6307F1240300221946134805F075
:1032E80049FB0346002B01D000F0EAF900237B607C
:1032F8000023BB600023FB6000233B6100237B614C
:103308004FF40053BB6100233B623B1D194607483D
:1033180006F06EF80346002B01D000F0D1F90348FF
:1033280002F058FD00BF4837BD4680BD380E00206A
:103338000004014080B586B000AF3B1D00221A6032
:103348005A609A60DA601A61164B174A1A60154B70
:1033580000225A60134B00229A60124B4FF6FF72FC
:10336800DA60104B00221A610E4B00229A610D4858
:1033780004F0C8FF0346002B01D000F0A1F9072391
:103388007B601023BB603B1D1946064805F0B4FB63
:103398000346002B01D000F093F900BF1837BD4653
:1033A80080BD00BF800E00200040014080B500AF06
:1033B800114B124A1A60104B4FF4E1325A600E4B0F
:1033C80000229A600C4B0022DA600B4B00221A6133
:1033D800094B0C225A61084B00229A61064B0022C5
:1033E800DA61054806F06AF80346002B01D000F0C0
:1033F80067F900BF80BD00BFC80E00200044004030
:1034080080B582B000AF00237B600C4B1B6B0B4A6E
:1034180043F400131363094B1B6B03F400137B6025
:103428007B6800220021102003F0ADF9102003F082
:10343800C6F900BF0837BD4680BD00BF003802404E
:1034480080B58CB000AF07F11C0300221A605A60E7
:103458009A60DA601A610023BB61934B1B6B924A36
:1034680043F010031363904B1B6B03F01003BB6115
:10347800BB6900237B618C4B1B6B8B4A43F00403B5
:103488001363894B1B6B03F004037B617B69002387
:103498003B61854B1B6B844A43F080031363824B6B
:1034A8001B6B03F080033B613B690023FB607E4B91
:1034B8001B6B7D4A43F0010313637B4B1B6B03F0CB
:1034C8000103FB60FB680023BB60774B1B6B764AEC
:1034D80043F008031363744B1B6B03F00803BB60D2
:1034E800BB6800237B60704B1B6B6F4A43F0020381
:1034F80013636D4B1B6B03F002037B607B68012237
:1035080007216A4804F01AFA00227821674804F073
:1035180015FA00224FF40A51654804F00FFA002208
:103528004FF40071634804F009FA0022F821624858
:1035380004F004FA00224FF49C71604804F0FEF98C
:1035480001224FF400715D4804F0F8F97F23FB6114
:1035580001233B6200237B620023BB6207F11C034B
:103568001946524804F036F84FF40A53FB61012318
:103578003B6200237B620023BB6207F11C031946F0
:103588004B4804F027F83F23FB614FF488133B6254
:1035980000237B6207F11C031946454804F01AF81A
:1035A8004EF68073FB614FF488133B6200237B6205
:1035B80007F11C0319463D4804F00CF84FF48053FA
:1035C800FB614FF444133B6200237B6207F11C0349
:1035D8001946364803F0FEFF4FF40073FB610123E0
:1035E8003B6200237B620023BB6207F11C03194680
:1035F800304803F0EFFFF823FB6101233B6200230F
:103608007B620023BB6207F11C0319462A4803F0BA
:10361800E1FF4FF44E73FB6101233B6200237B62A1
:103628000023BB6207F11C031946244803F0D2FFAC
:1036380000220A21062003F0A6F8062003F0BFF8AE
:1036480000220A21072003F09EF8072003F0B7F8AC
:1036580000220A21082003F096F8082003F0AFF8AA
:1036680000220121092003F08EF8092003F0A7F8B1
:10367800002203210A2003F086F80A2003F09FF8AD
:1036880000220221172003F07EF8172003F097F894
:1036980000220421282003F076F8282003F08FF870
:1036A80000BF3037BD4680BD0038024000100240E0
:1036B8000008024000000240000C024000040240E2
:1036C80080B400AF72B600BF00BFFDE780B485B01C
:1036D80000AF78600B467B804FF6FF73FB810023B9
:1036E800BB8122E0BB897A6813441B781A46FB89A0
:1036F8005340FB810023FB7211E0FB8903F00103B7
:10370800002B06D0FB895B089AB20D4B5340FB8116
:1037180002E0FB895B08FB81FB7A0133FB72FB7AD1
:10372800072BEAD9BB890133BB81BA897B889A42C6
:10373800D8D3FB8918461437BD465DF8047B70471B
:1037480001A0FFFF80B584B000AF786039603B68A6
:103758009BB219467868FFF7B9FF0346FB813B68BF
:103768007A681344FA89D2B21A70FB891B0A99B293
:103778003B6801337A681344CAB21A703B689BB23B
:1037880002339AB24FF47A737968034805F0E6FE7B
:1037980000BF1037BD4680BDC80E002080B582B07E
:1037A80000AF0346FB710B4B1A780B4B1A70094B91
:1037B8005B7863F07F03DAB2074B5A70064AFB79ED
:1037C800937003210448FFF7BDFF00BF0837BD46CB
:1037D80080BD00BF700F00207010002080B584B03D
:1037E80000AF354B9B781B021AB2334BDB781BB208
:1037F80013431BB2FB81304B1B791B021AB22E4BB1
:103808005B791BB213431BB27B807B88002B03D0F0
:103818007B88B3F5967F04D30320FFF7BFFF00230F
:1038280045E0FA897B8813449BB2013B3B803B8887
:10383800B3F5967F04D30220FFF7B0FF002336E0EC
:103848001E4B01221A701C4B5A781C4B5A707B88ED
:10385800DBB25B00DAB2194B9A700323BB6000231A
:103868007B601BE0FB89164A32F813301B0A99B2B9
:10387800BB685A1CBA60C9B2104AD154FB89104AB5
:1038880032F81310BB685A1CBA60C9B20B4AD1543B
:10389800FB890133FB817B6801337B607B887A6815
:1038A8009A42DFDBB9680548FFF74CFF0123184649
:1038B8001037BD4680BD00BF700F0020701000207B
:1038C800C011002080B584B000AF354B9B781B0237
:1038D8001AB2334BDB781BB213431BB2FB81304B5C
:1038E8001B791B021AB22E4B5B791BB213431BB216
:1038F8007B807B88002B03D07B88B3F5967F04D32D
:103908000320FFF74BFF002345E0FA897B88134427
:103918009BB2013B3B803B88B3F5967F04D30220E2
:10392800FFF73CFF002336E01E4B01221A701C4BA8
:103938005A781C4B5A707B88DBB25B00DAB2194BA1
:103948009A700323BB6000237B601BE0FB89164A47
:1039580032F813301B0A99B2BB685A1CBA60C9B254
:10396800104AD154FB89104A32F81310BB685A1C0C
:10397800BA60C9B20B4AD154FB890133FB817B6819
:1039880001337B607B887A689A42DFDBB968054837
:10399800FFF7D8FE012318461037BD4680BD00BF8B
:1039A800700F002070100020FC09002080B588B03E
:1039B80000AF524B9B781B021AB2504BDB781BB2FC
:1039C80013431BB27B814D4B1B791B021AB24B4B25
:1039D8005B791BB213431BB23B813B89002B03D09D
:1039E8003B89B3F5FA6F04D90320FFF7D7FE00230C
:1039F80080E07A893B8913449BB2013BFB80FB88BA
:103A0800C72B04D90220FFF7C9FE002372E04FF448
:103A1800807200213A4806F08BFF394B01221A7058
:103A2800364B5A78364B5A703B89DB089BB2DBB26F
:103A38003A8902F0070292B2002A14BF012200223A
:103A4800D2B21344DAB22E4B9A700323FB617B89FE
:103A5800DB089BB2BB617B8903F00703FB82002371
:103A68003B610023FB6033E0254AFB6913441B7864
:103A78005AB22449BB690B441B781946FB8A41FAA0
:103A880003F303F001013B6901FA03F35BB213434B
:103A98005BB2D9B21A4AFB6913440A461A703B69E9
:103AA80001333B61FB8A0133FB823B69072B04DD51
:103AB80000233B61FB690133FB61FB8A072B04D9B7
:103AC8000023FB82BB690133BB61FB680133FB60E8
:103AD8003B89FA689A42C7DB3B8903F007039BB22C
:103AE800002B02D0FB690133FB61F9690448FFF739
:103AF80029FE012318462037BD4680BD700F0020DF
:103B080070100020A411002080B588B000AF534B7E
:103B18009B781B021AB2514BDB781BB213431BB2C2
:103B28007B814E4B1B791B021AB24C4B5B791BB243
:103B380013431BB23B813B89002B03D03B89B3F570
:103B4800FA6F04D90320FFF729FE002381E07A8960
:103B58003B8913449BB2013BFB80FB88B3F5C87FCC
:103B680004D90220FFF71AFE002372E04FF4807296
:103B780000213B4806F0DCFE394B01221A70374B16
:103B88005A78374B5A703B89DB089BB2DBB23A89CB
:103B980002F0070292B2002A14BF01220022D2B218
:103BA8001344DAB22E4B9A700323FB617B89DB083E
:103BB8009BB2BB617B8903F00703FB8200233B6157
:103BC8000023FB6033E0264AFB6913441B785AB292
:103BD8002449BB690B441B781946FB8A41FA03F355
:103BE80003F001013B6901FA03F35BB213435BB2D3
:103BF800D9B21B4AFB6913440A461A703B69013360
:103C08003B61FB8A0133FB823B69072B04DD002300
:103C18003B61FB690133FB61FB8A072B04D9002355
:103C2800FB82BB690133BB61FB680133FB603B89E5
:103C3800FA689A42C7DB3B8903F007039BB2002B63
:103C480002D0FB690133FB61F9690548FFF77AFD8A
:103C5800012318462037BD4680BD00BF700F0020E5
:103C6800701000207011002080B584B000AF394B6F
:103C78009B781B021AB2374BDB781BB213431BB27B
:103C8800FB81344B1B791B021AB2324B5B791BB296
:103C980013431BB27B807B88002B03D07B88B3F552
:103CA800967F04D30320FFF779FD00234DE0FA89BE
:103CB8007B8813449BB2013B3B803B88B3F5967FDE
:103CC80004D30220FFF76AFD00233EE00723BB6010
:103CD80000237B6019E0BB685A1CBA601D4AD35C9C
:103CE8001B021AB2BB68591CB9601A49CB5C1BB2DB
:103CF800134319B2FB895A1CFA811A4689B2164B2A
:103D080023F812107B6801337B607B887A689A42BB
:103D1800E1DB124B01221A700E4B5A780F4B5A7086
:103D28000C4B9A780D4B9A700A4BDA780B4BDA7079
:103D3800084B1A79094B1A71064B5A79074B5A7175
:103D480006210648FFF7FEFC012318461037BD463A
:103D580080BD00BF700F0020C0110020701000202F
:103D680080B582B000AF204B9B781B021AB21E4B65
:103D7800DB781BB213431BB2FB80FB88B3F5967F3D
:103D880004D30220FFF70AFD002329E0164B1B7914
:103D98001B021AB2144B5B791BB213431AB2FB888D
:103DA80091B2124A22F81310114B01221A700E4BCD
:103DB8005A780F4B5A700C4B9A780D4B9A700A4BE5
:103DC800DA780B4BDA70084B1A79094B1A71064BE3
:103DD8005A79074B5A7106210548FFF7B3FC0123AE
:103DE80018460837BD4680BD700F0020C01100205E
:103DF8007010002080B584B000AF384B9B781B0250
:103E08001AB2364BDB781BB213431BB2FB81FB891A
:103E1800C72B04D90220FFF7C1FC00235AE0FB8915
:103E2800DB089BB2BB60FB8903F00703FB802B4BCD
:103E38001B79FF2B16D1294B5B79002B12D1284A0D
:103E4800BB6813441B785AB2FB88012101FA03F3BB
:103E58005BB213435BB2D9B2214ABB6813440A462A
:103E68001A701BE01D4B1B79002B17D11B4B5B797C
:103E7800002B13D11A4ABB6813441B785AB2FB882B
:103E8800012101FA03F35BB2DB435BB213405BB27F
:103E9800D9B2134ABB6813440A461A70114B01225F
:103EA8001A700E4B5A780F4B5A700C4B9A780D4B70
:103EB8009A700A4BDA780B4BDA70084B1A79094B6F
:103EC8001A71064B5A79074B5A7106210548FFF7B4
:103ED80039FC012318461037BD4680BD700F0020FD
:103EE800A41100207010002080B588B000AF564B98
:103EF8009B781B021AB2544BDB781BB213431BB2DC
:103F08007B81514B1B791B021AB24F4B5B791BB259
:103F180013431BB23B813B89002B03D03B89B3F58C
:103F2800F66F04D90320FFF739FC002388E07A896B
:103F38003B8913449BB2013BFB80FB88C72B04D908
:103F48000220FFF72BFC00237AE07B89DB089BB279
:103F5800FB617B8903F007037B8300237B610723D5
:103F68003B610023FB604BE0374A3B6913441B78F5
:103F78001A467B6942FA03F303F00103002B12D0BF
:103F8800324AFB6913441B785AB27B8B012101FA30
:103F980003F35BB213435BB2D9B22C4AFB691344F7
:103FA8000A461A7013E0294AFB6913441B785AB26F
:103FB8007B8B012101FA03F35BB2DB435BB2134055
:103FC8005BB2D9B2214AFB6913440A461A707B8B4B
:103FD80001337B837B6901337B617B69072B04DDBC
:103FE80000237B613B6901333B617B8B072B04D941
:103FF80000237B83FB690133FB61FB680133FB60B2
:104008003B89FA689A42AFDB114B01221A700E4BBA
:104018005A780F4B5A700C4B9A780D4B9A700A4B82
:10402800DA780B4BDA70084B1A79094B1A71064B80
:104038005A79074B5A7106210548FFF783FB01237C
:1040480018462037BD4680BD700F0020A4110020FF
:104058007010002080B582B000AF78600B467B807E
:104068007B681B682A4A93424ED12A4B1B78012B46
:1040780044D1284B5B78013B0F2B3BD801A252F867
:1040880023F000BFCD400008D3400008D940000805
:10409800DF400008E5400008EB400008FD4000084C
:1040A800FD400008FD400008FD400008FD400008F4
:1040B800FD400008FD400008FD400008F1400008F0
:1040C800F7400008FFF772FC18E0FFF71DFD15E048
:1040D800FFF784FB12E0FFF7F5FB0FE0FFF78AFE1E
:1040E8000CE0FFF73DFE09E0FFF7FEFE06E0FFF7F4
:1040F800BBFD03E00120FFF751FB00BF4FF48072C6
:104108000449054805F0B5FA00BF0837BD4680BD2B
:1041180000440040700F0020C80E002080B483B017
:1041280000AF03460A46FB801346BB80FA88BB886B
:104138009A4201D9BB88FB80FB880F4A92FBF3F2B5
:104148000E4B1B68DA62FB880B4A92FBF3F31A46A4
:104158000A4BDA60FB88084A92FBF3F3DA0F134440
:104168005B101A46054B1B685A6300BF0C37BD46E7
:104178005DF8047B704700BF80841E00380E002065
:1041880080B483B000AF03460A46FB801346BB8069
:10419800FA88BB889A4201D9BB88FB80FB880F4A02
:1041A80092FBF3F20E4B1B68DA62FB880B4A92FB18
:1041B800F3F31A460A4BDA60FB88084A92FBF3F3DA
:1041C800DA0F13445B101A46054B1B685A6300BF8D
:1041D8000C37BD465DF8047B704700BF80841E0025
:1041E800880C002080B483B000AF03460A46FB80E9
:1041F8001346BB80FA88BB889A4201D9BB88FB80EA
:10420800FB880F4A92FBF3F20E4B1B68DA62FB88BD
:104218000B4A92FBF3F31A460A4BDA60FB88084A0A
:1042280092FBF3F3DA0F13445B101A46054B1B6835
:10423800DA6300BF0C37BD465DF8047B704700BFEA
:1042480040420F00180D002080B500AF01228021E8
:10425800044803F073FB0021034804F063F900BF2E
:1042680080BD00BF00080240380E002080B500AFB6
:1042780000228021044803F061FB0021034804F078
:1042880051F900BF80BD00BF00080240380E002071
:1042980080B500AF00224FF40071044803F04EFBD4
:1042A8000021034804F03EF900BF80BD0000024031
:1042B800880C002080B500AF01224FF4007104483B
:1042C80003F03CFB0021034804F02CF900BF80BD3B
:1042D80000000240880C002080B500AF01224FF496
:1042E8000071044803F02AFB0821034804F01AF976
:1042F80000BF80BD00080240180D002080B500AF47
:1043080000224FF40071044803F018FB0821034809
:1043180004F008F900BF80BD00080240180D002015
:1043280080B582B000AF0346FB800B4BFF221A70AA
:104338000A4B1B6800225A62FB885A1E084B1B68EE
:10434800DA62FB88013B1A46054BDA60FFF77CFF0F
:1043580000BF0837BD4680BD9C0A0020380E0020EB
:10436800600D002080B582B000AF0346FB800B4B88
:1043780001221A700A4B1B6800225A62FB885A1ED7
:10438800084B1B68DA62FB88013B1A46054BDA606A
:10439800FFF76CFF00BF0837BD4680BD9C0A0020B0
:1043A800380E0020600D002080B582B000AF0346B3
:1043B800FB800B4B01221A700A4B1B6800225A62C1
:1043C800FB885A1E084B1B68DA62FB88013B1A46B9
:1043D800054BDA60FFF75CFF00BF0837BD4680BDBC
:1043E800A40A0020880C0020D00C002080B582B0E0
:1043F80000AF0346FB800B4BFF221A700A4B1B6869
:1044080000225A62FB885A1E084B1B68DA62FB8836
:10441800013B1A46054BDA60FFF74CFF00BF08372F
:10442800BD4680BDA40A0020880C0020D00C0020C6
:1044380080B582B000AF0346FB800B4BFF221A7099
:104448000A4B1B6800225A62FB885A1E084B1B68DD
:10445800DA62FB88013B1A46054BDA60FFF73CFF3E
:1044680000BF0837BD4680BDAC0A0020180D0020EB
:10447800800E002080B582B000AF0346FB800B4B56
:1044880001221A700A4B1B6800225A62FB885A1EC6
:10449800084B1B68DA62FB88013B1A46054BDA6059
:1044A800FFF72CFF00BF0837BD4680BDAC0A0020CF
:1044B800180D0020800E002080B483B000AF0346A2
:1044C8000A46FB801346BB80FA88BB889A4204D907
:1044D800FA88BB88D31A9BB203E0BA88FB88D31A40
:1044E8009BB218460C37BD465DF8047B7047000048
:1044F80080B584B000AF0346FB800B46BB801346F3
:104508007B80FB884DF2D862934200F28D80BB8895
:1045180048F2DC22934200F287807B8843F2C8226B
:10452800934200F28180424B5B889BB27A881146A5
:104538001846FFF7C1FF0346FB81FB89012B1BD9F6
:104548003B4B9B79002B17D141F2883141F28830DF
:10455800FFF748FE364B01229A71354B5B889BB2B8
:104568007A889A4204D2FB891846FFF761FF03E074
:10457800FB891846FFF77EFF00BF2D4B9B79002B68
:10458800FBD12C4B5B889BB2FA8811461846FFF783
:1045980093FF0346BB81BB89012B1BD9254B9B7914
:1045A800002B17D149F6404147F23050FFF7B6FDCE
:1045B800204B01229A711F4B5B889BB2FA889A4262
:1045C80004D2BB891846FFF7ABFE03E0BB89184647
:1045D800FFF7C8FE184B5B889BB2BA88114618468D
:1045E800FFF76AFF03467B817B89012B1DD9124B9C
:1045F8009B79002B19D149F6404147F23050FFF71B
:10460800BFFD0D4B01229A710B4B5B889BB2BA8898
:104618009A4204D27B891846FFF7E8FE05E07B89B9
:104628001846FFF7C1FE00E000BF1037BD4680BD49
:10463800AC0A00209C0A0020A40A002080B584B09F
:1046480000AF0346FB800B46BB8013467B80FB888C
:104658004DF2D862934200F29180BB8848F2DC2286
:10466800934200F28B807B8843F2C822934200F287
:104678008580444B5B889BB2FA8811461846FFF741
:104688001BFF0346FB81FB89012B1BD93D4B9B7903
:10469800002B17D149F6404147F23050FFF73EFD55
:1046A800384B01229A71374B5B889BB2FA889A4241
:1046B80004D2FB891846FFF733FE03E0FB8918464E
:1046C800FFF750FE304B5B889BB2BA8811461846FC
:1046D800FFF7F2FE0346BB81BB89012B1BD92A4B8E
:1046E8009B79002B17D149F6404147F23050FFF72C
:1046F80047FD254B01229A71234B5B889BB2BA88F0
:104708009A4204D2BB891846FFF770FE03E0BB89C2
:104718001846FFF749FE00BF1A4B9B79002BFBD1C7
:10472800194B9B79002BF7D1184B5B889BB27A8881
:1047380011461846FFF7C0FE03467B817B89012B93
:104748001DD9124B9B79002B19D141F2883141F2C6
:104758008830FFF747FD0D4B01229A710B4B5B88A0
:104768009BB27A889A4204D27B891846FFF760FE8A
:1047780005E07B891846FFF77DFE00E000BF103793
:10478800BD4680BD9C0A0020A40A0020AC0A002077
:1047980080B500AF4B4B9B79052B00F2918001A2AD
:1047A80052F823F0BF480008C5470008F74700083B
:1047B8007348000889480008A9480008414B9B88AD
:1047C8009AB2404B1B785BB299B23F4B1B685B6A4D
:1047D8009BB211FB03F39BB213449AB2394B5A8034
:1047E800384B5B889BB2184600F0FCFA68E0354B02
:1047F8009B889AB2334B1B785BB299B2324B1B68D9
:104808005B6A9BB211FB03F39BB213449AB22D4B24
:104818005A802C4B5B889BB2184600F0E3FA2A4B6F
:104828001B685B6A9BB232339BB249F6404118461B
:10483800FFF774FC254B1B681B7803F00103DBB200
:10484800002B3AD1214B1B681B7803F00203DBB223
:10485800002B32D11E4B1B685A6A1D4B1B685B6BC1
:104868009A422AD800F07AF927E049F640414FF4F5
:104878007A60FFF753FC4DF6C020FFF751FD1FE0AB
:10488800114B1B685B6A002B19D149F6404141F274
:104898008830FFF743FC4FF4FA60FFF763FD0EE042
:1048A80049F640414FF47A70FFF738FC4DF2D86072
:1048B800FFF736FD04E000BF02E000BF00E000BFE4
:1048C80000BF80BD9C0A0020600D0020600A002007
:1048D800380E002080B500AF4B4B9B79052B00F2BA
:1048E800918001A252F823F0034A00080949000800
:1048F8003B490008B7490008CD490008ED490008C0
:10490800414B9B889AB2404B1B785BB299B23F4BA4
:104918001B685B6A9BB211FB03F39BB213449AB208
:10492800394B5A80384B5B889BB2184600F06AFABC
:1049380068E0354B9B889AB2334B1B785BB299B2CF
:10494800324B1B685B6A9BB211FB03F39BB21344A7
:104958009AB22D4B5A802C4B5B889BB2184600F0BC
:1049680051FA2A4B1B685B6A9BB232339BB249F6F9
:1049780040411846FFF704FC254B1B681B7803F0E1
:104988000403DBB2002B3AD1214B1B681B7803F0E0
:104998000803DBB2002B32D11E4B1B685A6A1D4B31
:1049A8001B685B6B9A422AD800F034F927E049F675
:1049B80040414FF4FA60FFF7E3FB48F2D040FFF7BD
:1049C80015FD1FE0114B1B685B6A002B19D149F6D6
:1049D80040414FF47A60FFF7D3FB4FF4FA60FFF7DA
:1049E800E3FC0EE049F640414FF47A70FFF7C8FB4C
:1049F80048F2DC20FFF7FAFC04E000BF02E000BF49
:104A080000E000BF00BF80BDA40A0020D00C002039
:104A1800600A0020880C002080B500AF4B4B9B79C2
:104A2800052B00F2918001A252F823F0474B0008B1
:104A38004D4A00087F4A0008FB4A0008114B00084D
:104A4800314B0008414B9B889AB2404B1B785BB2B4
:104A580099B23F4B1B685B6A9BB211FB03F39BB295
:104A680013449AB2394B5A80384B5B889BB218462C
:104A780000F0D8F968E0354B9B889AB2334B1B7825
:104A88005BB299B2324B1B685B6A9BB211FB03F3B2
:104A98009BB213449AB22D4B5A802C4B5B889BB225
:104AA800184600F0BFF92A4B1B685B6A9BB2323389
:104AB8009BB241F288311846FFF794FB254B1B68DF
:104AC8001B7803F01003DBB2002B3AD1214B1B6893
:104AD8001B7803F02003DBB2002B32D11E4B1B687E
:104AE8005A6A1D4B1B68DB6B9A422AD200F0EEF81B
:104AF80027E041F288314FF47A70FFF773FB43F2F5
:104B0800B060FFF795FC1FE0114B1B685B6A002B38
:104B180019D141F288314FF4FA60FFF763FB40F690
:104B2800C410FFF7A7FC0EE041F288314FF4FA7089
:104B3800FFF758FB43F2C820FFF77AFC04E000BFF8
:104B480002E000BF00E000BF00BF80BDAC0A00204B
:104B5800800E0020600A0020180D002080B500AFEC
:104B68000021294803F0A6FD284B9B79042B3CD053
:104B7800042B3EDC012B1ED0022B3AD1234B9B8801
:104B88009AB2224B1B785BB299B2214B1B685B6AC5
:104B98009BB211FB03F39BB213449AB21B4B5A808E
:104BA8001A4B5B889BB2184600F01CF9184B1B681F
:104BB80000225A621EE0154B9B889AB2134B1B7851
:104BC8005BB299B2124B1B68DB6A01339BB211FBD3
:104BD80003F39BB213449AB20C4B5A800B4B5B887D
:104BE8009BB2184600F0FEF804E0084B05229A71C3
:104BF80008E000BF054B00229A71044B5B889AB20B
:104C0800024B9A8080BD00BF380E00209C0A00200D
:104C1800600D002080B500AF0021294803F04AFD4F
:104C2800284B9B79042B3CD0042B3EDC012B1ED057
:104C3800022B3AD1234B9B889AB2224B1B785BB24A
:104C480099B2214B1B685B6A9BB211FB03F39BB2C1
:104C580013449AB21B4B5A801A4B5B889BB2184676
:104C680000F0D0F8184B1B6800225A621EE0154B62
:104C78009B889AB2134B1B785BB299B2124B1B6894
:104C8800DB6A01339BB211FB03F39BB213449AB264
:104C98000C4B5A800B4B5B889BB2184600F0B2F85D
:104CA80004E0084B05229A7108E000BF054B00227A
:104CB8009A71044B5B889AB2024B9A8080BD00BF00
:104CC800880C0020A40A0020D00C002080B500AF7A
:104CD8000821294803F0EEFC284B9B79042B3CD093
:104CE800042B3EDC012B1ED0022B3AD1234B9B8890
:104CF8009AB2224B1B785BB299B2214B1B685B6A54
:104D08009BB211FB03F39BB213449AB21B4B5A801C
:104D18001A4B5B889BB2184600F084F8184B1B6846
:104D280000225A621EE0154B9B889AB2134B1B78DF
:104D38005BB299B2124B1B68DB6A01339BB211FB61
:104D480003F39BB213449AB20C4B5A800B4B5B880B
:104D58009BB2184600F066F804E0084B05229A71E9
:104D680008E000BF054B00229A71044B5B889AB299
:104D7800024B9A8080BD00BF180D0020AC0A0020AD
:104D8800800E002080B400AF0B4B9B79002B09D11B
:104D98000A4B9B79002B05D1094B9B79002B01D13C
:104DA800012300E0002303F00103DBB21846BD46EF
:104DB8005DF8047B704700BF9C0A0020A40A00200D
:104DC800AC0A002080B500AF00E000BFFFF7DAFFB3
:104DD800034683F00103DBB2002BF6D100BF00BF0E
:104DE80080BD000080B483B000AF0346FB80044A56
:104DF800FB88D38200BF0C37BD465DF8047B704743
:104E0800FC09002080B483B000AF0346FB80044A4D
:104E1800FB88138300BF0C37BD465DF8047B7047E1
:104E2800FC09002080B483B000AF0346FB80044A2D
:104E3800FB88538300BF0C37BD465DF8047B704781
:104E4800FC09002080B400AF034B1B881846BD4600
:104E58005DF8047B704700BFC011002080B400AF2C
:104E6800034B5B881846BD465DF8047B704700BF5E
:104E7800C011002080B400AF034B9B881846BD4684
:104E88005DF8047B704700BFC011002080B500AFFB
:104E98000A4B5B889BB2002B0DD0084B9B79002BEB
:104EA8000AD1064B02229A71044B5B889BB21846C2
:104EB800FFF736FA00E000BF80BD00BF9C0A002063
:104EC80080B500AF0C4B5B889BB24DF2D762934222
:104ED80010D8094B9B79002B0DD1074B02229A71F0
:104EE800054B5B889AB2054B9B1A9BB21846FFF795
:104EF80039FA00E000BF80BD9C0A0020D8D6FFFF29
:104F080080B500AF0C4B5B889BB248F2DB22934222
:104F180010D8094B9B79002B0DD1074B02229A71AF
:104F2800054B5B889AB2054B9B1A9BB21846FFF754
:104F38003BFA00E000BF80BDA40A0020DC82FFFF2E
:104F480080B500AF0A4B5B889BB2002B0DD0084B95
:104F58009B79002B0AD1064B02229A71044B5B887D
:104F68009BB21846FFF742FA00E000BF80BD00BFC1
:104F7800A40A002080B500AF0A4B5B889BB2002BC7
:104F88000DD0084B9B79002B0AD1064B02229A714F
:104F9800044B5B889BB21846FFF74AFA00E000BF53
:104FA80080BD00BFAC0A002080B500AF0D4B5B8808
:104FB8009BB243F2C722934211D80A4B9B79002B2C
:104FC8000ED1084B02229A71064B5B889BB2C3F53F
:104FD8004B5308339BB21846FFF74CFA00E000BF6A
:104FE80080BD00BFAC0A0020B0B500AF0E4B9B7966
:104FF800002B17D10D4B9B79002B13D10C4B9B79B0
:10500800002B0FD1FFF71EFF03461C46FFF726FFB4
:1050180003461D46FFF72EFF03461A46294620463B
:10502800FFF766FA00BFB0BD9C0A0020A40A002062
:10503800AC0A002080B500AF012202212E48FDF7FE
:1050480015FD282001F0C9FB012208212B4802F098
:1050580075FC01221021294802F070FC042128481F
:1050680002F054FC0346012B0BD0264B9B79002BF6
:1050780007D1244B5B889BB2002B02D0214B032223
:105088009A7100BF1F4B5B889BB240F6B8329342BF
:10509800F8D801211A4802F039FC0346012B0BD03D
:1050A800194B9B79002B07D1174B5B889BB2002BC0
:1050B80002D0154B03229A710221114802F026FCF6
:1050C8000346012B0BD0114B9B79002B07D10F4BBB
:1050D8005B889BB2002B02D00C4B03229A71FFF71E
:1050E80071FE282001F06BFB012202210248FDF726
:1050F800F1FC00BF80BD00BF92110020000C0240EF
:1051080000080240AC0A00209C0A0020A40A0020E3
:1051180080B500AF0120FCF7E7F903461946064BB6
:105128001A680B4603F00103D9B2137861F38203BE
:10513800137000BF80BD00BF700A002080B500AFAB
:105148000120FCF741FA03461946064B1A680B463C
:1051580003F00103D9B2137861F3C303137000BFDE
:1051680080BD00BF700A002080B500AF0220FCF7A8
:10517800BBF903461946064B1A680B4603F00103B0
:10518800D9B2137861F38203137000BF80BD00BFEA
:10519800700A002080B500AF0220FCF715FA03461C
:1051A8001946064B1A680B4603F00103D9B2137867
:1051B80061F34513137000BF80BD00BF700A002063
:1051C80080B500AF504B1B681B881A4692FAA2F3B1
:1051D800B3FA83F3002A01D14FF0FF330133032BD5
:1051E8005ED0032B00F38880012B02D0022B2BD03A
:1051F80082E0464B5B889AB2454B1A80454B5B88E8
:105208009AB2434B5A80444B1B68414A12881A8011
:10521800414B1B6802333E4A52881A803C4B1B683C
:105228003E4A13603E4B0A223C491846FDF700FDF2
:105238000146354B1A680B4603F00103D9B21378BF
:1052480061F30003137057E0304B5B889AB2304B20
:105258009A80304B5B889AB22D4BDA802E4B1B68B4
:1052680004332B4A92881A802B4B1B680633284A32
:10527800D2881A80264B5B68284A5360284B0A223A
:1052880026491846FDF7D4FC01461F4B1A680B4601
:1052980003F00103D9B2137861F3410313702BE0D3
:1052A8001A4B5B889AB21A4B1A811A4B5B889AB2CE
:1052B800174B5A81184B1B680833154A12891A80F4
:1052C800154B1B680A33124A52891A80104B9B6887
:1052D800124A9360124B0A2210491846FDF7A8FC9F
:1052E8000146094B1A680B4603F00103D9B213783B
:1052F80061F38203137000BF14230A22044909488A
:10530800FCF790FA00BF80BD6C0A00209C0A0020C0
:1053180018140020A40A0020740A00203C1400205D
:1053280000C000080800002080B500AF514B1B6882
:105338001B881A4692FAA2F3B3FA83F3002A01D122
:105348004FF0FF330133062B5FD0062B00F3898023
:10535800042B02D0052B2CD083E0474B5B889AB2F4
:10536800464B1A80464B5B889AB2444B5A80454B51
:105378001B680C33414A12881A80424B1B680E3353
:105388003E4A52881A803D4B1B683F4AD3603F4BC8
:105398000A223D491846FDF74BFC0146354B1A6871
:1053A8000B4603F00103D9B2137861F3C3031370FA
:1053B80057E0314B5B889AB2304B9A80304B5B8810
:1053C8009AB22E4BDA802F4B1B6810332B4A9288E7
:1053D8001A802C4B1B681233284AD2881A80274B14
:1053E8005B68294A1361294B0A2227491846FDF7A9
:1053F8001FFC01461F4B1A680B4603F00103D9B284
:10540800137861F3041313702BE01B4B5B889AB27B
:105418001A4B1A811A4B5B889AB2184B5A81194B4E
:105428001B681433154A12891A80164B1B681633E9
:10543800124A52891A80114B9B68134A5361134BC5
:105448000A2211491846FDF7F3FB0146094B1A6871
:105458000B4603F00103D9B2137861F345131370B7
:1054680000BF0423062205490948FCF7F7FA00BFE4
:1054780080BD00BF6C0A00209C0A00202414002074
:10548800A40A0020740A00203C14002000C0000870
:10549800140B002080B500AF514B1B681B881A46BF
:1054A80092FAA2F3B3FA83F3002A01D14FF0FF3343
:1054B8000133092B5FD0092B00F38980072B02D019
:1054C800082B2CD083E0474B5B889AB2464B1A8056
:1054D800464B5B889AB2444B5A80454B1B6818333D
:1054E800414A12881A80424B1B681A333E4A528836
:1054F8001A803D4B1B683F4A93613F4B0A223D4946
:105508001846FDF795FB0146354B1A680B4603F024
:105518000103D9B2137861F38613137057E0314B46
:105528005B889AB2304B9A80304B5B889AB22E4B8C
:10553800DA802F4B1B681C332B4A92881A802C4B1D
:105548001B681E33284AD2881A80274B5B68294A71
:10555800D361294B0A2227491846FDF769FB014602
:105568001F4B1A680B4603F00103D9B2137861F395
:10557800C71313702BE01B4B5B889AB21A4B1A8126
:105588001A4B5B889AB2184B5A81194B1B68203307
:10559800154A12891A80164B1B682233124A5289FF
:1055A8001A80114B9B68134A1362134B0A22114944
:1055B8001846FDF73DFB0146094B1A680B4603F0F8
:1055C8000103D9B2537861F30003537000BF042379
:1055D800062205490948FCF741FA00BF80BD00BF13
:1055E8006C0A00209C0A002030140020A40A002025
:1055F800740A00203C14002000C00008C80B0020DA
:1056080080B582B000AF1C4B1B681B881A4692FA03
:10561800A2F3B3FA83F3002A01D14FF0FF33013329
:105628007B607B68002B1CDD7B68013B7B607B68B3
:10563800082B16DC114B9B79002B12D1104B9B7950
:10564800002B0ED10F4B9B79002B0AD10E4A7B6899
:1056580052F8233098470D4B1A6813786FF3C71325
:1056680013700A4B1A6813786FF3C713137000BFCF
:105678000837BD4680BD00BF6C0A00209C0A002088
:10568800A40A0020AC0A0020780A0020640A00203E
:1056980080B400AF0D4B1B681B880C4A126823F4BA
:1056A8007F7323F003039BB21380084B1A681378A7
:1056B80043F001031370064B1A6813786FF3000365
:1056C800137000BFBD465DF8047B70476C0A00206C
:1056D800680A002080B400AF0D4B1B681B880C4A79
:1056E800126823F47F7323F003039BB21380084BE3
:1056F8001A68137843F002031370064B1A6813787C
:105708006FF34103137000BFBD465DF8047B70471B
:105718006C0A0020680A002080B400AF0D4B1B689B
:105728001B880C4A126823F47F7323F003039BB28F
:105738001380084B1A68137843F004031370064B60
:105748001A6813786FF38203137000BFBD465DF8C3
:10575800047B70476C0A0020680A002080B400AF00
:105768000D4B1B681B880C4A126823F47F7323F0C7
:1057780003039BB21380084B1A68137843F008039D
:105788001370064B1A6813786FF3C303137000BFC6
:10579800BD465DF8047B70476C0A0020680A00204B
:1057A80080B400AF0D4B1B681B880C4A126823F4A9
:1057B8007F7323F003039BB21380084B1A68137896
:1057C80043F010031370064B1A6813786FF3041331
:1057D800137000BFBD465DF8047B70476C0A00205B
:1057E800680A002080B400AF0D4B1B681B880C4A68
:1057F800126823F47F7323F003039BB21380084BD2
:105808001A68137843F020031370064B1A6813784C
:105818006FF34513137000BFBD465DF8047B7047F6
:105828006C0A0020680A002080B400AF0D4B1B688A
:105838001B880C4A126823F47F7323F003039BB27E
:105848001380084B1A68137843F040031370064B13
:105858001A6813786FF38613137000BFBD465DF89E
:10586800047B70476C0A0020680A002080B400AFEF
:105878000D4B1B681B880C4A126823F47F7323F0B6
:1058880003039BB21380084B1A68137843F0800314
:105898001370064B1A6813786FF3C713137000BFA1
:1058A800BD465DF8047B70476C0A0020680A00203A
:1058B80080B400AF0D4B1B681B880C4A126823F498
:1058C8007F7323F003039BB21380084B1A68537845
:1058D80043F001035370064B1A6853786FF30003C3
:1058E800537000BFBD465DF8047B70476C0A00200A
:1058F800680A002080B500AF0D4B1A6813786FF363
:10590800000313700B4B1B6818880A4B1B68023383
:105918001B88094A528892B21946FEF7E9FD074BDF
:105928001A6813786FF30003137000BF80BD00BFBF
:10593800680A0020740A0020AC0A00206C0A0020C3
:1059480080B500AF0D4B1A6813786FF341031370DD
:105958000B4B1B6804331888094B1B6806331B88DC
:10596800084A528892B21946FEF7C2FD064B1A68D9
:1059780013786FF34103137000BF80BD680A0020DD
:10598800740A0020AC0A00206C0A002080B500AF21
:105998000D4B1A6813786FF3820313700B4B1B6857
:1059A80008331888094B1B680A331B88084A528831
:1059B80092B21946FEF79CFD064B1A6813786FF3EE
:1059C8008203137000BF80BD680A0020740A00209B
:1059D800AC0A00206C0A002080B500AF0D4B1A6895
:1059E80013786FF3C30313700B4B1B680C331888C1
:1059F800094B1B680E331B88084A528892B2194615
:105A0800FEF776FD064B1A6813786FF3C30313701D
:105A180000BF80BD680A0020740A0020AC0A00207C
:105A28006C0A002080B500AF0D4B1A6813786FF32D
:105A3800041313700B4B1B6810331888094B1B6831
:105A480012331B88084A528892B21946FEF750FD55
:105A5800064B1A6813786FF30413137000BF80BDE8
:105A6800680A0020740A0020AC0A00206C0A002092
:105A780080B500AF0D4B1A6813786FF34513137098
:105A88000B4B1B6814331888094B1B6816331B888B
:105A9800084A528892B21946FEF72AFD064B1A6840
:105AA80013786FF34513137000BF80BD680A002098
:105AB800740A0020AC0A00206C0A002080B500AFF0
:105AC8000D4B1A6813786FF3861313700B4B1B6812
