:020000040800F2
:100000000000022011650008E15F0008E95F0008B8
:10001000F15F0008F95F00080160000800000000BF
:10002000000000000000000000000000096000085F
:100030001760000800000000256000083360000819
:100040006165000861650008616500086165000878
:10005000616500086165000841600008DD60000816
:1000600079610008156200087D620008616500087A
:100070006165000861650008616500086165000848
:10008000E9620008616500086165000861650008B3
:10009000616500086165000861650008FD6200088F
:1000A000216300086165000861650008616500085A
:1000B0005563000861650008616500086165000816
:1000C00061650008616500086165000861650008F8
:1000D00061650008616500087D63000861650008CE
:1000E00091630008616500086165000861650008AA
:1000F00061650008616500086165000861650008C8
:100100006165000861650008C16300086165000859
:100110006165000861650008E96300080164000882
:100120006165000861650008616500086165000897
:100130006165000861650008616500086165000887
:100140006165000861650008616500086165000877
:100150006165000861650008616500086165000867
:100160006165000861650008616500086165000857
:100170006165000861650008616500080000000015
:080180006165000861650008DB
:1001880010B5054C237833B9044B13B10448AFF3C9
:1001980000800123237010BD7C01002000000000B6
:1001A80044AA000808B5034B1BB103490348AFF341
:1001B800008008BD000000008001002044AA00085B
:1001C80081F0004102E000BF83F0004330B54FEA00
:1001D80041044FEA430594EA050F08BF90EA020F6D
:1001E8001FBF54EA000C55EA020C7FEA645C7FEA00
:1001F800655C00F0E2804FEA5454D4EB5555B8BF23
:100208006D420CDD2C4480EA020281EA030382EA93
:10021800000083EA010180EA020281EA0303362D25
:1002280088BF30BD11F0004F4FEA01314FF4801CF8
:100238004CEA113102D0404261EB410113F0004F0A
:100248004FEA03334CEA133302D0524263EB4303C1
:1002580094EA050F00F0A780A4F10104D5F1200E5F
:100268000DDB02FA0EFC22FA05F2801841F10001BA
:1002780003FA0EF2801843FA05F359410EE0A5F18E
:1002880020050EF1200E012A03FA0EFC28BF4CF0BF
:10029800020C43FA05F3C01851EBE37101F0004575
:1002A80007D54FF0000EDCF1000C7EEB00006EEB82
:1002B8000101B1F5801F1BD3B1F5001F0CD349080C
:1002C8005FEA30004FEA3C0C04F101044FEA445263
:1002D80012F5800F80F09A80BCF1004F08BF5FEAEA
:1002E800500C50F1000041EB045141EA050130BDCA
:1002F8005FEA4C0C404141EB0101013C28BFB1F5DC
:10030800801FE9D291F0000F04BF01460020B1FA26
:1003180081F308BF2033A3F10B03B3F120020CDAF9
:100328000C3208DD02F1140CC2F10C0201FA0CF0D7
:1003380021FA02F10CE002F11402D8BFC2F1200C3C
:1003480001FA02F120FA0CFCDCBF41EA0C019040F2
:10035800E41AA2BF01EB0451294330BD6FEA04043B
:100368001F3C1CDA0C340EDC04F11404C4F1200226
:1003780020FA04F001FA02F340EA030021FA04F338
:1003880045EA030130BDC4F10C04C4F1200220FA8F
:1003980002F001FA04F340EA0300294630BD21FACD
:1003A80004F0294630BD94F0000F83F4801306BF93
:1003B80081F480110134013D4EE77FEA645C18BF87
:1003C8007FEA655C29D094EA050F08BF90EA020F1E
:1003D80005D054EA000C04BF1946104630BD91EA16
:1003E800030F1EBF0021002030BD5FEA545C05D119
:1003F8004000494128BF41F0004130BD14F5800458
:100408003CBF01F5801130BD01F0004545F0FE41CB
:1004180041F470014FF0000030BD7FEA645C1ABF00
:10042800194610467FEA655C1CBF0B46024650EA37
:10043800013406BF52EA033591EA030F41F4002163
:1004480030BD00BF90F0000F04BF0021704730B5E9
:100458004FF4806404F132044FF000054FF00001BE
:1004680050E700BF90F0000F04BF0021704730B57F
:100478004FF4806404F1320410F0004548BF404254
:100488004FF000013EE700BF42004FEAE2014FEAA9
:1004980031014FEA02701FBF12F07F4393F07F4F84
:1004A80081F06051704732F07F4208BF704793F087
:1004B8007F4F04BF41F40021704730B54FF460749A
:1004C80001F0004521F000411CE700BF50EA01029D
:1004D80008BF704730B54FF000050AE050EA010246
:1004E80008BF704730B511F0004502D5404261EBB6
:1004F80041014FF4806404F132045FEA915C3FF4F7
:10050800D8AE4FF003025FEADC0C18BF03325FEA93
:10051800DC0C18BF033202EBDC02C2F1200300FA44
:1005280003FC20FA02F001FA03FE40EA0E0021FA69
:1005380002F11444BDE600BF70B54FF0FF0C4CF457
:10054800E06C1CEA11541DBF1CEA135594EA0C0F09
:1005580095EA0C0F00F0DEF82C4481EA030621EA44
:100568004C5123EA4C5350EA013518BF52EA03357F
:1005780041F4801143F4801338D0A0FB02CE4FF031
:100588000005E1FB02E506F00042E0FB03E54FF061
:100598000006E1FB03569CF0000F18BF4EF0010E59
:1005A800A4F1FF04B6F5007F64F5407404D25FEA55
:1005B8004E0E6D4146EB060642EAC62141EA555108
:1005C8004FEAC52040EA5E504FEACE2EB4F1FD0C4A
:1005D80088BFBCF5E06F1ED8BEF1004F08BF5FEAC8
:1005E800500E50F1000041EB045170BD06F000467A
:1005F80046EA010140EA020081EA0301B4EB5C0427
:10060800C2BFD4EB0C0541EA045170BD41F480111E
:100618004FF0000E013C00F3AB8014F1360FDEBF43
:10062800002001F0004170BDC4F10004203C35DA1F
:100638000C341BDC04F11404C4F1200500FA05F3A2
:1006480020FA04F001FA05F240EA020001F0004243
:1006580021F0004110EBD37021FA04F642EB0601B9
:100668005EEA430E08BF20EAD37070BDC4F10C04E3
:10067800C4F1200500FA04F320FA05F001FA04F2A7
:1006880040EA020001F0004110EBD37041F1000193
:100698005EEA430E08BF20EAD37070BDC4F120059E
:1006A80000FA05F24EEA020E20FA04F301FA05F206
:1006B80043EA020321FA04F001F0004121FA04F2AE
:1006C80020EA020000EBD3705EEA430E08BF20EA7E
:1006D800D37070BD94F0000F0FD101F000464000B8
:1006E80041EB010111F4801F08BF013CF7D041EA3A
:1006F800060195F0000F18BF704703F0004652003E
:1007080043EB030313F4801F08BF013DF7D043EA0E
:100718000603704794EA0C0F0CEA135518BF95EAC4
:100728000C0F0CD050EA410618BF52EA4306D1D14B
:1007380081EA030101F000414FF0000070BD50EA6A
:10074800410606BF1046194652EA430619D094EAF4
:100758000C0F02D150EA013613D195EA0C0F05D1DE
:1007680052EA03361CBF104619460AD181EA030132
:1007780001F0004141F0FE4141F470014FF00000EA
:1007880070BD41F0FE4141F4780170BD70B54FF085
:10079800FF0C4CF4E06C1CEA11541DBF1CEA135505
:1007A80094EA0C0F95EA0C0F00F0A7F8A4EB0504E7
:1007B80081EA030E52EA03354FEA013100F08880DE
:1007C8004FEA03334FF0805545EA131343EA1263A7
:1007D8004FEA022245EA111545EA10654FEA00265C
:1007E8000EF000419D4208BF964244F1FD0404F515
:1007F800407402D25B084FEA3202B61A65EB030571
:100808005B084FEA32024FF480104FF4002CB6EB2D
:10081800020E75EB030E22BFB61A754640EA0C00AD
:100828005B084FEA3202B6EB020E75EB030E22BFED
:10083800B61A754640EA5C005B084FEA3202B6EB2E
:10084800020E75EB030E22BFB61A754640EA9C00ED
:100858005B084FEA3202B6EB020E75EB030E22BFBD
:10086800B61A754640EADC0055EA060E18D04FEA7B
:10087800051545EA16754FEA06164FEAC30343EA1B
:1008880052734FEAC2025FEA1C1CC0D111F4801FE8
:100898000BD141EA00014FF000004FF0004CB6E7E1
:1008A80011F4801F04BF01430020B4F1FD0C88BF80
:1008B800BCF5E06F3FF6AFAEB5EB030C04BFB6EB8B
:1008C800020C5FEA500C50F1000041EB045170BD7E
:1008D8000EF0004E4EEA113114EB5C04C2BFD4EBAB
:1008E8000C0541EA045170BD41F480114FF0000E2F
:1008F800013C90E645EA060E8DE60CEA135594EAAB
:100908000C0F08BF95EA0C0F3FF43BAF94EA0C0FAD
:100918000AD150EA01347FF434AF95EA0C0F7FF422
:1009280025AF104619462CE795EA0C0F06D152EA76
:1009380003353FF4FDAE1046194622E750EA41065A
:1009480018BF52EA43067FF4C5AE50EA41047FF46B
:100958000DAF52EA43057FF4EBAE12E74A0011D21D
:1009680012F5001211D20DD56FF47873B3EB625201
:100978000ED44FEAC12343F0004343EA505323FA0D
:1009880002F070474FF00000704750EA013002D182
:100998004FF0FF3070474FF00000704753B94AB925
:1009A800002908BF00281CBF4FF0FF314FF0FF306F
:1009B80000F06AB9ADF1080C6DE904CE00F006F854
:1009C800DDF804E0DDE9022304B070472DE9F047C3
:1009D800089D0C46002B4ED194468C458646B2FAAB
:1009E80082F262D94AB1C2F12003914020FA03F39E
:1009F8000CFA02FC194300FA02FE4FEA1C471FFAE0
:100A08008CF6B1FBF7F44FEA1E4307FB141143EAD7
:100A1800014304FB06F199420AD91CEB030304F1D4
:100A2800FF3080F01281994240F20F81023C63440A
:100A3800591A1FFA8EF3B1FBF7F007FB101143EABE
:100A4800014300FB06F69E420AD91CEB030300F1A2
:100A5800FF3180F0FC809E4240F2F9806344023806
:100A68009B1B40EA044000211DB1D3400022C5E988
:100A78000032BDE8F0878B4205D90DB1C5E9000108
:100A880000210846F5E7B3FA83F1002946D1A342CD
:100A980002D39042C0F0F080861A64EB0303012071
:100AA800002DE6D0C5E90063E3E7002A40F0908016
:100AB800A1EB0C044FEA1C481FFA8CF70121B4FB88
:100AC800F8F64FEA1E4308FB164443EA044307FBC3
:100AD80006F0984208D91CEB030306F1FF3402D252
:100AE800984200F2CD8026461C1A1FFA8EF3B4FBFA
:100AF800F8F008FB104443EA044300FB07F79F4261
:100B080008D91CEB030300F1FF3402D29F4200F224
:100B1800B0802046DB1B40EA0640A5E7C1F120066D
:100B28008B4022FA06F71F4320FA06FC04FA01F369
:100B380043EA0C03F44000FA01F8380C4FEA134971
:100B4800B4FBF0FE1FFA87FC00FB1E4449EA04448C
:100B58000EFB0CF9A14502FA01F20AD93C190EF173
:100B6800FF3A80F08480A14540F28180AEF1020E08
:100B78003C44A4EB09041FFA83F9B4FBF0F300FB2F
:100B8800134449EA044403FB0CFCA44507D93C1967
:100B980003F1FF3067D2A44565D9023B3C4443EAE0
:100BA8000E40A0FB0293A4EB0C049C42CE469C464C
:100BB80051D34ED055B1B8EB0E0364EB0C0404FAD4
:100BC80006F6CB401E43CC40C5E90064002150E73F
:100BD800C2F1200320FA03F10CFA02FC24FA03F311
:100BE80094400C434FEA1C4800FA02FE1FFA8CF7A7
:100BF800B3FBF8F008FB1031230C43EA014300FB78
:100C080007F1994208D91CEB030300F1FF362CD2F7
:100C180099422AD9023863445B1AA4B2B3FBF8F1AB
:100C280008FB113344EA034401FB07F3A34208D944
:100C38001CEB040401F1FF3613D2A34211D9023987
:100C48006444E41A41EA004139E70446F0E60846FC
:100C580006E7C845AED2B9EB020E63EB070C0138C4
:100C6800A8E73146EDE7034699E73046D4E7D6468C
:100C78007FE7634402384DE70646234608460FE7F8
:100C8800023E634430E700BF704700BF80B500AF45
:100C9800544B1B680A225449184601F021FF524B55
:100CA8001B68524A1360504B5B68504A53604E4B66
:100CB8009B684E4A93604E4B1B684C4A12881A80B8
:100CC8004B4B1B680233494A52881A80484B1B68B1
:100CD8000433464A92881A80454B1B680633434AB8
:100CE800D2881A80424B1B680833404A12891A80FE
:100CF8003F4B1B680A333D4A52891A803A4BDB68DE
:100D08003C4A1360384B1B693A4A5360364B5B695F
:100D1800384A9360364B1B680C33364A12881A805F
:100D2800334B1B680E33334A52881A80304B1B688A
:100D38001033304A92881A802D4B1B6812332D4A83
:100D4800D2881A802A4B1B6814332A4A12891A80BF
:100D5800274B1B681633274A52891A80224B9B69F6
:100D6800254A1360204BDB69234A53601E4B1B6ADC
:100D7800214A93601E4B1B6818331F4A12881A8039
:100D88001B4B1B681A331C4A52881A80184B1B6865
:100D98001C33194A92881A80154B1B681E33164A51
:100DA800D2881A80124B1B682033134A12891A8082
:100DB8000F4B1B682233104A52891A8014230A22C7
:100DC8000A490E4800F020F80423062209490C4875
:100DD80000F02EF90423062207490A4800F028F9F2
:100DE80000BF80BD5CAA0008F4050020D0050020E3
:100DF8003C000020DC050020E805002098010020C8
:100E0800B804002030050020B0B58EB000AFF860FF
:100E1800B96011461A460B46FB711346BB71FB7944
:100E2800012B40F2FF80BB79012B40F2FB80BB68AD
:100E380008331B881A46BB681B88D31A1846FFF765
:100E480011FB04460D46FB79013B1846FFF70AFBE8
:100E580002460B4620462946FFF798FC02460B46F9
:100E6800C7E90A23BB6808335B881A46BB685B88F6
:100E7800D31A1846FFF7F6FA04460D46FB79013BEC
:100E88001846FFF7EFFA02460B4620462946FFF7B9
:100E98007DFC02460B46C7E90823BB6804331B8860
:100EA8001A46BB681B88D31A1846FFF7DBFA0446B4
:100EB8000D46BB79013B1846FFF7D4FA02460B46AC
:100EC80020462946FFF762FC02460B46C7E906237F
:100ED800BB6804335B881A46BB685B88D31A18461C
:100EE800FFF7C0FA04460D46BB79013B1846FFF7E9
:100EF800B9FA02460B4620462946FFF747FC024648
:100F08000B46C7E904230023FB86002387F8353006
:100F180081E0002387F8343073E0BB685B881846AB
:100F2800FFF7A0FA04460D4697F835301846FFF744
:100F380099FAD7E90823FFF7FFFA02460B4620463D
:100F48002946FFF743F902460B4614461D4697F813
:100F580034301846FFF786FAD7E90423FFF7ECFA8E
:100F680002460B4620462946FFF730F902460B4653
:100F780010461946FB8E9B00FA68D418FFF7EEFC62
:100F880003469BB26380BB681B881846FFF76AFA62
:100F980004460D4697F835301846FFF763FAD7E947
:100FA8000A23FFF7C9FA02460B4620462946FFF7EF
:100FB8000DF902460B4614461D4697F8343018467C
:100FC800FFF750FAD7E90623FFF7B6FA02460B46B1
:100FD80020462946FFF7FAF802460B4610461946FE
:100FE800FB8E9B00FA68D418FFF7B8FC03469BB247
:100FF8002380FB8E0133FB8697F83430013387F862
:10100800343097F83420BB799A4286D397F8353034
:10101800013387F8353097F83520FB799A42FFF489
:1010280078AF00E000BF3837BD46B0BD0000000013
:10103800B0B58EB000AFF860B96011461A460B46DD
:10104800FB711346BB71FB79012B40F27D81BB79A3
:10105800012B40F27981BB6808331B881A46BB68AC
:101068001B88D31A1846FFF7FDF904460D46FB798D
:10107800013B1846FFF7F6F902460B46204629467B
:10108800FFF784FB02460B46C7E90A23BB6808330F
:101098005B881A46BB685B88D31A1846FFF7E2F9E3
:1010A80004460D46FB79013B1846FFF7DBF902467B
:1010B8000B4620462946FFF769FB02460B46C7E95F
:1010C8000823BB6804331B881A46BB681B88D31ADD
:1010D8001846FFF7C7F904460D46BB79013B184689
:1010E800FFF7C0F902460B4620462946FFF74EFB9C
:1010F80002460B46C7E90623BB6804335B881A46D9
:10110800BB685B88D31A1846FFF7ACF904460D464E
:10111800BB79013B1846FFF7A5F902460B46204666
:101128002946FFF733FB02460B46C7E90423002391
:10113800FB86002387F83530FFE0002387F834303A
:10114800F0E097F8353003F00103DBB2002B6CD1E7
:10115800BB685B881846FFF785F904460D4697F883
:1011680035301846FFF77EF9D7E90823FFF7E4F989
:1011780002460B4620462946FFF728F802460B464A
:1011880014461D4697F834301846FFF76BF9D7E92F
:101198000423FFF7D1F902460B4620462946FFF7FC
:1011A80015F802460B4610461946FB8E9B00FA6856
:1011B800D418FFF7D3FB03469BB26380BB681B8838
:1011C8001846FFF74FF904460D4697F8353018468C
:1011D800FFF748F9D7E90A23FFF7AEF902460B46AD
:1011E80020462946FEF7F2FF02460B4614461D46E6
:1011F80097F834301846FFF735F9D7E90623FFF793
:101208009BF902460B4620462946FEF7DFFF0246B9
:101218000B4610461946FB8E9B00FA68D418FFF758
:101228009DFB03469BB2238074E0BB685B8818462D
:10123800FFF718F904460D4697F835301846FFF7BA
:1012480011F9D7E90823FFF777F902460B4620463C
:101258002946FEF7BBFF02460B4614461D4697F883
:1012680034301846FFF7FEF8D7E90423FFF764F98E
:1012780002460B4620462946FEF7A8FF02460B46C3
:101288001046194632A3D3E90023FEF79DFF024614
:101298000B4610461946FB8E9B00FA68D418FFF7D8
:1012A8005DFB03469BB26380BB681B881846FFF74B
:1012B800D9F804460D4697F835301846FFF7D2F8A6
:1012C800D7E90A23FFF738F902460B462046294694
:1012D800FEF77CFF02460B4614461D4697F834304D
:1012E8001846FFF7BFF8D7E90623FFF725F90246A6
:1012F8000B4620462946FEF769FF02460B46104674
:101308001946FB8E9B00FA68D418FFF727FB0346A3
:101318009BB22380FB8E0133FB8697F83430013370
:1013280087F8343097F83420BB799A42FFF409AF34
:1013380097F83530013387F8353097F83520FB7941
:101348009A42FFF4FAAE00E000BF3837BD46B0BDA0
:10135800000000000050A44080B594B000AFA54B39
:101368001A6813786FF341031370A34B1A68137844
:1013780043F002031370A14B1B781A46A04BDA8086
:101388009E4B5B781A469E4B1A819E4B1B88002BFE
:1013980011D1994B1B681B7803F00403DBB2002BB7
:1013A80009D118220021984800F016FE18220021C1
:1013B800964800F011FE964B1B88002B0CD18E4BE3
:1013C8001B681B7803F00403DBB2002B04D1C8228E
:1013D8000021904800F0CCFD874B1A6813786FF312
:1013E8008203137000F03FBC824B1A6813786FF3C6
:1013F80041031370884B1B78C3F34003DBB2002B07
:101408000AD0864B1B78102B06D0844B1A78844B55
:101418001A70824B10221A70804B1B78112B00F225
:10142800F78301A252F823F07914000897140008F2
:10143800A7150008C1150008AD160008B516000864
:10144800C11700088F170008891800085F190008DD
:10145800F51800084D190008CD190008E71900080B
:10146800F9190008211A0008951A0008771B0008C6
:10147800614B1A68137843F00203137001220021AC
:10148800684800F0A9FD654B01221A70EBE30122C0
:101498000121654806F0A0FA00224FF40071634864
:1014A80006F09AFA544B1A68137843F00203137043
:1014B800544B1B88172B03D8554B1B88632B03D918
:1014C800564B0F221A70CEE3514B1B88584AA2FB89
:1014D80003231B099BB2FB604D4B1A88544BA3FB9B
:1014E800021319090B469B000B449B00D31A9BB2AD
:1014F800BB60FB6803F00103002B03D0BB68C3F19A
:10150800130300E0BB687B60FB685B003B6003F093
:1015180033FE484B19683A6813469B0013449B00F6
:101528001A467B6813449B000B441888414B196882
:101538003A6813469B0013449B001A467B68134481
:101548009B000B445B8842F2AC62194603F0AAF98F
:1015580003F012FE374B19683A6813469B00134490
:101568009B001A467B6813449B000B441888314B38
:1015780019683A6813469B0013449B001A467B6817
:1015880013449B000B445B8842F2AC62194603F09B
:101598002FFA03F0F1FD214B02221A7063E3962023
:1015A80003F0FAFD002000F0CFFD012000F0CCFD93
:1015B8001A4B03221A7056E3154B1B881C4AA2FBD0
:1015C80003231B099BB2FB61114B1A88184BA3FB21
:1015D800021319090B469B000B449B00D31A9BB2BC
:1015E800BB61FB6903F00103002B25D0BB69C3F184
:1015F800130322E01C00002020000020B00500207A
:10160800D4000020AC0500203C0800203F08002042
:10161800AA050020230800201C060020A805002099
:10162800A9050020420800200010024000040240E2
:10163800CDCCCCCC00000020BB697B61FB695B0092
:101648003B61B14B5B78002B13D13B699BB21A46C7
:10165800920013449B009AB27B699BB213449BB2DD
:1016680001221946A94800F0B7FCA94B04221A70B8
:10167800D0E2A54B5B78012B40F0CC823B699BB252
:101688001A46920013449B009AB27B699BB213449A
:101698009BB2012219469D4800F06AFC9C4B072228
:1016A8001A70B7E29A4B05221A70DCE2994B1B8834
:1016B800994AA2FB03231B099BB2FB62954B1A882C
:1016C800954BA3FB021319090B469B000B449B0087
:1016D800D31A9BB2BB62FB6A03F00103002B03D051
:1016E800BB6AC3F1130300E0BB6A7B62FB6A5B0061
:1016F8003B62854BDB79002B15D13B6A9BB21A46BE
:10170800920013449B009AB27B6A9BB213449BB22B
:1017180014339BB2012219467C4800F05DFC7C4BD7
:1017280008221A7078E2784BDB79012B40F074823A
:101738007A4A137843F0080313703B6A9BB21A463F
:10174800920013449B009AB27B6A9BB213449BB2EB
:10175800012219466D4800F00BFC3B6A9BB21A4601
:10176800920013449B009AB27B6A9BB213449BB2CB
:1017780014339BB201221946644800F0F9FB644B0C
:1017880007221A7048E2002000F020FD012000F036
:101798001DFD4FF4FA7003F0FFFC604A13786FF3F5
:1017A800C30313705B4B1B8801339AB2594B1A80E1
:1017B800574B01221A7056E24FF4FA71012003F0D8
:1017C80003FD0346002B11D0554B1B681B7803F013
:1017D8000103DBB2002B09D001224FF400715148FC
:1017E80006F0FAF80121504806F00FF94F4B1B6834
:1017F8001B7803F00103DBB2002B1ED0474A137895
:101808006FF3C3031370494B1A6813786FF300031F
:101818001370474B1A68137843F0040313700122BE
:101828000021444800F0D8FB3A4B1B8801339AB298
:10183800384B1A80364B0F221A703C4B1B681B78AA
:1018480003F00203DBB2002B00F0E881334A13787F
:101858006FF3C3031370354B1A6813786FF34103A2
:10186800137001220021334800F0B6FB294B1B8876
:1018780001339AB2274B1A80254B01221A70CDE109
:101888002D4B1B882D4AA2FB0323DB089BB287F84C
:101898003F30294B1A88294BA3FB0213D9080B4662
:1018A8005B000B449B00D31A9BB287F83E3097F835
:1018B8003E3003F00303BB6397F83E309B08DBB26E
:1018C8005B007B6397F83F301D4A52F823303B6337
:1018D8007B6B9A00BB6B1A4497F83F301946386BFC
:1018E80000F00CFA0A4B0A221A70BCE103F044FC1F
:1018F8004FF4967003F050FC002000F067FC044B96
:101908000B221A70AFE100BFB805002023080020A1
:10191800A8050020AA050020CDCCCCCC1C060020B0
:101928003800002000040240001002401800002087
:101938002000002042080020AC050020ABAAAAAA7B
:1019480004000020B94B5B78002B40F06981B84B4C
:1019580009221A7064E1B74B1B88B74AA2FB03231C
:10196800DB089BB287F84F30B24B1A88B24BA3FB07
:101978000213D9080B465B000B449B00D31A9BB299
:1019880087F84E3097F84E3003F00303BB6497F89E
:101998004E309B08DBB25B007B6497F84F30A74A58
:1019A80052F823303B647B6C01339A00BB6C1A44B9
:1019B80097F84F301946386C00F0A0F99C4B0C2270
:1019C8001A7050E103F0D8FB4FF4967003F0E4FB73
:1019D800012000F0FBFB964B0D221A7043E1934B5C
:1019E800DB79002B40F01E81914B0E221A7019E111
:1019F800934B1B8801339AB2914B1A808D4B1B88ED
:101A080001339AB28B4B1A804FF4967003F0C4FBE3
:101A1800874B01221A7026E103F0AEFB0022002159
:101A2800002002F03FFF03F0A7FB864B1A681378EB
:101A38006FF3410313704FF4FA71012003F0C4FBF4
:101A48000346002B09D001224FF400717E4805F0AF
:101A5800C3FF01217D4805F0D8FF7D4B1B681B782B
:101A680003F00203DBB2002B00F0DE80784B1A682B
:101A780013786FF341031370724B1A6813786FF37E
:101A8800820313706A4B01221A70CDE003F074FBD5
:101A9800012220216F4805F09FFF012280216D4817
:101AA80005F09AFF012240216A4805F095FF0122BE
:101AB8000821654805F090FF624B1A6813786FF3A8
:101AC800410313704FF4FA71012003F07DFB0346C4
:101AD800002B0DD001224FF400715B4805F07CFF0C
:101AE80001215A4805F091FF0221584805F08DFF61
:101AF800594A13786FF341031370574B1B78C3F39C
:101B08004003DBB2002B40F0AB80012202214F489A
:101B180005F062FF514B1B78062B03D1444B06227C
:101B28001A709DE04A4B1B681B7803F00203DBB276
:101B3800002B00F0958000224FF40071424805F018
:101B48004BFF01220121414805F046FF3D4B1A6831
:101B580013786FF3820313703A4B1A68137843F0C3
:101B6800020313703D4B1A78314B1A7078E003F07A
:101B780003FB344B1A6813786FF3410313704FF467
:101B8800FA71012003F020FB0346002B0DD001223F
:101B98004FF400712C4805F01FFF01212B4805F078
:101BA80034FF0221294805F030FF4FF480512748BF
:101BB80005F0FAFE0346002B54D0012202212348E7
:101BC80005F00AFF254B1B78062B03D1184B06227C
:101BD8001A7047E01E4B1B681B7803F00203DBB248
:101BE800002B3FD000224FF40071174805F0F4FE97
:101BF80001220121154805F0EFFE124B1A681378EF
:101C080043F002031370154B1A78094B1A7029E038
:101C180000BF28E000BF26E000BF24E000BF22E0AC
:101C280000BF20E000BF1EE000BF1CE0C40500208C
:101C3800A8050020AC050020ABAAAAAA0400002031
:101C4800AA050020200000200004024000100240E5
:101C58001C000020000C02401C060020A9050020E2
:101C680000BF00E000BF1F4B1B88172B04D81E4B7A
:101C78001B88632B7FF6B8AB1C4A13786FF34103BC
:101C88001370052000F0E0F900224FF400711848A5
:101C980005F0A2FE03F070FA00220021002002F0F5
:101CA80001FE03F069FA134B1A6813786FF34103C6
:101CB80013700D4B1B88632B02D90B4B00221A8023
:101CC800084B1B88172B08D9064B00221A800A4B91
:101CD80000221A70084B00225A7000BF5037BD46C8
:101CE80080BD00BFAC050020AA0500201C0600200E
:101CF8000004024020000020B005002080B584B018
:101D080000AFF8600B467A60FB7203F035FA7B6827
:101D18009B00FA68134418887B689B00FA68134490
:101D28005B8842F21072194602F0BCFD03F024FAF7
:101D3800FB7A1B4AD25C0132D1B2194AD154FB7AE0
:101D4800002B0CD17B689BB201221946154800F084
:101D58000FF9134B1B781A46134BDA800BE07B689C
:101D68009BB201221946114800F002F90C4B5B782E
:101D78001A460D4B1A817B689B00FA681344188831
:101D88007B689B00FA6813445B8842F2107219461C
:101D980002F02EFE03F0F0F900BF1037BD4680BDFB
:101DA800B00500203C080020D40000203F08002097
:101DB80080B500AF41F2707004F042FCC8220021E7
:101DC800244800F0D5F84FF480722349234807F0DF
:101DD800AAFC234B1A68137843F001031370FEF72B
:101DE80055FF204806F038FB1F4806F035FB1F4812
:101DF80006F032FB1E4806F02FFB1E4806F02CFBAF
:101E08004CF25031322002F063FB4CF25031322058
:101E180002F090FB41F28831322002F0BDFB164BF4
:101E28001B6800225A620F4B1B6800225A62134B30
:101E38001B6800225A620D4B1B6800225A62104B25
:101E48001B6800225A62084B1B6800225A6200BFB6
:101E580080BD00BF2308002020070020300D00208F
:101E680014000020C80B0020E80C0020380B0020CC
:101E7800100C0020580C0020A00C0020F00A0020B4
:101E8800800B002080B500AF4FF4FA71002003F0FA
:101E98009BF90346002B0AD001220121114805F0C5
:101EA8009BFD4FF40071104805F0AFFD18E04FF4AA
:101EB800FA71022003F088F90346002B10D00B4B6F
:101EC8001B78C3F3C003DBB2002B09D001224FF407
:101ED8000071054805F080FD0121024805F095FDD7
:101EE80000BF80BD00100240000402401C06002014
:101EF80080B500AF0B4B1B681B7803F00103DBB206
:101F0800002B02D000F0EEFE09E0064B1B681B78A0
:101F180003F00203DBB2002B01D000F00BFF00BF7F
:101F280080BD00BF1400002080B500AF02F0ACFEF9
:101F380002F008FE02F04AFF00F098F8002000F0D6
:101F480087F9012000F084F9002000F081FB0120CE
:101F580000F07EFB054B1B681B7803F00403DBB223
:101F6800002B01D000F056FF00BF80BD1C000020F0
:101F780080B487B000AF78600B467B8013467B70D7
:101F88007A887B7813443B617B887B6119E07B69A5
:101F9800DB08FB607B69DBB203F00703FB727A683E
:101FA800FB6813441978FB7A012202FA03F3DAB2C8
:101FB8007868FB6803440A43D2B21A707B6901331C
:101FC8007B617A693B699A42E1D300BF00BF1C3745
:101FD800BD465DF8047B704780B485B000AF78607B
:101FE8000B467B8013467B707B789AB27B881344C0
:101FF800BB817B88FB811BE0FB89DB087B81FB893C
:10200800DBB203F007037B727B897A681344197883
:102018007B7A012202FA03F3DBB2DB43DAB27B8973
:10202800786803440A40D2B21A70FB890133FB81F5
:10203800FA89BB899A42DFD300BF00BF1437BD4677
:102048005DF8047B7047000080B483B000AF03469E
:10205800FB71FB79013BDAB2034B1A7000BF0C37F6
:10206800BD465DF8047B7047B205002080B500AF1F
:102078002F4B1B78032B47D801A252F823F000BF3F
:1020880099200008B3200008D52000080121000885
:1020980000220221274805F09FFC274B1A88274B6E
:1020A8001A80234B01221A7035E0244B1B88002B21
:1020B8002CD1012202211F4805F08EFC204B1A88E2
:1020C8001E4B1A801A4B02221A701FE01B4B1B88EA
:1020D800002B1DD1164B00221A701A4B1B78002BAF
:1020E80006D0184B1B78013BDAB2164B1A700FE07A
:1020F8000F4B03221A700BE0124B1B78002B09D0F0
:102108000B4B00221A7005E000BF04E000BF02E09C
:1021180000BF00E000BF094B1B88002B05D0074B10
:102128001B88013B9AB2054B1A8000BF80BD00BFD7
:102138000C000020001002400E000020B405002012
:1021480010000020B205002080B483B000AF034621
:10215800FB71FB79012B31D8FA791B4913465B00D7
:1021680013445B000B440233FA791A70FA79164962
:1021780013465B0013445B000B44033300221A70C0
:10218800FA79114913465B0013445B000B4404338E
:1021980000221A80FA790C4913465B0013445B004D
:1021A8000B44013302221A70FA79074913465B007F
:1021B80013445B000B4401221A7000E000BF0C3787
:1021C800BD465DF8047B7047B805002080B483B035
:1021D80000AF0346FB71FB79012B31D8FA791B4913
:1021E80013465B0013445B000B440233FA791A7000
:1021F800FA79164913465B0013445B000B4403331A
:1022080000221A70FA79114913465B0013445B00E7
:102218000B44043300221A80FA790C4913465B00F8
:1022280013445B000B44013302221A70FA79074900
:1022380013465B0013445B000B4401221A7000E054
:1022480000BF0C37BD465DF8047B7047C40500200D
:1022580080B584B000AF0346FB71FB79012B00F217
:10226800F081FA79B14913465B0013445B000B44D3
:102278001B78092B00F2C58101A252F823F000BF98
:10228800B1220008C72200082D2400086123000895
:102298000B2600080B260008D1230008DF240008BD
:1022A800AD250008D5250008FA79A14913465B0039
:1022B80013445B000B44033300221A70A1E1FB793D
:1022C800002B05D1002208219A4805F085FB04E07F
:1022D80000221021974805F07FFBFA7993491346AD
:1022E8005B0013445B000B4403331B78002B0AD1BB
:1022F800FA798E4913465B0013445B000B440433A0
:1023080064221A801EE0FA79884913465B00134458
:102318005B000B4403331B7801339BB2FA791946EF
:1023280089000B4419468800194603460B449B0054
:1023380098B27E4913465B0013445B000B44043398
:1023480002461A80FA79794913465B0013445B0008
:102358000B4403221A7054E1FA79744913465B005E
:1023680013445B000B4404331B88002B40F042816C
:10237800FB79002B0AD1012280216E4805F02CFB45
:10238800012220216B4805F027FB09E001220821E2
:10239800694805F021FB01224021664805F01CFB35
:1023A800FA79624913465B0013445B000B4404331B
:1023B80028221A80FA795D4913465B0013445B00B2
:1023C8000B4406221A7015E1FA79584913465B0046
:1023D80013445B000B4404331B88002B40F00C8132
:1023E800FB79002B05D100222021524805F0F4FA90
:1023F80004E0002240214F4805F0EEFAFA794B49F3
:1024080013465B0013445B000B440433C8221A8054
:10241800FA79464913465B0013445B000B440222D9
:102428001A70E9E0FA79414913465B0013445B00EE
:102438000B4404331B88002B40F0E080FB79002B11
:1024480005D1012208213B4805F0C6FA04E0012223
:102458001021384805F0C0FAFA79344913465B0070
:1024680013445B000B4403331B78002B0AD1FA7921
:102478002E4913465B0013445B000B440433C82207
:102488001A801EE0FA79294913465B0013445B0061
:102498000B4403331B7801339BB2FA791946890040
:1024A8000B4419468800194603460B44DB0098B2D2
:1024B8001E4913465B0013445B000B440433024679
:1024C8001A80FA79194913465B0013445B000B44E0
:1024D80007221A7092E0FA79144913465B001344F4
:1024E8005B000B4404331B88002B40F08980FB7988
:1024F800002B07D14FF48061104805F055FA0346C8
:10250800FB7306E04FF400610C4805F04DFA0346F2
:10251800FB73FB7B002B13D0FA79044913465B004D
:1025280013445B000B4408221A7069E0B8050020C8
:10253800C4050020000C02400004024000100240C4
:10254800FA79424913465B0013445B000B4403339A
:102558001B780133D8B23D4913465B0013445B0036
:102568000B44033301461970384913465B00134482
:102578005B000B4403331B78012B09D8FA793349E4
:1025880013465B0013445B000B4401221A7037E0CA
:10259800FA792E4913465B0013445B000B44092269
:1025A8001A702DE0FA79294913465B0013445B0041
:1025B8000B44013300221A70FA79244913465B0050
:1025C80013445B000B4400221A701AE0FA791F4981
:1025D80013465B0013445B000B44013301221A705D
:1025E800FA791A4913465B0013445B000B44002236
:1025F8001A7006E000BF04E000BF02E000BF00E080
:1026080000BFFA79114913465B0013445B000B4481
:1026180004331B88002B15D0FA790C4913465B004C
:1026280013445B000B4404331B88013B98B20749F1
:1026380013465B0013445B000B44043302461A80C4
:1026480000E000BF1037BD4680BD00BFB8050020C0
:1026580080B584B000AF0346FB71FB79012B00F213
:10266800E081FA79BE4913465B0013445B000B44D2
:102678001B78092B00F2B58101A252F823F000BFA4
:10268800B1260008C726000811280008EB29000811
:10269800D127000861270008EB290008C328000893
:1026A8008D290008B5290008FA79AD4913465B0061
:1026B80013445B000B44033300221A7091E1FB7949
:1026C800002B05D100220821A64805F085F904E071
:1026D80000221021A34805F07FF9FA79A049134692
:1026E8005B0013445B000B4403331B78002B0AD1B7
:1026F800FA799B4913465B0013445B000B4404338F
:1027080064221A801EE0FA79954913465B00134447
:102718005B000B4403331B7801339BB2FA791946EB
:1027280089000B4419468800194603460B449B0050
:1027380098B28B4913465B0013445B000B44043387
:1027480002461A80FA79864913465B0013445B00F7
:102758000B4405221A7044E1FA79814913465B005B
:1027680013445B000B4404331B88002B40F0328178
:10277800FB79002B0AD1012220217A4805F02CF997
:1027880001228021774805F027F909E0012240213C
:10279800744805F021F901220821734805F01CF955
:1027A800FA796F4913465B0013445B000B4404330A
:1027B80028221A80FA796A4913465B0013445B00A1
:1027C8000B4404221A7005E1FA79654913465B0047
:1027D80013445B000B4404331B88002B40F0FC803F
:1027E800FA795F4913465B0013445B000B440433DA
:1027F800C8221A80FA795A4913465B0013445B00D1
:102808000B4402221A70E7E0FA79554913465B0037
:1028180013445B000B4404331B88002B40F0DE801C
:10282800FB79002B05D1012208214E4805F0D4F888
:1028380004E0012210214B4805F0CEF8FA79484906
:1028480013465B0013445B000B4403331B78002BD7
:102858000AD1FA79424913465B0013445B000B44E2
:102868000433C8221A801EE0FA793D4913465B00FA
:1028780013445B000B4403331B7801339BB2FA7992
:10288800194689000B4419468800194603460B442B
:10289800DB0098B2324913465B0013445B000B44DB
:1028A800043302461A80FA792D4913465B00134413
:1028B8005B000B4407221A7090E0FA792849134606
:1028C8005B0013445B000B4404331B88002B40F06F
:1028D8008780FB79002B07D14FF48061234805F0EE
:1028E80063F80346FB7306E04FF400611F4805F0E8
:1028F8005BF80346FB73FB7B002B09D1FA79184977
:1029080013465B0013445B000B4408221A7067E00F
:10291800FA79134913465B0013445B000B440333F5
:102928001B780133D8B20E4913465B0013445B0091
:102938000B44033301461970094913465B001344DD
:102948005B000B4403331B78012B11D8FA79044937
:1029580013465B0013445B000B4401221A703FE0EE
:10296800C4050020000C0240000402400010024090
:10297800FA792E4913465B0013445B000B44092285
:102988001A702DE0FA79294913465B0013445B005D
:102998000B44013300221A70FA79244913465B006C
:1029A80013445B000B4400221A701AE0FA791F499D
:1029B80013465B0013445B000B44013301221A7079
:1029C800FA791A4913465B0013445B000B44002252
:1029D8001A7006E000BF04E000BF02E000BF00E09C
:1029E80000BFFA79114913465B0013445B000B449E
:1029F80004331B88002B15D0FA790C4913465B0069
:102A080013445B000B4404331B88013B98B207490D
:102A180013465B0013445B000B44043302461A80E0
:102A280000E000BF1037BD4680BD00BFC4050020D0
:102A380080B485B000AF78600023FB607B68204AD3
:102A4800934202D20023FB6032E07B681D4A934226
:102A580002D20123FB602BE07B681B4A934202D21F
:102A68000223FB6024E07B68184A934202D80323C0
:102A7800FB601DE07B68164A934202D80423FB6082
:102A880016E07B68134A934202D80523FB600FE0E7
:102A98007B68114A934202D80623FB6008E07B68F2
:102AA8000E4A934202D80723FB6001E00723FB602C
:102AB800FB6818461437BD465DF8047B704700BFB5
:102AC800004000080080000800C00008FFFF000860
:102AD800FFFF0108FFFF0308FFFF0508FFFF0708C6
:102AE80080B485B000AFF860B9601346FB80FB681E
:102AF8001A68BB681A60FB680433FB60BB68043360
:102B0800BB60FB885A1EFA80002B00D0EFE700BF9D
:102B180000BF1437BD465DF8047B7047B0B58EB072
:102B280000AFF860B9601346FB8000237B61FB6847
:102B38007B6372B600BF04F00DFBF868FFF778FFFF
:102B4800F8620023BB610223BB62FB6A3B6201237C
:102B58007B6207F1140207F118031146184604F0C6
:102B680067FC0346002B07D004F016FB62B600BFD3
:102B780004F022FB03465AE000237B861EE07B8E8E
:102B88009B00BA6813441B6800221C46154622465F
:102B98002B46796B022004F08BFA0346002B07D0F2
:102BA80004F0FAFA62B600BF04F006FB03463EE002
:102BB8007B6B04337B637B8E01337B867A8EFB8849
:102BC8009A42DCD304F0E8FA1B4B1B681A4A23F438
:102BD80080631360184B1B68174A23F40073136053
:102BE800154B1B68144A43F480531360124B1B683F
:102BF800114A23F4805313600F4B1B680E4A43F4A9
:102C0800006313600C4B1B680B4A23F400631360CA
:102C1800094B1B68084A43F400731360064B1B6892
:102C2800054A43F48063136062B600BF0023184668
:102C38003837BD46B0BD00BF003C024080B483B009
:102C480000AF0346FB80044AFB88138000BF0C37A3
:102C5800BD465DF8047B70477008002080B483B0DF
:102C680000AF0346FB80044AFB88538000BF0C3743
:102C7800BD465DF8047B70477008002080B483B0BF
:102C880000AF0346FB80044AFB88938000BF0C37E3
:102C9800BD465DF8047B70477008002080B400AF23
:102CA800034B1B881846BD465DF8047B704700BF80
:102CB8007008002080B400AF034B5B881846BD46FF
:102CC8005DF8047B704700BF7008002080B400AF37
:102CD800034B9B881846BD465DF8047B704700BFD0
:102CE8007008002080B582B000AF104B1B681B78BD
:102CF8001A4692FAA2F3B3FA83F3002A01D14FF0ED
:102D0800FF330133FB71FB79002B0AD0FB79013BC0
:102D1800FB71FB79022B04D8FB79054A52F8233062
:102D2800984700BF0837BD4680BD00BF1C00002083
:102D38004000002080B582B000AF144B1B681B8890
:102D48001A04134B1B681B781B021343114A1268A1
:102D58001278134393FAA3F2B2FA82F2002B01D14C
:102D68004FF0FF32531CFB71FB79002B0AD0FB7923
:102D7800013BFB71FB79182B04D8FB79064A52F802
:102D88002330984700BF0837BD4680BD2C0000207F
:102D980028000020240000204C00002080B400AF50
:102DA800054B1A68137843F00103137000BFBD4642
:102DB8005DF8047B704700BF2000002080B500AF9D
:102DC800114B1B78C3F30003DBB2002B07D10F4B69
:102DD8001B681B7803F00203DBB2002B06D00C4BF8
:102DE8001A6813786FF3410313700CE0064A1378DE
:102DF8006FF3C3031370054B1A68137843F002038B
:102E08001370FEF7A9FA80BD1C06002020000020E0
:102E18001C00002080B400AF134B1B78C3F3C00321
:102E2800DBB2002B1AD1114B1B681B7803F004038B
:102E3800DBB2002B12D10D4B1B681B7803F0020389
:102E4800DBB2002B0AD0094B1A68137843F004034D
:102E58001370054A137843F00203137000BFBD4690
:102E68005DF8047B704700BF1C060020200000208E
:102E780080B500AF0A4B5B889BB2002B0DD0084B86
:102E88009B79002B0AD1064B02229A71044B5B886E
:102E98009BB2184601F01EFC00E000BF80BD00BFD9
:102EA8003801002080B500AF0C4B5B889BB24DF217
:102EB800D762934210D8094B9B79002B0DD1074B51
:102EC80002229A71054B5B889AB2054B9B1A9BB2FA
:102ED800184601F021FC00E000BF80BD3801002049
:102EE800D8D6FFFF80B500AF0C4B5B889BB248F289
:102EF800DB22934210D8094B9B79002B0DD1074B4D
:102F080002229A71054B5B889AB2054B9B1A9BB2B9
:102F1800184601F023FC00E000BF80BD40010020FE
:102F2800DC82FFFF80B500AF0A4B5B889BB2002BA9
:102F38000DD0084B9B79002B0AD1064B02229A71BF
:102F4800044B5B889BB2184601F02AFC00E000BFE6
:102F580080BD00BF4001002080B500AF0A4B5B88F0
:102F68009BB2002B0DD0084B9B79002B0AD1064B46
:102F780002229A71044B5B889BB2184601F032FC1E
:102F880000E000BF80BD00BF4801002080B500AF51
:102F98000D4B5B889BB242F20F72934211D80A4BD9
:102FA8009B79002B0ED1084B02229A71064B5B8845
:102FB8009BB2C3F51C5310339BB2184601F034FC86
:102FC80000E000BF80BD00BF48010020B0B500AFE1
:102FD8000E4B9B79002B17D10D4B9B79002B13D1EE
:102FE8000C4B9B79002B0FD1FFF758FE03461C466C
:102FF800FFF760FE03461D46FFF768FE03461A46C4
:103008002946204601F04EFC00BFB0BD3801002023
:10301800400100204801002080B500AF314A1378F4
:1030280043F001031370012202212F48FEF7A0FF8D
:10303800012208212D4804F0CFFC012210212B4841
:1030480004F0CAFC04212A4804F0AEFC0346012B14
:103058000BD0284B9B79002B07D1264B5B889BB262
:10306800002B02D0234B03229A7100BF214B5B88AF
:103078009BB240F6B8329342F8D801211C4804F0BC
:1030880093FC0346012B0BD01B4B9B79002B07D1DC
:10309800194B5B889BB2002B02D0174B03229A7105
:1030A8000221134804F080FC0346012B0BD0134B7C
:1030B8009B79002B07D1114B5B889BB2002B02D068
:1030C8000E4B03229A7102F057F8064A13786FF3F1
:1030D80000031370012202210348FEF77DFF00BFA1
:1030E80080BD00BF1C06002042080020000C0240E2
:1030F800000802404801002038010020400100205B
:1031080080B500AF0020FFF71FF800BF094B1B7800
:10311800002BFBD1074B5B78074A1268002B0CBFCA
:1031280001230023D9B2137861F38203137000BF1F
:1031380080BD00BFB80500203400002080B500AF76
:103148000020FFF743F8074B5978074B1A680B46DE
:1031580003F00103D9B2137861F3C303137000BFFE
:1031680080BD00BFC40500203400002080B500AF3A
:103178000120FEF7E9FF00BF094B9B79002BFBD12B
:10318800074BDB79074A1268002B0CBF0123002389
:10319800D9B2137861F30413137000BF80BD00BF68
:1031A800B80500203400002080B500AF0120FFF7EB
:1031B8000DF800BF084B9B79002BFBD1064BD97942
:1031C800064B1A680B4603F00103D9B2137861F372
:1031D8004513137000BF80BDC405002034000020D3
:1031E80080B500AF504B1B681B881A4692FAA2F3B1
:1031F800B3FA83F3002A01D14FF0FF330133032BD5
:103208005ED0032B00F38880012B02D0022B2BD039
:1032180082E0464B5B889AB2454B1A80454B5B88E7
:103228009AB2434B5A80444B1B68414A12881A8011
:10323800414B1B6802333E4A52881A803C4B1B683C
:103248003E4A13603E4B0A223C491846FFF766FC8B
:103258000146354B1A680B4603F00103D9B21378BF
:1032680061F30003137057E0304B5B889AB2304B20
:103278009A80304B5B889AB22D4BDA802E4B1B68B4
:1032880004332B4A92881A802B4B1B680633284A32
:10329800D2881A80264B5B68284A5360284B0A223A
:1032A80026491846FFF73AFC01461F4B1A680B4699
:1032B80003F00103D9B2137861F3410313702BE0D3
:1032C8001A4B5B889AB21A4B1A811A4B5B889AB2CE
:1032D800174B5A81184B1B680833154A12891A80F4
:1032E800154B1B680A33124A52891A80104B9B6887
:1032F800124A9360124B0A2210491846FFF70EFC37
:103308000146094B1A680B4603F00103D9B213783A
:1033180061F38203137000BF14230A220449094889
:10332800FDF772FD00BF80BD30000020380100208D
:10333800D0050020400100203C000020F4050020BA
:1033480000C000089801002080B500AF514B1B68F1
:103358001B881A4692FAA2F3B3FA83F3002A01D122
:103368004FF0FF330133062B5FD0062B00F3898023
:10337800042B02D0052B2CD083E0474B5B889AB2F4
:10338800464B1A80464B5B889AB2444B5A80454B51
:103398001B680C33414A12881A80424B1B680E3353
:1033A8003E4A52881A803D4B1B683F4AD3603F4BC8
:1033B8000A223D491846FFF7B1FB0146354B1A680A
:1033C8000B4603F00103D9B2137861F3C3031370FA
:1033D80057E0314B5B889AB2304B9A80304B5B8810
:1033E8009AB22E4BDA802F4B1B6810332B4A9288E7
:1033F8001A802C4B1B681233284AD2881A80274B14
:103408005B68294A1361294B0A2227491846FFF7A6
:1034180085FB01461F4B1A680B4603F00103D9B21E
:10342800137861F3041313702BE01B4B5B889AB27B
:103438001A4B1A811A4B5B889AB2184B5A81194B4E
:103448001B681433154A12891A80164B1B681633E9
:10345800124A52891A80114B9B68134A5361134BC5
:103468000A2211491846FFF759FB0146094B1A6809
:103478000B4603F00103D9B2137861F345131370B7
:1034880000BF0423062205490948FDF7D1FD00BF06
:1034980080BD00BF3000002038010020DC0500207E
:1034A800400100203C000020F405002000C0000876
:1034B800B804002080B500AF514B1B681B881A4622
:1034C80092FAA2F3B3FA83F3002A01D14FF0FF3343
:1034D8000133092B5FD0092B00F38980072B02D019
:1034E800082B2CD083E0474B5B889AB2464B1A8056
:1034F800464B5B889AB2444B5A80454B1B6818333D
:10350800414A12881A80424B1B681A333E4A528835
:103518001A803D4B1B683F4A93613F4B0A223D4945
:103528001846FFF7FBFA0146354B1A680B4603F0BD
:103538000103D9B2137861F38613137057E0314B46
:103548005B889AB2304B9A80304B5B889AB22E4B8C
:10355800DA802F4B1B681C332B4A92881A802C4B1D
:103568001B681E33284AD2881A80274B5B68294A71
:10357800D361294B0A2227491846FFF7CFFA01469B
:103588001F4B1A680B4603F00103D9B2137861F395
:10359800C71313702BE01B4B5B889AB21A4B1A8126
:1035A8001A4B5B889AB2184B5A81194B1B68203307
:1035B800154A12891A80164B1B682233124A5289FF
:1035C8001A80114B9B68134A1362134B0A22114944
:1035D8001846FFF7A3FA0146094B1A680B4603F091
:1035E8000103D9B2537861F30003537000BF042379
:1035F800062205490948FDF71BFD00BF80BD00BF35
:103608003000002038010020E8050020400100209B
:103618003C000020F405002000C000083005002010
:1036280080B400AF0D4B1B681B880C4A126823F44A
:10363800FF7323F001039BB21380084B1A681378B9
:1036480043F001031370064B1A6813786FF30003F5
:10365800137000BFBD465DF8047B70473000002042
:103668002C00002080B400AF0D4B1B681B880C4A4F
:10367800126823F4FF7323F001039BB21380084BF5
:103688001A68137843F002031370064B1A6813780C
:103698006FF34103137000BFBD465DF8047B7047AC
:1036A800300000202C00002080B400AF0D4B1B68B8
:1036B8001B880C4A126823F4FF7323F001039BB2A2
:1036C8001380084B1A68137843F004031370064BF1
:1036D8001A6813786FF38203137000BFBD465DF854
:1036E800047B7047300000202C00002080B400AF1D
:1036F8000D4B1B681B880C4A126823F4FF7323F0D8
:1037080001039BB21380084B1A68137843F008032F
:103718001370064B1A6813786FF3C303137000BF56
:10372800BD465DF8047B7047300000202C00002067
:1037380080B400AF0D4B1B681B880C4A126823F439
:10374800FF7323F001039BB21380084B1A681378A8
:1037580043F010031370064B1A6813786FF30413C1
:10376800137000BFBD465DF8047B70473000002031
:103778002C00002080B400AF0D4B1B681B880C4A3E
:10378800126823F4FF7323F001039BB21380084BE4
:103798001A68137843F020031370064B1A681378DD
:1037A8006FF34513137000BFBD465DF8047B704787
:1037B800300000202C00002080B400AF0D4B1B68A7
:1037C8001B880C4A126823F4FF7323F001039BB291
:1037D8001380084B1A68137843F040031370064BA4
:1037E8001A6813786FF38613137000BFBD465DF82F
:1037F800047B7047300000202C00002080B400AF0C
:103808000D4B1B681B880C4A126823F4FF7323F0C6
:1038180001039BB21380084B1A68137843F08003A6
:103828001370064B1A6813786FF3C713137000BF31
:10383800BD465DF8047B7047300000202C00002056
:1038480080B400AF0D4B1B681B880C4A126823F428
:10385800FF7323F001039BB21380084B1A68537857
:1038680043F001035370064B1A6853786FF3000353
:10387800537000BFBD465DF8047B704730000020E0
:103888002C00002080B500AF0A4B1A6813786FF33C
:1038980000031370084B1B681888074B1B6802331A
:1038A8001B88064A528892B2194600F0FBFF00BFF7
:1038B80080BD00BF2C0000203C00002048010020F3
:1038C80080B500AF0A4B1A6813786FF34103137081
:1038D800084B1B6804331888064B1B6806331B8883
:1038E800054A528892B2194600F0DCFF00BF80BD3D
:1038F8002C0000203C0000204801002080B500AFCB
:103908000A4B1A6813786FF382031370084B1B680D
:1039180008331888064B1B680A331B88054A5288E7
:1039280092B2194600F0BEFF00BF80BD2C000020F7
:103938003C0000204801002080B500AF0A4B1A68FF
:1039480013786FF3C3031370084B1B680C33188884
:10395800064B1B680E331B88054A528892B21946DB
:1039680000F0A0FF00BF80BD2C0000203C0000201C
:103978004801002080B500AF0A4B1A6813786FF32E
:1039880004131370084B1B6810331888064B1B6808
:1039980012331B88054A528892B2194600F082FFFA
:1039A80000BF80BD2C0000203C0000204801002002
:1039B80080B500AF0A4B1A6813786FF3451313707C
:1039C800084B1B6814331888064B1B6816331B8872
:1039D800054A528892B2194600F064FF00BF80BDC4
:1039E8002C0000203C0000204801002080B500AFDA
:1039F8000A4B1A6813786FF386131370084B1B6809
:103A080018331888064B1B681A331B88054A5288D6
:103A180092B2194600F046FF00BF80BD2C0000207E
:103A28003C0000204801002080B500AF0A4B1A680E
:103A380013786FF3C7131370084B1B681C3318886F
:103A4800064B1B681E331B88054A528892B21946DA
:103A580000F028FF00BF80BD2C0000203C000020A3
:103A68004801002080B500AF0A4B1A6853786FF3FD
:103A780000035370084B1B6820331888064B1B68DB
:103A880022331B88054A528892B2194600F00AFF71
:103A980000BF80BD2C0000203C0000204801002011
:103AA80080B582B000AF224B1B681B881A4692FA79
:103AB800A2F3B3FA83F3002A01D14FF0FF330133A5
:103AC8007B607B68002B29DD7B68013B7B607B6822
:103AD800082B23DC174B9B79002B1FD1164B9B79A6
:103AE800002B1BD1154B9B79002B17D1144A7B68EF
:103AF80052F82330984701F03FFB0D4B1B681B8899
:103B08000B4A126823F4FF7323F001039BB213805E
:103B18000C4B1A6813786FF3C7131370094B1A68A4
:103B280013786FF3C713137000BF0837BD4680BD05
:103B3800300000203801002040010020480100200A
:103B4800B00000202800002080B485B000AF786065
:103B58000B467B804FF6FF73FB810023BB8122E07D
:103B6800BB897A6813441B781A46FB895340FB814A
:103B78000023FB7211E0FB8903F00103002B06D040
:103B8800FB895B089AB20D4B5340FB8102E0FB892D
:103B98005B08FB81FB7A0133FB72FB7A072BEAD9BE
:103BA800BB890133BB81BA897B889A42D8D3FB8908
:103BB80018461437BD465DF8047B704701A0FFFF27
:103BC80080B584B000AF786039603B689BB2194615
:103BD8007868FFF7B9FF0346FB813B687A681344AE
:103BE800FA89D2B21A70FB891B0A99B23B68013371
:103BF8007A681344CAB21A703B689BB202339AB20D
:103C08004FF47A737968034805F002FD00BF103756
:103C1800BD4680BD300D002080B582B000AF0346A0
:103C2800FB710B4B1A780B4B1A70094B5B7863F0DE
:103C38007F03DAB2074B5A70064AFB799370032167
:103C48000448FFF7BDFF00BF0837BD4680BD00BF71
:103C5800200700202006002080B584B000AF354B37
:103C68009B781B021AB2334BDB781BB213431BB28F
:103C7800FB81304B1B791B021AB22E4B5B791BB2AE
:103C880013431BB27B807B88002B03D07B88B3F562
:103C9800967F04D30320FFF7BFFF002345E0FA898E
:103CA8007B8813449BB2013B3B803B88B3F5967FEE
:103CB80004D30220FFF7B0FF002336E01E4B012299
:103CC8001A701C4B5A781C4B5A707B88DBB25B000D
:103CD800DAB2194B9A700323BB6000237B601BE0A8
:103CE800FB89164A32F813301B0A99B2BB685A1C72
:103CF800BA60C9B2104AD154FB89104A32F813107D
:103D0800BB685A1CBA60C9B20B4AD154FB8901334B
:103D1800FB817B6801337B607B887A689A42DFDBB2
:103D2800B9680548FFF74CFF012318461037BD4610
:103D380080BD00BF2007002020060020700800205A
:103D480080B584B000AF354B9B781B021AB2334B59
:103D5800DB781BB213431BB2FB81304B1B791B0270
:103D68001AB22E4B5B791BB213431BB27B807B8844
:103D7800002B03D07B88B3F5967F04D30320FFF78D
:103D88004BFF002345E0FA897B8813449BB2013B33
:103D98003B803B88B3F5967F04D30220FFF73CFFB6
:103DA800002336E01E4B01221A701C4B5A781C4B1C
:103DB8005A707B88DBB25B00DAB2194B9A70032326
:103DC800BB6000237B601BE0FB89164A32F8133086
:103DD8001B0A99B2BB685A1CBA60C9B2104AD154BE
:103DE800FB89104A32F81310BB685A1CBA60C9B272
:103DF8000B4AD154FB890133FB817B6801337B601B
:103E08007B887A689A42DFDBB9680548FFF7D8FEF5
:103E1800012318461037BD4680BD00BF200700208B
:103E280020060020D400002080B588B000AF524B97
:103E38009B781B021AB2504BDB781BB213431BB2A0
:103E48007B814D4B1B791B021AB24B4B5B791BB222
:103E580013431BB23B813B89002B03D03B89B3F54D
:103E6800FA6F04D90320FFF7D7FE002380E07A8990
:103E78003B8913449BB2013BFB80FB88C72B04D9C9
:103E88000220FFF7C9FE002372E04FF48072002180
:103E98003A4806F0A7FD394B01221A70364B5A787A
:103EA800364B5A703B89DB089BB2DBB23A8902F089
:103EB800070292B2002A14BF01220022D2B2134490
:103EC800DAB22E4B9A700323FB617B89DB089BB225
:103ED800BB617B8903F00703FB8200233B6100235E
:103EE800FB6033E0254AFB6913441B785AB2244926
:103EF800BB690B441B781946FB8A41FA03F303F0AC
:103F080001013B6901FA03F35BB213435BB2D9B217
:103F18001A4AFB6913440A461A703B6901333B612C
:103F2800FB8A0133FB823B69072B04DD00233B61DD
:103F3800FB690133FB61FB8A072B04D90023FB8251
:103F4800BB690133BB61FB680133FB603B89FA68DD
:103F58009A42C7DB3B8903F007039BB2002B02D0D0
:103F6800FB690133FB61F9690448FFF729FE012366
:103F780018462037BD4680BD2007002020060020B7
:103F88005408002080B588B000AF534B9B781B02C3
:103F98001AB2514BDB781BB213431BB27B814E4BD9
:103FA8001B791B021AB24C4B5B791BB213431BB231
:103FB8003B813B89002B03D03B89B3F5FA6F04D9C9
:103FC8000320FFF729FE002381E07A893B89134407
:103FD8009BB2013BFB80FB88B3F5C87F04D9022064
:103FE800FFF71AFE002372E04FF4807200213B486D
:103FF80006F0F8FC394B01221A70374B5A78374BC8
:104008005A703B89DB089BB2DBB23A8902F007029F
:1040180092B2002A14BF01220022D2B21344DAB2AB
:104028002E4B9A700323FB617B89DB089BB2BB6133
:104038007B8903F00703FB8200233B610023FB60BD
:1040480033E0264AFB6913441B785AB22449BB69FA
:104058000B441B781946FB8A41FA03F303F001016C
:104068003B6901FA03F35BB213435BB2D9B21B4A53
:10407800FB6913440A461A703B6901333B61FB8AAA
:104088000133FB823B69072B04DD00233B61FB699D
:104098000133FB61FB8A072B04D90023FB82BB6930
:1040A8000133BB61FB680133FB603B89FA689A42C4
:1040B800C7DB3B8903F007039BB2002B02D0FB69E7
:1040C8000133FB61F9690548FFF77AFD01231846BA
:1040D8002037BD4680BD00BF2007002020060020F5
:1040E8002008002080B584B000AF394B9B781B02B4
:1040F8001AB2374BDB781BB213431BB2FB81344B2C
:104108001B791B021AB2324B5B791BB213431BB2E9
:104118007B807B88002B03D07B88B3F5967F04D304
:104128000320FFF779FD00234DE0FA897B881344CB
:104138009BB2013B3B803B88B3F5967F04D30220BA
:10414800FFF76AFD00233EE00723BB6000237B6086
:1041580019E0BB685A1CBA601D4AD35C1B021AB22C
:10416800BB68591CB9601A49CB5C1BB2134319B21E
:10417800FB895A1CFA811A4689B2164B23F8121089
:104188007B6801337B607B887A689A42E1DB124B5B
:1041980001221A700E4B5A780F4B5A700C4B9A78B2
:1041A8000D4B9A700A4BDA780B4BDA70084B1A7978
:1041B800094B1A71064B5A79074B5A710621064862
:1041C800FFF7FEFC012318461037BD4680BD00BF2F
:1041D80020070020700800202006002080B582B04B
:1041E80000AF204B9B781B021AB21E4BDB781BB228
:1041F80013431BB2FB80FB88B3F5967F04D30220E0
:10420800FFF70AFD002329E0164B1B791B021AB29F
:10421800144B5B791BB213431AB2FB8891B2124A52
:1042280022F81310114B01221A700E4B5A780F4BBB
:104238005A700C4B9A780D4B9A700A4BDA780B4BE4
:10424800DA70084B1A79094B1A71064B5A79074BE1
:104258005A7106210548FFF7B3FC012318460837B1
:10426800BD4680BD200700207008002020060020E1
:1042780080B584B000AF384B9B781B021AB2364B1E
:10428800DB781BB213431BB2FB81FB89C72B04D914
:104298000220FFF7C1FC00235AE0FB89DB089BB230
:1042A800BB60FB8903F00703FB802B4B1B79FF2BBB
:1042B80016D1294B5B79002B12D1284ABB681344CD
:1042C8001B785AB2FB88012101FA03F35BB213434E
:1042D8005BB2D9B2214ABB6813440A461A701BE084
:1042E8001D4B1B79002B17D11B4B5B79002B13D16E
:1042F8001A4ABB6813441B785AB2FB88012101FA99
:1043080003F35BB2DB435BB213405BB2D9B2134A2F
:10431800BB6813440A461A70114B01221A700E4BDF
:104328005A780F4B5A700C4B9A780D4B9A700A4B6F
:10433800DA780B4BDA70084B1A79094B1A71064B6D
:104348005A79074B5A7106210548FFF739FC0123B2
:1043580018461037BD4680BD2007002054080020AD
:104368002006002080B588B000AF564B9B781B0212
:104378001AB2544BDB781BB213431BB27B81514BEF
:104388001B791B021AB24F4B5B791BB213431BB24A
:104398003B813B89002B03D03B89B3F5F66F04D9E9
:1043A8000320FFF739FC002388E07A893B8913440E
:1043B8009BB2013BFB80FB88C72B04D90220FFF787
:1043C8002BFC00237AE07B89DB089BB2FB617B89AD
:1043D80003F007037B8300237B6107233B610023F2
:1043E800FB604BE0374A3B6913441B781A467B69EC
:1043F80042FA03F303F00103002B12D0324AFB699F
:1044080013441B785AB27B8B012101FA03F35BB288
:1044180013435BB2D9B22C4AFB6913440A461A709B
:1044280013E0294AFB6913441B785AB27B8B01219C
:1044380001FA03F35BB2DB435BB213405BB2D9B260
:10444800214AFB6913440A461A707B8B01337B832C
:104458007B6901337B617B69072B04DD00237B616A
:104468003B6901333B617B8B072B04D900237B839A
:10447800FB690133FB61FB680133FB603B89FA6828
:104488009A42AFDB114B01221A700E4B5A780F4B30
:104498005A700C4B9A780D4B9A700A4BDA780B4B82
:1044A800DA70084B1A79094B1A71064B5A79074B7F
:1044B8005A7106210548FFF783FB01231846203768
:1044C800BD4680BD2007002054080020200600209B
:1044D80080B483B000AF03460A46FB801346BB8016
:1044E800FA88BB889A4201D9BB88FB80FB880F4AAF
:1044F80092FBF3F20E4B1B68DA62FB880B4A92FBC5
:10450800F3F31A460A4BDA60FB88084A92FBF3F386
:10451800DA0F13445B101A46054B1B685A6300BF39
:104528000C37BD465DF8047B704700BF80841E00D1
:10453800A00C002080B483B000AF03460A46FB807D
:104548001346BB80FA88BB889A4201D9BB88FB8096
:10455800FB880F4A92FBF3F20E4B1B68DA62FB886A
:104568000B4A92FBF3F31A460A4BDA60FB88084AB7
:1045780092FBF3F3DA0F13445B101A46054B1B68E2
:104588005A6300BF0C37BD465DF8047B704700BF17
:1045980080841E00F00A002080B483B000AF034678
:1045A8000A46FB801346BB80FA88BB889A4201D929
:1045B800BB88FB80FB880F4A92FBF3F20E4B1B680B
:1045C800DA62FB880B4A92FBF3F31A460A4BDA606D
:1045D800FB88084A92FBF3F3DA0F13445B101A4680
:1045E800054B1B68DA6300BF0C37BD465DF8047BDA
:1045F800704700BF40420F00800B002080B500AF1D
:1046080001228021044803F0E7F90021034803F060
:10461800E3FF00BF80BD00BF00080240A00C0020DF
:1046280080B500AF00228021044803F0D5F90021AD
:10463800034803F0D1FF00BF80BD00BF000802405F
:10464800A00C002080B500AF00224FF40071044890
:1046580003F0C2F90021034803F0BEFF00BF80BD8C
:1046680000000240F00A002080B500AF01224FF49C
:104678000071044803F0B0F90021034803F0ACFFCF
:1046880000BF80BD00000240F00A002080B500AFE6
:1046980001224FF40071044803F09EF908210348F1
:1046A80003F09AFF00BF80BD00080240800B002085
:1046B80080B500AF00224FF40071044803F08CF974
:1046C8000821034803F088FF00BF80BD00080240AE
:1046D800800B002080B582B000AF0346FB800B4BF7
:1046E800FF221A700A4B1B6800225A62FB885A1E66
:1046F800084B1B68DA62FB88013B1A46054BDA60F7
:10470800FFF77CFF00BF0837BD4680BD3801002099
:10471800A00C0020C80B002080B582B000AF034673
:10472800FB800B4B01221A700A4B1B6800225A624D
:10473800FB885A1E084B1B68DA62FB88013B1A4645
:10474800054BDA60FFF76CFF00BF0837BD4680BD38
:1047580038010020A00C0020C80B002080B582B0D2
:1047680000AF0346FB800B4B01221A700A4B1B68F3
:1047780000225A62FB885A1E084B1B68DA62FB88C3
:10478800013B1A46054BDA60FFF75CFF00BF0837AC
:10479800BD4680BD40010020F00A0020380B0020F3
:1047A80080B582B000AF0346FB800B4BFF221A7026
:1047B8000A4B1B6800225A62FB885A1E084B1B686A
:1047C800DA62FB88013B1A46054BDA60FFF74CFFBB
:1047D80000BF0837BD4680BD40010020F00A002018
:1047E800380B002080B582B000AF0346FB800B4B2E
:1047F800FF221A700A4B1B6800225A62FB885A1E55
:10480800084B1B68DA62FB88013B1A46054BDA60E5
:10481800FFF73CFF00BF0837BD4680BD48010020B8
:10482800800B0020E80C002080B582B000AF034662
:10483800FB800B4B01221A700A4B1B6800225A623C
:10484800FB885A1E084B1B68DA62FB88013B1A4634
:10485800054BDA60FFF72CFF00BF0837BD4680BD67
:1048680048010020800B0020E80C002080B483B0B1
:1048780000AF03460A46FB801346BB80FA88BB8814
:104888009A4204D9FA88BB88D31A9BB203E0BA8843
:10489800FB88D31A9BB218460C37BD465DF8047BDB
:1048A8007047000080B584B000AF0346FB800B461C
:1048B800BB8013467B80FB884DF2D862934200F29E
:1048C8008D80BB8848F2DC22934200F287807B8887
:1048D80042F21072934200F28180424B5B889BB295
:1048E8007A8811461846FFF7C1FF0346FB81FB890A
:1048F800012B1BD93B4B9B79002B17D141F28831F7
:1049080041F28830FFF748FE364B01229A71354B49
:104918005B889BB27A889A4204D2FB891846FFF7D3
:1049280061FF03E0FB891846FFF77EFF00BF2D4BB0
:104938009B79002BFBD12C4B5B889BB2FA881146E4
:104948001846FFF793FF0346BB81BB89012B1BD990
:10495800254B9B79002B17D14CF2503149F640403A
:10496800FFF7B6FD204B01229A711F4B5B889BB263
:10497800FA889A4204D2BB891846FFF7ABFE03E0D7
:10498800BB891846FFF7C8FE184B5B889BB2BA88EC
:1049980011461846FFF76AFF03467B817B89012B86
:1049A8001DD9124B9B79002B19D14CF2503149F685
:1049B8004040FFF7BFFD0D4B01229A710B4B5B88FE
:1049C8009BB2BA889A4204D27B891846FFF7E8FE60
:1049D80005E07B891846FFF7C1FE00E000BF1037ED
:1049E800BD4680BD4801002038010020400100205C
:1049F80080B584B000AF0346FB800B46BB801346EE
:104A08007B80FB884DF2D862934200F29180BB888C
:104A180048F2DC22934200F28B807B8842F21072CB
:104A2800934200F28580444B5B889BB2FA8811461A
:104A38001846FFF71BFF0346FB81FB89012B1BD997
:104A48003D4B9B79002B17D14CF2503149F6404031
:104A5800FFF73EFD384B01229A71374B5B889BB2BA
:104A6800FA889A4204D2FB891846FFF733FE03E01E
:104A7800FB891846FFF750FE304B5B889BB2BA881B
:104A880011461846FFF7F2FE0346BB81BB89012B8E
:104A98001BD92A4B9B79002B17D14CF2503149F680
:104AA8004040FFF747FD254B01229A71234B5B8855
:104AB8009BB2BA889A4204D2BB891846FFF770FEA7
:104AC80003E0BB891846FFF749FE00BF1A4B9B79E4
:104AD800002BFBD1194B9B79002BF7D1184B5B8826
:104AE8009BB27A8811461846FFF7C0FE03467B81C1
:104AF8007B89012B1DD9124B9B79002B19D141F2CF
:104B0800883141F28830FFF747FD0D4B01229A7139
:104B18000B4B5B889BB27A889A4204D27B891846F1
:104B2800FFF760FE05E07B891846FFF77DFE00E091
:104B380000BF1037BD4680BD38010020400100206D
:104B48004801002080B500AF4B4B9B79052B00F244
:104B5800918001A252F823F0734C0008794B0008A9
:104B6800AB4B0008274C00083D4C00085D4C000882
:104B7800414B9B889AB2404B1B785BB299B23F4B32
:104B88001B685B6A9BB211FB03F39BB213449AB296
:104B9800394B5A80384B5B889BB21846FEF74EF863
:104BA80068E0354B9B889AB2334B1B785BB299B25D
:104BB800324B1B685B6A9BB211FB03F39BB2134435
:104BC8009AB22D4B5A802C4B5B889BB21846FEF745
:104BD80035F82A4B1B685B6A9BB232339BB24CF2A6
:104BE80050311846FFF774FC254B1B681B7803F0FF
:104BF8000103DBB2002B3AD1214B1B681B7803F071
:104C08000203DBB2002B32D11E4B1B685A6A1D4BC4
:104C18001B685B6B9A422AD800F07AF927E04CF2BD
:104C280050314FF47A60FFF753FC4DF6C020FFF780
:104C380051FD1FE0114B1B685B6A002B19D14CF228
:104C4800503141F28830FFF743FC4FF4FA60FFF728
:104C580063FD0EE04CF250314FF47A70FFF738FCE8
:104C68004DF2D860FFF736FD04E000BF02E000BF58
:104C780000E000BF00BF80BD38010020C80B002045
:104C880024000020A00C002080B500AF4B4B9B797E
:104C9800052B00F2918001A252F823F0B74D0008CD
:104CA800BD4C0008EF4C00086B4D0008814D000812
:104CB800A14D0008414B9B889AB2404B1B785BB2D0
:104CC80099B23F4B1B685B6A9BB211FB03F39BB223
:104CD80013449AB2394B5A80384B5B889BB21846BA
:104CE800FDF7BCFF68E0354B9B889AB2334B1B78C5
:104CF8005BB299B2324B1B685B6A9BB211FB03F340
:104D08009BB213449AB22D4B5A802C4B5B889BB2B2
:104D18001846FDF7A3FF2A4B1B685B6A9BB2323328
:104D28009BB24CF250311846FFF704FC254B1B6828
:104D38001B7803F00403DBB2002B3AD1214B1B682C
:104D48001B7803F00803DBB2002B32D11E4B1B6823
:104D58005A6A1D4B1B685B6B9A422AD800F034F9DB
:104D680027E04CF250314FF4FA60FFF7E3FB48F2CA
:104D7800D040FFF715FD1FE0114B1B685B6A002B45
:104D880019D14CF250314FF47A60FFF7D3FB4FF44E
:104D9800FA60FFF7E3FC0EE04CF250314FF47A7002
:104DA800FFF7C8FB48F2DC20FFF7FAFC04E000BF7D
:104DB80002E000BF00E000BF00BF80BD400100204E
:104DC800380B002024000020F00A002080B500AF36
:104DD8004B4B9B79052B00F2918001A252F823F0EE
:104DE800FB4E0008014E0008334E0008AF4E000885
:104DF800C54E0008E54E0008414B9B889AB2404BCF
:104E08001B785BB299B23F4B1B685B6A9BB211FB84
:104E180003F39BB213449AB2394B5A80384B5B88E0
:104E28009BB21846FDF72AFF68E0354B9B889AB27B
:104E3800334B1B785BB299B2324B1B685B6A9BB2EF
:104E480011FB03F39BB213449AB22D4B5A802C4B9F
:104E58005B889BB21846FDF711FF2A4B1B685B6AFB
:104E68009BB232339BB241F288311846FFF794FB6C
:104E7800254B1B681B7803F01003DBB2002B3AD1DB
:104E8800214B1B681B7803F02003DBB2002B32D1C7
:104E98001E4B1B685A6A1D4B1B68DB6B9A422AD251
:104EA80000F0EEF827E041F288314FF47A70FFF70E
:104EB80073FB42F6F820FFF795FC1FE0114B1B68C7
:104EC8005B6A002B19D141F288314FF4FA60FFF781
:104ED80063FB40F6C410FFF7A7FC0EE041F28831EF
:104EE8004FF4FA70FFF758FB42F21070FFF77AFCA4
:104EF80004E000BF02E000BF00E000BF00BF80BDCB
:104F080048010020E80C002024000020800B00202D
:104F180080B500AF0021294803F026FC284B9B7977
:104F2800042B3CD0042B3EDC012B1ED0022B3AD1A3
:104F3800234B9B889AB2224B1B785BB299B2214BC8
:104F48001B685B6A9BB211FB03F39BB213449AB2D2
:104F58001B4B5A801A4B5B889BB21846FDF76EFEB6
:104F6800184B1B6800225A621EE0154B9B889AB2A8
:104F7800134B1B785BB299B2124B1B68DB6A013387
:104F88009BB211FB03F39BB213449AB20C4B5A80A9
:104F98000B4B5B889BB21846FDF750FE04E0084BAC
:104FA80005229A7108E000BF054B00229A71044B54
:104FB8005B889AB2024B9A8080BD00BFA00C00208B
:104FC80038010020C80B002080B500AF0021294817
:104FD80003F0CAFB284B9B79042B3CD0042B3EDC06
:104FE800012B1ED0022B3AD1234B9B889AB2224B1D
:104FF8001B785BB299B2214B1B685B6A9BB211FBB1
:1050080003F39BB213449AB21B4B5A801A4B5B882A
:105018009BB21846FDF722FE184B1B6800225A6205
:105028001EE0154B9B889AB2134B1B785BB299B262
:10503800124B1B68DB6A01339BB211FB03F39BB273
:1050480013449AB20C4B5A800B4B5B889BB21846A0
:10505800FDF704FE04E0084B05229A7108E000BF42
:10506800054B00229A71044B5B889AB2024B9A80D6
:1050780080BD00BFF00A002040010020380B00204E
:1050880080B500AF0821294803F06EFB284B9B79B7
:10509800042B3CD0042B3EDC012B1ED0022B3AD132
:1050A800234B9B889AB2224B1B785BB299B2214B57
:1050B8001B685B6A9BB211FB03F39BB213449AB261
:1050C8001B4B5A801A4B5B889BB21846FDF7D6FDDE
:1050D800184B1B6800225A621EE0154B9B889AB237
:1050E800134B1B785BB299B2124B1B68DB6A013316
:1050F8009BB211FB03F39BB213449AB20C4B5A8038
:105108000B4B5B889BB21846FDF7B8FD04E0084BD3
:1051180005229A7108E000BF054B00229A71044BE2
:105128005B889AB2024B9A8080BD00BF800B00203A
:1051380048010020E80C002080B400AF0B4B9B799D
:10514800002B09D10A4B9B79002B05D1094B9B7980
:10515800002B01D1012300E0002303F00103DBB29F
:105168001846BD465DF8047B704700BF3801002033
:10517800400100204801002080B500AF00E000BFDA
:10518800FFF7DAFF034683F00103DBB2002BF6D109
:1051980000BF00BF80BD000080B485B000AF78605C
:1051A800084B1B687A681344FB6000BF054B1B68FB
:1051B800FA689A42FAD800BF00BF1437BD465DF8B6
:1051C800047B7047D80D002080B483B000AF03463D
:1051D8003960FB710C4B1A68FB790C4951F8233084
:1051E800D31A3A689A4207D8FB79074A12680749DE
:1051F80041F82320012300E0002318460C37BD4660
:105208005DF8047B704700BFD80D0020C80A002055
:1052180080B500AF01F0A2F900F01CF800F070FBB7
:1052280000F04EFB00F022FB00F0A6F900F060FA57
:1052380000F07AF800F0FAF800F046F900F0DAFA2F
:1052480000F0EAF900F01EFAFCF7B2FDFCF71AFECE
:10525800FCE7000080B594B000AF07F120033022CE
:105268000021184605F0BEFB07F10C0300221A6066
:105278005A609A60DA601A610023BB60284B1B6C85
:10528800274A43F080531364254B1B6C03F080536B
:10529800BB60BB6800237B60224B1B68214A43F438
:1052A800804313601F4B1B6803F480437B607B685B
:1052B80001233B624FF480337B620223BB634FF4CC
:1052C8008003FB6304233B64A8237B640223BB6441
:1052D8000423FB6407F12003184602F0D5FB0346BC
:1052E800002B01D000F04CFC0F23FB6002233B6134
:1052F80000237B614FF4A053BB614FF48053FB61E3
:1053080007F10C030521184602F036FE0346002B70
:1053180001D000F035FC00BF5037BD4680BD00BF4E
:10532800003802400070004080B592B000AF07F12D
:10533800400300221A605A6007F1240300221A6011
:105348005A609A60DA601A615A619A613B1D20229C
:105358000021184605F046FB324B334A1A60314BA0
:1053680053225A602F4B00229A602E4B6422DA6037
:105378002C4B00221A612B4B00225A61294B8022A8
:105388009A61284803F0D8F80346002B01D000F0B2
:10539800F7FB40233B6400237B6407F14003194675
:1053A800204804F003F80346002B01D000F0E8FB86
:1053B80060237B623223BB620223FB6200233B63D0
:1053C80000237B630023BB630023FB6307F12403F3
:1053D80000221946134803F027FB0346002B01D08F
:1053E80000F0CEFB00237B600023BB600023FB6042
:1053F80000233B6100237B614FF40053BB61002312
:105408003B623B1D1946074804F04CF80346002B45
:1054180001D000F0B5FB034800F0D2FC00BF4837CC
:10542800BD4680BDF00A00200000014080B588B06C
:1054380000AF07F10C0300221A605A609A60DA6024
:105448001A613B1D00221A605A601E4B4FF08042C1
:105458001A601C4B00225A601A4B00229A60194BA2
:105468004FF0FF32DA60174B00221A61154B002209
:105478009A61144802F0A0FF0346002B01D000F007
:105488007FFB0723FB6000233B6107F10C031946F0
:105498000C4803F08BFB0346002B01D000F070FB97
:1054A80000237B600023BB603B1D1946054803F0C1
:1054B8007DFF0346002B01D000F062FB00BF2037C0
:1054C800BD4680BD380B002080B58AB000AF07F11B
:1054D800200300221A605A603B1D00221A605A609D
:1054E8009A60DA601A615A619A61214B214A1A60FE
:1054F8001F4B29225A601E4B00229A601C4B6422C3
:10550800DA601B4B00221A61194B80229A611848F5
:1055180003F012F80346002B01D000F031FB6023A2
:105528003B6200237B6207F120031946104803F011
:105538003DFF0346002B01D000F022FB60237B6077
:105548003223BB600223FB6000237B613B1D0822E2
:105558001946074803F068FA0346002B01D000F00B
:105568000FFB034800F02CFC00BF2837BD4680BD68
:10557800800B00200004004080B588B000AF07F120
:105588000C0300221A605A609A60DA601A613B1DA7
:1055980000221A605A601E4B1E4A1A601C4B0022D9
:1055A8005A601B4B00229A60194B4FF0FF32DA60A9
:1055B800174B00221A61164B00229A61144802F018
:1055C800FBFE0346002B01D000F0DAFA0723FB604C
:1055D80030233B6107F10C0319460D4803F0E6FA46
:1055E8000346002B01D000F0CBFA00237B60002398
:1055F800BB603B1D1946064803F0D8FE0346002B46
:1056080001D000F0BDFA00BF2037BD4680BD00BF05
:10561800C80B0020000C004080B582B000AF3B46AC
:1056280000221A605A60154B154A1A60134B532210
:105638005A60124B00229A60104B42F21072DA60E4
:105648000E4B00229A610D4802F0B6FE0346002B6D
:1056580001D000F095FA00233B6000237B603B46B5
:105668001946064803F0A2FE0346002B01D000F0BD
:1056780087FA00BF0837BD4680BD00BF100C002068
:105688000010004080B582B000AF3B4600221A608F
:105698005A60154B154A1A60134B53225A60124B25
:1056A80000229A60104B4FF47A72DA600E4B002297
:1056B8009A610D4802F080FE0346002B01D000F0ED
:1056C8005FFA00233B6000237B603B46194606488F
:1056D80003F06CFE0346002B01D000F051FA00BF26
:1056E8000837BD4680BD00BF580C0020001400409C
:1056F80080B592B000AF07F1400300221A605A60EB
:1057080007F1240300221A605A609A60DA601A616D
:105718005A619A613B1D20220021184605F062F962
:10572800324B334A1A60314B53225A602F4B0022B6
:105738009A602E4B6422DA602C4B00221A612B4BA4
:1057480000225A61294B80229A61284802F0F4FE0F
:105758000346002B01D000F013FA40233B640023DA
:105768007B6407F140031946204803F01FFE0346F7
:10577800002B01D000F004FA60237B623223BB6265
:105788000223FB6200233B6300237B630023BB638C
:105798000023FB6307F1240300221946134803F092
:1057A80043F90346002B01D000F0EAF900237B609F
:1057B8000023BB600023FB6000233B6100237B6167
:1057C8004FF40053BB6100233B623B1D1946074859
:1057D80003F068FE0346002B01D000F0D1F903481E
:1057E80000F0EEFA00BF4837BD4680BDA00C00208F
:1057F8000004014080B586B000AF3B1D00221A604E
:105808005A609A60DA601A61164B174A1A60154B8B
:1058180000225A60134B00229A60124B4FF6FF7217
:10582800DA60104B00221A610E4B00229A610D4873
:1058380002F0C2FD0346002B01D000F0A1F90723B6
:105848007B601023BB603B1D1946064803F0AEF988
:105858000346002B01D000F093F900BF1837BD466E
:1058680080BD00BFE80C00200040014080B500AFBB
:10587800114B124A1A60104B4FF4E1325A600E4B2A
:1058880000229A600C4B0022DA600B4B00221A614E
:10589800094B0C225A61084B00229A61064B0022E0
:1058A800DA61054803F064FE0346002B01D000F0DE
:1058B80067F900BF80BD00BF300D002000440040E4
:1058C80080B582B000AF00237B600C4B1B6B0B4A8A
:1058D80043F400131363094B1B6B03F400137B6041
:1058E8007B6800220021102000F0A9FF102000F0A2
:1058F800C2FF00BF0837BD4680BD00BF0038024068
:1059080080B58CB000AF07F11C0300221A605A6002
:105918009A60DA601A610023BB61934B1B6B924A51
:1059280043F010031363904B1B6B03F01003BB6130
:10593800BB6900237B618C4B1B6B8B4A43F00403D0
:105948001363894B1B6B03F004037B617B690023A2
:105958003B61854B1B6B844A43F080031363824B86
:105968001B6B03F080033B613B690023FB607E4BAC
:105978001B6B7D4A43F0010313637B4B1B6B03F0E6
:105988000103FB60FB680023BB60774B1B6B764A07
:1059980043F008031363744B1B6B03F00803BB60ED
:1059A800BB6800237B60704B1B6B6F4A43F002039C
:1059B80013636D4B1B6B03F002037B607B68012252
:1059C80007216A4802F008F800227821674802F0A7
:1059D80003F800224FF40A51654801F0FDFF002248
:1059E8004FF40071634801F0F7FF0122F821624883
:1059F80001F0F2FF01224FF40271604801F0ECFF60
:105A080000224FF498715D4801F0E6FF7F23FB61A7
:105A180001233B6200237B620023BB6207F11C0366
:105A28001946524801F024FE4FF40A53FB61012342
:105A38003B6200237B620023BB6207F11C0319460B
:105A48004B4801F015FE3F23FB614FF488133B627E
:105A580000237B6207F11C031946454801F008FE44
:105A68004AF68073FB614FF488133B6200237B6224
:105A780007F11C0319463D4801F0FAFD4FF4805325
:105A8800FB614FF444133B6200237B6207F11C0364
:105A98001946364801F0ECFD4FF40073FB61012311
:105AA8003B6200237B620023BB6207F11C0319469B
:105AB800304801F0DDFDF823FB6101233B62002340
:105AC8007B620023BB6207F11C0319462A4801F0D8
